ARM GAS  C:\Users\TOM~1.MCK\AppData\Local\Temp\ccARJkPm.s 			page 1


   1              		.cpu cortex-m0
   2              		.fpu softvfp
   3              		.eabi_attribute 20, 1
   4              		.eabi_attribute 21, 1
   5              		.eabi_attribute 23, 3
   6              		.eabi_attribute 24, 1
   7              		.eabi_attribute 25, 1
   8              		.eabi_attribute 26, 1
   9              		.eabi_attribute 30, 1
  10              		.eabi_attribute 34, 0
  11              		.eabi_attribute 18, 4
  12              		.code	16
  13              		.file	"CyDMA.c"
  14              		.text
  15              	.Ltext0:
  16              		.cfi_sections	.debug_frame
  17              		.section	.text.CyDmaInterrupt,"ax",%progbits
  18              		.align	2
  19              		.global	CyDmaInterrupt
  20              		.code	16
  21              		.thumb_func
  22              		.type	CyDmaInterrupt, %function
  23              	CyDmaInterrupt:
  24              	.LFB16:
  25              		.file 1 ".\\Generated_Source\\PSoC4\\CyDMA.c"
   1:.\Generated_Source\PSoC4/CyDMA.c **** /*******************************************************************************
   2:.\Generated_Source\PSoC4/CyDMA.c **** * File Name: CyDMA.c
   3:.\Generated_Source\PSoC4/CyDMA.c **** * Version 1.10
   4:.\Generated_Source\PSoC4/CyDMA.c **** *
   5:.\Generated_Source\PSoC4/CyDMA.c **** * Description:
   6:.\Generated_Source\PSoC4/CyDMA.c **** *  This file contains all of the global DMA API functions.
   7:.\Generated_Source\PSoC4/CyDMA.c **** *
   8:.\Generated_Source\PSoC4/CyDMA.c **** ********************************************************************************
   9:.\Generated_Source\PSoC4/CyDMA.c **** * Copyright 2015, Cypress Semiconductor Corporation. All rights reserved.
  10:.\Generated_Source\PSoC4/CyDMA.c **** * You may use this file only in accordance with the license, terms, conditions,
  11:.\Generated_Source\PSoC4/CyDMA.c **** * disclaimers, and limitations in the end user license agreement accompanying
  12:.\Generated_Source\PSoC4/CyDMA.c **** * the software package with which this file was provided.
  13:.\Generated_Source\PSoC4/CyDMA.c **** *******************************************************************************/
  14:.\Generated_Source\PSoC4/CyDMA.c **** 
  15:.\Generated_Source\PSoC4/CyDMA.c **** #include "CyDMA.h"
  16:.\Generated_Source\PSoC4/CyDMA.c **** #include "CyLib.h"
  17:.\Generated_Source\PSoC4/CyDMA.c **** 
  18:.\Generated_Source\PSoC4/CyDMA.c **** /* Default callback function. It is invoked if the user callback function is
  19:.\Generated_Source\PSoC4/CyDMA.c **** * undefined.
  20:.\Generated_Source\PSoC4/CyDMA.c **** */
  21:.\Generated_Source\PSoC4/CyDMA.c **** static void CyDmaDefaultInterruptCallback(void);
  22:.\Generated_Source\PSoC4/CyDMA.c **** 
  23:.\Generated_Source\PSoC4/CyDMA.c **** /* Array of pointers to user defined callback functions to be called
  24:.\Generated_Source\PSoC4/CyDMA.c **** * from DMA interrupt.
  25:.\Generated_Source\PSoC4/CyDMA.c **** */
  26:.\Generated_Source\PSoC4/CyDMA.c **** static cydma_callback_t CyDmaInterruptCallback[CYDMA_CH_NR] = {
  27:.\Generated_Source\PSoC4/CyDMA.c ****     &CyDmaDefaultInterruptCallback, &CyDmaDefaultInterruptCallback,
  28:.\Generated_Source\PSoC4/CyDMA.c ****     &CyDmaDefaultInterruptCallback, &CyDmaDefaultInterruptCallback,
  29:.\Generated_Source\PSoC4/CyDMA.c ****     &CyDmaDefaultInterruptCallback, &CyDmaDefaultInterruptCallback,
  30:.\Generated_Source\PSoC4/CyDMA.c ****     &CyDmaDefaultInterruptCallback, &CyDmaDefaultInterruptCallback
  31:.\Generated_Source\PSoC4/CyDMA.c **** };
  32:.\Generated_Source\PSoC4/CyDMA.c **** 
ARM GAS  C:\Users\TOM~1.MCK\AppData\Local\Temp\ccARJkPm.s 			page 2


  33:.\Generated_Source\PSoC4/CyDMA.c **** /* The live status of all DMA channels usage. Bit i is associated to channel i,
  34:.\Generated_Source\PSoC4/CyDMA.c **** * with i = 0..CYDMA_CH_NR-1. '0' - channel is free. '1' - channel is in use.
  35:.\Generated_Source\PSoC4/CyDMA.c **** * All the channels allocated for DMA instances placed on a schematic are in use
  36:.\Generated_Source\PSoC4/CyDMA.c **** * by default and cannot be freed. 
  37:.\Generated_Source\PSoC4/CyDMA.c **** * DMA_CHANNELS_USED__MASK is generated during the build time and is a bit field
  38:.\Generated_Source\PSoC4/CyDMA.c **** * corresponding to the DMA channels placed on a design schematic.
  39:.\Generated_Source\PSoC4/CyDMA.c **** */
  40:.\Generated_Source\PSoC4/CyDMA.c **** static uint32 CyDmaChannelUsedMask = DMA_CHANNELS_USED__MASK;
  41:.\Generated_Source\PSoC4/CyDMA.c **** 
  42:.\Generated_Source\PSoC4/CyDMA.c **** 
  43:.\Generated_Source\PSoC4/CyDMA.c **** /*******************************************************************************
  44:.\Generated_Source\PSoC4/CyDMA.c **** * Function Name: CyDmaEnable
  45:.\Generated_Source\PSoC4/CyDMA.c **** ********************************************************************************
  46:.\Generated_Source\PSoC4/CyDMA.c **** *
  47:.\Generated_Source\PSoC4/CyDMA.c **** * Summary:
  48:.\Generated_Source\PSoC4/CyDMA.c **** *  Sets the default ISR to be called by the DMA interrupt and enables the DMA
  49:.\Generated_Source\PSoC4/CyDMA.c **** *  transfer engine.
  50:.\Generated_Source\PSoC4/CyDMA.c **** *
  51:.\Generated_Source\PSoC4/CyDMA.c **** * Parameters:
  52:.\Generated_Source\PSoC4/CyDMA.c **** *  None.
  53:.\Generated_Source\PSoC4/CyDMA.c **** *                   
  54:.\Generated_Source\PSoC4/CyDMA.c **** * Return:
  55:.\Generated_Source\PSoC4/CyDMA.c **** *  None.
  56:.\Generated_Source\PSoC4/CyDMA.c **** *
  57:.\Generated_Source\PSoC4/CyDMA.c **** * Side effect:
  58:.\Generated_Source\PSoC4/CyDMA.c **** *  Does not affect the channel enable status. Overrides the interrupt vector
  59:.\Generated_Source\PSoC4/CyDMA.c **** *  set prior the first time CyDmaEnable() is called.
  60:.\Generated_Source\PSoC4/CyDMA.c **** *
  61:.\Generated_Source\PSoC4/CyDMA.c **** *******************************************************************************/
  62:.\Generated_Source\PSoC4/CyDMA.c **** void CyDmaEnable(void)
  63:.\Generated_Source\PSoC4/CyDMA.c **** {
  64:.\Generated_Source\PSoC4/CyDMA.c ****     static uint8 initIntrVector = 0u;
  65:.\Generated_Source\PSoC4/CyDMA.c **** 
  66:.\Generated_Source\PSoC4/CyDMA.c ****     if(0u == initIntrVector)
  67:.\Generated_Source\PSoC4/CyDMA.c ****     {
  68:.\Generated_Source\PSoC4/CyDMA.c ****         CyDmaSetInterruptVector(&CyDmaInterrupt);
  69:.\Generated_Source\PSoC4/CyDMA.c ****         CyIntSetPriority(CYDMA_INTR_NUMBER, CYDMA_INTR_PRIO);
  70:.\Generated_Source\PSoC4/CyDMA.c ****         initIntrVector = 1u;
  71:.\Generated_Source\PSoC4/CyDMA.c ****     }
  72:.\Generated_Source\PSoC4/CyDMA.c ****     CYDMA_CTL_REG = CYDMA_ENABLED;
  73:.\Generated_Source\PSoC4/CyDMA.c **** }
  74:.\Generated_Source\PSoC4/CyDMA.c **** 
  75:.\Generated_Source\PSoC4/CyDMA.c **** 
  76:.\Generated_Source\PSoC4/CyDMA.c **** /*******************************************************************************
  77:.\Generated_Source\PSoC4/CyDMA.c **** * Function Name: CyDmaDisable
  78:.\Generated_Source\PSoC4/CyDMA.c **** ********************************************************************************
  79:.\Generated_Source\PSoC4/CyDMA.c **** *
  80:.\Generated_Source\PSoC4/CyDMA.c **** * Summary:
  81:.\Generated_Source\PSoC4/CyDMA.c **** *  Disables the DMA transfer engine.
  82:.\Generated_Source\PSoC4/CyDMA.c **** *
  83:.\Generated_Source\PSoC4/CyDMA.c **** * Parameters:
  84:.\Generated_Source\PSoC4/CyDMA.c **** *  None.
  85:.\Generated_Source\PSoC4/CyDMA.c **** *                   
  86:.\Generated_Source\PSoC4/CyDMA.c **** * Return:
  87:.\Generated_Source\PSoC4/CyDMA.c **** *  None.
  88:.\Generated_Source\PSoC4/CyDMA.c **** *
  89:.\Generated_Source\PSoC4/CyDMA.c **** * Side effect:
ARM GAS  C:\Users\TOM~1.MCK\AppData\Local\Temp\ccARJkPm.s 			page 3


  90:.\Generated_Source\PSoC4/CyDMA.c **** *  Does not affect the channel enable status.
  91:.\Generated_Source\PSoC4/CyDMA.c **** *
  92:.\Generated_Source\PSoC4/CyDMA.c **** *******************************************************************************/
  93:.\Generated_Source\PSoC4/CyDMA.c **** void CyDmaDisable(void)
  94:.\Generated_Source\PSoC4/CyDMA.c **** {
  95:.\Generated_Source\PSoC4/CyDMA.c ****     CYDMA_CTL_REG = (uint32)~CYDMA_ENABLED;
  96:.\Generated_Source\PSoC4/CyDMA.c **** }
  97:.\Generated_Source\PSoC4/CyDMA.c **** 
  98:.\Generated_Source\PSoC4/CyDMA.c **** 
  99:.\Generated_Source\PSoC4/CyDMA.c **** /*******************************************************************************
 100:.\Generated_Source\PSoC4/CyDMA.c **** * Function Name: CyDmaGetStatus
 101:.\Generated_Source\PSoC4/CyDMA.c **** ********************************************************************************
 102:.\Generated_Source\PSoC4/CyDMA.c **** *
 103:.\Generated_Source\PSoC4/CyDMA.c **** * Summary:
 104:.\Generated_Source\PSoC4/CyDMA.c **** *  Returns the status of the DMA transfer engine.
 105:.\Generated_Source\PSoC4/CyDMA.c **** *
 106:.\Generated_Source\PSoC4/CyDMA.c **** * Parameters:
 107:.\Generated_Source\PSoC4/CyDMA.c **** *  None.
 108:.\Generated_Source\PSoC4/CyDMA.c **** *                   
 109:.\Generated_Source\PSoC4/CyDMA.c **** * Return:
 110:.\Generated_Source\PSoC4/CyDMA.c **** *  The contents of the DMA status register. Refer to the status register bit
 111:.\Generated_Source\PSoC4/CyDMA.c **** *  definitions in CyDMA_P4.h or the API description in the DMA channel
 112:.\Generated_Source\PSoC4/CyDMA.c **** *  datasheet.
 113:.\Generated_Source\PSoC4/CyDMA.c **** *
 114:.\Generated_Source\PSoC4/CyDMA.c **** * Side effect:
 115:.\Generated_Source\PSoC4/CyDMA.c **** *  The series of function calls CyDmaGetActiveSrcAddress(),
 116:.\Generated_Source\PSoC4/CyDMA.c **** *  CyDmaGetActiveDstAddress(), CyDmaGetStatus() are not atomic, the DMA
 117:.\Generated_Source\PSoC4/CyDMA.c **** *  engine may have advanced after one or more of these function calls. Meaning
 118:.\Generated_Source\PSoC4/CyDMA.c **** *  the returns from these three functions may not be related to each other.
 119:.\Generated_Source\PSoC4/CyDMA.c **** *
 120:.\Generated_Source\PSoC4/CyDMA.c **** *******************************************************************************/
 121:.\Generated_Source\PSoC4/CyDMA.c **** uint32 CyDmaGetStatus(void)
 122:.\Generated_Source\PSoC4/CyDMA.c **** {
 123:.\Generated_Source\PSoC4/CyDMA.c ****     return (CYDMA_STATUS_REG);
 124:.\Generated_Source\PSoC4/CyDMA.c **** }
 125:.\Generated_Source\PSoC4/CyDMA.c **** 
 126:.\Generated_Source\PSoC4/CyDMA.c **** 
 127:.\Generated_Source\PSoC4/CyDMA.c **** /*******************************************************************************
 128:.\Generated_Source\PSoC4/CyDMA.c **** * Function Name: CyDmaGetActiveChannels
 129:.\Generated_Source\PSoC4/CyDMA.c **** ********************************************************************************
 130:.\Generated_Source\PSoC4/CyDMA.c **** *
 131:.\Generated_Source\PSoC4/CyDMA.c **** * Summary:
 132:.\Generated_Source\PSoC4/CyDMA.c **** *  Returns a bit field of all the DMA channels that are either active or
 133:.\Generated_Source\PSoC4/CyDMA.c **** *  pending.
 134:.\Generated_Source\PSoC4/CyDMA.c **** *
 135:.\Generated_Source\PSoC4/CyDMA.c **** * Parameters:
 136:.\Generated_Source\PSoC4/CyDMA.c **** *  None.
 137:.\Generated_Source\PSoC4/CyDMA.c **** *                   
 138:.\Generated_Source\PSoC4/CyDMA.c **** * Return:
 139:.\Generated_Source\PSoC4/CyDMA.c **** *  Bit field of active and pending channels. 
 140:.\Generated_Source\PSoC4/CyDMA.c **** *
 141:.\Generated_Source\PSoC4/CyDMA.c **** *******************************************************************************/
 142:.\Generated_Source\PSoC4/CyDMA.c **** uint32 CyDmaGetActiveChannels(void)
 143:.\Generated_Source\PSoC4/CyDMA.c **** {
 144:.\Generated_Source\PSoC4/CyDMA.c ****     return (CYDMA_STATUS_CH_ACT_REG);
 145:.\Generated_Source\PSoC4/CyDMA.c **** }
 146:.\Generated_Source\PSoC4/CyDMA.c **** 
ARM GAS  C:\Users\TOM~1.MCK\AppData\Local\Temp\ccARJkPm.s 			page 4


 147:.\Generated_Source\PSoC4/CyDMA.c **** 
 148:.\Generated_Source\PSoC4/CyDMA.c **** /*******************************************************************************
 149:.\Generated_Source\PSoC4/CyDMA.c **** * Function Name: CyDmaGetActiveSrcAddress
 150:.\Generated_Source\PSoC4/CyDMA.c **** ********************************************************************************
 151:.\Generated_Source\PSoC4/CyDMA.c **** *
 152:.\Generated_Source\PSoC4/CyDMA.c **** * Summary:
 153:.\Generated_Source\PSoC4/CyDMA.c **** *  Returns the source address currently being used by the DMA transfer engine.
 154:.\Generated_Source\PSoC4/CyDMA.c **** *  This function can be used to debug the DMA, or observe where it is at in a
 155:.\Generated_Source\PSoC4/CyDMA.c **** *  transfer. It will not be used in normal DMA operation.
 156:.\Generated_Source\PSoC4/CyDMA.c **** *
 157:.\Generated_Source\PSoC4/CyDMA.c **** * Parameters:
 158:.\Generated_Source\PSoC4/CyDMA.c **** *  None.
 159:.\Generated_Source\PSoC4/CyDMA.c **** *                   
 160:.\Generated_Source\PSoC4/CyDMA.c **** * Return:
 161:.\Generated_Source\PSoC4/CyDMA.c **** *  Source address currently being used by the DMA transfer engine.
 162:.\Generated_Source\PSoC4/CyDMA.c **** *
 163:.\Generated_Source\PSoC4/CyDMA.c **** * Side effect:
 164:.\Generated_Source\PSoC4/CyDMA.c **** *  The series of function calls CyDmaGetActiveSrcAddress(),
 165:.\Generated_Source\PSoC4/CyDMA.c **** *  CyDmaGetActiveDstAddress(), CyDmaGetStatus() are not atomic, the DMA
 166:.\Generated_Source\PSoC4/CyDMA.c **** *  engine may have advanced after one or more of these function calls. Meaning
 167:.\Generated_Source\PSoC4/CyDMA.c **** *  the returns from these three functions may not be related to each other.
 168:.\Generated_Source\PSoC4/CyDMA.c **** *
 169:.\Generated_Source\PSoC4/CyDMA.c **** *******************************************************************************/
 170:.\Generated_Source\PSoC4/CyDMA.c **** void * CyDmaGetActiveSrcAddress(void)
 171:.\Generated_Source\PSoC4/CyDMA.c **** {
 172:.\Generated_Source\PSoC4/CyDMA.c ****     return ((void *)CYDMA_STATUS_SRC_ADDR_REG);
 173:.\Generated_Source\PSoC4/CyDMA.c **** }
 174:.\Generated_Source\PSoC4/CyDMA.c **** 
 175:.\Generated_Source\PSoC4/CyDMA.c **** 
 176:.\Generated_Source\PSoC4/CyDMA.c **** /*******************************************************************************
 177:.\Generated_Source\PSoC4/CyDMA.c **** * Function Name: CyDmaGetActiveDstAddress
 178:.\Generated_Source\PSoC4/CyDMA.c **** ********************************************************************************
 179:.\Generated_Source\PSoC4/CyDMA.c **** *
 180:.\Generated_Source\PSoC4/CyDMA.c **** * Summary:
 181:.\Generated_Source\PSoC4/CyDMA.c **** *  Returns the destination address currently being used by the DMA transfer
 182:.\Generated_Source\PSoC4/CyDMA.c **** *  engine. This function can be used to debug the DMA, or observe where it is at
 183:.\Generated_Source\PSoC4/CyDMA.c **** *  in a transfer. It will not be used in normal DMA operation.
 184:.\Generated_Source\PSoC4/CyDMA.c **** *
 185:.\Generated_Source\PSoC4/CyDMA.c **** * Parameters:
 186:.\Generated_Source\PSoC4/CyDMA.c **** *  None.
 187:.\Generated_Source\PSoC4/CyDMA.c **** *                   
 188:.\Generated_Source\PSoC4/CyDMA.c **** * Return:
 189:.\Generated_Source\PSoC4/CyDMA.c **** *  Destination address currently being used by the DMA transfer engine.
 190:.\Generated_Source\PSoC4/CyDMA.c **** *
 191:.\Generated_Source\PSoC4/CyDMA.c **** * Side effect:
 192:.\Generated_Source\PSoC4/CyDMA.c **** *  The series of function calls CyDmaGetActiveSrcAddress(),
 193:.\Generated_Source\PSoC4/CyDMA.c **** *  CyDmaGetActiveDstAddress(), CyDmaGetStatus() are not atomic, the DMA
 194:.\Generated_Source\PSoC4/CyDMA.c **** *  engine may have advanced after one or more of these function calls. Meaning
 195:.\Generated_Source\PSoC4/CyDMA.c **** *  the returns from these three functions may not be related to each other.
 196:.\Generated_Source\PSoC4/CyDMA.c **** *
 197:.\Generated_Source\PSoC4/CyDMA.c **** *******************************************************************************/
 198:.\Generated_Source\PSoC4/CyDMA.c **** void * CyDmaGetActiveDstAddress(void)
 199:.\Generated_Source\PSoC4/CyDMA.c **** {
 200:.\Generated_Source\PSoC4/CyDMA.c ****     return ((void *)CYDMA_STATUS_DST_ADDR_REG);
 201:.\Generated_Source\PSoC4/CyDMA.c **** }
 202:.\Generated_Source\PSoC4/CyDMA.c **** 
 203:.\Generated_Source\PSoC4/CyDMA.c **** 
ARM GAS  C:\Users\TOM~1.MCK\AppData\Local\Temp\ccARJkPm.s 			page 5


 204:.\Generated_Source\PSoC4/CyDMA.c **** /*******************************************************************************
 205:.\Generated_Source\PSoC4/CyDMA.c **** * Function Name: CyDmaSetInterruptVector
 206:.\Generated_Source\PSoC4/CyDMA.c **** ********************************************************************************
 207:.\Generated_Source\PSoC4/CyDMA.c **** *
 208:.\Generated_Source\PSoC4/CyDMA.c **** * Summary:
 209:.\Generated_Source\PSoC4/CyDMA.c **** *  Sets the function that will be called by the DMA interrupt. Note, calling
 210:.\Generated_Source\PSoC4/CyDMA.c **** *  CyDmaEnable() for the first time overrides any effect this API could have.
 211:.\Generated_Source\PSoC4/CyDMA.c **** *  Call CyDmaSetInterruptVector() after calling CyDmaEnable() to change
 212:.\Generated_Source\PSoC4/CyDMA.c **** *  the default ISR.
 213:.\Generated_Source\PSoC4/CyDMA.c **** *
 214:.\Generated_Source\PSoC4/CyDMA.c **** * Parameters:
 215:.\Generated_Source\PSoC4/CyDMA.c **** *  interruptVector: Address of the function that will be called by the DMA
 216:.\Generated_Source\PSoC4/CyDMA.c **** *                   interrupt.
 217:.\Generated_Source\PSoC4/CyDMA.c **** * Return:
 218:.\Generated_Source\PSoC4/CyDMA.c **** *  None.
 219:.\Generated_Source\PSoC4/CyDMA.c **** *
 220:.\Generated_Source\PSoC4/CyDMA.c **** * Side effect:
 221:.\Generated_Source\PSoC4/CyDMA.c **** *  Other components that use DMA may register their callback functions to be
 222:.\Generated_Source\PSoC4/CyDMA.c **** *  called from the default DMA ISR. Therefore, changing the DMA ISR to a user
 223:.\Generated_Source\PSoC4/CyDMA.c **** *  defined ISR using this API may prevent these other components from
 224:.\Generated_Source\PSoC4/CyDMA.c **** *  functioning correctly.
 225:.\Generated_Source\PSoC4/CyDMA.c **** *
 226:.\Generated_Source\PSoC4/CyDMA.c **** *******************************************************************************/
 227:.\Generated_Source\PSoC4/CyDMA.c **** void CyDmaSetInterruptVector(cyisraddress interruptVector)
 228:.\Generated_Source\PSoC4/CyDMA.c **** {
 229:.\Generated_Source\PSoC4/CyDMA.c ****     (void)CyIntSetVector(CYDMA_INTR_NUMBER, interruptVector);
 230:.\Generated_Source\PSoC4/CyDMA.c **** }
 231:.\Generated_Source\PSoC4/CyDMA.c **** 
 232:.\Generated_Source\PSoC4/CyDMA.c **** 
 233:.\Generated_Source\PSoC4/CyDMA.c **** /*******************************************************************************
 234:.\Generated_Source\PSoC4/CyDMA.c **** * Function Name: CyDmaGetInterruptSource
 235:.\Generated_Source\PSoC4/CyDMA.c **** ********************************************************************************
 236:.\Generated_Source\PSoC4/CyDMA.c **** *
 237:.\Generated_Source\PSoC4/CyDMA.c **** * Summary:
 238:.\Generated_Source\PSoC4/CyDMA.c **** *  Returns the bit field of which channels generated an interrupt request.
 239:.\Generated_Source\PSoC4/CyDMA.c **** *
 240:.\Generated_Source\PSoC4/CyDMA.c **** * Parameters:
 241:.\Generated_Source\PSoC4/CyDMA.c **** *  None.
 242:.\Generated_Source\PSoC4/CyDMA.c **** *                   
 243:.\Generated_Source\PSoC4/CyDMA.c **** * Return:
 244:.\Generated_Source\PSoC4/CyDMA.c **** *  Bit filed of which channels generated an interrupt request.
 245:.\Generated_Source\PSoC4/CyDMA.c **** *
 246:.\Generated_Source\PSoC4/CyDMA.c **** *******************************************************************************/
 247:.\Generated_Source\PSoC4/CyDMA.c **** uint32 CyDmaGetInterruptSource(void)
 248:.\Generated_Source\PSoC4/CyDMA.c **** {
 249:.\Generated_Source\PSoC4/CyDMA.c ****     return (CYDMA_INTR_REG);
 250:.\Generated_Source\PSoC4/CyDMA.c **** }
 251:.\Generated_Source\PSoC4/CyDMA.c **** 
 252:.\Generated_Source\PSoC4/CyDMA.c **** 
 253:.\Generated_Source\PSoC4/CyDMA.c **** /*******************************************************************************
 254:.\Generated_Source\PSoC4/CyDMA.c **** * Function Name: CyDmaClearInterruptSource
 255:.\Generated_Source\PSoC4/CyDMA.c **** ********************************************************************************
 256:.\Generated_Source\PSoC4/CyDMA.c **** *
 257:.\Generated_Source\PSoC4/CyDMA.c **** * Summary:
 258:.\Generated_Source\PSoC4/CyDMA.c **** *  Clears the pending interrupts.
 259:.\Generated_Source\PSoC4/CyDMA.c **** *
 260:.\Generated_Source\PSoC4/CyDMA.c **** * Parameters:
ARM GAS  C:\Users\TOM~1.MCK\AppData\Local\Temp\ccARJkPm.s 			page 6


 261:.\Generated_Source\PSoC4/CyDMA.c **** *  interruptMask: Bit field of interrupts to clear.
 262:.\Generated_Source\PSoC4/CyDMA.c **** *                   
 263:.\Generated_Source\PSoC4/CyDMA.c **** * Return:
 264:.\Generated_Source\PSoC4/CyDMA.c **** *  None.
 265:.\Generated_Source\PSoC4/CyDMA.c **** *
 266:.\Generated_Source\PSoC4/CyDMA.c **** *******************************************************************************/
 267:.\Generated_Source\PSoC4/CyDMA.c **** void CyDmaClearInterruptSource(uint32 interruptMask)
 268:.\Generated_Source\PSoC4/CyDMA.c **** {
 269:.\Generated_Source\PSoC4/CyDMA.c ****     CYDMA_INTR_REG = interruptMask;
 270:.\Generated_Source\PSoC4/CyDMA.c **** }
 271:.\Generated_Source\PSoC4/CyDMA.c **** 
 272:.\Generated_Source\PSoC4/CyDMA.c **** 
 273:.\Generated_Source\PSoC4/CyDMA.c **** /*******************************************************************************
 274:.\Generated_Source\PSoC4/CyDMA.c **** * Function Name: CyDmaSetInterruptSourceMask
 275:.\Generated_Source\PSoC4/CyDMA.c **** ********************************************************************************
 276:.\Generated_Source\PSoC4/CyDMA.c **** *
 277:.\Generated_Source\PSoC4/CyDMA.c **** * Summary:
 278:.\Generated_Source\PSoC4/CyDMA.c **** *  Sets mask for interrupt source.
 279:.\Generated_Source\PSoC4/CyDMA.c **** *
 280:.\Generated_Source\PSoC4/CyDMA.c **** * Parameters:
 281:.\Generated_Source\PSoC4/CyDMA.c **** *  interruptmask: Mask corresponding to interrupt bit field.
 282:.\Generated_Source\PSoC4/CyDMA.c **** *                   
 283:.\Generated_Source\PSoC4/CyDMA.c **** * Return:
 284:.\Generated_Source\PSoC4/CyDMA.c **** *  None.
 285:.\Generated_Source\PSoC4/CyDMA.c **** *
 286:.\Generated_Source\PSoC4/CyDMA.c **** *******************************************************************************/
 287:.\Generated_Source\PSoC4/CyDMA.c **** void CyDmaSetInterruptSourceMask(uint32 interruptMask)
 288:.\Generated_Source\PSoC4/CyDMA.c **** {
 289:.\Generated_Source\PSoC4/CyDMA.c ****     CYDMA_INTR_MASK_REG = interruptMask;
 290:.\Generated_Source\PSoC4/CyDMA.c **** }
 291:.\Generated_Source\PSoC4/CyDMA.c **** 
 292:.\Generated_Source\PSoC4/CyDMA.c **** 
 293:.\Generated_Source\PSoC4/CyDMA.c **** /*******************************************************************************
 294:.\Generated_Source\PSoC4/CyDMA.c **** * Function Name: CyDmaGetInterruptSourceMask
 295:.\Generated_Source\PSoC4/CyDMA.c **** ********************************************************************************
 296:.\Generated_Source\PSoC4/CyDMA.c **** *
 297:.\Generated_Source\PSoC4/CyDMA.c **** * Summary:
 298:.\Generated_Source\PSoC4/CyDMA.c **** *  Returns mask for interrupt source.
 299:.\Generated_Source\PSoC4/CyDMA.c **** *
 300:.\Generated_Source\PSoC4/CyDMA.c **** * Parameters:
 301:.\Generated_Source\PSoC4/CyDMA.c **** *  None.
 302:.\Generated_Source\PSoC4/CyDMA.c **** *                   
 303:.\Generated_Source\PSoC4/CyDMA.c **** * Return:
 304:.\Generated_Source\PSoC4/CyDMA.c **** *  Mask corresponding to interrupt bit field.
 305:.\Generated_Source\PSoC4/CyDMA.c **** *
 306:.\Generated_Source\PSoC4/CyDMA.c **** *******************************************************************************/
 307:.\Generated_Source\PSoC4/CyDMA.c **** uint32 CyDmaGetInterruptSourceMask(void)
 308:.\Generated_Source\PSoC4/CyDMA.c **** {
 309:.\Generated_Source\PSoC4/CyDMA.c ****     return (CYDMA_INTR_MASK_REG);
 310:.\Generated_Source\PSoC4/CyDMA.c **** }
 311:.\Generated_Source\PSoC4/CyDMA.c **** 
 312:.\Generated_Source\PSoC4/CyDMA.c **** 
 313:.\Generated_Source\PSoC4/CyDMA.c **** /*******************************************************************************
 314:.\Generated_Source\PSoC4/CyDMA.c **** * Function Name: CyDmaGetInterruptSourceMasked
 315:.\Generated_Source\PSoC4/CyDMA.c **** ********************************************************************************
 316:.\Generated_Source\PSoC4/CyDMA.c **** *
 317:.\Generated_Source\PSoC4/CyDMA.c **** * Summary:
ARM GAS  C:\Users\TOM~1.MCK\AppData\Local\Temp\ccARJkPm.s 			page 7


 318:.\Generated_Source\PSoC4/CyDMA.c **** *  Returns the bitwise AND of the interrupt source and the interrupt mask.
 319:.\Generated_Source\PSoC4/CyDMA.c **** *
 320:.\Generated_Source\PSoC4/CyDMA.c **** * Parameters:
 321:.\Generated_Source\PSoC4/CyDMA.c **** *  None.
 322:.\Generated_Source\PSoC4/CyDMA.c **** *                   
 323:.\Generated_Source\PSoC4/CyDMA.c **** * Return:
 324:.\Generated_Source\PSoC4/CyDMA.c **** *  Bitwise AND of the interrupt source and the interrupt mask.
 325:.\Generated_Source\PSoC4/CyDMA.c **** *
 326:.\Generated_Source\PSoC4/CyDMA.c **** *******************************************************************************/
 327:.\Generated_Source\PSoC4/CyDMA.c **** uint32 CyDmaGetInterruptSourceMasked(void)
 328:.\Generated_Source\PSoC4/CyDMA.c **** {
 329:.\Generated_Source\PSoC4/CyDMA.c ****     return (CYDMA_INTR_MASKED_REG);
 330:.\Generated_Source\PSoC4/CyDMA.c **** }
 331:.\Generated_Source\PSoC4/CyDMA.c **** 
 332:.\Generated_Source\PSoC4/CyDMA.c **** 
 333:.\Generated_Source\PSoC4/CyDMA.c **** /*******************************************************************************
 334:.\Generated_Source\PSoC4/CyDMA.c **** * Function Name: CyDmaSetInterruptCallback
 335:.\Generated_Source\PSoC4/CyDMA.c **** ********************************************************************************
 336:.\Generated_Source\PSoC4/CyDMA.c **** *
 337:.\Generated_Source\PSoC4/CyDMA.c **** * Summary:
 338:.\Generated_Source\PSoC4/CyDMA.c **** *  Sets a user defined callback function to be called by the DMA interrupt. The
 339:.\Generated_Source\PSoC4/CyDMA.c **** *  function should contain code to process the interrupt request for the 
 340:.\Generated_Source\PSoC4/CyDMA.c **** *  associated DMA channel.
 341:.\Generated_Source\PSoC4/CyDMA.c **** *
 342:.\Generated_Source\PSoC4/CyDMA.c **** * Parameters:
 343:.\Generated_Source\PSoC4/CyDMA.c **** *  channel:  Channel used by this function.
 344:.\Generated_Source\PSoC4/CyDMA.c **** *  callback: Pointer to the user defined callback function.
 345:.\Generated_Source\PSoC4/CyDMA.c **** *
 346:.\Generated_Source\PSoC4/CyDMA.c **** * Return:
 347:.\Generated_Source\PSoC4/CyDMA.c **** *  Pointer to the function previously set for the specified channel. 
 348:.\Generated_Source\PSoC4/CyDMA.c **** *
 349:.\Generated_Source\PSoC4/CyDMA.c **** *******************************************************************************/
 350:.\Generated_Source\PSoC4/CyDMA.c **** cydma_callback_t CyDmaSetInterruptCallback(int32 channel, cydma_callback_t callback)
 351:.\Generated_Source\PSoC4/CyDMA.c **** {
 352:.\Generated_Source\PSoC4/CyDMA.c ****     cydma_callback_t prevCallback;
 353:.\Generated_Source\PSoC4/CyDMA.c **** 
 354:.\Generated_Source\PSoC4/CyDMA.c ****     CYASSERT((channel >= 0) && (channel < CYDMA_CH_NR));
 355:.\Generated_Source\PSoC4/CyDMA.c **** 
 356:.\Generated_Source\PSoC4/CyDMA.c ****     prevCallback = CyDmaInterruptCallback[channel];
 357:.\Generated_Source\PSoC4/CyDMA.c ****     CyDmaInterruptCallback[channel] = callback;
 358:.\Generated_Source\PSoC4/CyDMA.c ****     return (prevCallback);
 359:.\Generated_Source\PSoC4/CyDMA.c **** }
 360:.\Generated_Source\PSoC4/CyDMA.c **** 
 361:.\Generated_Source\PSoC4/CyDMA.c **** 
 362:.\Generated_Source\PSoC4/CyDMA.c **** /*******************************************************************************
 363:.\Generated_Source\PSoC4/CyDMA.c **** * Function Name: CyDmaGetInterruptCallback
 364:.\Generated_Source\PSoC4/CyDMA.c **** ********************************************************************************
 365:.\Generated_Source\PSoC4/CyDMA.c **** *
 366:.\Generated_Source\PSoC4/CyDMA.c **** * Summary:
 367:.\Generated_Source\PSoC4/CyDMA.c **** *  Returns the pointer to the interrupt callback function for the specified DMA
 368:.\Generated_Source\PSoC4/CyDMA.c **** *  channel.
 369:.\Generated_Source\PSoC4/CyDMA.c **** *
 370:.\Generated_Source\PSoC4/CyDMA.c **** * Parameters:
 371:.\Generated_Source\PSoC4/CyDMA.c **** *  channel: Channel used by this function.
 372:.\Generated_Source\PSoC4/CyDMA.c **** *
 373:.\Generated_Source\PSoC4/CyDMA.c **** * Return:
 374:.\Generated_Source\PSoC4/CyDMA.c **** *  Callback function pointer for the specified channel.
ARM GAS  C:\Users\TOM~1.MCK\AppData\Local\Temp\ccARJkPm.s 			page 8


 375:.\Generated_Source\PSoC4/CyDMA.c **** *
 376:.\Generated_Source\PSoC4/CyDMA.c **** *******************************************************************************/
 377:.\Generated_Source\PSoC4/CyDMA.c **** cydma_callback_t CyDmaGetInterruptCallback(int32 channel)
 378:.\Generated_Source\PSoC4/CyDMA.c **** {
 379:.\Generated_Source\PSoC4/CyDMA.c ****     CYASSERT((channel >= 0) && (channel < CYDMA_CH_NR));
 380:.\Generated_Source\PSoC4/CyDMA.c ****     
 381:.\Generated_Source\PSoC4/CyDMA.c ****     return (CyDmaInterruptCallback[channel]);
 382:.\Generated_Source\PSoC4/CyDMA.c **** }
 383:.\Generated_Source\PSoC4/CyDMA.c **** 
 384:.\Generated_Source\PSoC4/CyDMA.c **** 
 385:.\Generated_Source\PSoC4/CyDMA.c **** /*******************************************************************************
 386:.\Generated_Source\PSoC4/CyDMA.c **** * Function Name: CyDmaInterrupt
 387:.\Generated_Source\PSoC4/CyDMA.c **** ********************************************************************************
 388:.\Generated_Source\PSoC4/CyDMA.c **** *
 389:.\Generated_Source\PSoC4/CyDMA.c **** * Summary:
 390:.\Generated_Source\PSoC4/CyDMA.c **** *  The default ISR for DMA interrupts. The handler checks which DMA channel has
 391:.\Generated_Source\PSoC4/CyDMA.c **** *  triggered the interrupt and calls the user defined callback function.
 392:.\Generated_Source\PSoC4/CyDMA.c **** *  The callback function is set using CyDmaSetInteruptCallback() API.
 393:.\Generated_Source\PSoC4/CyDMA.c **** *
 394:.\Generated_Source\PSoC4/CyDMA.c **** * Parameters:
 395:.\Generated_Source\PSoC4/CyDMA.c **** *  None.
 396:.\Generated_Source\PSoC4/CyDMA.c **** *
 397:.\Generated_Source\PSoC4/CyDMA.c **** * Return:
 398:.\Generated_Source\PSoC4/CyDMA.c **** *  None.
 399:.\Generated_Source\PSoC4/CyDMA.c **** *
 400:.\Generated_Source\PSoC4/CyDMA.c **** * Side Effects:
 401:.\Generated_Source\PSoC4/CyDMA.c **** *  This function clears the pending interrupts.
 402:.\Generated_Source\PSoC4/CyDMA.c **** *
 403:.\Generated_Source\PSoC4/CyDMA.c **** *******************************************************************************/
 404:.\Generated_Source\PSoC4/CyDMA.c **** CY_ISR(CyDmaInterrupt)
 405:.\Generated_Source\PSoC4/CyDMA.c **** {
  26              		.loc 1 405 0
  27              		.cfi_startproc
  28 0000 38B5     		push	{r3, r4, r5, lr}
  29              		.cfi_def_cfa_offset 16
  30              		.cfi_offset 3, -16
  31              		.cfi_offset 4, -12
  32              		.cfi_offset 5, -8
  33              		.cfi_offset 14, -4
  34              	.LVL0:
 406:.\Generated_Source\PSoC4/CyDMA.c ****     uint32 intr;
 407:.\Generated_Source\PSoC4/CyDMA.c ****     uint32 cbIdx = 0u;
 408:.\Generated_Source\PSoC4/CyDMA.c **** 
 409:.\Generated_Source\PSoC4/CyDMA.c ****     /* Get interrupt source. */
 410:.\Generated_Source\PSoC4/CyDMA.c ****     intr = CYDMA_INTR_MASKED_REG;
  35              		.loc 1 410 0
  36 0002 084B     		ldr	r3, .L5
  37 0004 1C68     		ldr	r4, [r3]
  38              	.LVL1:
 411:.\Generated_Source\PSoC4/CyDMA.c **** 
 412:.\Generated_Source\PSoC4/CyDMA.c ****     /* Clear pending interrupts. */
 413:.\Generated_Source\PSoC4/CyDMA.c ****     CYDMA_INTR_REG = intr;
  39              		.loc 1 413 0
  40 0006 084B     		ldr	r3, .L5+4
  41 0008 1C60     		str	r4, [r3]
 407:.\Generated_Source\PSoC4/CyDMA.c **** 
  42              		.loc 1 407 0
ARM GAS  C:\Users\TOM~1.MCK\AppData\Local\Temp\ccARJkPm.s 			page 9


  43 000a 0025     		mov	r5, #0
 414:.\Generated_Source\PSoC4/CyDMA.c **** 
 415:.\Generated_Source\PSoC4/CyDMA.c ****     /* Call user defined callback functions for triggered interrupt sources. */
 416:.\Generated_Source\PSoC4/CyDMA.c ****     while(0u != intr)
  44              		.loc 1 416 0
  45 000c 07E0     		b	.L2
  46              	.LVL2:
  47              	.L4:
 417:.\Generated_Source\PSoC4/CyDMA.c ****     {
 418:.\Generated_Source\PSoC4/CyDMA.c ****         if(0u != (intr & 0x1u))
  48              		.loc 1 418 0
  49 000e E307     		lsl	r3, r4, #31
  50 0010 03D5     		bpl	.L3
 419:.\Generated_Source\PSoC4/CyDMA.c ****         {
 420:.\Generated_Source\PSoC4/CyDMA.c ****             CyDmaInterruptCallback[cbIdx]();
  51              		.loc 1 420 0
  52 0012 AB00     		lsl	r3, r5, #2
  53 0014 054A     		ldr	r2, .L5+8
  54 0016 9B58     		ldr	r3, [r3, r2]
  55 0018 9847     		blx	r3
  56              	.LVL3:
  57              	.L3:
 421:.\Generated_Source\PSoC4/CyDMA.c ****         }
 422:.\Generated_Source\PSoC4/CyDMA.c ****         intr >>= 1;
  58              		.loc 1 422 0
  59 001a 6408     		lsr	r4, r4, #1
  60              	.LVL4:
 423:.\Generated_Source\PSoC4/CyDMA.c ****         ++cbIdx;
  61              		.loc 1 423 0
  62 001c 0135     		add	r5, r5, #1
  63              	.LVL5:
  64              	.L2:
 416:.\Generated_Source\PSoC4/CyDMA.c ****     {
  65              		.loc 1 416 0
  66 001e 002C     		cmp	r4, #0
  67 0020 F5D1     		bne	.L4
 424:.\Generated_Source\PSoC4/CyDMA.c ****     }
 425:.\Generated_Source\PSoC4/CyDMA.c **** }
  68              		.loc 1 425 0
  69              		@ sp needed
  70              	.LVL6:
  71              	.LVL7:
  72 0022 38BD     		pop	{r3, r4, r5, pc}
  73              	.L6:
  74              		.align	2
  75              	.L5:
  76 0024 FC171040 		.word	1074796540
  77 0028 F0171040 		.word	1074796528
  78 002c 00000000 		.word	.LANCHOR0
  79              		.cfi_endproc
  80              	.LFE16:
  81              		.size	CyDmaInterrupt, .-CyDmaInterrupt
  82              		.section	.text.CyDmaDefaultInterruptCallback,"ax",%progbits
  83              		.align	2
  84              		.code	16
  85              		.thumb_func
  86              		.type	CyDmaDefaultInterruptCallback, %function
ARM GAS  C:\Users\TOM~1.MCK\AppData\Local\Temp\ccARJkPm.s 			page 10


  87              	CyDmaDefaultInterruptCallback:
  88              	.LFB17:
 426:.\Generated_Source\PSoC4/CyDMA.c **** 
 427:.\Generated_Source\PSoC4/CyDMA.c **** 
 428:.\Generated_Source\PSoC4/CyDMA.c **** /*******************************************************************************
 429:.\Generated_Source\PSoC4/CyDMA.c **** * Function Name: CyDmaDefaultInterruptCallback
 430:.\Generated_Source\PSoC4/CyDMA.c **** ********************************************************************************
 431:.\Generated_Source\PSoC4/CyDMA.c **** *
 432:.\Generated_Source\PSoC4/CyDMA.c **** * Summary:
 433:.\Generated_Source\PSoC4/CyDMA.c **** *  This function is invoked when the user defined callback function is undefined
 434:.\Generated_Source\PSoC4/CyDMA.c **** *  for the interrupt source.
 435:.\Generated_Source\PSoC4/CyDMA.c **** *
 436:.\Generated_Source\PSoC4/CyDMA.c **** * Parameters:
 437:.\Generated_Source\PSoC4/CyDMA.c **** *  None.
 438:.\Generated_Source\PSoC4/CyDMA.c **** *
 439:.\Generated_Source\PSoC4/CyDMA.c **** * Return:
 440:.\Generated_Source\PSoC4/CyDMA.c **** *  None.
 441:.\Generated_Source\PSoC4/CyDMA.c **** *
 442:.\Generated_Source\PSoC4/CyDMA.c **** *******************************************************************************/
 443:.\Generated_Source\PSoC4/CyDMA.c **** static void CyDmaDefaultInterruptCallback(void)
 444:.\Generated_Source\PSoC4/CyDMA.c **** {
  89              		.loc 1 444 0
  90              		.cfi_startproc
  91 0000 08B5     		push	{r3, lr}
  92              		.cfi_def_cfa_offset 8
  93              		.cfi_offset 3, -8
  94              		.cfi_offset 14, -4
 445:.\Generated_Source\PSoC4/CyDMA.c ****     /* Halt CPU in debug mode. We get here because there is no user defined
 446:.\Generated_Source\PSoC4/CyDMA.c ****     * callback function for the interrupt source. You should either set a
 447:.\Generated_Source\PSoC4/CyDMA.c ****     * callback function or disable generating an interrupt from this
 448:.\Generated_Source\PSoC4/CyDMA.c ****     * interrupt source.
 449:.\Generated_Source\PSoC4/CyDMA.c ****     * To set a callback, use the CyDmaSetInterruptCallback() API function.
 450:.\Generated_Source\PSoC4/CyDMA.c ****     * To disable interrupt generation, write '0' to the corresponding bit
 451:.\Generated_Source\PSoC4/CyDMA.c ****     * in the interrupt mask by calling CyDmaSetInterruptSourceMask().
 452:.\Generated_Source\PSoC4/CyDMA.c ****     */
 453:.\Generated_Source\PSoC4/CyDMA.c ****     CYASSERT(0 != 0);
  95              		.loc 1 453 0
  96 0002 0020     		mov	r0, #0
  97 0004 FFF7FEFF 		bl	CyHalt
  98              	.LVL8:
 454:.\Generated_Source\PSoC4/CyDMA.c **** }
  99              		.loc 1 454 0
 100              		@ sp needed
 101 0008 08BD     		pop	{r3, pc}
 102              		.cfi_endproc
 103              	.LFE17:
 104              		.size	CyDmaDefaultInterruptCallback, .-CyDmaDefaultInterruptCallback
 105 000a C046     		.section	.text.CyDmaDisable,"ax",%progbits
 106              		.align	2
 107              		.global	CyDmaDisable
 108              		.code	16
 109              		.thumb_func
 110              		.type	CyDmaDisable, %function
 111              	CyDmaDisable:
 112              	.LFB3:
  94:.\Generated_Source\PSoC4/CyDMA.c ****     CYDMA_CTL_REG = (uint32)~CYDMA_ENABLED;
 113              		.loc 1 94 0
ARM GAS  C:\Users\TOM~1.MCK\AppData\Local\Temp\ccARJkPm.s 			page 11


 114              		.cfi_startproc
  95:.\Generated_Source\PSoC4/CyDMA.c **** }
 115              		.loc 1 95 0
 116 0000 014A     		ldr	r2, .L9
 117 0002 024B     		ldr	r3, .L9+4
 118 0004 1A60     		str	r2, [r3]
  96:.\Generated_Source\PSoC4/CyDMA.c **** 
 119              		.loc 1 96 0
 120              		@ sp needed
 121 0006 7047     		bx	lr
 122              	.L10:
 123              		.align	2
 124              	.L9:
 125 0008 FFFFFF7F 		.word	2147483647
 126 000c 00101040 		.word	1074794496
 127              		.cfi_endproc
 128              	.LFE3:
 129              		.size	CyDmaDisable, .-CyDmaDisable
 130              		.section	.text.CyDmaGetStatus,"ax",%progbits
 131              		.align	2
 132              		.global	CyDmaGetStatus
 133              		.code	16
 134              		.thumb_func
 135              		.type	CyDmaGetStatus, %function
 136              	CyDmaGetStatus:
 137              	.LFB4:
 122:.\Generated_Source\PSoC4/CyDMA.c ****     return (CYDMA_STATUS_REG);
 138              		.loc 1 122 0
 139              		.cfi_startproc
 123:.\Generated_Source\PSoC4/CyDMA.c **** }
 140              		.loc 1 123 0
 141 0000 014B     		ldr	r3, .L12
 142 0002 1868     		ldr	r0, [r3]
 124:.\Generated_Source\PSoC4/CyDMA.c **** 
 143              		.loc 1 124 0
 144              		@ sp needed
 145 0004 7047     		bx	lr
 146              	.L13:
 147 0006 C046     		.align	2
 148              	.L12:
 149 0008 10101040 		.word	1074794512
 150              		.cfi_endproc
 151              	.LFE4:
 152              		.size	CyDmaGetStatus, .-CyDmaGetStatus
 153              		.section	.text.CyDmaGetActiveChannels,"ax",%progbits
 154              		.align	2
 155              		.global	CyDmaGetActiveChannels
 156              		.code	16
 157              		.thumb_func
 158              		.type	CyDmaGetActiveChannels, %function
 159              	CyDmaGetActiveChannels:
 160              	.LFB5:
 143:.\Generated_Source\PSoC4/CyDMA.c ****     return (CYDMA_STATUS_CH_ACT_REG);
 161              		.loc 1 143 0
 162              		.cfi_startproc
 144:.\Generated_Source\PSoC4/CyDMA.c **** }
 163              		.loc 1 144 0
ARM GAS  C:\Users\TOM~1.MCK\AppData\Local\Temp\ccARJkPm.s 			page 12


 164 0000 014B     		ldr	r3, .L15
 165 0002 1868     		ldr	r0, [r3]
 145:.\Generated_Source\PSoC4/CyDMA.c **** 
 166              		.loc 1 145 0
 167              		@ sp needed
 168 0004 7047     		bx	lr
 169              	.L16:
 170 0006 C046     		.align	2
 171              	.L15:
 172 0008 1C101040 		.word	1074794524
 173              		.cfi_endproc
 174              	.LFE5:
 175              		.size	CyDmaGetActiveChannels, .-CyDmaGetActiveChannels
 176              		.section	.text.CyDmaGetActiveSrcAddress,"ax",%progbits
 177              		.align	2
 178              		.global	CyDmaGetActiveSrcAddress
 179              		.code	16
 180              		.thumb_func
 181              		.type	CyDmaGetActiveSrcAddress, %function
 182              	CyDmaGetActiveSrcAddress:
 183              	.LFB6:
 171:.\Generated_Source\PSoC4/CyDMA.c ****     return ((void *)CYDMA_STATUS_SRC_ADDR_REG);
 184              		.loc 1 171 0
 185              		.cfi_startproc
 172:.\Generated_Source\PSoC4/CyDMA.c **** }
 186              		.loc 1 172 0
 187 0000 014B     		ldr	r3, .L18
 188 0002 1868     		ldr	r0, [r3]
 173:.\Generated_Source\PSoC4/CyDMA.c **** 
 189              		.loc 1 173 0
 190              		@ sp needed
 191 0004 7047     		bx	lr
 192              	.L19:
 193 0006 C046     		.align	2
 194              	.L18:
 195 0008 14101040 		.word	1074794516
 196              		.cfi_endproc
 197              	.LFE6:
 198              		.size	CyDmaGetActiveSrcAddress, .-CyDmaGetActiveSrcAddress
 199              		.section	.text.CyDmaGetActiveDstAddress,"ax",%progbits
 200              		.align	2
 201              		.global	CyDmaGetActiveDstAddress
 202              		.code	16
 203              		.thumb_func
 204              		.type	CyDmaGetActiveDstAddress, %function
 205              	CyDmaGetActiveDstAddress:
 206              	.LFB7:
 199:.\Generated_Source\PSoC4/CyDMA.c ****     return ((void *)CYDMA_STATUS_DST_ADDR_REG);
 207              		.loc 1 199 0
 208              		.cfi_startproc
 200:.\Generated_Source\PSoC4/CyDMA.c **** }
 209              		.loc 1 200 0
 210 0000 014B     		ldr	r3, .L21
 211 0002 1868     		ldr	r0, [r3]
 201:.\Generated_Source\PSoC4/CyDMA.c **** 
 212              		.loc 1 201 0
 213              		@ sp needed
ARM GAS  C:\Users\TOM~1.MCK\AppData\Local\Temp\ccARJkPm.s 			page 13


 214 0004 7047     		bx	lr
 215              	.L22:
 216 0006 C046     		.align	2
 217              	.L21:
 218 0008 18101040 		.word	1074794520
 219              		.cfi_endproc
 220              	.LFE7:
 221              		.size	CyDmaGetActiveDstAddress, .-CyDmaGetActiveDstAddress
 222              		.section	.text.CyDmaSetInterruptVector,"ax",%progbits
 223              		.align	2
 224              		.global	CyDmaSetInterruptVector
 225              		.code	16
 226              		.thumb_func
 227              		.type	CyDmaSetInterruptVector, %function
 228              	CyDmaSetInterruptVector:
 229              	.LFB8:
 228:.\Generated_Source\PSoC4/CyDMA.c ****     (void)CyIntSetVector(CYDMA_INTR_NUMBER, interruptVector);
 230              		.loc 1 228 0
 231              		.cfi_startproc
 232              	.LVL9:
 233 0000 08B5     		push	{r3, lr}
 234              		.cfi_def_cfa_offset 8
 235              		.cfi_offset 3, -8
 236              		.cfi_offset 14, -4
 237 0002 011C     		mov	r1, r0
 229:.\Generated_Source\PSoC4/CyDMA.c **** }
 238              		.loc 1 229 0
 239 0004 1520     		mov	r0, #21
 240              	.LVL10:
 241 0006 FFF7FEFF 		bl	CyIntSetVector
 242              	.LVL11:
 230:.\Generated_Source\PSoC4/CyDMA.c **** 
 243              		.loc 1 230 0
 244              		@ sp needed
 245 000a 08BD     		pop	{r3, pc}
 246              		.cfi_endproc
 247              	.LFE8:
 248              		.size	CyDmaSetInterruptVector, .-CyDmaSetInterruptVector
 249              		.section	.text.CyDmaEnable,"ax",%progbits
 250              		.align	2
 251              		.global	CyDmaEnable
 252              		.code	16
 253              		.thumb_func
 254              		.type	CyDmaEnable, %function
 255              	CyDmaEnable:
 256              	.LFB2:
  63:.\Generated_Source\PSoC4/CyDMA.c ****     static uint8 initIntrVector = 0u;
 257              		.loc 1 63 0
 258              		.cfi_startproc
 259 0000 08B5     		push	{r3, lr}
 260              		.cfi_def_cfa_offset 8
 261              		.cfi_offset 3, -8
 262              		.cfi_offset 14, -4
  66:.\Generated_Source\PSoC4/CyDMA.c ****     {
 263              		.loc 1 66 0
 264 0002 094B     		ldr	r3, .L26
 265 0004 1B78     		ldrb	r3, [r3]
ARM GAS  C:\Users\TOM~1.MCK\AppData\Local\Temp\ccARJkPm.s 			page 14


 266 0006 002B     		cmp	r3, #0
 267 0008 09D1     		bne	.L25
  68:.\Generated_Source\PSoC4/CyDMA.c ****         CyIntSetPriority(CYDMA_INTR_NUMBER, CYDMA_INTR_PRIO);
 268              		.loc 1 68 0
 269 000a 0848     		ldr	r0, .L26+4
 270 000c FFF7FEFF 		bl	CyDmaSetInterruptVector
 271              	.LVL12:
  69:.\Generated_Source\PSoC4/CyDMA.c ****         initIntrVector = 1u;
 272              		.loc 1 69 0
 273 0010 1520     		mov	r0, #21
 274 0012 0321     		mov	r1, #3
 275 0014 FFF7FEFF 		bl	CyIntSetPriority
 276              	.LVL13:
  70:.\Generated_Source\PSoC4/CyDMA.c ****     }
 277              		.loc 1 70 0
 278 0018 0122     		mov	r2, #1
 279 001a 034B     		ldr	r3, .L26
 280 001c 1A70     		strb	r2, [r3]
 281              	.L25:
  72:.\Generated_Source\PSoC4/CyDMA.c **** }
 282              		.loc 1 72 0
 283 001e 8022     		mov	r2, #128
 284 0020 1206     		lsl	r2, r2, #24
 285 0022 034B     		ldr	r3, .L26+8
 286 0024 1A60     		str	r2, [r3]
  73:.\Generated_Source\PSoC4/CyDMA.c **** 
 287              		.loc 1 73 0
 288              		@ sp needed
 289 0026 08BD     		pop	{r3, pc}
 290              	.L27:
 291              		.align	2
 292              	.L26:
 293 0028 00000000 		.word	.LANCHOR1
 294 002c 00000000 		.word	CyDmaInterrupt
 295 0030 00101040 		.word	1074794496
 296              		.cfi_endproc
 297              	.LFE2:
 298              		.size	CyDmaEnable, .-CyDmaEnable
 299              		.section	.text.CyDmaGetInterruptSource,"ax",%progbits
 300              		.align	2
 301              		.global	CyDmaGetInterruptSource
 302              		.code	16
 303              		.thumb_func
 304              		.type	CyDmaGetInterruptSource, %function
 305              	CyDmaGetInterruptSource:
 306              	.LFB9:
 248:.\Generated_Source\PSoC4/CyDMA.c ****     return (CYDMA_INTR_REG);
 307              		.loc 1 248 0
 308              		.cfi_startproc
 249:.\Generated_Source\PSoC4/CyDMA.c **** }
 309              		.loc 1 249 0
 310 0000 014B     		ldr	r3, .L29
 311 0002 1868     		ldr	r0, [r3]
 250:.\Generated_Source\PSoC4/CyDMA.c **** 
 312              		.loc 1 250 0
 313              		@ sp needed
 314 0004 7047     		bx	lr
ARM GAS  C:\Users\TOM~1.MCK\AppData\Local\Temp\ccARJkPm.s 			page 15


 315              	.L30:
 316 0006 C046     		.align	2
 317              	.L29:
 318 0008 F0171040 		.word	1074796528
 319              		.cfi_endproc
 320              	.LFE9:
 321              		.size	CyDmaGetInterruptSource, .-CyDmaGetInterruptSource
 322              		.section	.text.CyDmaClearInterruptSource,"ax",%progbits
 323              		.align	2
 324              		.global	CyDmaClearInterruptSource
 325              		.code	16
 326              		.thumb_func
 327              		.type	CyDmaClearInterruptSource, %function
 328              	CyDmaClearInterruptSource:
 329              	.LFB10:
 268:.\Generated_Source\PSoC4/CyDMA.c ****     CYDMA_INTR_REG = interruptMask;
 330              		.loc 1 268 0
 331              		.cfi_startproc
 332              	.LVL14:
 269:.\Generated_Source\PSoC4/CyDMA.c **** }
 333              		.loc 1 269 0
 334 0000 014B     		ldr	r3, .L32
 335 0002 1860     		str	r0, [r3]
 270:.\Generated_Source\PSoC4/CyDMA.c **** 
 336              		.loc 1 270 0
 337              		@ sp needed
 338 0004 7047     		bx	lr
 339              	.L33:
 340 0006 C046     		.align	2
 341              	.L32:
 342 0008 F0171040 		.word	1074796528
 343              		.cfi_endproc
 344              	.LFE10:
 345              		.size	CyDmaClearInterruptSource, .-CyDmaClearInterruptSource
 346              		.section	.text.CyDmaSetInterruptSourceMask,"ax",%progbits
 347              		.align	2
 348              		.global	CyDmaSetInterruptSourceMask
 349              		.code	16
 350              		.thumb_func
 351              		.type	CyDmaSetInterruptSourceMask, %function
 352              	CyDmaSetInterruptSourceMask:
 353              	.LFB11:
 288:.\Generated_Source\PSoC4/CyDMA.c ****     CYDMA_INTR_MASK_REG = interruptMask;
 354              		.loc 1 288 0
 355              		.cfi_startproc
 356              	.LVL15:
 289:.\Generated_Source\PSoC4/CyDMA.c **** }
 357              		.loc 1 289 0
 358 0000 014B     		ldr	r3, .L35
 359 0002 1860     		str	r0, [r3]
 290:.\Generated_Source\PSoC4/CyDMA.c **** 
 360              		.loc 1 290 0
 361              		@ sp needed
 362 0004 7047     		bx	lr
 363              	.L36:
 364 0006 C046     		.align	2
 365              	.L35:
ARM GAS  C:\Users\TOM~1.MCK\AppData\Local\Temp\ccARJkPm.s 			page 16


 366 0008 F8171040 		.word	1074796536
 367              		.cfi_endproc
 368              	.LFE11:
 369              		.size	CyDmaSetInterruptSourceMask, .-CyDmaSetInterruptSourceMask
 370              		.section	.text.CyDmaGetInterruptSourceMask,"ax",%progbits
 371              		.align	2
 372              		.global	CyDmaGetInterruptSourceMask
 373              		.code	16
 374              		.thumb_func
 375              		.type	CyDmaGetInterruptSourceMask, %function
 376              	CyDmaGetInterruptSourceMask:
 377              	.LFB12:
 308:.\Generated_Source\PSoC4/CyDMA.c ****     return (CYDMA_INTR_MASK_REG);
 378              		.loc 1 308 0
 379              		.cfi_startproc
 309:.\Generated_Source\PSoC4/CyDMA.c **** }
 380              		.loc 1 309 0
 381 0000 014B     		ldr	r3, .L38
 382 0002 1868     		ldr	r0, [r3]
 310:.\Generated_Source\PSoC4/CyDMA.c **** 
 383              		.loc 1 310 0
 384              		@ sp needed
 385 0004 7047     		bx	lr
 386              	.L39:
 387 0006 C046     		.align	2
 388              	.L38:
 389 0008 F8171040 		.word	1074796536
 390              		.cfi_endproc
 391              	.LFE12:
 392              		.size	CyDmaGetInterruptSourceMask, .-CyDmaGetInterruptSourceMask
 393              		.section	.text.CyDmaGetInterruptSourceMasked,"ax",%progbits
 394              		.align	2
 395              		.global	CyDmaGetInterruptSourceMasked
 396              		.code	16
 397              		.thumb_func
 398              		.type	CyDmaGetInterruptSourceMasked, %function
 399              	CyDmaGetInterruptSourceMasked:
 400              	.LFB13:
 328:.\Generated_Source\PSoC4/CyDMA.c ****     return (CYDMA_INTR_MASKED_REG);
 401              		.loc 1 328 0
 402              		.cfi_startproc
 329:.\Generated_Source\PSoC4/CyDMA.c **** }
 403              		.loc 1 329 0
 404 0000 014B     		ldr	r3, .L41
 405 0002 1868     		ldr	r0, [r3]
 330:.\Generated_Source\PSoC4/CyDMA.c **** 
 406              		.loc 1 330 0
 407              		@ sp needed
 408 0004 7047     		bx	lr
 409              	.L42:
 410 0006 C046     		.align	2
 411              	.L41:
 412 0008 FC171040 		.word	1074796540
 413              		.cfi_endproc
 414              	.LFE13:
 415              		.size	CyDmaGetInterruptSourceMasked, .-CyDmaGetInterruptSourceMasked
 416              		.section	.text.CyDmaSetInterruptCallback,"ax",%progbits
ARM GAS  C:\Users\TOM~1.MCK\AppData\Local\Temp\ccARJkPm.s 			page 17


 417              		.align	2
 418              		.global	CyDmaSetInterruptCallback
 419              		.code	16
 420              		.thumb_func
 421              		.type	CyDmaSetInterruptCallback, %function
 422              	CyDmaSetInterruptCallback:
 423              	.LFB14:
 351:.\Generated_Source\PSoC4/CyDMA.c ****     cydma_callback_t prevCallback;
 424              		.loc 1 351 0
 425              		.cfi_startproc
 426              	.LVL16:
 427 0000 38B5     		push	{r3, r4, r5, lr}
 428              		.cfi_def_cfa_offset 16
 429              		.cfi_offset 3, -16
 430              		.cfi_offset 4, -12
 431              		.cfi_offset 5, -8
 432              		.cfi_offset 14, -4
 433 0002 041C     		mov	r4, r0
 434 0004 0D1C     		mov	r5, r1
 354:.\Generated_Source\PSoC4/CyDMA.c **** 
 435              		.loc 1 354 0
 436 0006 0728     		cmp	r0, #7
 437 0008 02D9     		bls	.L44
 354:.\Generated_Source\PSoC4/CyDMA.c **** 
 438              		.loc 1 354 0 is_stmt 0 discriminator 1
 439 000a 0020     		mov	r0, #0
 440              	.LVL17:
 441 000c FFF7FEFF 		bl	CyHalt
 442              	.LVL18:
 443              	.L44:
 356:.\Generated_Source\PSoC4/CyDMA.c ****     CyDmaInterruptCallback[channel] = callback;
 444              		.loc 1 356 0 is_stmt 1
 445 0010 024B     		ldr	r3, .L45
 446 0012 A400     		lsl	r4, r4, #2
 447              	.LVL19:
 448 0014 E058     		ldr	r0, [r4, r3]
 449              	.LVL20:
 357:.\Generated_Source\PSoC4/CyDMA.c ****     return (prevCallback);
 450              		.loc 1 357 0
 451 0016 E550     		str	r5, [r4, r3]
 359:.\Generated_Source\PSoC4/CyDMA.c **** 
 452              		.loc 1 359 0
 453              		@ sp needed
 454              	.LVL21:
 455 0018 38BD     		pop	{r3, r4, r5, pc}
 456              	.L46:
 457 001a C046     		.align	2
 458              	.L45:
 459 001c 00000000 		.word	.LANCHOR0
 460              		.cfi_endproc
 461              	.LFE14:
 462              		.size	CyDmaSetInterruptCallback, .-CyDmaSetInterruptCallback
 463              		.section	.text.CyDmaGetInterruptCallback,"ax",%progbits
 464              		.align	2
 465              		.global	CyDmaGetInterruptCallback
 466              		.code	16
 467              		.thumb_func
ARM GAS  C:\Users\TOM~1.MCK\AppData\Local\Temp\ccARJkPm.s 			page 18


 468              		.type	CyDmaGetInterruptCallback, %function
 469              	CyDmaGetInterruptCallback:
 470              	.LFB15:
 378:.\Generated_Source\PSoC4/CyDMA.c ****     CYASSERT((channel >= 0) && (channel < CYDMA_CH_NR));
 471              		.loc 1 378 0
 472              		.cfi_startproc
 473              	.LVL22:
 474 0000 10B5     		push	{r4, lr}
 475              		.cfi_def_cfa_offset 8
 476              		.cfi_offset 4, -8
 477              		.cfi_offset 14, -4
 478 0002 041E     		sub	r4, r0, #0
 379:.\Generated_Source\PSoC4/CyDMA.c ****     
 479              		.loc 1 379 0
 480 0004 072C     		cmp	r4, #7
 481 0006 02D9     		bls	.L48
 379:.\Generated_Source\PSoC4/CyDMA.c ****     
 482              		.loc 1 379 0 is_stmt 0 discriminator 1
 483 0008 0020     		mov	r0, #0
 484              	.LVL23:
 485 000a FFF7FEFF 		bl	CyHalt
 486              	.LVL24:
 487              	.L48:
 381:.\Generated_Source\PSoC4/CyDMA.c **** }
 488              		.loc 1 381 0 is_stmt 1
 489 000e A400     		lsl	r4, r4, #2
 490              	.LVL25:
 491 0010 014B     		ldr	r3, .L49
 492 0012 E058     		ldr	r0, [r4, r3]
 382:.\Generated_Source\PSoC4/CyDMA.c **** 
 493              		.loc 1 382 0
 494              		@ sp needed
 495 0014 10BD     		pop	{r4, pc}
 496              	.L50:
 497 0016 C046     		.align	2
 498              	.L49:
 499 0018 00000000 		.word	.LANCHOR0
 500              		.cfi_endproc
 501              	.LFE15:
 502              		.size	CyDmaGetInterruptCallback, .-CyDmaGetInterruptCallback
 503              		.section	.text.CyDmaChAlloc,"ax",%progbits
 504              		.align	2
 505              		.global	CyDmaChAlloc
 506              		.code	16
 507              		.thumb_func
 508              		.type	CyDmaChAlloc, %function
 509              	CyDmaChAlloc:
 510              	.LFB18:
 455:.\Generated_Source\PSoC4/CyDMA.c **** 
 456:.\Generated_Source\PSoC4/CyDMA.c **** 
 457:.\Generated_Source\PSoC4/CyDMA.c **** /*******************************************************************************
 458:.\Generated_Source\PSoC4/CyDMA.c **** * Function Name: CyDmaChAlloc
 459:.\Generated_Source\PSoC4/CyDMA.c **** ********************************************************************************
 460:.\Generated_Source\PSoC4/CyDMA.c **** *
 461:.\Generated_Source\PSoC4/CyDMA.c **** * Summary:
 462:.\Generated_Source\PSoC4/CyDMA.c **** *  Allocates a channel number to use with later DMA functions.
 463:.\Generated_Source\PSoC4/CyDMA.c **** *
ARM GAS  C:\Users\TOM~1.MCK\AppData\Local\Temp\ccARJkPm.s 			page 19


 464:.\Generated_Source\PSoC4/CyDMA.c **** * Parameters:
 465:.\Generated_Source\PSoC4/CyDMA.c **** *  None.
 466:.\Generated_Source\PSoC4/CyDMA.c **** *                   
 467:.\Generated_Source\PSoC4/CyDMA.c **** * Return:
 468:.\Generated_Source\PSoC4/CyDMA.c **** *  The allocated channel number. Zero is a valid channel number.
 469:.\Generated_Source\PSoC4/CyDMA.c **** *  CYDMA_INVALID_CHANNEL is returned if there are no channels available.
 470:.\Generated_Source\PSoC4/CyDMA.c **** *
 471:.\Generated_Source\PSoC4/CyDMA.c **** *******************************************************************************/
 472:.\Generated_Source\PSoC4/CyDMA.c **** int32 CyDmaChAlloc(void)
 473:.\Generated_Source\PSoC4/CyDMA.c **** {
 511              		.loc 1 473 0
 512              		.cfi_startproc
 513              	.LVL26:
 474:.\Generated_Source\PSoC4/CyDMA.c ****     int32  channel = CYDMA_CH_NR-1;
 475:.\Generated_Source\PSoC4/CyDMA.c ****     uint32 channelMask = (uint32)(1UL << (CYDMA_CH_NR-1));
 514              		.loc 1 475 0
 515 0000 8023     		mov	r3, #128
 474:.\Generated_Source\PSoC4/CyDMA.c ****     int32  channel = CYDMA_CH_NR-1;
 516              		.loc 1 474 0
 517 0002 0720     		mov	r0, #7
 476:.\Generated_Source\PSoC4/CyDMA.c ****     
 477:.\Generated_Source\PSoC4/CyDMA.c ****     while (channel >= 0)
 518              		.loc 1 477 0
 519 0004 09E0     		b	.L52
 520              	.LVL27:
 521              	.L55:
 478:.\Generated_Source\PSoC4/CyDMA.c ****     {
 479:.\Generated_Source\PSoC4/CyDMA.c ****         if(0u == (CyDmaChannelUsedMask & channelMask))
 522              		.loc 1 479 0
 523 0006 064A     		ldr	r2, .L56
 524 0008 126A     		ldr	r2, [r2, #32]
 525 000a 1342     		tst	r3, r2
 526 000c 03D1     		bne	.L53
 480:.\Generated_Source\PSoC4/CyDMA.c ****         {
 481:.\Generated_Source\PSoC4/CyDMA.c ****             /* Mark channel as used and exit loop. */ 
 482:.\Generated_Source\PSoC4/CyDMA.c ****             CyDmaChannelUsedMask |= channelMask;
 527              		.loc 1 482 0
 528 000e 1343     		orr	r3, r2
 529              	.LVL28:
 530 0010 034A     		ldr	r2, .L56
 531 0012 1362     		str	r3, [r2, #32]
 483:.\Generated_Source\PSoC4/CyDMA.c ****             break;
 532              		.loc 1 483 0
 533 0014 03E0     		b	.L54
 534              	.LVL29:
 535              	.L53:
 484:.\Generated_Source\PSoC4/CyDMA.c ****         }
 485:.\Generated_Source\PSoC4/CyDMA.c ****         channelMask >>= 1;
 536              		.loc 1 485 0
 537 0016 5B08     		lsr	r3, r3, #1
 538              	.LVL30:
 486:.\Generated_Source\PSoC4/CyDMA.c ****         --channel;
 539              		.loc 1 486 0
 540 0018 0138     		sub	r0, r0, #1
 541              	.LVL31:
 542              	.L52:
 477:.\Generated_Source\PSoC4/CyDMA.c ****     {
ARM GAS  C:\Users\TOM~1.MCK\AppData\Local\Temp\ccARJkPm.s 			page 20


 543              		.loc 1 477 0
 544 001a 0028     		cmp	r0, #0
 545 001c F3DA     		bge	.L55
 546              	.LVL32:
 547              	.L54:
 487:.\Generated_Source\PSoC4/CyDMA.c ****     }
 488:.\Generated_Source\PSoC4/CyDMA.c ****     return (channel);
 489:.\Generated_Source\PSoC4/CyDMA.c **** }
 548              		.loc 1 489 0
 549              		@ sp needed
 550 001e 7047     		bx	lr
 551              	.L57:
 552              		.align	2
 553              	.L56:
 554 0020 00000000 		.word	.LANCHOR0
 555              		.cfi_endproc
 556              	.LFE18:
 557              		.size	CyDmaChAlloc, .-CyDmaChAlloc
 558              		.section	.text.CyDmaChFree,"ax",%progbits
 559              		.align	2
 560              		.global	CyDmaChFree
 561              		.code	16
 562              		.thumb_func
 563              		.type	CyDmaChFree, %function
 564              	CyDmaChFree:
 565              	.LFB19:
 490:.\Generated_Source\PSoC4/CyDMA.c **** 
 491:.\Generated_Source\PSoC4/CyDMA.c **** 
 492:.\Generated_Source\PSoC4/CyDMA.c **** /*******************************************************************************
 493:.\Generated_Source\PSoC4/CyDMA.c **** * Function Name: CyDmaChFree
 494:.\Generated_Source\PSoC4/CyDMA.c **** ********************************************************************************
 495:.\Generated_Source\PSoC4/CyDMA.c **** *
 496:.\Generated_Source\PSoC4/CyDMA.c **** * Summary:
 497:.\Generated_Source\PSoC4/CyDMA.c **** *  Frees a channel handle allocated by CyDmaChAlloc(). Channels allocated for
 498:.\Generated_Source\PSoC4/CyDMA.c **** *  DMA instances placed on a schematic cannot be freed.
 499:.\Generated_Source\PSoC4/CyDMA.c **** *
 500:.\Generated_Source\PSoC4/CyDMA.c **** * Parameters:
 501:.\Generated_Source\PSoC4/CyDMA.c **** *  channel: The handle previously returned by CyDmaChAlloc().
 502:.\Generated_Source\PSoC4/CyDMA.c **** *                   
 503:.\Generated_Source\PSoC4/CyDMA.c **** * Return:
 504:.\Generated_Source\PSoC4/CyDMA.c **** *  CYRET_SUCCESS if successful.
 505:.\Generated_Source\PSoC4/CyDMA.c **** *  CYRET_BAD_PARAM if channel is invalid.
 506:.\Generated_Source\PSoC4/CyDMA.c **** *
 507:.\Generated_Source\PSoC4/CyDMA.c **** *******************************************************************************/
 508:.\Generated_Source\PSoC4/CyDMA.c **** cystatus CyDmaChFree(int32 channel)
 509:.\Generated_Source\PSoC4/CyDMA.c **** {
 566              		.loc 1 509 0
 567              		.cfi_startproc
 568              	.LVL33:
 569 0000 10B5     		push	{r4, lr}
 570              		.cfi_def_cfa_offset 8
 571              		.cfi_offset 4, -8
 572              		.cfi_offset 14, -4
 573 0002 041E     		sub	r4, r0, #0
 574              	.LVL34:
 510:.\Generated_Source\PSoC4/CyDMA.c ****     uint32   channelMask;
 511:.\Generated_Source\PSoC4/CyDMA.c ****     cystatus result = CYRET_BAD_PARAM;
ARM GAS  C:\Users\TOM~1.MCK\AppData\Local\Temp\ccARJkPm.s 			page 21


 512:.\Generated_Source\PSoC4/CyDMA.c **** 
 513:.\Generated_Source\PSoC4/CyDMA.c ****     CYASSERT((channel >= 0) && (channel < CYDMA_CH_NR));
 575              		.loc 1 513 0
 576 0004 072C     		cmp	r4, #7
 577 0006 02D9     		bls	.L59
 578              		.loc 1 513 0 is_stmt 0 discriminator 1
 579 0008 0020     		mov	r0, #0
 580              	.LVL35:
 581 000a FFF7FEFF 		bl	CyHalt
 582              	.LVL36:
 583              	.L59:
 514:.\Generated_Source\PSoC4/CyDMA.c ****     
 515:.\Generated_Source\PSoC4/CyDMA.c ****     channelMask = (uint32)(1UL << channel);
 584              		.loc 1 515 0 is_stmt 1
 585 000e 0123     		mov	r3, #1
 586 0010 1A1C     		mov	r2, r3
 587 0012 A240     		lsl	r2, r2, r4
 588 0014 141C     		mov	r4, r2
 589              	.LVL37:
 516:.\Generated_Source\PSoC4/CyDMA.c **** 
 517:.\Generated_Source\PSoC4/CyDMA.c ****     /* Check against attempt to free channel allocated for DMA instance
 518:.\Generated_Source\PSoC4/CyDMA.c ****     * placed on schematic.
 519:.\Generated_Source\PSoC4/CyDMA.c ****     */
 520:.\Generated_Source\PSoC4/CyDMA.c ****     if(0u == (channelMask & DMA_CHANNELS_USED__MASK))
 590              		.loc 1 520 0
 591 0016 1342     		tst	r3, r2
 592 0018 05D1     		bne	.L61
 521:.\Generated_Source\PSoC4/CyDMA.c ****     {
 522:.\Generated_Source\PSoC4/CyDMA.c ****         CyDmaChannelUsedMask &= (uint32)~channelMask;
 593              		.loc 1 522 0
 594 001a 044A     		ldr	r2, .L62
 595              	.LVL38:
 596 001c 136A     		ldr	r3, [r2, #32]
 597 001e A343     		bic	r3, r4
 598 0020 1362     		str	r3, [r2, #32]
 599              	.LVL39:
 523:.\Generated_Source\PSoC4/CyDMA.c ****         result = CYRET_SUCCESS;
 600              		.loc 1 523 0
 601 0022 0020     		mov	r0, #0
 602 0024 00E0     		b	.L60
 603              	.LVL40:
 604              	.L61:
 511:.\Generated_Source\PSoC4/CyDMA.c **** 
 605              		.loc 1 511 0
 606 0026 0120     		mov	r0, #1
 607              	.LVL41:
 608              	.L60:
 524:.\Generated_Source\PSoC4/CyDMA.c ****     }
 525:.\Generated_Source\PSoC4/CyDMA.c ****     
 526:.\Generated_Source\PSoC4/CyDMA.c ****     return (result);
 527:.\Generated_Source\PSoC4/CyDMA.c **** }
 609              		.loc 1 527 0
 610              		@ sp needed
 611              	.LVL42:
 612 0028 10BD     		pop	{r4, pc}
 613              	.L63:
 614 002a C046     		.align	2
ARM GAS  C:\Users\TOM~1.MCK\AppData\Local\Temp\ccARJkPm.s 			page 22


 615              	.L62:
 616 002c 00000000 		.word	.LANCHOR0
 617              		.cfi_endproc
 618              	.LFE19:
 619              		.size	CyDmaChFree, .-CyDmaChFree
 620              		.section	.text.CyDmaChEnable,"ax",%progbits
 621              		.align	2
 622              		.global	CyDmaChEnable
 623              		.code	16
 624              		.thumb_func
 625              		.type	CyDmaChEnable, %function
 626              	CyDmaChEnable:
 627              	.LFB20:
 528:.\Generated_Source\PSoC4/CyDMA.c **** 
 529:.\Generated_Source\PSoC4/CyDMA.c **** 
 530:.\Generated_Source\PSoC4/CyDMA.c **** /*******************************************************************************
 531:.\Generated_Source\PSoC4/CyDMA.c **** * Function Name: CyDmaChEnable
 532:.\Generated_Source\PSoC4/CyDMA.c **** ********************************************************************************
 533:.\Generated_Source\PSoC4/CyDMA.c **** *
 534:.\Generated_Source\PSoC4/CyDMA.c **** * Summary:
 535:.\Generated_Source\PSoC4/CyDMA.c **** *  Enables the DMA channel.
 536:.\Generated_Source\PSoC4/CyDMA.c **** *
 537:.\Generated_Source\PSoC4/CyDMA.c **** * Parameters:
 538:.\Generated_Source\PSoC4/CyDMA.c **** *  channel: Channel used by this function.
 539:.\Generated_Source\PSoC4/CyDMA.c **** *                   
 540:.\Generated_Source\PSoC4/CyDMA.c **** * Return:
 541:.\Generated_Source\PSoC4/CyDMA.c **** *  None.
 542:.\Generated_Source\PSoC4/CyDMA.c **** *
 543:.\Generated_Source\PSoC4/CyDMA.c **** * Side effect:
 544:.\Generated_Source\PSoC4/CyDMA.c **** *  If this function is called before CyDmaSetConfiguration(), and
 545:.\Generated_Source\PSoC4/CyDMA.c **** *  CyDmaSetSrcAddress() and CyDmaSetDstAddress(), the operation of
 546:.\Generated_Source\PSoC4/CyDMA.c **** *  the DMA is undefined and could result in system data corruption. 
 547:.\Generated_Source\PSoC4/CyDMA.c **** *
 548:.\Generated_Source\PSoC4/CyDMA.c **** *******************************************************************************/
 549:.\Generated_Source\PSoC4/CyDMA.c **** void CyDmaChEnable(int32 channel)
 550:.\Generated_Source\PSoC4/CyDMA.c **** {
 628              		.loc 1 550 0
 629              		.cfi_startproc
 630              	.LVL43:
 631 0000 10B5     		push	{r4, lr}
 632              		.cfi_def_cfa_offset 8
 633              		.cfi_offset 4, -8
 634              		.cfi_offset 14, -4
 635 0002 041E     		sub	r4, r0, #0
 551:.\Generated_Source\PSoC4/CyDMA.c ****     CYASSERT((channel >= 0) && (channel < CYDMA_CH_NR));
 636              		.loc 1 551 0
 637 0004 072C     		cmp	r4, #7
 638 0006 02D9     		bls	.L65
 639              		.loc 1 551 0 is_stmt 0 discriminator 1
 640 0008 0020     		mov	r0, #0
 641              	.LVL44:
 642 000a FFF7FEFF 		bl	CyHalt
 643              	.LVL45:
 644              	.L65:
 552:.\Generated_Source\PSoC4/CyDMA.c **** 
 553:.\Generated_Source\PSoC4/CyDMA.c ****     CYDMA_CH_CTL_BASE.ctl[channel] |= CYDMA_ENABLED;
 645              		.loc 1 553 0 is_stmt 1
ARM GAS  C:\Users\TOM~1.MCK\AppData\Local\Temp\ccARJkPm.s 			page 23


 646 000e 044A     		ldr	r2, .L66
 647 0010 A400     		lsl	r4, r4, #2
 648              	.LVL46:
 649 0012 A358     		ldr	r3, [r4, r2]
 650 0014 8021     		mov	r1, #128
 651 0016 0906     		lsl	r1, r1, #24
 652 0018 0B43     		orr	r3, r1
 653 001a A350     		str	r3, [r4, r2]
 554:.\Generated_Source\PSoC4/CyDMA.c **** }
 654              		.loc 1 554 0
 655              		@ sp needed
 656 001c 10BD     		pop	{r4, pc}
 657              	.L67:
 658 001e C046     		.align	2
 659              	.L66:
 660 0020 80101040 		.word	1074794624
 661              		.cfi_endproc
 662              	.LFE20:
 663              		.size	CyDmaChEnable, .-CyDmaChEnable
 664              		.section	.text.CyDmaChDisable,"ax",%progbits
 665              		.align	2
 666              		.global	CyDmaChDisable
 667              		.code	16
 668              		.thumb_func
 669              		.type	CyDmaChDisable, %function
 670              	CyDmaChDisable:
 671              	.LFB21:
 555:.\Generated_Source\PSoC4/CyDMA.c **** 
 556:.\Generated_Source\PSoC4/CyDMA.c **** 
 557:.\Generated_Source\PSoC4/CyDMA.c **** /*******************************************************************************
 558:.\Generated_Source\PSoC4/CyDMA.c **** * Function Name: CyDmaChDisable
 559:.\Generated_Source\PSoC4/CyDMA.c **** ********************************************************************************
 560:.\Generated_Source\PSoC4/CyDMA.c **** *
 561:.\Generated_Source\PSoC4/CyDMA.c **** * Summary:
 562:.\Generated_Source\PSoC4/CyDMA.c **** *  Disables the DMA channel.
 563:.\Generated_Source\PSoC4/CyDMA.c **** *
 564:.\Generated_Source\PSoC4/CyDMA.c **** * Parameters:
 565:.\Generated_Source\PSoC4/CyDMA.c **** *  channel: Channel used by this function.
 566:.\Generated_Source\PSoC4/CyDMA.c **** *                   
 567:.\Generated_Source\PSoC4/CyDMA.c **** * Return:
 568:.\Generated_Source\PSoC4/CyDMA.c **** *  None.
 569:.\Generated_Source\PSoC4/CyDMA.c **** *
 570:.\Generated_Source\PSoC4/CyDMA.c **** * Side effect:
 571:.\Generated_Source\PSoC4/CyDMA.c **** *  If this function is called during a DMA transfer the transfer is aborted. 
 572:.\Generated_Source\PSoC4/CyDMA.c **** *
 573:.\Generated_Source\PSoC4/CyDMA.c **** *******************************************************************************/
 574:.\Generated_Source\PSoC4/CyDMA.c **** void CyDmaChDisable(int32 channel)
 575:.\Generated_Source\PSoC4/CyDMA.c **** {
 672              		.loc 1 575 0
 673              		.cfi_startproc
 674              	.LVL47:
 675 0000 10B5     		push	{r4, lr}
 676              		.cfi_def_cfa_offset 8
 677              		.cfi_offset 4, -8
 678              		.cfi_offset 14, -4
 679 0002 041E     		sub	r4, r0, #0
 576:.\Generated_Source\PSoC4/CyDMA.c ****     CYASSERT((channel >= 0) && (channel < CYDMA_CH_NR));
ARM GAS  C:\Users\TOM~1.MCK\AppData\Local\Temp\ccARJkPm.s 			page 24


 680              		.loc 1 576 0
 681 0004 072C     		cmp	r4, #7
 682 0006 02D9     		bls	.L69
 683              		.loc 1 576 0 is_stmt 0 discriminator 1
 684 0008 0020     		mov	r0, #0
 685              	.LVL48:
 686 000a FFF7FEFF 		bl	CyHalt
 687              	.LVL49:
 688              	.L69:
 577:.\Generated_Source\PSoC4/CyDMA.c **** 
 578:.\Generated_Source\PSoC4/CyDMA.c ****     CYDMA_CH_CTL_BASE.ctl[channel] &= (uint32)~CYDMA_ENABLED;
 689              		.loc 1 578 0 is_stmt 1
 690 000e 034A     		ldr	r2, .L70
 691 0010 A400     		lsl	r4, r4, #2
 692              	.LVL50:
 693 0012 A358     		ldr	r3, [r4, r2]
 694 0014 5B00     		lsl	r3, r3, #1
 695 0016 5B08     		lsr	r3, r3, #1
 696 0018 A350     		str	r3, [r4, r2]
 579:.\Generated_Source\PSoC4/CyDMA.c **** }
 697              		.loc 1 579 0
 698              		@ sp needed
 699 001a 10BD     		pop	{r4, pc}
 700              	.L71:
 701              		.align	2
 702              	.L70:
 703 001c 80101040 		.word	1074794624
 704              		.cfi_endproc
 705              	.LFE21:
 706              		.size	CyDmaChDisable, .-CyDmaChDisable
 707              		.section	.text.CyDmaTrigger,"ax",%progbits
 708              		.align	2
 709              		.global	CyDmaTrigger
 710              		.code	16
 711              		.thumb_func
 712              		.type	CyDmaTrigger, %function
 713              	CyDmaTrigger:
 714              	.LFB22:
 580:.\Generated_Source\PSoC4/CyDMA.c **** 
 581:.\Generated_Source\PSoC4/CyDMA.c **** 
 582:.\Generated_Source\PSoC4/CyDMA.c **** /*******************************************************************************
 583:.\Generated_Source\PSoC4/CyDMA.c **** * Function Name: CyDmaTrigger
 584:.\Generated_Source\PSoC4/CyDMA.c **** ********************************************************************************
 585:.\Generated_Source\PSoC4/CyDMA.c **** *
 586:.\Generated_Source\PSoC4/CyDMA.c **** * Summary:
 587:.\Generated_Source\PSoC4/CyDMA.c **** *  Triggers the DMA channel, this is useful only for software triggers. This is
 588:.\Generated_Source\PSoC4/CyDMA.c **** *  not needed when hardware triggers are used.
 589:.\Generated_Source\PSoC4/CyDMA.c **** *
 590:.\Generated_Source\PSoC4/CyDMA.c **** * Parameters:
 591:.\Generated_Source\PSoC4/CyDMA.c **** *  channel: Channel used by this function.
 592:.\Generated_Source\PSoC4/CyDMA.c **** *                   
 593:.\Generated_Source\PSoC4/CyDMA.c **** * Return:
 594:.\Generated_Source\PSoC4/CyDMA.c **** *  None. 
 595:.\Generated_Source\PSoC4/CyDMA.c **** *
 596:.\Generated_Source\PSoC4/CyDMA.c **** *******************************************************************************/
 597:.\Generated_Source\PSoC4/CyDMA.c **** void CyDmaTrigger(int32 channel)
 598:.\Generated_Source\PSoC4/CyDMA.c **** {
ARM GAS  C:\Users\TOM~1.MCK\AppData\Local\Temp\ccARJkPm.s 			page 25


 715              		.loc 1 598 0
 716              		.cfi_startproc
 717              	.LVL51:
 718 0000 10B5     		push	{r4, lr}
 719              		.cfi_def_cfa_offset 8
 720              		.cfi_offset 4, -8
 721              		.cfi_offset 14, -4
 722 0002 041E     		sub	r4, r0, #0
 599:.\Generated_Source\PSoC4/CyDMA.c ****     /* The LUT is device-dependent, thus it is generated during the build process. */
 600:.\Generated_Source\PSoC4/CyDMA.c ****     static const uint32 trCtlLut[] = {0xC0020000U};
 601:.\Generated_Source\PSoC4/CyDMA.c **** 
 602:.\Generated_Source\PSoC4/CyDMA.c ****     CYASSERT((channel >= 0) && (channel < CYDMA_CH_NR));
 723              		.loc 1 602 0
 724 0004 072C     		cmp	r4, #7
 725 0006 02D9     		bls	.L73
 726              		.loc 1 602 0 is_stmt 0 discriminator 1
 727 0008 0020     		mov	r0, #0
 728              	.LVL52:
 729 000a FFF7FEFF 		bl	CyHalt
 730              	.LVL53:
 731              	.L73:
 603:.\Generated_Source\PSoC4/CyDMA.c **** 
 604:.\Generated_Source\PSoC4/CyDMA.c ****     CYDMA_TR_CTL_REG = trCtlLut[(uint32)channel >> CYDMA_TR_GROUP_SHR] | ((uint32)channel & CYDMA_T
 732              		.loc 1 604 0 is_stmt 1
 733 000e 0723     		mov	r3, #7
 734 0010 1C40     		and	r4, r3
 735              	.LVL54:
 736 0012 024B     		ldr	r3, .L74
 737 0014 1C43     		orr	r4, r3
 738 0016 024B     		ldr	r3, .L74+4
 739 0018 1C60     		str	r4, [r3]
 605:.\Generated_Source\PSoC4/CyDMA.c **** }
 740              		.loc 1 605 0
 741              		@ sp needed
 742 001a 10BD     		pop	{r4, pc}
 743              	.L75:
 744              		.align	2
 745              	.L74:
 746 001c 000002C0 		.word	-1073610752
 747 0020 00060140 		.word	1073808896
 748              		.cfi_endproc
 749              	.LFE22:
 750              		.size	CyDmaTrigger, .-CyDmaTrigger
 751              		.section	.text.CyDmaSetPriority,"ax",%progbits
 752              		.align	2
 753              		.global	CyDmaSetPriority
 754              		.code	16
 755              		.thumb_func
 756              		.type	CyDmaSetPriority, %function
 757              	CyDmaSetPriority:
 758              	.LFB23:
 606:.\Generated_Source\PSoC4/CyDMA.c **** 
 607:.\Generated_Source\PSoC4/CyDMA.c **** 
 608:.\Generated_Source\PSoC4/CyDMA.c **** /*******************************************************************************
 609:.\Generated_Source\PSoC4/CyDMA.c **** * Function Name: CyDmaSetPriority
 610:.\Generated_Source\PSoC4/CyDMA.c **** ********************************************************************************
 611:.\Generated_Source\PSoC4/CyDMA.c **** *
ARM GAS  C:\Users\TOM~1.MCK\AppData\Local\Temp\ccARJkPm.s 			page 26


 612:.\Generated_Source\PSoC4/CyDMA.c **** * Summary:
 613:.\Generated_Source\PSoC4/CyDMA.c **** *  Sets the priority for the channel.
 614:.\Generated_Source\PSoC4/CyDMA.c **** *
 615:.\Generated_Source\PSoC4/CyDMA.c **** * Parameters:
 616:.\Generated_Source\PSoC4/CyDMA.c **** *  channel:  Channel used by this function
 617:.\Generated_Source\PSoC4/CyDMA.c **** *  priority: Priority for channel. Priority can be 0,1,2, or 3.
 618:.\Generated_Source\PSoC4/CyDMA.c **** *            0 is the highest priority.
 619:.\Generated_Source\PSoC4/CyDMA.c **** *                   
 620:.\Generated_Source\PSoC4/CyDMA.c **** * Return:
 621:.\Generated_Source\PSoC4/CyDMA.c **** *  None.
 622:.\Generated_Source\PSoC4/CyDMA.c **** *
 623:.\Generated_Source\PSoC4/CyDMA.c **** * Side effect:
 624:.\Generated_Source\PSoC4/CyDMA.c **** *  This function should not be called while the channel is enabled.
 625:.\Generated_Source\PSoC4/CyDMA.c **** *
 626:.\Generated_Source\PSoC4/CyDMA.c **** *******************************************************************************/
 627:.\Generated_Source\PSoC4/CyDMA.c **** void CyDmaSetPriority(int32 channel, int32 priority)
 628:.\Generated_Source\PSoC4/CyDMA.c **** {
 759              		.loc 1 628 0
 760              		.cfi_startproc
 761              	.LVL55:
 762 0000 38B5     		push	{r3, r4, r5, lr}
 763              		.cfi_def_cfa_offset 16
 764              		.cfi_offset 3, -16
 765              		.cfi_offset 4, -12
 766              		.cfi_offset 5, -8
 767              		.cfi_offset 14, -4
 768 0002 041C     		mov	r4, r0
 769 0004 0D1C     		mov	r5, r1
 629:.\Generated_Source\PSoC4/CyDMA.c ****     uint32 regValue;
 630:.\Generated_Source\PSoC4/CyDMA.c **** 
 631:.\Generated_Source\PSoC4/CyDMA.c ****     CYASSERT((channel  >= 0) && (channel  <  CYDMA_CH_NR));
 770              		.loc 1 631 0
 771 0006 0728     		cmp	r0, #7
 772 0008 02D9     		bls	.L77
 773              		.loc 1 631 0 is_stmt 0 discriminator 1
 774 000a 0020     		mov	r0, #0
 775              	.LVL56:
 776 000c FFF7FEFF 		bl	CyHalt
 777              	.LVL57:
 778              	.L77:
 632:.\Generated_Source\PSoC4/CyDMA.c ****     CYASSERT((priority >= 0) && (priority <= CY_DMA_MAX_PRIO));
 779              		.loc 1 632 0 is_stmt 1
 780 0010 032D     		cmp	r5, #3
 781 0012 02D9     		bls	.L78
 782              		.loc 1 632 0 is_stmt 0 discriminator 1
 783 0014 0020     		mov	r0, #0
 784 0016 FFF7FEFF 		bl	CyHalt
 785              	.LVL58:
 786              	.L78:
 633:.\Generated_Source\PSoC4/CyDMA.c **** 
 634:.\Generated_Source\PSoC4/CyDMA.c ****     regValue = CYDMA_CH_CTL_BASE.ctl[channel] & (uint32)~CYDMA_PRIO;
 787              		.loc 1 634 0 is_stmt 1
 788 001a 044A     		ldr	r2, .L79
 789 001c A400     		lsl	r4, r4, #2
 790              	.LVL59:
 791 001e A158     		ldr	r1, [r4, r2]
 792 0020 034B     		ldr	r3, .L79+4
ARM GAS  C:\Users\TOM~1.MCK\AppData\Local\Temp\ccARJkPm.s 			page 27


 793 0022 0B40     		and	r3, r1
 794              	.LVL60:
 635:.\Generated_Source\PSoC4/CyDMA.c ****     CYDMA_CH_CTL_BASE.ctl[channel] = regValue | (uint32)((uint32)priority << CYDMA_PRIO_POS);
 795              		.loc 1 635 0
 796 0024 2907     		lsl	r1, r5, #28
 797 0026 1943     		orr	r1, r3
 798 0028 A150     		str	r1, [r4, r2]
 636:.\Generated_Source\PSoC4/CyDMA.c **** }
 799              		.loc 1 636 0
 800              		@ sp needed
 801              	.LVL61:
 802 002a 38BD     		pop	{r3, r4, r5, pc}
 803              	.L80:
 804              		.align	2
 805              	.L79:
 806 002c 80101040 		.word	1074794624
 807 0030 FFFFFFCF 		.word	-805306369
 808              		.cfi_endproc
 809              	.LFE23:
 810              		.size	CyDmaSetPriority, .-CyDmaSetPriority
 811              		.section	.text.CyDmaGetPriority,"ax",%progbits
 812              		.align	2
 813              		.global	CyDmaGetPriority
 814              		.code	16
 815              		.thumb_func
 816              		.type	CyDmaGetPriority, %function
 817              	CyDmaGetPriority:
 818              	.LFB24:
 637:.\Generated_Source\PSoC4/CyDMA.c **** 
 638:.\Generated_Source\PSoC4/CyDMA.c **** 
 639:.\Generated_Source\PSoC4/CyDMA.c **** /*******************************************************************************
 640:.\Generated_Source\PSoC4/CyDMA.c **** * Function Name: CyDmaGetPriority
 641:.\Generated_Source\PSoC4/CyDMA.c **** ********************************************************************************
 642:.\Generated_Source\PSoC4/CyDMA.c **** *
 643:.\Generated_Source\PSoC4/CyDMA.c **** * Summary:
 644:.\Generated_Source\PSoC4/CyDMA.c **** *  Gets the priority for the channel.
 645:.\Generated_Source\PSoC4/CyDMA.c **** *
 646:.\Generated_Source\PSoC4/CyDMA.c **** * Parameters:
 647:.\Generated_Source\PSoC4/CyDMA.c **** *  channel: Channel used by this function.
 648:.\Generated_Source\PSoC4/CyDMA.c **** *                   
 649:.\Generated_Source\PSoC4/CyDMA.c **** * Return:
 650:.\Generated_Source\PSoC4/CyDMA.c **** *  Priority for channel. Priority can be 0,1,2, or 3. 0 is the highest priority.
 651:.\Generated_Source\PSoC4/CyDMA.c **** *
 652:.\Generated_Source\PSoC4/CyDMA.c **** *******************************************************************************/
 653:.\Generated_Source\PSoC4/CyDMA.c **** int32 CyDmaGetPriority(int32 channel)
 654:.\Generated_Source\PSoC4/CyDMA.c **** {
 819              		.loc 1 654 0
 820              		.cfi_startproc
 821              	.LVL62:
 822 0000 10B5     		push	{r4, lr}
 823              		.cfi_def_cfa_offset 8
 824              		.cfi_offset 4, -8
 825              		.cfi_offset 14, -4
 826 0002 041E     		sub	r4, r0, #0
 655:.\Generated_Source\PSoC4/CyDMA.c ****     uint32 priority;
 656:.\Generated_Source\PSoC4/CyDMA.c **** 
 657:.\Generated_Source\PSoC4/CyDMA.c ****     CYASSERT((channel >= 0) && (channel < CYDMA_CH_NR));
ARM GAS  C:\Users\TOM~1.MCK\AppData\Local\Temp\ccARJkPm.s 			page 28


 827              		.loc 1 657 0
 828 0004 072C     		cmp	r4, #7
 829 0006 02D9     		bls	.L82
 830              		.loc 1 657 0 is_stmt 0 discriminator 1
 831 0008 0020     		mov	r0, #0
 832              	.LVL63:
 833 000a FFF7FEFF 		bl	CyHalt
 834              	.LVL64:
 835              	.L82:
 658:.\Generated_Source\PSoC4/CyDMA.c **** 
 659:.\Generated_Source\PSoC4/CyDMA.c ****     priority = (CYDMA_CH_CTL_BASE.ctl[channel] & CYDMA_PRIO) >> CYDMA_PRIO_POS;
 836              		.loc 1 659 0 is_stmt 1
 837 000e A400     		lsl	r4, r4, #2
 838              	.LVL65:
 839 0010 024B     		ldr	r3, .L83
 840 0012 E058     		ldr	r0, [r4, r3]
 841 0014 8000     		lsl	r0, r0, #2
 842 0016 800F     		lsr	r0, r0, #30
 843              	.LVL66:
 660:.\Generated_Source\PSoC4/CyDMA.c ****     return ((int32)priority);
 661:.\Generated_Source\PSoC4/CyDMA.c **** }
 844              		.loc 1 661 0
 845              		@ sp needed
 846 0018 10BD     		pop	{r4, pc}
 847              	.L84:
 848 001a C046     		.align	2
 849              	.L83:
 850 001c 80101040 		.word	1074794624
 851              		.cfi_endproc
 852              	.LFE24:
 853              		.size	CyDmaGetPriority, .-CyDmaGetPriority
 854              		.section	.text.CyDmaSetNextDescriptor,"ax",%progbits
 855              		.align	2
 856              		.global	CyDmaSetNextDescriptor
 857              		.code	16
 858              		.thumb_func
 859              		.type	CyDmaSetNextDescriptor, %function
 860              	CyDmaSetNextDescriptor:
 861              	.LFB25:
 662:.\Generated_Source\PSoC4/CyDMA.c **** 
 663:.\Generated_Source\PSoC4/CyDMA.c **** 
 664:.\Generated_Source\PSoC4/CyDMA.c **** /*******************************************************************************
 665:.\Generated_Source\PSoC4/CyDMA.c **** * Function Name: CyDmaSetNextDescriptor
 666:.\Generated_Source\PSoC4/CyDMA.c **** ********************************************************************************
 667:.\Generated_Source\PSoC4/CyDMA.c **** *
 668:.\Generated_Source\PSoC4/CyDMA.c **** * Summary:
 669:.\Generated_Source\PSoC4/CyDMA.c **** *  Sets the descriptor that should be run the next time the channel is
 670:.\Generated_Source\PSoC4/CyDMA.c **** *  triggered.
 671:.\Generated_Source\PSoC4/CyDMA.c **** *
 672:.\Generated_Source\PSoC4/CyDMA.c **** * Parameters:
 673:.\Generated_Source\PSoC4/CyDMA.c **** *  channel:    Channel used by this function.
 674:.\Generated_Source\PSoC4/CyDMA.c **** *  descriptor: Next Descriptor to run (0 or 1).
 675:.\Generated_Source\PSoC4/CyDMA.c **** *
 676:.\Generated_Source\PSoC4/CyDMA.c **** * Return:
 677:.\Generated_Source\PSoC4/CyDMA.c **** *  None.
 678:.\Generated_Source\PSoC4/CyDMA.c **** *                   
 679:.\Generated_Source\PSoC4/CyDMA.c **** * Side effect:
ARM GAS  C:\Users\TOM~1.MCK\AppData\Local\Temp\ccARJkPm.s 			page 29


 680:.\Generated_Source\PSoC4/CyDMA.c **** *  This function should not be called while the channel is enabled.
 681:.\Generated_Source\PSoC4/CyDMA.c **** *
 682:.\Generated_Source\PSoC4/CyDMA.c **** *******************************************************************************/
 683:.\Generated_Source\PSoC4/CyDMA.c **** void CyDmaSetNextDescriptor(int32 channel, int32 descriptor)
 684:.\Generated_Source\PSoC4/CyDMA.c **** {
 862              		.loc 1 684 0
 863              		.cfi_startproc
 864              	.LVL67:
 865 0000 38B5     		push	{r3, r4, r5, lr}
 866              		.cfi_def_cfa_offset 16
 867              		.cfi_offset 3, -16
 868              		.cfi_offset 4, -12
 869              		.cfi_offset 5, -8
 870              		.cfi_offset 14, -4
 871 0002 041C     		mov	r4, r0
 872 0004 0D1C     		mov	r5, r1
 685:.\Generated_Source\PSoC4/CyDMA.c ****     uint32 regValue;
 686:.\Generated_Source\PSoC4/CyDMA.c **** 
 687:.\Generated_Source\PSoC4/CyDMA.c ****     CYASSERT((channel    >= 0) && (channel    < CYDMA_CH_NR));
 873              		.loc 1 687 0
 874 0006 0728     		cmp	r0, #7
 875 0008 02D9     		bls	.L86
 876              		.loc 1 687 0 is_stmt 0 discriminator 1
 877 000a 0020     		mov	r0, #0
 878              	.LVL68:
 879 000c FFF7FEFF 		bl	CyHalt
 880              	.LVL69:
 881              	.L86:
 688:.\Generated_Source\PSoC4/CyDMA.c ****     CYASSERT((descriptor >= 0) && (descriptor < CYDMA_DESCR_NR));
 882              		.loc 1 688 0 is_stmt 1
 883 0010 012D     		cmp	r5, #1
 884 0012 02D9     		bls	.L87
 885              		.loc 1 688 0 is_stmt 0 discriminator 1
 886 0014 0020     		mov	r0, #0
 887 0016 FFF7FEFF 		bl	CyHalt
 888              	.LVL70:
 889              	.L87:
 689:.\Generated_Source\PSoC4/CyDMA.c **** 
 690:.\Generated_Source\PSoC4/CyDMA.c ****     regValue = CYDMA_CH_CTL_BASE.ctl[channel] & (uint32)~CYDMA_DESCRIPTOR;
 890              		.loc 1 690 0 is_stmt 1
 891 001a 044A     		ldr	r2, .L88
 892 001c A400     		lsl	r4, r4, #2
 893              	.LVL71:
 894 001e A158     		ldr	r1, [r4, r2]
 895 0020 034B     		ldr	r3, .L88+4
 896 0022 0B40     		and	r3, r1
 897              	.LVL72:
 691:.\Generated_Source\PSoC4/CyDMA.c ****     CYDMA_CH_CTL_BASE.ctl[channel] = regValue | (uint32)((uint32)descriptor << CYDMA_DESCRIPTOR_POS
 898              		.loc 1 691 0
 899 0024 A907     		lsl	r1, r5, #30
 900 0026 1943     		orr	r1, r3
 901 0028 A150     		str	r1, [r4, r2]
 692:.\Generated_Source\PSoC4/CyDMA.c **** }
 902              		.loc 1 692 0
 903              		@ sp needed
 904              	.LVL73:
 905 002a 38BD     		pop	{r3, r4, r5, pc}
ARM GAS  C:\Users\TOM~1.MCK\AppData\Local\Temp\ccARJkPm.s 			page 30


 906              	.L89:
 907              		.align	2
 908              	.L88:
 909 002c 80101040 		.word	1074794624
 910 0030 FFFFFFBF 		.word	-1073741825
 911              		.cfi_endproc
 912              	.LFE25:
 913              		.size	CyDmaSetNextDescriptor, .-CyDmaSetNextDescriptor
 914              		.section	.text.CyDmaGetNextDescriptor,"ax",%progbits
 915              		.align	2
 916              		.global	CyDmaGetNextDescriptor
 917              		.code	16
 918              		.thumb_func
 919              		.type	CyDmaGetNextDescriptor, %function
 920              	CyDmaGetNextDescriptor:
 921              	.LFB26:
 693:.\Generated_Source\PSoC4/CyDMA.c **** 
 694:.\Generated_Source\PSoC4/CyDMA.c **** 
 695:.\Generated_Source\PSoC4/CyDMA.c **** /*******************************************************************************
 696:.\Generated_Source\PSoC4/CyDMA.c **** * Function Name: CyDmaGetNextDescriptor
 697:.\Generated_Source\PSoC4/CyDMA.c **** ********************************************************************************
 698:.\Generated_Source\PSoC4/CyDMA.c **** *
 699:.\Generated_Source\PSoC4/CyDMA.c **** * Summary:
 700:.\Generated_Source\PSoC4/CyDMA.c **** *  Returns the next descriptor that should be run, as set by 
 701:.\Generated_Source\PSoC4/CyDMA.c **** *  CyDmaSetNextDescriptor().
 702:.\Generated_Source\PSoC4/CyDMA.c **** *
 703:.\Generated_Source\PSoC4/CyDMA.c **** * Parameters:
 704:.\Generated_Source\PSoC4/CyDMA.c **** *  channel: channel used by this function.
 705:.\Generated_Source\PSoC4/CyDMA.c **** *                   
 706:.\Generated_Source\PSoC4/CyDMA.c **** * Return:
 707:.\Generated_Source\PSoC4/CyDMA.c **** *  Next Descriptor to run (0 or 1).
 708:.\Generated_Source\PSoC4/CyDMA.c **** *
 709:.\Generated_Source\PSoC4/CyDMA.c **** *******************************************************************************/
 710:.\Generated_Source\PSoC4/CyDMA.c **** int32 CyDmaGetNextDescriptor(int32 channel)
 711:.\Generated_Source\PSoC4/CyDMA.c **** {
 922              		.loc 1 711 0
 923              		.cfi_startproc
 924              	.LVL74:
 925 0000 10B5     		push	{r4, lr}
 926              		.cfi_def_cfa_offset 8
 927              		.cfi_offset 4, -8
 928              		.cfi_offset 14, -4
 929 0002 041E     		sub	r4, r0, #0
 712:.\Generated_Source\PSoC4/CyDMA.c ****     uint32 nextDescriptor;
 713:.\Generated_Source\PSoC4/CyDMA.c **** 
 714:.\Generated_Source\PSoC4/CyDMA.c ****     CYASSERT((channel >= 0) && (channel < CYDMA_CH_NR));
 930              		.loc 1 714 0
 931 0004 072C     		cmp	r4, #7
 932 0006 02D9     		bls	.L91
 933              		.loc 1 714 0 is_stmt 0 discriminator 1
 934 0008 0020     		mov	r0, #0
 935              	.LVL75:
 936 000a FFF7FEFF 		bl	CyHalt
 937              	.LVL76:
 938              	.L91:
 715:.\Generated_Source\PSoC4/CyDMA.c **** 
 716:.\Generated_Source\PSoC4/CyDMA.c ****     nextDescriptor = (CYDMA_CH_CTL_BASE.ctl[channel] & CYDMA_DESCRIPTOR) >> CYDMA_DESCRIPTOR_POS;
ARM GAS  C:\Users\TOM~1.MCK\AppData\Local\Temp\ccARJkPm.s 			page 31


 939              		.loc 1 716 0 is_stmt 1
 940 000e A400     		lsl	r4, r4, #2
 941              	.LVL77:
 942 0010 024B     		ldr	r3, .L92
 943 0012 E058     		ldr	r0, [r4, r3]
 944 0014 4000     		lsl	r0, r0, #1
 945 0016 C00F     		lsr	r0, r0, #31
 946              	.LVL78:
 717:.\Generated_Source\PSoC4/CyDMA.c ****     return ((int32)nextDescriptor);
 718:.\Generated_Source\PSoC4/CyDMA.c **** }
 947              		.loc 1 718 0
 948              		@ sp needed
 949 0018 10BD     		pop	{r4, pc}
 950              	.L93:
 951 001a C046     		.align	2
 952              	.L92:
 953 001c 80101040 		.word	1074794624
 954              		.cfi_endproc
 955              	.LFE26:
 956              		.size	CyDmaGetNextDescriptor, .-CyDmaGetNextDescriptor
 957              		.section	.text.CyDmaSetConfiguration,"ax",%progbits
 958              		.align	2
 959              		.global	CyDmaSetConfiguration
 960              		.code	16
 961              		.thumb_func
 962              		.type	CyDmaSetConfiguration, %function
 963              	CyDmaSetConfiguration:
 964              	.LFB27:
 719:.\Generated_Source\PSoC4/CyDMA.c **** 
 720:.\Generated_Source\PSoC4/CyDMA.c **** 
 721:.\Generated_Source\PSoC4/CyDMA.c **** /*******************************************************************************
 722:.\Generated_Source\PSoC4/CyDMA.c **** * Function Name: CyDmaSetConfiguration
 723:.\Generated_Source\PSoC4/CyDMA.c **** ********************************************************************************
 724:.\Generated_Source\PSoC4/CyDMA.c **** *
 725:.\Generated_Source\PSoC4/CyDMA.c **** * Summary:
 726:.\Generated_Source\PSoC4/CyDMA.c **** *  Sets configuration information for the specified descriptor.
 727:.\Generated_Source\PSoC4/CyDMA.c **** *
 728:.\Generated_Source\PSoC4/CyDMA.c **** * Parameters:
 729:.\Generated_Source\PSoC4/CyDMA.c **** *  channel:    DMA channel modified by this function.
 730:.\Generated_Source\PSoC4/CyDMA.c **** *  descriptor: Descriptor (0 or 1) modified by this function.
 731:.\Generated_Source\PSoC4/CyDMA.c **** *  config:     Pointer to a configuration structure. Refer to cydma_init_struct
 732:.\Generated_Source\PSoC4/CyDMA.c **** *              structure definition in CyDMA_P4.h and/or DMA channel datasheet
 733:.\Generated_Source\PSoC4/CyDMA.c **** *              for more information.
 734:.\Generated_Source\PSoC4/CyDMA.c **** *                   
 735:.\Generated_Source\PSoC4/CyDMA.c **** * Return:
 736:.\Generated_Source\PSoC4/CyDMA.c **** *  None.
 737:.\Generated_Source\PSoC4/CyDMA.c **** *
 738:.\Generated_Source\PSoC4/CyDMA.c **** * Side effect:
 739:.\Generated_Source\PSoC4/CyDMA.c **** *  The status register associated with the specified descriptor is reset to
 740:.\Generated_Source\PSoC4/CyDMA.c **** *  zero after this function call. This function also validates the descriptor.
 741:.\Generated_Source\PSoC4/CyDMA.c **** *  This function should not be called while the descriptor is active.
 742:.\Generated_Source\PSoC4/CyDMA.c **** *  This can be checked by calling CyDmaGetStatus().
 743:.\Generated_Source\PSoC4/CyDMA.c **** *
 744:.\Generated_Source\PSoC4/CyDMA.c **** *******************************************************************************/
 745:.\Generated_Source\PSoC4/CyDMA.c **** void CyDmaSetConfiguration(int32 channel, int32 descriptor, const cydma_init_struct * config)
 746:.\Generated_Source\PSoC4/CyDMA.c **** {  
 965              		.loc 1 746 0
ARM GAS  C:\Users\TOM~1.MCK\AppData\Local\Temp\ccARJkPm.s 			page 32


 966              		.cfi_startproc
 967              	.LVL79:
 968 0000 70B5     		push	{r4, r5, r6, lr}
 969              		.cfi_def_cfa_offset 16
 970              		.cfi_offset 4, -16
 971              		.cfi_offset 5, -12
 972              		.cfi_offset 6, -8
 973              		.cfi_offset 14, -4
 974 0002 061C     		mov	r6, r0
 975 0004 0D1C     		mov	r5, r1
 976 0006 141C     		mov	r4, r2
 747:.\Generated_Source\PSoC4/CyDMA.c ****     CYASSERT((channel        >= 0) && (channel         < CYDMA_CH_NR));
 977              		.loc 1 747 0
 978 0008 0728     		cmp	r0, #7
 979 000a 02D9     		bls	.L95
 980              		.loc 1 747 0 is_stmt 0 discriminator 1
 981 000c 0020     		mov	r0, #0
 982              	.LVL80:
 983 000e FFF7FEFF 		bl	CyHalt
 984              	.LVL81:
 985              	.L95:
 748:.\Generated_Source\PSoC4/CyDMA.c ****     CYASSERT((descriptor     >= 0) && (descriptor      < CYDMA_DESCR_NR));
 986              		.loc 1 748 0 is_stmt 1
 987 0012 012D     		cmp	r5, #1
 988 0014 02D9     		bls	.L96
 989              		.loc 1 748 0 is_stmt 0 discriminator 1
 990 0016 0020     		mov	r0, #0
 991 0018 FFF7FEFF 		bl	CyHalt
 992              	.LVL82:
 993              	.L96:
 749:.\Generated_Source\PSoC4/CyDMA.c **** 
 750:.\Generated_Source\PSoC4/CyDMA.c ****     CYASSERT(0u == (config->dataElementSize     & (uint32)~CYDMA_DATA_SIZE));   
 994              		.loc 1 750 0 is_stmt 1
 995 001c 294B     		ldr	r3, .L105
 996 001e 2268     		ldr	r2, [r4]
 997 0020 1A42     		tst	r2, r3
 998 0022 02D0     		beq	.L97
 999              		.loc 1 750 0 is_stmt 0 discriminator 1
 1000 0024 0020     		mov	r0, #0
 1001 0026 FFF7FEFF 		bl	CyHalt
 1002              	.LVL83:
 1003              	.L97:
 751:.\Generated_Source\PSoC4/CyDMA.c ****     CYASSERT((config->numDataElements > 0)     && (config->numDataElements <= CYDMA_MAX_DATA_NR));
 1004              		.loc 1 751 0 is_stmt 1
 1005 002a 6368     		ldr	r3, [r4, #4]
 1006 002c 013B     		sub	r3, r3, #1
 1007 002e 264A     		ldr	r2, .L105+4
 1008 0030 9342     		cmp	r3, r2
 1009 0032 02D9     		bls	.L98
 1010              		.loc 1 751 0 is_stmt 0 discriminator 1
 1011 0034 0020     		mov	r0, #0
 1012 0036 FFF7FEFF 		bl	CyHalt
 1013              	.LVL84:
 1014              	.L98:
 752:.\Generated_Source\PSoC4/CyDMA.c ****     CYASSERT(0u == (config->srcDstTransferWidth & (uint32)~CYDMA_TRANSFER_WIDTH));
 1015              		.loc 1 752 0 is_stmt 1
 1016 003a 244B     		ldr	r3, .L105+8
ARM GAS  C:\Users\TOM~1.MCK\AppData\Local\Temp\ccARJkPm.s 			page 33


 1017 003c A268     		ldr	r2, [r4, #8]
 1018 003e 1A42     		tst	r2, r3
 1019 0040 02D0     		beq	.L99
 1020              		.loc 1 752 0 is_stmt 0 discriminator 1
 1021 0042 0020     		mov	r0, #0
 1022 0044 FFF7FEFF 		bl	CyHalt
 1023              	.LVL85:
 1024              	.L99:
 753:.\Generated_Source\PSoC4/CyDMA.c ****     CYASSERT(0u == (config->addressIncrement    & (uint32)~CYDMA_ADDR_INCR));
 1025              		.loc 1 753 0 is_stmt 1
 1026 0048 214B     		ldr	r3, .L105+12
 1027 004a E268     		ldr	r2, [r4, #12]
 1028 004c 1A42     		tst	r2, r3
 1029 004e 02D0     		beq	.L100
 1030              		.loc 1 753 0 is_stmt 0 discriminator 1
 1031 0050 0020     		mov	r0, #0
 1032 0052 FFF7FEFF 		bl	CyHalt
 1033              	.LVL86:
 1034              	.L100:
 754:.\Generated_Source\PSoC4/CyDMA.c ****     CYASSERT(0u == (config->triggerType         & (uint32)~CYDMA_TRIGGER_TYPE));
 1035              		.loc 1 754 0 is_stmt 1
 1036 0056 1F4B     		ldr	r3, .L105+16
 1037 0058 2269     		ldr	r2, [r4, #16]
 1038 005a 1A42     		tst	r2, r3
 1039 005c 02D0     		beq	.L101
 1040              		.loc 1 754 0 is_stmt 0 discriminator 1
 1041 005e 0020     		mov	r0, #0
 1042 0060 FFF7FEFF 		bl	CyHalt
 1043              	.LVL87:
 1044              	.L101:
 755:.\Generated_Source\PSoC4/CyDMA.c ****     CYASSERT(0u == (config->transferMode        & (uint32)~CYDMA_TRANSFER_MODE));
 1045              		.loc 1 755 0 is_stmt 1
 1046 0064 6369     		ldr	r3, [r4, #20]
 1047 0066 9B00     		lsl	r3, r3, #2
 1048 0068 02D0     		beq	.L102
 1049              		.loc 1 755 0 is_stmt 0 discriminator 1
 1050 006a 0020     		mov	r0, #0
 1051 006c FFF7FEFF 		bl	CyHalt
 1052              	.LVL88:
 1053              	.L102:
 756:.\Generated_Source\PSoC4/CyDMA.c ****     CYASSERT(0u == (config->preemptable         & (uint32)~CYDMA_PREEMPTABLE));
 1054              		.loc 1 756 0 is_stmt 1
 1055 0070 194B     		ldr	r3, .L105+20
 1056 0072 A269     		ldr	r2, [r4, #24]
 1057 0074 1A42     		tst	r2, r3
 1058 0076 02D0     		beq	.L103
 1059              		.loc 1 756 0 is_stmt 0 discriminator 1
 1060 0078 0020     		mov	r0, #0
 1061 007a FFF7FEFF 		bl	CyHalt
 1062              	.LVL89:
 1063              	.L103:
 757:.\Generated_Source\PSoC4/CyDMA.c ****     CYASSERT(0u == (config->actions             & (uint32)~CYDMA_POST_COMPLETE_ACTIONS));
 1064              		.loc 1 757 0 is_stmt 1
 1065 007e 174B     		ldr	r3, .L105+24
 1066 0080 E269     		ldr	r2, [r4, #28]
 1067 0082 1A42     		tst	r2, r3
 1068 0084 02D0     		beq	.L104
ARM GAS  C:\Users\TOM~1.MCK\AppData\Local\Temp\ccARJkPm.s 			page 34


 1069              		.loc 1 757 0 is_stmt 0 discriminator 1
 1070 0086 0020     		mov	r0, #0
 1071 0088 FFF7FEFF 		bl	CyHalt
 1072              	.LVL90:
 1073              	.L104:
 758:.\Generated_Source\PSoC4/CyDMA.c ****     
 759:.\Generated_Source\PSoC4/CyDMA.c ****     CYDMA_DESCR_BASE.descriptor[channel][descriptor].ctl = config->dataElementSize     |
 760:.\Generated_Source\PSoC4/CyDMA.c ****                                                   ((uint32)config->numDataElements-1u) |
 1074              		.loc 1 760 0 is_stmt 1
 1075 008c 6368     		ldr	r3, [r4, #4]
 1076 008e 013B     		sub	r3, r3, #1
 759:.\Generated_Source\PSoC4/CyDMA.c ****                                                   ((uint32)config->numDataElements-1u) |
 1077              		.loc 1 759 0
 1078 0090 2268     		ldr	r2, [r4]
 1079 0092 1343     		orr	r3, r2
 1080              		.loc 1 760 0
 1081 0094 A268     		ldr	r2, [r4, #8]
 1082 0096 1343     		orr	r3, r2
 761:.\Generated_Source\PSoC4/CyDMA.c ****                                                            config->srcDstTransferWidth |
 1083              		.loc 1 761 0
 1084 0098 E268     		ldr	r2, [r4, #12]
 1085 009a 1343     		orr	r3, r2
 762:.\Generated_Source\PSoC4/CyDMA.c ****                                                            config->addressIncrement    |
 1086              		.loc 1 762 0
 1087 009c 2269     		ldr	r2, [r4, #16]
 1088 009e 1343     		orr	r3, r2
 763:.\Generated_Source\PSoC4/CyDMA.c ****                                                            config->triggerType         |
 1089              		.loc 1 763 0
 1090 00a0 6269     		ldr	r2, [r4, #20]
 1091 00a2 1343     		orr	r3, r2
 764:.\Generated_Source\PSoC4/CyDMA.c ****                                                            config->transferMode        |
 1092              		.loc 1 764 0
 1093 00a4 A269     		ldr	r2, [r4, #24]
 1094 00a6 1343     		orr	r3, r2
 765:.\Generated_Source\PSoC4/CyDMA.c ****                                                            config->preemptable         |
 766:.\Generated_Source\PSoC4/CyDMA.c ****                                                            config->actions;
 1095              		.loc 1 766 0
 1096 00a8 E269     		ldr	r2, [r4, #28]
 765:.\Generated_Source\PSoC4/CyDMA.c ****                                                            config->preemptable         |
 1097              		.loc 1 765 0
 1098 00aa 1343     		orr	r3, r2
 759:.\Generated_Source\PSoC4/CyDMA.c ****                                                   ((uint32)config->numDataElements-1u) |
 1099              		.loc 1 759 0
 1100 00ac 7600     		lsl	r6, r6, #1
 1101              	.LVL91:
 1102 00ae 7519     		add	r5, r6, r5
 1103              	.LVL92:
 1104 00b0 2D01     		lsl	r5, r5, #4
 1105 00b2 0B4A     		ldr	r2, .L105+28
 1106 00b4 9446     		mov	ip, r2
 1107 00b6 6544     		add	r5, r5, ip
 1108 00b8 AB60     		str	r3, [r5, #8]
 767:.\Generated_Source\PSoC4/CyDMA.c **** 
 768:.\Generated_Source\PSoC4/CyDMA.c ****     CYDMA_DESCR_BASE.descriptor[channel][descriptor].status = CYDMA_VALID;
 1109              		.loc 1 768 0
 1110 00ba 8023     		mov	r3, #128
 1111 00bc 1B06     		lsl	r3, r3, #24
ARM GAS  C:\Users\TOM~1.MCK\AppData\Local\Temp\ccARJkPm.s 			page 35


 1112 00be EB60     		str	r3, [r5, #12]
 769:.\Generated_Source\PSoC4/CyDMA.c **** }
 1113              		.loc 1 769 0
 1114              		@ sp needed
 1115              	.LVL93:
 1116 00c0 70BD     		pop	{r4, r5, r6, pc}
 1117              	.L106:
 1118 00c2 C046     		.align	2
 1119              	.L105:
 1120 00c4 FFFFFCFF 		.word	-196609
 1121 00c8 FFFF0000 		.word	65535
 1122 00cc FFFFAFFF 		.word	-5242881
 1123 00d0 FFFF5FFF 		.word	-10485761
 1124 00d4 FFFFFFFC 		.word	-50331649
 1125 00d8 FFFFFFEF 		.word	-268435457
 1126 00dc FFFFFFD3 		.word	-738197505
 1127 00e0 00181040 		.word	1074796544
 1128              		.cfi_endproc
 1129              	.LFE27:
 1130              		.size	CyDmaSetConfiguration, .-CyDmaSetConfiguration
 1131              		.section	.text.CyDmaValidateDescriptor,"ax",%progbits
 1132              		.align	2
 1133              		.global	CyDmaValidateDescriptor
 1134              		.code	16
 1135              		.thumb_func
 1136              		.type	CyDmaValidateDescriptor, %function
 1137              	CyDmaValidateDescriptor:
 1138              	.LFB28:
 770:.\Generated_Source\PSoC4/CyDMA.c **** 
 771:.\Generated_Source\PSoC4/CyDMA.c **** 
 772:.\Generated_Source\PSoC4/CyDMA.c **** /*******************************************************************************
 773:.\Generated_Source\PSoC4/CyDMA.c **** * Function Name: CyDmaValidateDescriptor
 774:.\Generated_Source\PSoC4/CyDMA.c **** ********************************************************************************
 775:.\Generated_Source\PSoC4/CyDMA.c **** *
 776:.\Generated_Source\PSoC4/CyDMA.c **** * Summary:
 777:.\Generated_Source\PSoC4/CyDMA.c **** *  Validates the specified descriptor after it has been invalidated.
 778:.\Generated_Source\PSoC4/CyDMA.c **** *
 779:.\Generated_Source\PSoC4/CyDMA.c **** * Parameters:
 780:.\Generated_Source\PSoC4/CyDMA.c **** *  channel:    Channel used by this function.
 781:.\Generated_Source\PSoC4/CyDMA.c **** *  descriptor: Descriptor (0 or 1) modified by this function.
 782:.\Generated_Source\PSoC4/CyDMA.c **** *                   
 783:.\Generated_Source\PSoC4/CyDMA.c **** * Return:
 784:.\Generated_Source\PSoC4/CyDMA.c **** *  None. 
 785:.\Generated_Source\PSoC4/CyDMA.c **** *
 786:.\Generated_Source\PSoC4/CyDMA.c **** * Side effect:
 787:.\Generated_Source\PSoC4/CyDMA.c **** *  The status register associated with the specified descriptor is reset to
 788:.\Generated_Source\PSoC4/CyDMA.c **** *  zero after this function call.
 789:.\Generated_Source\PSoC4/CyDMA.c **** *  This function should not be called when the specified descriptor is active
 790:.\Generated_Source\PSoC4/CyDMA.c **** *  in the DMA transfer engine. This can be checked by calling CyDmaGetStatus().
 791:.\Generated_Source\PSoC4/CyDMA.c **** *
 792:.\Generated_Source\PSoC4/CyDMA.c **** *******************************************************************************/
 793:.\Generated_Source\PSoC4/CyDMA.c **** void CyDmaValidateDescriptor(int32 channel, int32 descriptor)
 794:.\Generated_Source\PSoC4/CyDMA.c **** {
 1139              		.loc 1 794 0
 1140              		.cfi_startproc
 1141              	.LVL94:
 1142 0000 38B5     		push	{r3, r4, r5, lr}
ARM GAS  C:\Users\TOM~1.MCK\AppData\Local\Temp\ccARJkPm.s 			page 36


 1143              		.cfi_def_cfa_offset 16
 1144              		.cfi_offset 3, -16
 1145              		.cfi_offset 4, -12
 1146              		.cfi_offset 5, -8
 1147              		.cfi_offset 14, -4
 1148 0002 051C     		mov	r5, r0
 1149 0004 0C1C     		mov	r4, r1
 795:.\Generated_Source\PSoC4/CyDMA.c ****     CYASSERT((channel    >= 0) && (channel    < CYDMA_CH_NR));
 1150              		.loc 1 795 0
 1151 0006 0728     		cmp	r0, #7
 1152 0008 02D9     		bls	.L108
 1153              		.loc 1 795 0 is_stmt 0 discriminator 1
 1154 000a 0020     		mov	r0, #0
 1155              	.LVL95:
 1156 000c FFF7FEFF 		bl	CyHalt
 1157              	.LVL96:
 1158              	.L108:
 796:.\Generated_Source\PSoC4/CyDMA.c ****     CYASSERT((descriptor >= 0) && (descriptor < CYDMA_DESCR_NR));
 1159              		.loc 1 796 0 is_stmt 1
 1160 0010 012C     		cmp	r4, #1
 1161 0012 02D9     		bls	.L109
 1162              		.loc 1 796 0 is_stmt 0 discriminator 1
 1163 0014 0020     		mov	r0, #0
 1164 0016 FFF7FEFF 		bl	CyHalt
 1165              	.LVL97:
 1166              	.L109:
 797:.\Generated_Source\PSoC4/CyDMA.c **** 
 798:.\Generated_Source\PSoC4/CyDMA.c ****     CYDMA_DESCR_BASE.descriptor[channel][descriptor].status = CYDMA_VALID;
 1167              		.loc 1 798 0 is_stmt 1
 1168 001a 6D00     		lsl	r5, r5, #1
 1169              	.LVL98:
 1170 001c 2C19     		add	r4, r5, r4
 1171              	.LVL99:
 1172 001e 2401     		lsl	r4, r4, #4
 1173 0020 034B     		ldr	r3, .L110
 1174 0022 9C46     		mov	ip, r3
 1175 0024 6444     		add	r4, r4, ip
 1176 0026 8023     		mov	r3, #128
 1177 0028 1B06     		lsl	r3, r3, #24
 1178 002a 6360     		str	r3, [r4, #4]
 799:.\Generated_Source\PSoC4/CyDMA.c **** }
 1179              		.loc 1 799 0
 1180              		@ sp needed
 1181 002c 38BD     		pop	{r3, r4, r5, pc}
 1182              	.L111:
 1183 002e C046     		.align	2
 1184              	.L110:
 1185 0030 08181040 		.word	1074796552
 1186              		.cfi_endproc
 1187              	.LFE28:
 1188              		.size	CyDmaValidateDescriptor, .-CyDmaValidateDescriptor
 1189              		.section	.text.CyDmaGetDescriptorStatus,"ax",%progbits
 1190              		.align	2
 1191              		.global	CyDmaGetDescriptorStatus
 1192              		.code	16
 1193              		.thumb_func
 1194              		.type	CyDmaGetDescriptorStatus, %function
ARM GAS  C:\Users\TOM~1.MCK\AppData\Local\Temp\ccARJkPm.s 			page 37


 1195              	CyDmaGetDescriptorStatus:
 1196              	.LFB29:
 800:.\Generated_Source\PSoC4/CyDMA.c **** 
 801:.\Generated_Source\PSoC4/CyDMA.c **** 
 802:.\Generated_Source\PSoC4/CyDMA.c **** /*******************************************************************************
 803:.\Generated_Source\PSoC4/CyDMA.c **** * Function Name: CyDmaGetDescriptorStatus
 804:.\Generated_Source\PSoC4/CyDMA.c **** ********************************************************************************
 805:.\Generated_Source\PSoC4/CyDMA.c **** *
 806:.\Generated_Source\PSoC4/CyDMA.c **** * Summary:
 807:.\Generated_Source\PSoC4/CyDMA.c **** *  Returns the status of the specified descriptor.
 808:.\Generated_Source\PSoC4/CyDMA.c **** *
 809:.\Generated_Source\PSoC4/CyDMA.c **** * Parameters:
 810:.\Generated_Source\PSoC4/CyDMA.c **** *  channel:    Channel used by this function.
 811:.\Generated_Source\PSoC4/CyDMA.c **** *  descriptor: Descriptor (0 or 1) modified by this function.
 812:.\Generated_Source\PSoC4/CyDMA.c **** *                   
 813:.\Generated_Source\PSoC4/CyDMA.c **** * Return:
 814:.\Generated_Source\PSoC4/CyDMA.c **** *  Returns the contents of the specified descriptors status register. Refer to 
 815:.\Generated_Source\PSoC4/CyDMA.c **** *  descriptor status register bit definitions in CyDMA_P4.h or the API
 816:.\Generated_Source\PSoC4/CyDMA.c **** *  description in the DMA channel datasheet for more information.
 817:.\Generated_Source\PSoC4/CyDMA.c **** *
 818:.\Generated_Source\PSoC4/CyDMA.c **** *******************************************************************************/
 819:.\Generated_Source\PSoC4/CyDMA.c **** uint32 CyDmaGetDescriptorStatus(int32 channel, int32 descriptor)
 820:.\Generated_Source\PSoC4/CyDMA.c **** {
 1197              		.loc 1 820 0
 1198              		.cfi_startproc
 1199              	.LVL100:
 1200 0000 38B5     		push	{r3, r4, r5, lr}
 1201              		.cfi_def_cfa_offset 16
 1202              		.cfi_offset 3, -16
 1203              		.cfi_offset 4, -12
 1204              		.cfi_offset 5, -8
 1205              		.cfi_offset 14, -4
 1206 0002 051C     		mov	r5, r0
 1207 0004 0C1C     		mov	r4, r1
 821:.\Generated_Source\PSoC4/CyDMA.c ****     CYASSERT((channel    >= 0) && (channel    < CYDMA_CH_NR));
 1208              		.loc 1 821 0
 1209 0006 0728     		cmp	r0, #7
 1210 0008 02D9     		bls	.L113
 1211              		.loc 1 821 0 is_stmt 0 discriminator 1
 1212 000a 0020     		mov	r0, #0
 1213              	.LVL101:
 1214 000c FFF7FEFF 		bl	CyHalt
 1215              	.LVL102:
 1216              	.L113:
 822:.\Generated_Source\PSoC4/CyDMA.c ****     CYASSERT((descriptor >= 0) && (descriptor < CYDMA_DESCR_NR));
 1217              		.loc 1 822 0 is_stmt 1
 1218 0010 012C     		cmp	r4, #1
 1219 0012 02D9     		bls	.L114
 1220              		.loc 1 822 0 is_stmt 0 discriminator 1
 1221 0014 0020     		mov	r0, #0
 1222 0016 FFF7FEFF 		bl	CyHalt
 1223              	.LVL103:
 1224              	.L114:
 823:.\Generated_Source\PSoC4/CyDMA.c **** 
 824:.\Generated_Source\PSoC4/CyDMA.c ****     return (CYDMA_DESCR_BASE.descriptor[channel][descriptor].status);
 1225              		.loc 1 824 0 is_stmt 1
 1226 001a 6D00     		lsl	r5, r5, #1
ARM GAS  C:\Users\TOM~1.MCK\AppData\Local\Temp\ccARJkPm.s 			page 38


 1227              	.LVL104:
 1228 001c 2C19     		add	r4, r5, r4
 1229              	.LVL105:
 1230 001e 2401     		lsl	r4, r4, #4
 1231 0020 024B     		ldr	r3, .L115
 1232 0022 9C46     		mov	ip, r3
 1233 0024 6444     		add	r4, r4, ip
 1234 0026 6068     		ldr	r0, [r4, #4]
 825:.\Generated_Source\PSoC4/CyDMA.c **** }
 1235              		.loc 1 825 0
 1236              		@ sp needed
 1237 0028 38BD     		pop	{r3, r4, r5, pc}
 1238              	.L116:
 1239 002a C046     		.align	2
 1240              	.L115:
 1241 002c 08181040 		.word	1074796552
 1242              		.cfi_endproc
 1243              	.LFE29:
 1244              		.size	CyDmaGetDescriptorStatus, .-CyDmaGetDescriptorStatus
 1245              		.section	.text.CyDmaSetSrcAddress,"ax",%progbits
 1246              		.align	2
 1247              		.global	CyDmaSetSrcAddress
 1248              		.code	16
 1249              		.thumb_func
 1250              		.type	CyDmaSetSrcAddress, %function
 1251              	CyDmaSetSrcAddress:
 1252              	.LFB30:
 826:.\Generated_Source\PSoC4/CyDMA.c **** 
 827:.\Generated_Source\PSoC4/CyDMA.c **** 
 828:.\Generated_Source\PSoC4/CyDMA.c **** /*******************************************************************************
 829:.\Generated_Source\PSoC4/CyDMA.c **** * Function Name: CyDmaSetSrcAddress
 830:.\Generated_Source\PSoC4/CyDMA.c **** ********************************************************************************
 831:.\Generated_Source\PSoC4/CyDMA.c **** *
 832:.\Generated_Source\PSoC4/CyDMA.c **** * Summary:
 833:.\Generated_Source\PSoC4/CyDMA.c **** *  Configures the source address for the specified descriptor.
 834:.\Generated_Source\PSoC4/CyDMA.c **** *
 835:.\Generated_Source\PSoC4/CyDMA.c **** * Parameters:
 836:.\Generated_Source\PSoC4/CyDMA.c **** *  channel:    Channel used by this function.
 837:.\Generated_Source\PSoC4/CyDMA.c **** *  descriptor: Descriptor (0 or 1) modified by this function.
 838:.\Generated_Source\PSoC4/CyDMA.c **** *  srcAddress: Address of DMA transfer source.
 839:.\Generated_Source\PSoC4/CyDMA.c **** *                   
 840:.\Generated_Source\PSoC4/CyDMA.c **** * Return:
 841:.\Generated_Source\PSoC4/CyDMA.c **** *  None.
 842:.\Generated_Source\PSoC4/CyDMA.c **** *
 843:.\Generated_Source\PSoC4/CyDMA.c **** * Side effect:
 844:.\Generated_Source\PSoC4/CyDMA.c **** *  This function should not be called when the specified descriptor is active
 845:.\Generated_Source\PSoC4/CyDMA.c **** *  in the DMA transfer engine. This can be checked by calling CyDmaGetStatus(). 
 846:.\Generated_Source\PSoC4/CyDMA.c **** *
 847:.\Generated_Source\PSoC4/CyDMA.c **** *******************************************************************************/
 848:.\Generated_Source\PSoC4/CyDMA.c **** void CyDmaSetSrcAddress(int32 channel, int32 descriptor, void * srcAddress)
 849:.\Generated_Source\PSoC4/CyDMA.c **** {
 1253              		.loc 1 849 0
 1254              		.cfi_startproc
 1255              	.LVL106:
 1256 0000 70B5     		push	{r4, r5, r6, lr}
 1257              		.cfi_def_cfa_offset 16
 1258              		.cfi_offset 4, -16
ARM GAS  C:\Users\TOM~1.MCK\AppData\Local\Temp\ccARJkPm.s 			page 39


 1259              		.cfi_offset 5, -12
 1260              		.cfi_offset 6, -8
 1261              		.cfi_offset 14, -4
 1262 0002 051C     		mov	r5, r0
 1263 0004 0C1C     		mov	r4, r1
 1264 0006 161C     		mov	r6, r2
 850:.\Generated_Source\PSoC4/CyDMA.c ****     CYASSERT((channel    >= 0) && (channel    < CYDMA_CH_NR));
 1265              		.loc 1 850 0
 1266 0008 0728     		cmp	r0, #7
 1267 000a 02D9     		bls	.L118
 1268              		.loc 1 850 0 is_stmt 0 discriminator 1
 1269 000c 0020     		mov	r0, #0
 1270              	.LVL107:
 1271 000e FFF7FEFF 		bl	CyHalt
 1272              	.LVL108:
 1273              	.L118:
 851:.\Generated_Source\PSoC4/CyDMA.c ****     CYASSERT((descriptor >= 0) && (descriptor < CYDMA_DESCR_NR));
 1274              		.loc 1 851 0 is_stmt 1
 1275 0012 012C     		cmp	r4, #1
 1276 0014 02D9     		bls	.L119
 1277              		.loc 1 851 0 is_stmt 0 discriminator 1
 1278 0016 0020     		mov	r0, #0
 1279 0018 FFF7FEFF 		bl	CyHalt
 1280              	.LVL109:
 1281              	.L119:
 852:.\Generated_Source\PSoC4/CyDMA.c **** 
 853:.\Generated_Source\PSoC4/CyDMA.c ****     CYDMA_DESCR_BASE.descriptor[channel][descriptor].src = srcAddress;
 1282              		.loc 1 853 0 is_stmt 1
 1283 001c 6D00     		lsl	r5, r5, #1
 1284              	.LVL110:
 1285 001e 2C19     		add	r4, r5, r4
 1286              	.LVL111:
 1287 0020 2401     		lsl	r4, r4, #4
 1288 0022 014B     		ldr	r3, .L120
 1289 0024 E650     		str	r6, [r4, r3]
 854:.\Generated_Source\PSoC4/CyDMA.c **** }
 1290              		.loc 1 854 0
 1291              		@ sp needed
 1292              	.LVL112:
 1293 0026 70BD     		pop	{r4, r5, r6, pc}
 1294              	.L121:
 1295              		.align	2
 1296              	.L120:
 1297 0028 00181040 		.word	1074796544
 1298              		.cfi_endproc
 1299              	.LFE30:
 1300              		.size	CyDmaSetSrcAddress, .-CyDmaSetSrcAddress
 1301              		.section	.text.CyDmaGetSrcAddress,"ax",%progbits
 1302              		.align	2
 1303              		.global	CyDmaGetSrcAddress
 1304              		.code	16
 1305              		.thumb_func
 1306              		.type	CyDmaGetSrcAddress, %function
 1307              	CyDmaGetSrcAddress:
 1308              	.LFB31:
 855:.\Generated_Source\PSoC4/CyDMA.c **** 
 856:.\Generated_Source\PSoC4/CyDMA.c **** 
ARM GAS  C:\Users\TOM~1.MCK\AppData\Local\Temp\ccARJkPm.s 			page 40


 857:.\Generated_Source\PSoC4/CyDMA.c **** /*******************************************************************************
 858:.\Generated_Source\PSoC4/CyDMA.c **** * Function Name: CyDmaGetSrcAddress
 859:.\Generated_Source\PSoC4/CyDMA.c **** ********************************************************************************
 860:.\Generated_Source\PSoC4/CyDMA.c **** *
 861:.\Generated_Source\PSoC4/CyDMA.c **** * Summary:
 862:.\Generated_Source\PSoC4/CyDMA.c **** *  Returns the source address for the specified descriptor, set by 
 863:.\Generated_Source\PSoC4/CyDMA.c **** *  CyDmaSetSrcAddress().
 864:.\Generated_Source\PSoC4/CyDMA.c **** *
 865:.\Generated_Source\PSoC4/CyDMA.c **** * Parameters:
 866:.\Generated_Source\PSoC4/CyDMA.c **** *  channel:    Channel used by this function.
 867:.\Generated_Source\PSoC4/CyDMA.c **** *  descriptor: Specifies descriptor (0 or 1) used by this function.
 868:.\Generated_Source\PSoC4/CyDMA.c **** *                   
 869:.\Generated_Source\PSoC4/CyDMA.c **** * Return:
 870:.\Generated_Source\PSoC4/CyDMA.c **** *  Source address written to specified descriptor.
 871:.\Generated_Source\PSoC4/CyDMA.c **** *
 872:.\Generated_Source\PSoC4/CyDMA.c **** *******************************************************************************/
 873:.\Generated_Source\PSoC4/CyDMA.c **** void * CyDmaGetSrcAddress(int32 channel, int32 descriptor)
 874:.\Generated_Source\PSoC4/CyDMA.c **** {
 1309              		.loc 1 874 0
 1310              		.cfi_startproc
 1311              	.LVL113:
 1312 0000 38B5     		push	{r3, r4, r5, lr}
 1313              		.cfi_def_cfa_offset 16
 1314              		.cfi_offset 3, -16
 1315              		.cfi_offset 4, -12
 1316              		.cfi_offset 5, -8
 1317              		.cfi_offset 14, -4
 1318 0002 051C     		mov	r5, r0
 1319 0004 0C1C     		mov	r4, r1
 875:.\Generated_Source\PSoC4/CyDMA.c ****     CYASSERT((channel    >= 0) && (channel    < CYDMA_CH_NR));
 1320              		.loc 1 875 0
 1321 0006 0728     		cmp	r0, #7
 1322 0008 02D9     		bls	.L123
 1323              		.loc 1 875 0 is_stmt 0 discriminator 1
 1324 000a 0020     		mov	r0, #0
 1325              	.LVL114:
 1326 000c FFF7FEFF 		bl	CyHalt
 1327              	.LVL115:
 1328              	.L123:
 876:.\Generated_Source\PSoC4/CyDMA.c ****     CYASSERT((descriptor >= 0) && (descriptor < CYDMA_DESCR_NR));
 1329              		.loc 1 876 0 is_stmt 1
 1330 0010 012C     		cmp	r4, #1
 1331 0012 02D9     		bls	.L124
 1332              		.loc 1 876 0 is_stmt 0 discriminator 1
 1333 0014 0020     		mov	r0, #0
 1334 0016 FFF7FEFF 		bl	CyHalt
 1335              	.LVL116:
 1336              	.L124:
 877:.\Generated_Source\PSoC4/CyDMA.c **** 
 878:.\Generated_Source\PSoC4/CyDMA.c ****     return (CYDMA_DESCR_BASE.descriptor[channel][descriptor].src);
 1337              		.loc 1 878 0 is_stmt 1
 1338 001a 6D00     		lsl	r5, r5, #1
 1339              	.LVL117:
 1340 001c 2C19     		add	r4, r5, r4
 1341              	.LVL118:
 1342 001e 2401     		lsl	r4, r4, #4
 1343 0020 014B     		ldr	r3, .L125
ARM GAS  C:\Users\TOM~1.MCK\AppData\Local\Temp\ccARJkPm.s 			page 41


 1344 0022 E058     		ldr	r0, [r4, r3]
 879:.\Generated_Source\PSoC4/CyDMA.c **** }
 1345              		.loc 1 879 0
 1346              		@ sp needed
 1347 0024 38BD     		pop	{r3, r4, r5, pc}
 1348              	.L126:
 1349 0026 C046     		.align	2
 1350              	.L125:
 1351 0028 00181040 		.word	1074796544
 1352              		.cfi_endproc
 1353              	.LFE31:
 1354              		.size	CyDmaGetSrcAddress, .-CyDmaGetSrcAddress
 1355              		.section	.text.CyDmaSetDstAddress,"ax",%progbits
 1356              		.align	2
 1357              		.global	CyDmaSetDstAddress
 1358              		.code	16
 1359              		.thumb_func
 1360              		.type	CyDmaSetDstAddress, %function
 1361              	CyDmaSetDstAddress:
 1362              	.LFB32:
 880:.\Generated_Source\PSoC4/CyDMA.c **** 
 881:.\Generated_Source\PSoC4/CyDMA.c **** 
 882:.\Generated_Source\PSoC4/CyDMA.c **** /*******************************************************************************
 883:.\Generated_Source\PSoC4/CyDMA.c **** * Function Name: CyDmaSetDstAddress
 884:.\Generated_Source\PSoC4/CyDMA.c **** ********************************************************************************
 885:.\Generated_Source\PSoC4/CyDMA.c **** *
 886:.\Generated_Source\PSoC4/CyDMA.c **** * Summary:
 887:.\Generated_Source\PSoC4/CyDMA.c **** *  Configures the destination address for the specified descriptor.
 888:.\Generated_Source\PSoC4/CyDMA.c **** *
 889:.\Generated_Source\PSoC4/CyDMA.c **** * Parameters:
 890:.\Generated_Source\PSoC4/CyDMA.c **** *  channel:    Channel used by this function.
 891:.\Generated_Source\PSoC4/CyDMA.c **** *  descriptor: Descriptor (0 or 1) modified by this function.
 892:.\Generated_Source\PSoC4/CyDMA.c **** *  dstAddress: Address of DMA transfer destination.
 893:.\Generated_Source\PSoC4/CyDMA.c **** *                   
 894:.\Generated_Source\PSoC4/CyDMA.c **** * Return:
 895:.\Generated_Source\PSoC4/CyDMA.c **** *  None.
 896:.\Generated_Source\PSoC4/CyDMA.c **** *
 897:.\Generated_Source\PSoC4/CyDMA.c **** * Side effect:
 898:.\Generated_Source\PSoC4/CyDMA.c **** *  This function should not be called when the specified descriptor is active
 899:.\Generated_Source\PSoC4/CyDMA.c **** *  in the DMA transfer engine. This can be checked by calling CyDmaGetStatus(). 
 900:.\Generated_Source\PSoC4/CyDMA.c **** *
 901:.\Generated_Source\PSoC4/CyDMA.c **** *******************************************************************************/
 902:.\Generated_Source\PSoC4/CyDMA.c **** void CyDmaSetDstAddress(int32 channel, int32 descriptor, void * dstAddress)
 903:.\Generated_Source\PSoC4/CyDMA.c **** {
 1363              		.loc 1 903 0
 1364              		.cfi_startproc
 1365              	.LVL119:
 1366 0000 70B5     		push	{r4, r5, r6, lr}
 1367              		.cfi_def_cfa_offset 16
 1368              		.cfi_offset 4, -16
 1369              		.cfi_offset 5, -12
 1370              		.cfi_offset 6, -8
 1371              		.cfi_offset 14, -4
 1372 0002 051C     		mov	r5, r0
 1373 0004 0C1C     		mov	r4, r1
 1374 0006 161C     		mov	r6, r2
 904:.\Generated_Source\PSoC4/CyDMA.c ****     CYASSERT((channel    >= 0) && (channel    < CYDMA_CH_NR));
ARM GAS  C:\Users\TOM~1.MCK\AppData\Local\Temp\ccARJkPm.s 			page 42


 1375              		.loc 1 904 0
 1376 0008 0728     		cmp	r0, #7
 1377 000a 02D9     		bls	.L128
 1378              		.loc 1 904 0 is_stmt 0 discriminator 1
 1379 000c 0020     		mov	r0, #0
 1380              	.LVL120:
 1381 000e FFF7FEFF 		bl	CyHalt
 1382              	.LVL121:
 1383              	.L128:
 905:.\Generated_Source\PSoC4/CyDMA.c ****     CYASSERT((descriptor >= 0) && (descriptor < CYDMA_DESCR_NR));
 1384              		.loc 1 905 0 is_stmt 1
 1385 0012 012C     		cmp	r4, #1
 1386 0014 02D9     		bls	.L129
 1387              		.loc 1 905 0 is_stmt 0 discriminator 1
 1388 0016 0020     		mov	r0, #0
 1389 0018 FFF7FEFF 		bl	CyHalt
 1390              	.LVL122:
 1391              	.L129:
 906:.\Generated_Source\PSoC4/CyDMA.c **** 
 907:.\Generated_Source\PSoC4/CyDMA.c ****     CYDMA_DESCR_BASE.descriptor[channel][descriptor].dst = dstAddress;
 1392              		.loc 1 907 0 is_stmt 1
 1393 001c 6D00     		lsl	r5, r5, #1
 1394              	.LVL123:
 1395 001e 2C19     		add	r4, r5, r4
 1396              	.LVL124:
 1397 0020 2401     		lsl	r4, r4, #4
 1398 0022 024B     		ldr	r3, .L130
 1399 0024 9C46     		mov	ip, r3
 1400 0026 6444     		add	r4, r4, ip
 1401 0028 6660     		str	r6, [r4, #4]
 908:.\Generated_Source\PSoC4/CyDMA.c **** }
 1402              		.loc 1 908 0
 1403              		@ sp needed
 1404              	.LVL125:
 1405 002a 70BD     		pop	{r4, r5, r6, pc}
 1406              	.L131:
 1407              		.align	2
 1408              	.L130:
 1409 002c 00181040 		.word	1074796544
 1410              		.cfi_endproc
 1411              	.LFE32:
 1412              		.size	CyDmaSetDstAddress, .-CyDmaSetDstAddress
 1413              		.section	.text.CyDmaGetDstAddress,"ax",%progbits
 1414              		.align	2
 1415              		.global	CyDmaGetDstAddress
 1416              		.code	16
 1417              		.thumb_func
 1418              		.type	CyDmaGetDstAddress, %function
 1419              	CyDmaGetDstAddress:
 1420              	.LFB33:
 909:.\Generated_Source\PSoC4/CyDMA.c **** 
 910:.\Generated_Source\PSoC4/CyDMA.c **** 
 911:.\Generated_Source\PSoC4/CyDMA.c **** /*******************************************************************************
 912:.\Generated_Source\PSoC4/CyDMA.c **** * Function Name: CyDmaGetDstAddress
 913:.\Generated_Source\PSoC4/CyDMA.c **** ********************************************************************************
 914:.\Generated_Source\PSoC4/CyDMA.c **** *
 915:.\Generated_Source\PSoC4/CyDMA.c **** * Summary:
ARM GAS  C:\Users\TOM~1.MCK\AppData\Local\Temp\ccARJkPm.s 			page 43


 916:.\Generated_Source\PSoC4/CyDMA.c **** *  Returns the destination address for the specified descriptor, set by 
 917:.\Generated_Source\PSoC4/CyDMA.c **** *  CyDmaSetDstAddress().
 918:.\Generated_Source\PSoC4/CyDMA.c **** *
 919:.\Generated_Source\PSoC4/CyDMA.c **** * Parameters:
 920:.\Generated_Source\PSoC4/CyDMA.c **** *  channel:    Channel used by this function.
 921:.\Generated_Source\PSoC4/CyDMA.c **** *  descriptor: Specifies descriptor (0 or 1) used by this function.
 922:.\Generated_Source\PSoC4/CyDMA.c **** *                   
 923:.\Generated_Source\PSoC4/CyDMA.c **** * Return:
 924:.\Generated_Source\PSoC4/CyDMA.c **** *  Destination address written to specified descriptor.
 925:.\Generated_Source\PSoC4/CyDMA.c **** *
 926:.\Generated_Source\PSoC4/CyDMA.c **** *******************************************************************************/
 927:.\Generated_Source\PSoC4/CyDMA.c **** void * CyDmaGetDstAddress(int32 channel, int32 descriptor)
 928:.\Generated_Source\PSoC4/CyDMA.c **** {
 1421              		.loc 1 928 0
 1422              		.cfi_startproc
 1423              	.LVL126:
 1424 0000 38B5     		push	{r3, r4, r5, lr}
 1425              		.cfi_def_cfa_offset 16
 1426              		.cfi_offset 3, -16
 1427              		.cfi_offset 4, -12
 1428              		.cfi_offset 5, -8
 1429              		.cfi_offset 14, -4
 1430 0002 051C     		mov	r5, r0
 1431 0004 0C1C     		mov	r4, r1
 929:.\Generated_Source\PSoC4/CyDMA.c ****     CYASSERT((channel    >= 0) && (channel    < CYDMA_CH_NR));
 1432              		.loc 1 929 0
 1433 0006 0728     		cmp	r0, #7
 1434 0008 02D9     		bls	.L133
 1435              		.loc 1 929 0 is_stmt 0 discriminator 1
 1436 000a 0020     		mov	r0, #0
 1437              	.LVL127:
 1438 000c FFF7FEFF 		bl	CyHalt
 1439              	.LVL128:
 1440              	.L133:
 930:.\Generated_Source\PSoC4/CyDMA.c ****     CYASSERT((descriptor >= 0) && (descriptor < CYDMA_DESCR_NR));
 1441              		.loc 1 930 0 is_stmt 1
 1442 0010 012C     		cmp	r4, #1
 1443 0012 02D9     		bls	.L134
 1444              		.loc 1 930 0 is_stmt 0 discriminator 1
 1445 0014 0020     		mov	r0, #0
 1446 0016 FFF7FEFF 		bl	CyHalt
 1447              	.LVL129:
 1448              	.L134:
 931:.\Generated_Source\PSoC4/CyDMA.c **** 
 932:.\Generated_Source\PSoC4/CyDMA.c ****     return (CYDMA_DESCR_BASE.descriptor[channel][descriptor].dst);
 1449              		.loc 1 932 0 is_stmt 1
 1450 001a 6D00     		lsl	r5, r5, #1
 1451              	.LVL130:
 1452 001c 2C19     		add	r4, r5, r4
 1453              	.LVL131:
 1454 001e 2401     		lsl	r4, r4, #4
 1455 0020 024B     		ldr	r3, .L135
 1456 0022 9C46     		mov	ip, r3
 1457 0024 6444     		add	r4, r4, ip
 1458 0026 6068     		ldr	r0, [r4, #4]
 933:.\Generated_Source\PSoC4/CyDMA.c **** }
 1459              		.loc 1 933 0
ARM GAS  C:\Users\TOM~1.MCK\AppData\Local\Temp\ccARJkPm.s 			page 44


 1460              		@ sp needed
 1461 0028 38BD     		pop	{r3, r4, r5, pc}
 1462              	.L136:
 1463 002a C046     		.align	2
 1464              	.L135:
 1465 002c 00181040 		.word	1074796544
 1466              		.cfi_endproc
 1467              	.LFE33:
 1468              		.size	CyDmaGetDstAddress, .-CyDmaGetDstAddress
 1469              		.section	.text.CyDmaSetDataElementSize,"ax",%progbits
 1470              		.align	2
 1471              		.global	CyDmaSetDataElementSize
 1472              		.code	16
 1473              		.thumb_func
 1474              		.type	CyDmaSetDataElementSize, %function
 1475              	CyDmaSetDataElementSize:
 1476              	.LFB34:
 934:.\Generated_Source\PSoC4/CyDMA.c **** 
 935:.\Generated_Source\PSoC4/CyDMA.c **** /*******************************************************************************
 936:.\Generated_Source\PSoC4/CyDMA.c **** * Function Name: CyDmaSetDataElementSize
 937:.\Generated_Source\PSoC4/CyDMA.c **** ********************************************************************************
 938:.\Generated_Source\PSoC4/CyDMA.c **** *
 939:.\Generated_Source\PSoC4/CyDMA.c **** * Summary:
 940:.\Generated_Source\PSoC4/CyDMA.c **** *  Sets the data element size for the specified descriptor.
 941:.\Generated_Source\PSoC4/CyDMA.c **** *
 942:.\Generated_Source\PSoC4/CyDMA.c **** * Parameters:
 943:.\Generated_Source\PSoC4/CyDMA.c **** *  channel:         Channel used by this function.
 944:.\Generated_Source\PSoC4/CyDMA.c **** *  descriptor:      Descriptor (0 or 1) modified by this function.
 945:.\Generated_Source\PSoC4/CyDMA.c **** *  dataElementSize: Specifies the size of the data element. The DMA transfer
 946:.\Generated_Source\PSoC4/CyDMA.c **** *                   engine transfers one data element at a time. How these
 947:.\Generated_Source\PSoC4/CyDMA.c **** *                   transfers occur is controlled by the transfer mode.
 948:.\Generated_Source\PSoC4/CyDMA.c **** *                   Refer to the API bit field definitions in CyDMA_P4.h
 949:.\Generated_Source\PSoC4/CyDMA.c **** *                   or API description in the DMA channel datasheet for the 
 950:.\Generated_Source\PSoC4/CyDMA.c **** *                   parameter options.
 951:.\Generated_Source\PSoC4/CyDMA.c **** *
 952:.\Generated_Source\PSoC4/CyDMA.c **** * Return:
 953:.\Generated_Source\PSoC4/CyDMA.c **** *  None.
 954:.\Generated_Source\PSoC4/CyDMA.c **** *
 955:.\Generated_Source\PSoC4/CyDMA.c **** * Side effect:
 956:.\Generated_Source\PSoC4/CyDMA.c **** *  This function should not be called when the specified descriptor is active
 957:.\Generated_Source\PSoC4/CyDMA.c **** *  in the DMA transfer engine. This can be checked by calling CyDmaGetStatus(). 
 958:.\Generated_Source\PSoC4/CyDMA.c **** *
 959:.\Generated_Source\PSoC4/CyDMA.c **** *******************************************************************************/
 960:.\Generated_Source\PSoC4/CyDMA.c **** void CyDmaSetDataElementSize(int32 channel, int32 descriptor, uint32 dataElementSize)
 961:.\Generated_Source\PSoC4/CyDMA.c **** {
 1477              		.loc 1 961 0
 1478              		.cfi_startproc
 1479              	.LVL132:
 1480 0000 70B5     		push	{r4, r5, r6, lr}
 1481              		.cfi_def_cfa_offset 16
 1482              		.cfi_offset 4, -16
 1483              		.cfi_offset 5, -12
 1484              		.cfi_offset 6, -8
 1485              		.cfi_offset 14, -4
 1486 0002 061C     		mov	r6, r0
 1487 0004 0C1C     		mov	r4, r1
 1488 0006 151C     		mov	r5, r2
ARM GAS  C:\Users\TOM~1.MCK\AppData\Local\Temp\ccARJkPm.s 			page 45


 962:.\Generated_Source\PSoC4/CyDMA.c ****     uint32 regValue;
 963:.\Generated_Source\PSoC4/CyDMA.c ****     
 964:.\Generated_Source\PSoC4/CyDMA.c ****     CYASSERT((channel    >= 0) && (channel    < CYDMA_CH_NR));
 1489              		.loc 1 964 0
 1490 0008 0728     		cmp	r0, #7
 1491 000a 02D9     		bls	.L138
 1492              		.loc 1 964 0 is_stmt 0 discriminator 1
 1493 000c 0020     		mov	r0, #0
 1494              	.LVL133:
 1495 000e FFF7FEFF 		bl	CyHalt
 1496              	.LVL134:
 1497              	.L138:
 965:.\Generated_Source\PSoC4/CyDMA.c ****     CYASSERT((descriptor >= 0) && (descriptor < CYDMA_DESCR_NR));
 1498              		.loc 1 965 0 is_stmt 1
 1499 0012 012C     		cmp	r4, #1
 1500 0014 02D9     		bls	.L139
 1501              		.loc 1 965 0 is_stmt 0 discriminator 1
 1502 0016 0020     		mov	r0, #0
 1503 0018 FFF7FEFF 		bl	CyHalt
 1504              	.LVL135:
 1505              	.L139:
 966:.\Generated_Source\PSoC4/CyDMA.c ****     CYASSERT(0u == (dataElementSize & (uint32)~CYDMA_DATA_SIZE));
 1506              		.loc 1 966 0 is_stmt 1
 1507 001c 084B     		ldr	r3, .L141
 1508 001e 1D42     		tst	r5, r3
 1509 0020 02D0     		beq	.L140
 1510              		.loc 1 966 0 is_stmt 0 discriminator 1
 1511 0022 0020     		mov	r0, #0
 1512 0024 FFF7FEFF 		bl	CyHalt
 1513              	.LVL136:
 1514              	.L140:
 967:.\Generated_Source\PSoC4/CyDMA.c **** 
 968:.\Generated_Source\PSoC4/CyDMA.c ****     regValue = CYDMA_DESCR_BASE.descriptor[channel][descriptor].ctl & (uint32)~CYDMA_DATA_SIZE;
 1515              		.loc 1 968 0 is_stmt 1
 1516 0028 7600     		lsl	r6, r6, #1
 1517              	.LVL137:
 1518 002a 3419     		add	r4, r6, r4
 1519              	.LVL138:
 1520 002c 2401     		lsl	r4, r4, #4
 1521 002e 054B     		ldr	r3, .L141+4
 1522 0030 9C46     		mov	ip, r3
 1523 0032 6444     		add	r4, r4, ip
 1524 0034 A268     		ldr	r2, [r4, #8]
 1525 0036 024B     		ldr	r3, .L141
 1526 0038 1340     		and	r3, r2
 1527              	.LVL139:
 969:.\Generated_Source\PSoC4/CyDMA.c ****     CYDMA_DESCR_BASE.descriptor[channel][descriptor].ctl = regValue | dataElementSize;
 1528              		.loc 1 969 0
 1529 003a 1D43     		orr	r5, r3
 1530              	.LVL140:
 1531 003c A560     		str	r5, [r4, #8]
 970:.\Generated_Source\PSoC4/CyDMA.c **** }
 1532              		.loc 1 970 0
 1533              		@ sp needed
 1534 003e 70BD     		pop	{r4, r5, r6, pc}
 1535              	.L142:
 1536              		.align	2
ARM GAS  C:\Users\TOM~1.MCK\AppData\Local\Temp\ccARJkPm.s 			page 46


 1537              	.L141:
 1538 0040 FFFFFCFF 		.word	-196609
 1539 0044 00181040 		.word	1074796544
 1540              		.cfi_endproc
 1541              	.LFE34:
 1542              		.size	CyDmaSetDataElementSize, .-CyDmaSetDataElementSize
 1543              		.section	.text.CyDmaGetDataElementSize,"ax",%progbits
 1544              		.align	2
 1545              		.global	CyDmaGetDataElementSize
 1546              		.code	16
 1547              		.thumb_func
 1548              		.type	CyDmaGetDataElementSize, %function
 1549              	CyDmaGetDataElementSize:
 1550              	.LFB35:
 971:.\Generated_Source\PSoC4/CyDMA.c **** 
 972:.\Generated_Source\PSoC4/CyDMA.c **** 
 973:.\Generated_Source\PSoC4/CyDMA.c **** /*******************************************************************************
 974:.\Generated_Source\PSoC4/CyDMA.c **** * Function Name: CyDmaGetDataElementSize
 975:.\Generated_Source\PSoC4/CyDMA.c **** ********************************************************************************
 976:.\Generated_Source\PSoC4/CyDMA.c **** *
 977:.\Generated_Source\PSoC4/CyDMA.c **** * Summary:
 978:.\Generated_Source\PSoC4/CyDMA.c **** *  Returns the data element size configured for the specified descriptor, set by
 979:.\Generated_Source\PSoC4/CyDMA.c **** *  CyDmaSetDataElementSize() or CyDmaSetConfiguration.
 980:.\Generated_Source\PSoC4/CyDMA.c **** *
 981:.\Generated_Source\PSoC4/CyDMA.c **** * Parameters:
 982:.\Generated_Source\PSoC4/CyDMA.c **** *  channel:    Channel used by this function.
 983:.\Generated_Source\PSoC4/CyDMA.c **** *  descriptor: Descriptor (0 or 1) modified by this function.
 984:.\Generated_Source\PSoC4/CyDMA.c **** *                   
 985:.\Generated_Source\PSoC4/CyDMA.c **** * Return:
 986:.\Generated_Source\PSoC4/CyDMA.c **** *  The size of the data element. The DMA transfer engine transfers one data
 987:.\Generated_Source\PSoC4/CyDMA.c **** *  element at a time. How these transfers occur is controlled by the transfer
 988:.\Generated_Source\PSoC4/CyDMA.c **** *  mode. Refer to the API bit field definitions in CyDMA_P4.h or the API 
 989:.\Generated_Source\PSoC4/CyDMA.c **** *  description in the DMA channel datasheet for more information.
 990:.\Generated_Source\PSoC4/CyDMA.c **** *
 991:.\Generated_Source\PSoC4/CyDMA.c **** * Note:
 992:.\Generated_Source\PSoC4/CyDMA.c **** *  The size of the source and destination can be configured to use the
 993:.\Generated_Source\PSoC4/CyDMA.c **** *  data element size, or a Word, this is set in CyDmaSetSrcDstTransferWidth().
 994:.\Generated_Source\PSoC4/CyDMA.c **** *
 995:.\Generated_Source\PSoC4/CyDMA.c **** *******************************************************************************/
 996:.\Generated_Source\PSoC4/CyDMA.c **** uint32 CyDmaGetDataElementSize(int32 channel, int32 descriptor)
 997:.\Generated_Source\PSoC4/CyDMA.c **** {
 1551              		.loc 1 997 0
 1552              		.cfi_startproc
 1553              	.LVL141:
 1554 0000 38B5     		push	{r3, r4, r5, lr}
 1555              		.cfi_def_cfa_offset 16
 1556              		.cfi_offset 3, -16
 1557              		.cfi_offset 4, -12
 1558              		.cfi_offset 5, -8
 1559              		.cfi_offset 14, -4
 1560 0002 051C     		mov	r5, r0
 1561 0004 0C1C     		mov	r4, r1
 998:.\Generated_Source\PSoC4/CyDMA.c ****     CYASSERT((channel    >= 0) && (channel    < CYDMA_CH_NR));
 1562              		.loc 1 998 0
 1563 0006 0728     		cmp	r0, #7
 1564 0008 02D9     		bls	.L144
 1565              		.loc 1 998 0 is_stmt 0 discriminator 1
ARM GAS  C:\Users\TOM~1.MCK\AppData\Local\Temp\ccARJkPm.s 			page 47


 1566 000a 0020     		mov	r0, #0
 1567              	.LVL142:
 1568 000c FFF7FEFF 		bl	CyHalt
 1569              	.LVL143:
 1570              	.L144:
 999:.\Generated_Source\PSoC4/CyDMA.c ****     CYASSERT((descriptor >= 0) && (descriptor < CYDMA_DESCR_NR));
 1571              		.loc 1 999 0 is_stmt 1
 1572 0010 012C     		cmp	r4, #1
 1573 0012 02D9     		bls	.L145
 1574              		.loc 1 999 0 is_stmt 0 discriminator 1
 1575 0014 0020     		mov	r0, #0
 1576 0016 FFF7FEFF 		bl	CyHalt
 1577              	.LVL144:
 1578              	.L145:
1000:.\Generated_Source\PSoC4/CyDMA.c **** 
1001:.\Generated_Source\PSoC4/CyDMA.c ****     return (CYDMA_DESCR_BASE.descriptor[channel][descriptor].ctl & CYDMA_DATA_SIZE);
 1579              		.loc 1 1001 0 is_stmt 1
 1580 001a 6D00     		lsl	r5, r5, #1
 1581              	.LVL145:
 1582 001c 2C19     		add	r4, r5, r4
 1583              	.LVL146:
 1584 001e 2401     		lsl	r4, r4, #4
 1585 0020 034B     		ldr	r3, .L146
 1586 0022 9C46     		mov	ip, r3
 1587 0024 6444     		add	r4, r4, ip
 1588 0026 A068     		ldr	r0, [r4, #8]
 1589 0028 C023     		mov	r3, #192
 1590 002a 9B02     		lsl	r3, r3, #10
 1591 002c 1840     		and	r0, r3
1002:.\Generated_Source\PSoC4/CyDMA.c **** }
 1592              		.loc 1 1002 0
 1593              		@ sp needed
 1594 002e 38BD     		pop	{r3, r4, r5, pc}
 1595              	.L147:
 1596              		.align	2
 1597              	.L146:
 1598 0030 00181040 		.word	1074796544
 1599              		.cfi_endproc
 1600              	.LFE35:
 1601              		.size	CyDmaGetDataElementSize, .-CyDmaGetDataElementSize
 1602              		.section	.text.CyDmaSetNumDataElements,"ax",%progbits
 1603              		.align	2
 1604              		.global	CyDmaSetNumDataElements
 1605              		.code	16
 1606              		.thumb_func
 1607              		.type	CyDmaSetNumDataElements, %function
 1608              	CyDmaSetNumDataElements:
 1609              	.LFB36:
1003:.\Generated_Source\PSoC4/CyDMA.c **** 
1004:.\Generated_Source\PSoC4/CyDMA.c **** 
1005:.\Generated_Source\PSoC4/CyDMA.c **** /*******************************************************************************
1006:.\Generated_Source\PSoC4/CyDMA.c **** * Function Name: CyDmaSetNumDataElements
1007:.\Generated_Source\PSoC4/CyDMA.c **** ********************************************************************************
1008:.\Generated_Source\PSoC4/CyDMA.c **** *
1009:.\Generated_Source\PSoC4/CyDMA.c **** * Summary:
1010:.\Generated_Source\PSoC4/CyDMA.c **** *  Sets the number of data elements to transfer for specified descriptor.
1011:.\Generated_Source\PSoC4/CyDMA.c **** *
ARM GAS  C:\Users\TOM~1.MCK\AppData\Local\Temp\ccARJkPm.s 			page 48


1012:.\Generated_Source\PSoC4/CyDMA.c **** * Parameters:
1013:.\Generated_Source\PSoC4/CyDMA.c **** *  channel:         Channel used by this function.
1014:.\Generated_Source\PSoC4/CyDMA.c **** *  descriptor:      Descriptor (0 or 1) modified by this function.
1015:.\Generated_Source\PSoC4/CyDMA.c **** *  numDataElements: Total number of data elements this descriptor transfers.
1016:.\Generated_Source\PSoC4/CyDMA.c **** *                   Valid ranges are 1 to 65536.
1017:.\Generated_Source\PSoC4/CyDMA.c **** *                   
1018:.\Generated_Source\PSoC4/CyDMA.c **** * Return:
1019:.\Generated_Source\PSoC4/CyDMA.c **** *  None.
1020:.\Generated_Source\PSoC4/CyDMA.c **** *
1021:.\Generated_Source\PSoC4/CyDMA.c **** * Side effect:
1022:.\Generated_Source\PSoC4/CyDMA.c **** *  This function should not be called when the specified descriptor is active
1023:.\Generated_Source\PSoC4/CyDMA.c **** *  in the DMA transfer engine. This can be checked by calling CyDmaGetStatus(). 
1024:.\Generated_Source\PSoC4/CyDMA.c **** *
1025:.\Generated_Source\PSoC4/CyDMA.c **** *******************************************************************************/
1026:.\Generated_Source\PSoC4/CyDMA.c **** void CyDmaSetNumDataElements(int32 channel, int32 descriptor, int32 numDataElements)
1027:.\Generated_Source\PSoC4/CyDMA.c **** {
 1610              		.loc 1 1027 0
 1611              		.cfi_startproc
 1612              	.LVL147:
 1613 0000 70B5     		push	{r4, r5, r6, lr}
 1614              		.cfi_def_cfa_offset 16
 1615              		.cfi_offset 4, -16
 1616              		.cfi_offset 5, -12
 1617              		.cfi_offset 6, -8
 1618              		.cfi_offset 14, -4
 1619 0002 061C     		mov	r6, r0
 1620 0004 0C1C     		mov	r4, r1
 1621 0006 151C     		mov	r5, r2
1028:.\Generated_Source\PSoC4/CyDMA.c ****     uint32 regValue;
1029:.\Generated_Source\PSoC4/CyDMA.c ****     
1030:.\Generated_Source\PSoC4/CyDMA.c ****     CYASSERT((channel        >= 0) && (channel         <  CYDMA_CH_NR));
 1622              		.loc 1 1030 0
 1623 0008 0728     		cmp	r0, #7
 1624 000a 02D9     		bls	.L149
 1625              		.loc 1 1030 0 is_stmt 0 discriminator 1
 1626 000c 0020     		mov	r0, #0
 1627              	.LVL148:
 1628 000e FFF7FEFF 		bl	CyHalt
 1629              	.LVL149:
 1630              	.L149:
1031:.\Generated_Source\PSoC4/CyDMA.c ****     CYASSERT((descriptor     >= 0) && (descriptor      <  CYDMA_DESCR_NR));
 1631              		.loc 1 1031 0 is_stmt 1
 1632 0012 012C     		cmp	r4, #1
 1633 0014 02D9     		bls	.L150
 1634              		.loc 1 1031 0 is_stmt 0 discriminator 1
 1635 0016 0020     		mov	r0, #0
 1636 0018 FFF7FEFF 		bl	CyHalt
 1637              	.LVL150:
 1638              	.L150:
1032:.\Generated_Source\PSoC4/CyDMA.c ****     CYASSERT((numDataElements > 0) && (numDataElements <= CYDMA_MAX_DATA_NR));
 1639              		.loc 1 1032 0 is_stmt 1
 1640 001c 6B1E     		sub	r3, r5, #1
 1641 001e 094A     		ldr	r2, .L152
 1642 0020 9342     		cmp	r3, r2
 1643 0022 02D9     		bls	.L151
 1644              		.loc 1 1032 0 is_stmt 0 discriminator 1
 1645 0024 0020     		mov	r0, #0
ARM GAS  C:\Users\TOM~1.MCK\AppData\Local\Temp\ccARJkPm.s 			page 49


 1646 0026 FFF7FEFF 		bl	CyHalt
 1647              	.LVL151:
 1648              	.L151:
1033:.\Generated_Source\PSoC4/CyDMA.c ****     
1034:.\Generated_Source\PSoC4/CyDMA.c ****     --numDataElements;
 1649              		.loc 1 1034 0 is_stmt 1
 1650 002a 6B1E     		sub	r3, r5, #1
 1651              	.LVL152:
1035:.\Generated_Source\PSoC4/CyDMA.c ****     regValue = CYDMA_DESCR_BASE.descriptor[channel][descriptor].ctl & (uint32)~CYDMA_DATA_NR;
 1652              		.loc 1 1035 0
 1653 002c 7600     		lsl	r6, r6, #1
 1654              	.LVL153:
 1655 002e 3419     		add	r4, r6, r4
 1656              	.LVL154:
 1657 0030 2401     		lsl	r4, r4, #4
 1658 0032 054A     		ldr	r2, .L152+4
 1659 0034 9446     		mov	ip, r2
 1660 0036 6444     		add	r4, r4, ip
 1661 0038 A568     		ldr	r5, [r4, #8]
 1662 003a 2D0C     		lsr	r5, r5, #16
 1663 003c 2D04     		lsl	r5, r5, #16
 1664              	.LVL155:
1036:.\Generated_Source\PSoC4/CyDMA.c ****     CYDMA_DESCR_BASE.descriptor[channel][descriptor].ctl = regValue | (uint32)numDataElements;
 1665              		.loc 1 1036 0
 1666 003e 1D43     		orr	r5, r3
 1667              	.LVL156:
 1668 0040 A560     		str	r5, [r4, #8]
1037:.\Generated_Source\PSoC4/CyDMA.c **** }
 1669              		.loc 1 1037 0
 1670              		@ sp needed
 1671 0042 70BD     		pop	{r4, r5, r6, pc}
 1672              	.L153:
 1673              		.align	2
 1674              	.L152:
 1675 0044 FFFF0000 		.word	65535
 1676 0048 00181040 		.word	1074796544
 1677              		.cfi_endproc
 1678              	.LFE36:
 1679              		.size	CyDmaSetNumDataElements, .-CyDmaSetNumDataElements
 1680              		.section	.text.CyDmaGetNumDataElements,"ax",%progbits
 1681              		.align	2
 1682              		.global	CyDmaGetNumDataElements
 1683              		.code	16
 1684              		.thumb_func
 1685              		.type	CyDmaGetNumDataElements, %function
 1686              	CyDmaGetNumDataElements:
 1687              	.LFB37:
1038:.\Generated_Source\PSoC4/CyDMA.c **** 
1039:.\Generated_Source\PSoC4/CyDMA.c **** 
1040:.\Generated_Source\PSoC4/CyDMA.c **** /*******************************************************************************
1041:.\Generated_Source\PSoC4/CyDMA.c **** * Function Name: CyDmaGetNumDataElements
1042:.\Generated_Source\PSoC4/CyDMA.c **** ********************************************************************************
1043:.\Generated_Source\PSoC4/CyDMA.c **** *
1044:.\Generated_Source\PSoC4/CyDMA.c **** * Summary:
1045:.\Generated_Source\PSoC4/CyDMA.c **** *  Returns the number of data elements to be transferred. Only reflects the
1046:.\Generated_Source\PSoC4/CyDMA.c **** *  value written by CyDmaSetNumDataElements() or CyDmaSetConfiguration(). This
1047:.\Generated_Source\PSoC4/CyDMA.c **** *  does not reflect how many elements have been transferred. For that
ARM GAS  C:\Users\TOM~1.MCK\AppData\Local\Temp\ccARJkPm.s 			page 50


1048:.\Generated_Source\PSoC4/CyDMA.c **** *  information use the CyDmaGetDescriptorStatus() function.
1049:.\Generated_Source\PSoC4/CyDMA.c **** *
1050:.\Generated_Source\PSoC4/CyDMA.c **** * Parameters:
1051:.\Generated_Source\PSoC4/CyDMA.c **** *  channel:    Channel used by this function.
1052:.\Generated_Source\PSoC4/CyDMA.c **** *  descriptor: Descriptor (0 or 1) modified by this function.
1053:.\Generated_Source\PSoC4/CyDMA.c **** *                   
1054:.\Generated_Source\PSoC4/CyDMA.c **** * Return:
1055:.\Generated_Source\PSoC4/CyDMA.c **** *  Number of data elements to transfer.
1056:.\Generated_Source\PSoC4/CyDMA.c **** *
1057:.\Generated_Source\PSoC4/CyDMA.c **** *******************************************************************************/
1058:.\Generated_Source\PSoC4/CyDMA.c **** int32 CyDmaGetNumDataElements(int32 channel, int32 descriptor)
1059:.\Generated_Source\PSoC4/CyDMA.c **** {
 1688              		.loc 1 1059 0
 1689              		.cfi_startproc
 1690              	.LVL157:
 1691 0000 38B5     		push	{r3, r4, r5, lr}
 1692              		.cfi_def_cfa_offset 16
 1693              		.cfi_offset 3, -16
 1694              		.cfi_offset 4, -12
 1695              		.cfi_offset 5, -8
 1696              		.cfi_offset 14, -4
 1697 0002 051C     		mov	r5, r0
 1698 0004 0C1C     		mov	r4, r1
1060:.\Generated_Source\PSoC4/CyDMA.c ****     uint32 numElements;
1061:.\Generated_Source\PSoC4/CyDMA.c **** 
1062:.\Generated_Source\PSoC4/CyDMA.c ****     CYASSERT((channel    >= 0) && (channel    < CYDMA_CH_NR));
 1699              		.loc 1 1062 0
 1700 0006 0728     		cmp	r0, #7
 1701 0008 02D9     		bls	.L155
 1702              		.loc 1 1062 0 is_stmt 0 discriminator 1
 1703 000a 0020     		mov	r0, #0
 1704              	.LVL158:
 1705 000c FFF7FEFF 		bl	CyHalt
 1706              	.LVL159:
 1707              	.L155:
1063:.\Generated_Source\PSoC4/CyDMA.c ****     CYASSERT((descriptor >= 0) && (descriptor < CYDMA_DESCR_NR));
 1708              		.loc 1 1063 0 is_stmt 1
 1709 0010 012C     		cmp	r4, #1
 1710 0012 02D9     		bls	.L156
 1711              		.loc 1 1063 0 is_stmt 0 discriminator 1
 1712 0014 0020     		mov	r0, #0
 1713 0016 FFF7FEFF 		bl	CyHalt
 1714              	.LVL160:
 1715              	.L156:
1064:.\Generated_Source\PSoC4/CyDMA.c ****     
1065:.\Generated_Source\PSoC4/CyDMA.c ****     numElements = (CYDMA_DESCR_BASE.descriptor[channel][descriptor].ctl & CYDMA_DATA_NR) + 1u;
 1716              		.loc 1 1065 0 is_stmt 1
 1717 001a 6D00     		lsl	r5, r5, #1
 1718              	.LVL161:
 1719 001c 2C19     		add	r4, r5, r4
 1720              	.LVL162:
 1721 001e 2401     		lsl	r4, r4, #4
 1722 0020 034B     		ldr	r3, .L157
 1723 0022 9C46     		mov	ip, r3
 1724 0024 6444     		add	r4, r4, ip
 1725 0026 A068     		ldr	r0, [r4, #8]
 1726 0028 0004     		lsl	r0, r0, #16
ARM GAS  C:\Users\TOM~1.MCK\AppData\Local\Temp\ccARJkPm.s 			page 51


 1727 002a 000C     		lsr	r0, r0, #16
 1728 002c 0130     		add	r0, r0, #1
 1729              	.LVL163:
1066:.\Generated_Source\PSoC4/CyDMA.c ****     return ((int32)numElements);
1067:.\Generated_Source\PSoC4/CyDMA.c **** }
 1730              		.loc 1 1067 0
 1731              		@ sp needed
 1732 002e 38BD     		pop	{r3, r4, r5, pc}
 1733              	.L158:
 1734              		.align	2
 1735              	.L157:
 1736 0030 00181040 		.word	1074796544
 1737              		.cfi_endproc
 1738              	.LFE37:
 1739              		.size	CyDmaGetNumDataElements, .-CyDmaGetNumDataElements
 1740              		.section	.text.CyDmaSetSrcDstTransferWidth,"ax",%progbits
 1741              		.align	2
 1742              		.global	CyDmaSetSrcDstTransferWidth
 1743              		.code	16
 1744              		.thumb_func
 1745              		.type	CyDmaSetSrcDstTransferWidth, %function
 1746              	CyDmaSetSrcDstTransferWidth:
 1747              	.LFB38:
1068:.\Generated_Source\PSoC4/CyDMA.c **** 
1069:.\Generated_Source\PSoC4/CyDMA.c **** 
1070:.\Generated_Source\PSoC4/CyDMA.c **** /*******************************************************************************
1071:.\Generated_Source\PSoC4/CyDMA.c **** * Function Name: CyDmaSetSrcDstTransferWidth
1072:.\Generated_Source\PSoC4/CyDMA.c **** ********************************************************************************
1073:.\Generated_Source\PSoC4/CyDMA.c **** *
1074:.\Generated_Source\PSoC4/CyDMA.c **** * Summary:
1075:.\Generated_Source\PSoC4/CyDMA.c **** *  Sets the width of the source and destination. The DMA can either read and
1076:.\Generated_Source\PSoC4/CyDMA.c **** *  write data from the source and destination at the size specified by
1077:.\Generated_Source\PSoC4/CyDMA.c **** *  CyDmaSetDataElementSize() or by a word (4bytes). This also determines how
1078:.\Generated_Source\PSoC4/CyDMA.c **** *  many bytes the addresses are incremented if increment source and destination
1079:.\Generated_Source\PSoC4/CyDMA.c **** *  address are turned on.
1080:.\Generated_Source\PSoC4/CyDMA.c **** *
1081:.\Generated_Source\PSoC4/CyDMA.c **** * Parameters:
1082:.\Generated_Source\PSoC4/CyDMA.c **** *  channel:       Channel used by this function.
1083:.\Generated_Source\PSoC4/CyDMA.c **** *  descriptor:    Descriptor (0 or 1) modified by this function.
1084:.\Generated_Source\PSoC4/CyDMA.c **** *  transferWidth: Specifies the source and destination widths. Refer to 
1085:.\Generated_Source\PSoC4/CyDMA.c **** *                 the API bit field definitions in CyDMA_P4.h or the API
1086:.\Generated_Source\PSoC4/CyDMA.c **** *                 description in the DMA channel datasheet for the parameter
1087:.\Generated_Source\PSoC4/CyDMA.c **** *                 options.
1088:.\Generated_Source\PSoC4/CyDMA.c **** *                   
1089:.\Generated_Source\PSoC4/CyDMA.c **** * Return:
1090:.\Generated_Source\PSoC4/CyDMA.c **** *  None.
1091:.\Generated_Source\PSoC4/CyDMA.c **** *
1092:.\Generated_Source\PSoC4/CyDMA.c **** * Side effect:
1093:.\Generated_Source\PSoC4/CyDMA.c **** *  This function should not be called when the specified descriptor is active
1094:.\Generated_Source\PSoC4/CyDMA.c **** *  in the DMA transfer engine. This can be checked by calling CyDmaGetStatus(). 
1095:.\Generated_Source\PSoC4/CyDMA.c **** *
1096:.\Generated_Source\PSoC4/CyDMA.c **** *******************************************************************************/
1097:.\Generated_Source\PSoC4/CyDMA.c **** void CyDmaSetSrcDstTransferWidth(int32 channel, int32 descriptor, uint32 transferWidth)
1098:.\Generated_Source\PSoC4/CyDMA.c **** {
 1748              		.loc 1 1098 0
 1749              		.cfi_startproc
 1750              	.LVL164:
ARM GAS  C:\Users\TOM~1.MCK\AppData\Local\Temp\ccARJkPm.s 			page 52


 1751 0000 70B5     		push	{r4, r5, r6, lr}
 1752              		.cfi_def_cfa_offset 16
 1753              		.cfi_offset 4, -16
 1754              		.cfi_offset 5, -12
 1755              		.cfi_offset 6, -8
 1756              		.cfi_offset 14, -4
 1757 0002 061C     		mov	r6, r0
 1758 0004 0C1C     		mov	r4, r1
 1759 0006 151C     		mov	r5, r2
1099:.\Generated_Source\PSoC4/CyDMA.c ****     uint32 regValue;
1100:.\Generated_Source\PSoC4/CyDMA.c **** 
1101:.\Generated_Source\PSoC4/CyDMA.c ****     CYASSERT((channel    >= 0) && (channel    < CYDMA_CH_NR));
 1760              		.loc 1 1101 0
 1761 0008 0728     		cmp	r0, #7
 1762 000a 02D9     		bls	.L160
 1763              		.loc 1 1101 0 is_stmt 0 discriminator 1
 1764 000c 0020     		mov	r0, #0
 1765              	.LVL165:
 1766 000e FFF7FEFF 		bl	CyHalt
 1767              	.LVL166:
 1768              	.L160:
1102:.\Generated_Source\PSoC4/CyDMA.c ****     CYASSERT((descriptor >= 0) && (descriptor < CYDMA_DESCR_NR));
 1769              		.loc 1 1102 0 is_stmt 1
 1770 0012 012C     		cmp	r4, #1
 1771 0014 02D9     		bls	.L161
 1772              		.loc 1 1102 0 is_stmt 0 discriminator 1
 1773 0016 0020     		mov	r0, #0
 1774 0018 FFF7FEFF 		bl	CyHalt
 1775              	.LVL167:
 1776              	.L161:
1103:.\Generated_Source\PSoC4/CyDMA.c ****     CYASSERT(0u == (transferWidth & (uint32)~CYDMA_TRANSFER_WIDTH));
 1777              		.loc 1 1103 0 is_stmt 1
 1778 001c 084B     		ldr	r3, .L163
 1779 001e 1D42     		tst	r5, r3
 1780 0020 02D0     		beq	.L162
 1781              		.loc 1 1103 0 is_stmt 0 discriminator 1
 1782 0022 0020     		mov	r0, #0
 1783 0024 FFF7FEFF 		bl	CyHalt
 1784              	.LVL168:
 1785              	.L162:
1104:.\Generated_Source\PSoC4/CyDMA.c **** 
1105:.\Generated_Source\PSoC4/CyDMA.c ****     regValue = CYDMA_DESCR_BASE.descriptor[channel][descriptor].ctl & (uint32)~CYDMA_TRANSFER_WIDTH
 1786              		.loc 1 1105 0 is_stmt 1
 1787 0028 7600     		lsl	r6, r6, #1
 1788              	.LVL169:
 1789 002a 3419     		add	r4, r6, r4
 1790              	.LVL170:
 1791 002c 2401     		lsl	r4, r4, #4
 1792 002e 054B     		ldr	r3, .L163+4
 1793 0030 9C46     		mov	ip, r3
 1794 0032 6444     		add	r4, r4, ip
 1795 0034 A268     		ldr	r2, [r4, #8]
 1796 0036 024B     		ldr	r3, .L163
 1797 0038 1340     		and	r3, r2
 1798              	.LVL171:
1106:.\Generated_Source\PSoC4/CyDMA.c ****     CYDMA_DESCR_BASE.descriptor[channel][descriptor].ctl = regValue | transferWidth;
 1799              		.loc 1 1106 0
ARM GAS  C:\Users\TOM~1.MCK\AppData\Local\Temp\ccARJkPm.s 			page 53


 1800 003a 1D43     		orr	r5, r3
 1801              	.LVL172:
 1802 003c A560     		str	r5, [r4, #8]
1107:.\Generated_Source\PSoC4/CyDMA.c **** }
 1803              		.loc 1 1107 0
 1804              		@ sp needed
 1805 003e 70BD     		pop	{r4, r5, r6, pc}
 1806              	.L164:
 1807              		.align	2
 1808              	.L163:
 1809 0040 FFFFAFFF 		.word	-5242881
 1810 0044 00181040 		.word	1074796544
 1811              		.cfi_endproc
 1812              	.LFE38:
 1813              		.size	CyDmaSetSrcDstTransferWidth, .-CyDmaSetSrcDstTransferWidth
 1814              		.section	.text.CyDmaGetSrcDstTransferWidth,"ax",%progbits
 1815              		.align	2
 1816              		.global	CyDmaGetSrcDstTransferWidth
 1817              		.code	16
 1818              		.thumb_func
 1819              		.type	CyDmaGetSrcDstTransferWidth, %function
 1820              	CyDmaGetSrcDstTransferWidth:
 1821              	.LFB39:
1108:.\Generated_Source\PSoC4/CyDMA.c **** 
1109:.\Generated_Source\PSoC4/CyDMA.c **** 
1110:.\Generated_Source\PSoC4/CyDMA.c **** /*******************************************************************************
1111:.\Generated_Source\PSoC4/CyDMA.c **** * Function Name: CyDmaGetSrcDstTransferWidth
1112:.\Generated_Source\PSoC4/CyDMA.c **** ********************************************************************************
1113:.\Generated_Source\PSoC4/CyDMA.c **** *
1114:.\Generated_Source\PSoC4/CyDMA.c **** * Summary:
1115:.\Generated_Source\PSoC4/CyDMA.c **** *  Returns the width of the source and destination, as set by 
1116:.\Generated_Source\PSoC4/CyDMA.c **** *  CyDmaSetSrcDstTransferWidth() or CyDmaSetConfiguration().
1117:.\Generated_Source\PSoC4/CyDMA.c **** *
1118:.\Generated_Source\PSoC4/CyDMA.c **** * Parameters:
1119:.\Generated_Source\PSoC4/CyDMA.c **** *  channel:    Channel used by this function.
1120:.\Generated_Source\PSoC4/CyDMA.c **** *  descriptor: Descriptor (0 or 1) modified by this function.
1121:.\Generated_Source\PSoC4/CyDMA.c **** *                   
1122:.\Generated_Source\PSoC4/CyDMA.c **** * Return:
1123:.\Generated_Source\PSoC4/CyDMA.c **** *  Width of source and destination. Refer to the API bit field definitions in
1124:.\Generated_Source\PSoC4/CyDMA.c **** *  CyDMA_P4.h or the API description in the DMA channel datasheet for more
1125:.\Generated_Source\PSoC4/CyDMA.c **** *  information.
1126:.\Generated_Source\PSoC4/CyDMA.c **** *
1127:.\Generated_Source\PSoC4/CyDMA.c **** *******************************************************************************/
1128:.\Generated_Source\PSoC4/CyDMA.c **** uint32 CyDmaGetSrcDstTransferWidth(int32 channel, int32 descriptor)
1129:.\Generated_Source\PSoC4/CyDMA.c **** {
 1822              		.loc 1 1129 0
 1823              		.cfi_startproc
 1824              	.LVL173:
 1825 0000 38B5     		push	{r3, r4, r5, lr}
 1826              		.cfi_def_cfa_offset 16
 1827              		.cfi_offset 3, -16
 1828              		.cfi_offset 4, -12
 1829              		.cfi_offset 5, -8
 1830              		.cfi_offset 14, -4
 1831 0002 051C     		mov	r5, r0
 1832 0004 0C1C     		mov	r4, r1
1130:.\Generated_Source\PSoC4/CyDMA.c ****     CYASSERT((channel    >= 0) && (channel    < CYDMA_CH_NR));
ARM GAS  C:\Users\TOM~1.MCK\AppData\Local\Temp\ccARJkPm.s 			page 54


 1833              		.loc 1 1130 0
 1834 0006 0728     		cmp	r0, #7
 1835 0008 02D9     		bls	.L166
 1836              		.loc 1 1130 0 is_stmt 0 discriminator 1
 1837 000a 0020     		mov	r0, #0
 1838              	.LVL174:
 1839 000c FFF7FEFF 		bl	CyHalt
 1840              	.LVL175:
 1841              	.L166:
1131:.\Generated_Source\PSoC4/CyDMA.c ****     CYASSERT((descriptor >= 0) && (descriptor < CYDMA_DESCR_NR));
 1842              		.loc 1 1131 0 is_stmt 1
 1843 0010 012C     		cmp	r4, #1
 1844 0012 02D9     		bls	.L167
 1845              		.loc 1 1131 0 is_stmt 0 discriminator 1
 1846 0014 0020     		mov	r0, #0
 1847 0016 FFF7FEFF 		bl	CyHalt
 1848              	.LVL176:
 1849              	.L167:
1132:.\Generated_Source\PSoC4/CyDMA.c ****     return (CYDMA_DESCR_BASE.descriptor[channel][descriptor].ctl & CYDMA_TRANSFER_WIDTH);
 1850              		.loc 1 1132 0 is_stmt 1
 1851 001a 6D00     		lsl	r5, r5, #1
 1852              	.LVL177:
 1853 001c 2C19     		add	r4, r5, r4
 1854              	.LVL178:
 1855 001e 2401     		lsl	r4, r4, #4
 1856 0020 034B     		ldr	r3, .L168
 1857 0022 9C46     		mov	ip, r3
 1858 0024 6444     		add	r4, r4, ip
 1859 0026 A068     		ldr	r0, [r4, #8]
 1860 0028 A023     		mov	r3, #160
 1861 002a DB03     		lsl	r3, r3, #15
 1862 002c 1840     		and	r0, r3
1133:.\Generated_Source\PSoC4/CyDMA.c **** }
 1863              		.loc 1 1133 0
 1864              		@ sp needed
 1865 002e 38BD     		pop	{r3, r4, r5, pc}
 1866              	.L169:
 1867              		.align	2
 1868              	.L168:
 1869 0030 00181040 		.word	1074796544
 1870              		.cfi_endproc
 1871              	.LFE39:
 1872              		.size	CyDmaGetSrcDstTransferWidth, .-CyDmaGetSrcDstTransferWidth
 1873              		.section	.text.CyDmaSetAddressIncrement,"ax",%progbits
 1874              		.align	2
 1875              		.global	CyDmaSetAddressIncrement
 1876              		.code	16
 1877              		.thumb_func
 1878              		.type	CyDmaSetAddressIncrement, %function
 1879              	CyDmaSetAddressIncrement:
 1880              	.LFB40:
1134:.\Generated_Source\PSoC4/CyDMA.c **** 
1135:.\Generated_Source\PSoC4/CyDMA.c **** 
1136:.\Generated_Source\PSoC4/CyDMA.c **** /*******************************************************************************
1137:.\Generated_Source\PSoC4/CyDMA.c **** * Function Name: CyDmaSetAddressIncrement
1138:.\Generated_Source\PSoC4/CyDMA.c **** ********************************************************************************
1139:.\Generated_Source\PSoC4/CyDMA.c **** *
ARM GAS  C:\Users\TOM~1.MCK\AppData\Local\Temp\ccARJkPm.s 			page 55


1140:.\Generated_Source\PSoC4/CyDMA.c **** * Summary:
1141:.\Generated_Source\PSoC4/CyDMA.c **** *  Sets whether the source or destination addresses are incremented after the
1142:.\Generated_Source\PSoC4/CyDMA.c **** *  transfer of each data element. The amount that the source and destination
1143:.\Generated_Source\PSoC4/CyDMA.c **** *  address are incremented is determined by the CyDmaSetSrcDstTransferWidth()
1144:.\Generated_Source\PSoC4/CyDMA.c **** *  function. The addresses will either be incremented by the data element size
1145:.\Generated_Source\PSoC4/CyDMA.c **** *  or by a word (4 bytes).
1146:.\Generated_Source\PSoC4/CyDMA.c **** *
1147:.\Generated_Source\PSoC4/CyDMA.c **** * Parameters:
1148:.\Generated_Source\PSoC4/CyDMA.c **** *  channel:          Channel used by this function.
1149:.\Generated_Source\PSoC4/CyDMA.c **** *  descriptor:       Descriptor (0 or 1) modified by this function.
1150:.\Generated_Source\PSoC4/CyDMA.c **** *  addressIncrement: Address increment settings. Refer to the API bit fields 
1151:.\Generated_Source\PSoC4/CyDMA.c **** *                    definition in CyDMA_P4.h or the API description in the DMA
1152:.\Generated_Source\PSoC4/CyDMA.c **** *                    channel datasheet for the parameter options.
1153:.\Generated_Source\PSoC4/CyDMA.c **** *    
1154:.\Generated_Source\PSoC4/CyDMA.c **** * Return:
1155:.\Generated_Source\PSoC4/CyDMA.c **** *  None.
1156:.\Generated_Source\PSoC4/CyDMA.c **** *
1157:.\Generated_Source\PSoC4/CyDMA.c **** * Side effect:
1158:.\Generated_Source\PSoC4/CyDMA.c **** *  This function should not be called when the specified descriptor is active
1159:.\Generated_Source\PSoC4/CyDMA.c **** *  in the DMA transfer engine. This can be checked by calling CyDmaGetStatus(). 
1160:.\Generated_Source\PSoC4/CyDMA.c **** *
1161:.\Generated_Source\PSoC4/CyDMA.c **** *******************************************************************************/
1162:.\Generated_Source\PSoC4/CyDMA.c **** void CyDmaSetAddressIncrement(int32 channel, int32 descriptor, uint32 addressIncrement)
1163:.\Generated_Source\PSoC4/CyDMA.c **** {
 1881              		.loc 1 1163 0
 1882              		.cfi_startproc
 1883              	.LVL179:
 1884 0000 70B5     		push	{r4, r5, r6, lr}
 1885              		.cfi_def_cfa_offset 16
 1886              		.cfi_offset 4, -16
 1887              		.cfi_offset 5, -12
 1888              		.cfi_offset 6, -8
 1889              		.cfi_offset 14, -4
 1890 0002 061C     		mov	r6, r0
 1891 0004 0C1C     		mov	r4, r1
 1892 0006 151C     		mov	r5, r2
1164:.\Generated_Source\PSoC4/CyDMA.c ****     uint32 regValue;
1165:.\Generated_Source\PSoC4/CyDMA.c **** 
1166:.\Generated_Source\PSoC4/CyDMA.c ****     CYASSERT((channel    >= 0) && (channel    < CYDMA_CH_NR));
 1893              		.loc 1 1166 0
 1894 0008 0728     		cmp	r0, #7
 1895 000a 02D9     		bls	.L171
 1896              		.loc 1 1166 0 is_stmt 0 discriminator 1
 1897 000c 0020     		mov	r0, #0
 1898              	.LVL180:
 1899 000e FFF7FEFF 		bl	CyHalt
 1900              	.LVL181:
 1901              	.L171:
1167:.\Generated_Source\PSoC4/CyDMA.c ****     CYASSERT((descriptor >= 0) && (descriptor < CYDMA_DESCR_NR));
 1902              		.loc 1 1167 0 is_stmt 1
 1903 0012 012C     		cmp	r4, #1
 1904 0014 02D9     		bls	.L172
 1905              		.loc 1 1167 0 is_stmt 0 discriminator 1
 1906 0016 0020     		mov	r0, #0
 1907 0018 FFF7FEFF 		bl	CyHalt
 1908              	.LVL182:
 1909              	.L172:
ARM GAS  C:\Users\TOM~1.MCK\AppData\Local\Temp\ccARJkPm.s 			page 56


1168:.\Generated_Source\PSoC4/CyDMA.c ****     CYASSERT(0u == (addressIncrement & (uint32)~CYDMA_ADDR_INCR));
 1910              		.loc 1 1168 0 is_stmt 1
 1911 001c 084B     		ldr	r3, .L174
 1912 001e 1D42     		tst	r5, r3
 1913 0020 02D0     		beq	.L173
 1914              		.loc 1 1168 0 is_stmt 0 discriminator 1
 1915 0022 0020     		mov	r0, #0
 1916 0024 FFF7FEFF 		bl	CyHalt
 1917              	.LVL183:
 1918              	.L173:
1169:.\Generated_Source\PSoC4/CyDMA.c **** 
1170:.\Generated_Source\PSoC4/CyDMA.c ****     regValue = CYDMA_DESCR_BASE.descriptor[channel][descriptor].ctl & (uint32)~CYDMA_ADDR_INCR;
 1919              		.loc 1 1170 0 is_stmt 1
 1920 0028 7600     		lsl	r6, r6, #1
 1921              	.LVL184:
 1922 002a 3419     		add	r4, r6, r4
 1923              	.LVL185:
 1924 002c 2401     		lsl	r4, r4, #4
 1925 002e 054B     		ldr	r3, .L174+4
 1926 0030 9C46     		mov	ip, r3
 1927 0032 6444     		add	r4, r4, ip
 1928 0034 A268     		ldr	r2, [r4, #8]
 1929 0036 024B     		ldr	r3, .L174
 1930 0038 1340     		and	r3, r2
 1931              	.LVL186:
1171:.\Generated_Source\PSoC4/CyDMA.c ****     CYDMA_DESCR_BASE.descriptor[channel][descriptor].ctl = regValue | addressIncrement;
 1932              		.loc 1 1171 0
 1933 003a 1D43     		orr	r5, r3
 1934              	.LVL187:
 1935 003c A560     		str	r5, [r4, #8]
1172:.\Generated_Source\PSoC4/CyDMA.c **** }
 1936              		.loc 1 1172 0
 1937              		@ sp needed
 1938 003e 70BD     		pop	{r4, r5, r6, pc}
 1939              	.L175:
 1940              		.align	2
 1941              	.L174:
 1942 0040 FFFF5FFF 		.word	-10485761
 1943 0044 00181040 		.word	1074796544
 1944              		.cfi_endproc
 1945              	.LFE40:
 1946              		.size	CyDmaSetAddressIncrement, .-CyDmaSetAddressIncrement
 1947              		.section	.text.CyDmaGetAddressIncrement,"ax",%progbits
 1948              		.align	2
 1949              		.global	CyDmaGetAddressIncrement
 1950              		.code	16
 1951              		.thumb_func
 1952              		.type	CyDmaGetAddressIncrement, %function
 1953              	CyDmaGetAddressIncrement:
 1954              	.LFB41:
1173:.\Generated_Source\PSoC4/CyDMA.c **** 
1174:.\Generated_Source\PSoC4/CyDMA.c **** 
1175:.\Generated_Source\PSoC4/CyDMA.c **** /*******************************************************************************
1176:.\Generated_Source\PSoC4/CyDMA.c **** * Function Name: CyDmaGetAddressIncrement
1177:.\Generated_Source\PSoC4/CyDMA.c **** ********************************************************************************
1178:.\Generated_Source\PSoC4/CyDMA.c **** *
1179:.\Generated_Source\PSoC4/CyDMA.c **** * Summary:
ARM GAS  C:\Users\TOM~1.MCK\AppData\Local\Temp\ccARJkPm.s 			page 57


1180:.\Generated_Source\PSoC4/CyDMA.c **** *  Returns address increment settings as set by CyDmaSetAddressIncrement() or
1181:.\Generated_Source\PSoC4/CyDMA.c **** *  CyDmaSetConfiguration().
1182:.\Generated_Source\PSoC4/CyDMA.c **** *
1183:.\Generated_Source\PSoC4/CyDMA.c **** * Parameters:
1184:.\Generated_Source\PSoC4/CyDMA.c **** *  channel:    Channel used by this function.
1185:.\Generated_Source\PSoC4/CyDMA.c **** *  descriptor: Descriptor (0 or 1) modified by this function.
1186:.\Generated_Source\PSoC4/CyDMA.c **** *                   
1187:.\Generated_Source\PSoC4/CyDMA.c **** * Return:
1188:.\Generated_Source\PSoC4/CyDMA.c **** *  Address increment settings. Refer to the API bit field definitions in
1189:.\Generated_Source\PSoC4/CyDMA.c **** *  CyDMA_P4.h or the API description in the DMA channel datasheet for more
1190:.\Generated_Source\PSoC4/CyDMA.c **** *  information.
1191:.\Generated_Source\PSoC4/CyDMA.c **** *
1192:.\Generated_Source\PSoC4/CyDMA.c **** *******************************************************************************/
1193:.\Generated_Source\PSoC4/CyDMA.c **** uint32 CyDmaGetAddressIncrement(int32 channel, int32 descriptor)
1194:.\Generated_Source\PSoC4/CyDMA.c **** {
 1955              		.loc 1 1194 0
 1956              		.cfi_startproc
 1957              	.LVL188:
 1958 0000 38B5     		push	{r3, r4, r5, lr}
 1959              		.cfi_def_cfa_offset 16
 1960              		.cfi_offset 3, -16
 1961              		.cfi_offset 4, -12
 1962              		.cfi_offset 5, -8
 1963              		.cfi_offset 14, -4
 1964 0002 051C     		mov	r5, r0
 1965 0004 0C1C     		mov	r4, r1
1195:.\Generated_Source\PSoC4/CyDMA.c ****     CYASSERT((channel    >= 0) && (channel    < CYDMA_CH_NR));
 1966              		.loc 1 1195 0
 1967 0006 0728     		cmp	r0, #7
 1968 0008 02D9     		bls	.L177
 1969              		.loc 1 1195 0 is_stmt 0 discriminator 1
 1970 000a 0020     		mov	r0, #0
 1971              	.LVL189:
 1972 000c FFF7FEFF 		bl	CyHalt
 1973              	.LVL190:
 1974              	.L177:
1196:.\Generated_Source\PSoC4/CyDMA.c ****     CYASSERT((descriptor >= 0) && (descriptor < CYDMA_DESCR_NR));
 1975              		.loc 1 1196 0 is_stmt 1
 1976 0010 012C     		cmp	r4, #1
 1977 0012 02D9     		bls	.L178
 1978              		.loc 1 1196 0 is_stmt 0 discriminator 1
 1979 0014 0020     		mov	r0, #0
 1980 0016 FFF7FEFF 		bl	CyHalt
 1981              	.LVL191:
 1982              	.L178:
1197:.\Generated_Source\PSoC4/CyDMA.c **** 
1198:.\Generated_Source\PSoC4/CyDMA.c ****     return (CYDMA_DESCR_BASE.descriptor[channel][descriptor].ctl & CYDMA_ADDR_INCR);
 1983              		.loc 1 1198 0 is_stmt 1
 1984 001a 6D00     		lsl	r5, r5, #1
 1985              	.LVL192:
 1986 001c 2C19     		add	r4, r5, r4
 1987              	.LVL193:
 1988 001e 2401     		lsl	r4, r4, #4
 1989 0020 034B     		ldr	r3, .L179
 1990 0022 9C46     		mov	ip, r3
 1991 0024 6444     		add	r4, r4, ip
 1992 0026 A068     		ldr	r0, [r4, #8]
ARM GAS  C:\Users\TOM~1.MCK\AppData\Local\Temp\ccARJkPm.s 			page 58


 1993 0028 A023     		mov	r3, #160
 1994 002a 1B04     		lsl	r3, r3, #16
 1995 002c 1840     		and	r0, r3
1199:.\Generated_Source\PSoC4/CyDMA.c **** }
 1996              		.loc 1 1199 0
 1997              		@ sp needed
 1998 002e 38BD     		pop	{r3, r4, r5, pc}
 1999              	.L180:
 2000              		.align	2
 2001              	.L179:
 2002 0030 00181040 		.word	1074796544
 2003              		.cfi_endproc
 2004              	.LFE41:
 2005              		.size	CyDmaGetAddressIncrement, .-CyDmaGetAddressIncrement
 2006              		.section	.text.CyDmaSetTriggerType,"ax",%progbits
 2007              		.align	2
 2008              		.global	CyDmaSetTriggerType
 2009              		.code	16
 2010              		.thumb_func
 2011              		.type	CyDmaSetTriggerType, %function
 2012              	CyDmaSetTriggerType:
 2013              	.LFB42:
1200:.\Generated_Source\PSoC4/CyDMA.c **** 
1201:.\Generated_Source\PSoC4/CyDMA.c **** 
1202:.\Generated_Source\PSoC4/CyDMA.c **** /*******************************************************************************
1203:.\Generated_Source\PSoC4/CyDMA.c **** * Function Name: CyDmaSetTriggerType
1204:.\Generated_Source\PSoC4/CyDMA.c **** ********************************************************************************
1205:.\Generated_Source\PSoC4/CyDMA.c **** *
1206:.\Generated_Source\PSoC4/CyDMA.c **** * Summary:
1207:.\Generated_Source\PSoC4/CyDMA.c **** *  Sets the type of input trigger for the DMA For level sensitive triggers sets
1208:.\Generated_Source\PSoC4/CyDMA.c **** *  how long the DMA waits for the trigger to go low (deactivate) before
1209:.\Generated_Source\PSoC4/CyDMA.c **** *  triggering the channel again.
1210:.\Generated_Source\PSoC4/CyDMA.c **** *
1211:.\Generated_Source\PSoC4/CyDMA.c **** * Parameters:
1212:.\Generated_Source\PSoC4/CyDMA.c **** *  channel:     Channel used by this function.
1213:.\Generated_Source\PSoC4/CyDMA.c **** *  descriptor:  Descriptor (0 or 1) modified by this function.
1214:.\Generated_Source\PSoC4/CyDMA.c **** *  triggerType: Type of DMA trigger. Refer to the API bit field definitions
1215:.\Generated_Source\PSoC4/CyDMA.c **** *               in CyDMA_P4.h or the API description in the DMA channel
1216:.\Generated_Source\PSoC4/CyDMA.c **** *               datasheet for the parameter options.
1217:.\Generated_Source\PSoC4/CyDMA.c **** *                   
1218:.\Generated_Source\PSoC4/CyDMA.c **** * Return:
1219:.\Generated_Source\PSoC4/CyDMA.c **** *  None.
1220:.\Generated_Source\PSoC4/CyDMA.c **** *
1221:.\Generated_Source\PSoC4/CyDMA.c **** * Side effect:
1222:.\Generated_Source\PSoC4/CyDMA.c **** *  This function should not be called when the specified descriptor is active
1223:.\Generated_Source\PSoC4/CyDMA.c **** *  in the DMA transfer engine. This can be checked by calling CyDmaGetStatus(). 
1224:.\Generated_Source\PSoC4/CyDMA.c **** *
1225:.\Generated_Source\PSoC4/CyDMA.c **** *******************************************************************************/
1226:.\Generated_Source\PSoC4/CyDMA.c **** void CyDmaSetTriggerType(int32 channel, int32 descriptor, uint32 triggerType)
1227:.\Generated_Source\PSoC4/CyDMA.c **** {
 2014              		.loc 1 1227 0
 2015              		.cfi_startproc
 2016              	.LVL194:
 2017 0000 70B5     		push	{r4, r5, r6, lr}
 2018              		.cfi_def_cfa_offset 16
 2019              		.cfi_offset 4, -16
 2020              		.cfi_offset 5, -12
ARM GAS  C:\Users\TOM~1.MCK\AppData\Local\Temp\ccARJkPm.s 			page 59


 2021              		.cfi_offset 6, -8
 2022              		.cfi_offset 14, -4
 2023 0002 061C     		mov	r6, r0
 2024 0004 0C1C     		mov	r4, r1
 2025 0006 151C     		mov	r5, r2
1228:.\Generated_Source\PSoC4/CyDMA.c ****     uint32 regValue;
1229:.\Generated_Source\PSoC4/CyDMA.c **** 
1230:.\Generated_Source\PSoC4/CyDMA.c ****     CYASSERT((channel    >= 0) && (channel    < CYDMA_CH_NR));
 2026              		.loc 1 1230 0
 2027 0008 0728     		cmp	r0, #7
 2028 000a 02D9     		bls	.L182
 2029              		.loc 1 1230 0 is_stmt 0 discriminator 1
 2030 000c 0020     		mov	r0, #0
 2031              	.LVL195:
 2032 000e FFF7FEFF 		bl	CyHalt
 2033              	.LVL196:
 2034              	.L182:
1231:.\Generated_Source\PSoC4/CyDMA.c ****     CYASSERT((descriptor >= 0) && (descriptor < CYDMA_DESCR_NR));
 2035              		.loc 1 1231 0 is_stmt 1
 2036 0012 012C     		cmp	r4, #1
 2037 0014 02D9     		bls	.L183
 2038              		.loc 1 1231 0 is_stmt 0 discriminator 1
 2039 0016 0020     		mov	r0, #0
 2040 0018 FFF7FEFF 		bl	CyHalt
 2041              	.LVL197:
 2042              	.L183:
1232:.\Generated_Source\PSoC4/CyDMA.c ****     CYASSERT(0u == (triggerType & (uint32)~CYDMA_TRIGGER_TYPE));
 2043              		.loc 1 1232 0 is_stmt 1
 2044 001c 084B     		ldr	r3, .L185
 2045 001e 1D42     		tst	r5, r3
 2046 0020 02D0     		beq	.L184
 2047              		.loc 1 1232 0 is_stmt 0 discriminator 1
 2048 0022 0020     		mov	r0, #0
 2049 0024 FFF7FEFF 		bl	CyHalt
 2050              	.LVL198:
 2051              	.L184:
1233:.\Generated_Source\PSoC4/CyDMA.c **** 
1234:.\Generated_Source\PSoC4/CyDMA.c ****     regValue = CYDMA_DESCR_BASE.descriptor[channel][descriptor].ctl & (uint32)~CYDMA_TRIGGER_TYPE;
 2052              		.loc 1 1234 0 is_stmt 1
 2053 0028 7600     		lsl	r6, r6, #1
 2054              	.LVL199:
 2055 002a 3419     		add	r4, r6, r4
 2056              	.LVL200:
 2057 002c 2401     		lsl	r4, r4, #4
 2058 002e 054B     		ldr	r3, .L185+4
 2059 0030 9C46     		mov	ip, r3
 2060 0032 6444     		add	r4, r4, ip
 2061 0034 A268     		ldr	r2, [r4, #8]
 2062 0036 024B     		ldr	r3, .L185
 2063 0038 1340     		and	r3, r2
 2064              	.LVL201:
1235:.\Generated_Source\PSoC4/CyDMA.c ****     CYDMA_DESCR_BASE.descriptor[channel][descriptor].ctl = regValue | triggerType;
 2065              		.loc 1 1235 0
 2066 003a 1D43     		orr	r5, r3
 2067              	.LVL202:
 2068 003c A560     		str	r5, [r4, #8]
1236:.\Generated_Source\PSoC4/CyDMA.c **** }
ARM GAS  C:\Users\TOM~1.MCK\AppData\Local\Temp\ccARJkPm.s 			page 60


 2069              		.loc 1 1236 0
 2070              		@ sp needed
 2071 003e 70BD     		pop	{r4, r5, r6, pc}
 2072              	.L186:
 2073              		.align	2
 2074              	.L185:
 2075 0040 FFFFFFFC 		.word	-50331649
 2076 0044 00181040 		.word	1074796544
 2077              		.cfi_endproc
 2078              	.LFE42:
 2079              		.size	CyDmaSetTriggerType, .-CyDmaSetTriggerType
 2080              		.section	.text.CyDmaGetTriggerType,"ax",%progbits
 2081              		.align	2
 2082              		.global	CyDmaGetTriggerType
 2083              		.code	16
 2084              		.thumb_func
 2085              		.type	CyDmaGetTriggerType, %function
 2086              	CyDmaGetTriggerType:
 2087              	.LFB43:
1237:.\Generated_Source\PSoC4/CyDMA.c **** 
1238:.\Generated_Source\PSoC4/CyDMA.c **** 
1239:.\Generated_Source\PSoC4/CyDMA.c **** /*******************************************************************************
1240:.\Generated_Source\PSoC4/CyDMA.c **** * Function Name: CyDmaGetTriggerType
1241:.\Generated_Source\PSoC4/CyDMA.c **** ********************************************************************************
1242:.\Generated_Source\PSoC4/CyDMA.c **** *
1243:.\Generated_Source\PSoC4/CyDMA.c **** * Summary:
1244:.\Generated_Source\PSoC4/CyDMA.c **** *  Returns the trigger deactivation settings as set by CyDmaSetTriggerType() or
1245:.\Generated_Source\PSoC4/CyDMA.c **** *  CyDmaSetConfiguration().
1246:.\Generated_Source\PSoC4/CyDMA.c **** *
1247:.\Generated_Source\PSoC4/CyDMA.c **** * Parameters:
1248:.\Generated_Source\PSoC4/CyDMA.c **** *  channel:    Channel used by this function.
1249:.\Generated_Source\PSoC4/CyDMA.c **** *  descriptor: Descriptor (0 or 1) modified by this function.
1250:.\Generated_Source\PSoC4/CyDMA.c **** *                   
1251:.\Generated_Source\PSoC4/CyDMA.c **** * Return:
1252:.\Generated_Source\PSoC4/CyDMA.c **** *  Trigger deactivation settings. Refer to the API bit field definitions in
1253:.\Generated_Source\PSoC4/CyDMA.c **** *  CyDMA_P4.h or the API description in the DMA channel datasheet for more
1254:.\Generated_Source\PSoC4/CyDMA.c **** *  information.
1255:.\Generated_Source\PSoC4/CyDMA.c **** *
1256:.\Generated_Source\PSoC4/CyDMA.c **** *******************************************************************************/
1257:.\Generated_Source\PSoC4/CyDMA.c **** uint32 CyDmaGetTriggerType(int32 channel, int32 descriptor)
1258:.\Generated_Source\PSoC4/CyDMA.c **** {
 2088              		.loc 1 1258 0
 2089              		.cfi_startproc
 2090              	.LVL203:
 2091 0000 38B5     		push	{r3, r4, r5, lr}
 2092              		.cfi_def_cfa_offset 16
 2093              		.cfi_offset 3, -16
 2094              		.cfi_offset 4, -12
 2095              		.cfi_offset 5, -8
 2096              		.cfi_offset 14, -4
 2097 0002 051C     		mov	r5, r0
 2098 0004 0C1C     		mov	r4, r1
1259:.\Generated_Source\PSoC4/CyDMA.c ****     CYASSERT((channel    >= 0) && (channel    < CYDMA_CH_NR));
 2099              		.loc 1 1259 0
 2100 0006 0728     		cmp	r0, #7
 2101 0008 02D9     		bls	.L188
 2102              		.loc 1 1259 0 is_stmt 0 discriminator 1
ARM GAS  C:\Users\TOM~1.MCK\AppData\Local\Temp\ccARJkPm.s 			page 61


 2103 000a 0020     		mov	r0, #0
 2104              	.LVL204:
 2105 000c FFF7FEFF 		bl	CyHalt
 2106              	.LVL205:
 2107              	.L188:
1260:.\Generated_Source\PSoC4/CyDMA.c ****     CYASSERT((descriptor >= 0) && (descriptor < CYDMA_DESCR_NR));
 2108              		.loc 1 1260 0 is_stmt 1
 2109 0010 012C     		cmp	r4, #1
 2110 0012 02D9     		bls	.L189
 2111              		.loc 1 1260 0 is_stmt 0 discriminator 1
 2112 0014 0020     		mov	r0, #0
 2113 0016 FFF7FEFF 		bl	CyHalt
 2114              	.LVL206:
 2115              	.L189:
1261:.\Generated_Source\PSoC4/CyDMA.c **** 
1262:.\Generated_Source\PSoC4/CyDMA.c ****     return (CYDMA_DESCR_BASE.descriptor[channel][descriptor].ctl & CYDMA_TRIGGER_TYPE);
 2116              		.loc 1 1262 0 is_stmt 1
 2117 001a 6D00     		lsl	r5, r5, #1
 2118              	.LVL207:
 2119 001c 2C19     		add	r4, r5, r4
 2120              	.LVL208:
 2121 001e 2401     		lsl	r4, r4, #4
 2122 0020 034B     		ldr	r3, .L190
 2123 0022 9C46     		mov	ip, r3
 2124 0024 6444     		add	r4, r4, ip
 2125 0026 A068     		ldr	r0, [r4, #8]
 2126 0028 C023     		mov	r3, #192
 2127 002a 9B04     		lsl	r3, r3, #18
 2128 002c 1840     		and	r0, r3
1263:.\Generated_Source\PSoC4/CyDMA.c **** }
 2129              		.loc 1 1263 0
 2130              		@ sp needed
 2131 002e 38BD     		pop	{r3, r4, r5, pc}
 2132              	.L191:
 2133              		.align	2
 2134              	.L190:
 2135 0030 00181040 		.word	1074796544
 2136              		.cfi_endproc
 2137              	.LFE43:
 2138              		.size	CyDmaGetTriggerType, .-CyDmaGetTriggerType
 2139              		.section	.text.CyDmaSetTransferMode,"ax",%progbits
 2140              		.align	2
 2141              		.global	CyDmaSetTransferMode
 2142              		.code	16
 2143              		.thumb_func
 2144              		.type	CyDmaSetTransferMode, %function
 2145              	CyDmaSetTransferMode:
 2146              	.LFB44:
1264:.\Generated_Source\PSoC4/CyDMA.c **** 
1265:.\Generated_Source\PSoC4/CyDMA.c **** 
1266:.\Generated_Source\PSoC4/CyDMA.c **** /*******************************************************************************
1267:.\Generated_Source\PSoC4/CyDMA.c **** * Function Name: CyDmaSetTransferMode
1268:.\Generated_Source\PSoC4/CyDMA.c **** ********************************************************************************
1269:.\Generated_Source\PSoC4/CyDMA.c **** *
1270:.\Generated_Source\PSoC4/CyDMA.c **** * Summary:
1271:.\Generated_Source\PSoC4/CyDMA.c **** *  Sets the DMA transfer mode. This determines how the DMA reacts to each trigger
1272:.\Generated_Source\PSoC4/CyDMA.c **** *  event.
ARM GAS  C:\Users\TOM~1.MCK\AppData\Local\Temp\ccARJkPm.s 			page 62


1273:.\Generated_Source\PSoC4/CyDMA.c **** *
1274:.\Generated_Source\PSoC4/CyDMA.c **** * Parameters:
1275:.\Generated_Source\PSoC4/CyDMA.c **** *  channel:      Channel used by this function.
1276:.\Generated_Source\PSoC4/CyDMA.c **** *  descriptor:   Descriptor (0 or 1) modified by this function.
1277:.\Generated_Source\PSoC4/CyDMA.c **** *  transferMode: Specifies the DMA transfer mode settings. Refer to the API bit
1278:.\Generated_Source\PSoC4/CyDMA.c **** *                field definitions in CyDMA_P4.h or the API description in the
1279:.\Generated_Source\PSoC4/CyDMA.c **** *                DMA channel datasheet for the parameter options.
1280:.\Generated_Source\PSoC4/CyDMA.c **** *                   
1281:.\Generated_Source\PSoC4/CyDMA.c **** * Return:
1282:.\Generated_Source\PSoC4/CyDMA.c **** *  None.
1283:.\Generated_Source\PSoC4/CyDMA.c **** *
1284:.\Generated_Source\PSoC4/CyDMA.c **** * Side effect:
1285:.\Generated_Source\PSoC4/CyDMA.c **** *  This function should not be called when the specified descriptor is active
1286:.\Generated_Source\PSoC4/CyDMA.c **** *  in the DMA transfer engine. This can be checked by calling CyDmaGetStatus(). 
1287:.\Generated_Source\PSoC4/CyDMA.c **** *
1288:.\Generated_Source\PSoC4/CyDMA.c **** *******************************************************************************/
1289:.\Generated_Source\PSoC4/CyDMA.c **** void CyDmaSetTransferMode(int32 channel, int32 descriptor, uint32 transferMode)
1290:.\Generated_Source\PSoC4/CyDMA.c **** {
 2147              		.loc 1 1290 0
 2148              		.cfi_startproc
 2149              	.LVL209:
 2150 0000 70B5     		push	{r4, r5, r6, lr}
 2151              		.cfi_def_cfa_offset 16
 2152              		.cfi_offset 4, -16
 2153              		.cfi_offset 5, -12
 2154              		.cfi_offset 6, -8
 2155              		.cfi_offset 14, -4
 2156 0002 061C     		mov	r6, r0
 2157 0004 0C1C     		mov	r4, r1
 2158 0006 151C     		mov	r5, r2
1291:.\Generated_Source\PSoC4/CyDMA.c ****     uint32 regValue;
1292:.\Generated_Source\PSoC4/CyDMA.c **** 
1293:.\Generated_Source\PSoC4/CyDMA.c ****     CYASSERT((channel    >= 0) && (channel    < CYDMA_CH_NR));
 2159              		.loc 1 1293 0
 2160 0008 0728     		cmp	r0, #7
 2161 000a 02D9     		bls	.L193
 2162              		.loc 1 1293 0 is_stmt 0 discriminator 1
 2163 000c 0020     		mov	r0, #0
 2164              	.LVL210:
 2165 000e FFF7FEFF 		bl	CyHalt
 2166              	.LVL211:
 2167              	.L193:
1294:.\Generated_Source\PSoC4/CyDMA.c ****     CYASSERT((descriptor >= 0) && (descriptor < CYDMA_DESCR_NR));
 2168              		.loc 1 1294 0 is_stmt 1
 2169 0012 012C     		cmp	r4, #1
 2170 0014 02D9     		bls	.L194
 2171              		.loc 1 1294 0 is_stmt 0 discriminator 1
 2172 0016 0020     		mov	r0, #0
 2173 0018 FFF7FEFF 		bl	CyHalt
 2174              	.LVL212:
 2175              	.L194:
1295:.\Generated_Source\PSoC4/CyDMA.c ****     CYASSERT(0u == (transferMode & (uint32)~CYDMA_TRANSFER_MODE));
 2176              		.loc 1 1295 0 is_stmt 1
 2177 001c AB00     		lsl	r3, r5, #2
 2178 001e 02D0     		beq	.L195
 2179              		.loc 1 1295 0 is_stmt 0 discriminator 1
 2180 0020 0020     		mov	r0, #0
ARM GAS  C:\Users\TOM~1.MCK\AppData\Local\Temp\ccARJkPm.s 			page 63


 2181 0022 FFF7FEFF 		bl	CyHalt
 2182              	.LVL213:
 2183              	.L195:
1296:.\Generated_Source\PSoC4/CyDMA.c **** 
1297:.\Generated_Source\PSoC4/CyDMA.c ****     regValue = CYDMA_DESCR_BASE.descriptor[channel][descriptor].ctl & (uint32)~CYDMA_TRANSFER_MODE;
 2184              		.loc 1 1297 0 is_stmt 1
 2185 0026 7600     		lsl	r6, r6, #1
 2186              	.LVL214:
 2187 0028 3419     		add	r4, r6, r4
 2188              	.LVL215:
 2189 002a 2401     		lsl	r4, r4, #4
 2190 002c 044B     		ldr	r3, .L196
 2191 002e 9C46     		mov	ip, r3
 2192 0030 6444     		add	r4, r4, ip
 2193 0032 A268     		ldr	r2, [r4, #8]
 2194 0034 9200     		lsl	r2, r2, #2
 2195 0036 9208     		lsr	r2, r2, #2
 2196              	.LVL216:
1298:.\Generated_Source\PSoC4/CyDMA.c ****     CYDMA_DESCR_BASE.descriptor[channel][descriptor].ctl = regValue | transferMode;
 2197              		.loc 1 1298 0
 2198 0038 2A43     		orr	r2, r5
 2199              	.LVL217:
 2200 003a A260     		str	r2, [r4, #8]
1299:.\Generated_Source\PSoC4/CyDMA.c **** }
 2201              		.loc 1 1299 0
 2202              		@ sp needed
 2203              	.LVL218:
 2204 003c 70BD     		pop	{r4, r5, r6, pc}
 2205              	.L197:
 2206 003e C046     		.align	2
 2207              	.L196:
 2208 0040 00181040 		.word	1074796544
 2209              		.cfi_endproc
 2210              	.LFE44:
 2211              		.size	CyDmaSetTransferMode, .-CyDmaSetTransferMode
 2212              		.section	.text.CyDmaGetTransferMode,"ax",%progbits
 2213              		.align	2
 2214              		.global	CyDmaGetTransferMode
 2215              		.code	16
 2216              		.thumb_func
 2217              		.type	CyDmaGetTransferMode, %function
 2218              	CyDmaGetTransferMode:
 2219              	.LFB45:
1300:.\Generated_Source\PSoC4/CyDMA.c **** 
1301:.\Generated_Source\PSoC4/CyDMA.c **** 
1302:.\Generated_Source\PSoC4/CyDMA.c **** /*******************************************************************************
1303:.\Generated_Source\PSoC4/CyDMA.c **** * Function Name: CyDmaGetTransferMode
1304:.\Generated_Source\PSoC4/CyDMA.c **** ********************************************************************************
1305:.\Generated_Source\PSoC4/CyDMA.c **** *
1306:.\Generated_Source\PSoC4/CyDMA.c **** * Summary:
1307:.\Generated_Source\PSoC4/CyDMA.c **** *  Returns the transfer mode for the specified descriptor as set by 
1308:.\Generated_Source\PSoC4/CyDMA.c **** *  CyDmaSetTransferMode() or CyDmaSetConfiguration.
1309:.\Generated_Source\PSoC4/CyDMA.c **** *
1310:.\Generated_Source\PSoC4/CyDMA.c **** * Parameters:
1311:.\Generated_Source\PSoC4/CyDMA.c **** *  channel:    Channel used by this function.
1312:.\Generated_Source\PSoC4/CyDMA.c **** *  descriptor: Descriptor (0 or 1) modified by this function.
1313:.\Generated_Source\PSoC4/CyDMA.c **** *                   
ARM GAS  C:\Users\TOM~1.MCK\AppData\Local\Temp\ccARJkPm.s 			page 64


1314:.\Generated_Source\PSoC4/CyDMA.c **** * Return:
1315:.\Generated_Source\PSoC4/CyDMA.c **** *  DMA transfer mode settings. Refer to the API bit field definitions in
1316:.\Generated_Source\PSoC4/CyDMA.c **** *  CyDMA_P4.h or the API description in the DMA channel datasheet for more
1317:.\Generated_Source\PSoC4/CyDMA.c **** *  information.
1318:.\Generated_Source\PSoC4/CyDMA.c **** *
1319:.\Generated_Source\PSoC4/CyDMA.c **** *******************************************************************************/
1320:.\Generated_Source\PSoC4/CyDMA.c **** uint32 CyDmaGetTransferMode(int32 channel, int32 descriptor)
1321:.\Generated_Source\PSoC4/CyDMA.c **** {
 2220              		.loc 1 1321 0
 2221              		.cfi_startproc
 2222              	.LVL219:
 2223 0000 38B5     		push	{r3, r4, r5, lr}
 2224              		.cfi_def_cfa_offset 16
 2225              		.cfi_offset 3, -16
 2226              		.cfi_offset 4, -12
 2227              		.cfi_offset 5, -8
 2228              		.cfi_offset 14, -4
 2229 0002 051C     		mov	r5, r0
 2230 0004 0C1C     		mov	r4, r1
1322:.\Generated_Source\PSoC4/CyDMA.c ****     CYASSERT((channel    >= 0) && (channel    < CYDMA_CH_NR));
 2231              		.loc 1 1322 0
 2232 0006 0728     		cmp	r0, #7
 2233 0008 02D9     		bls	.L199
 2234              		.loc 1 1322 0 is_stmt 0 discriminator 1
 2235 000a 0020     		mov	r0, #0
 2236              	.LVL220:
 2237 000c FFF7FEFF 		bl	CyHalt
 2238              	.LVL221:
 2239              	.L199:
1323:.\Generated_Source\PSoC4/CyDMA.c ****     CYASSERT((descriptor >= 0) && (descriptor < CYDMA_DESCR_NR));
 2240              		.loc 1 1323 0 is_stmt 1
 2241 0010 012C     		cmp	r4, #1
 2242 0012 02D9     		bls	.L200
 2243              		.loc 1 1323 0 is_stmt 0 discriminator 1
 2244 0014 0020     		mov	r0, #0
 2245 0016 FFF7FEFF 		bl	CyHalt
 2246              	.LVL222:
 2247              	.L200:
1324:.\Generated_Source\PSoC4/CyDMA.c **** 
1325:.\Generated_Source\PSoC4/CyDMA.c ****     return (CYDMA_DESCR_BASE.descriptor[channel][descriptor].ctl & CYDMA_TRANSFER_MODE);
 2248              		.loc 1 1325 0 is_stmt 1
 2249 001a 6D00     		lsl	r5, r5, #1
 2250              	.LVL223:
 2251 001c 2C19     		add	r4, r5, r4
 2252              	.LVL224:
 2253 001e 2401     		lsl	r4, r4, #4
 2254 0020 034B     		ldr	r3, .L201
 2255 0022 9C46     		mov	ip, r3
 2256 0024 6444     		add	r4, r4, ip
 2257 0026 A068     		ldr	r0, [r4, #8]
 2258 0028 800F     		lsr	r0, r0, #30
 2259 002a 8007     		lsl	r0, r0, #30
1326:.\Generated_Source\PSoC4/CyDMA.c **** }
 2260              		.loc 1 1326 0
 2261              		@ sp needed
 2262 002c 38BD     		pop	{r3, r4, r5, pc}
 2263              	.L202:
ARM GAS  C:\Users\TOM~1.MCK\AppData\Local\Temp\ccARJkPm.s 			page 65


 2264 002e C046     		.align	2
 2265              	.L201:
 2266 0030 00181040 		.word	1074796544
 2267              		.cfi_endproc
 2268              	.LFE45:
 2269              		.size	CyDmaGetTransferMode, .-CyDmaGetTransferMode
 2270              		.section	.text.CyDmaSetPreemptable,"ax",%progbits
 2271              		.align	2
 2272              		.global	CyDmaSetPreemptable
 2273              		.code	16
 2274              		.thumb_func
 2275              		.type	CyDmaSetPreemptable, %function
 2276              	CyDmaSetPreemptable:
 2277              	.LFB46:
1327:.\Generated_Source\PSoC4/CyDMA.c **** 
1328:.\Generated_Source\PSoC4/CyDMA.c **** 
1329:.\Generated_Source\PSoC4/CyDMA.c **** /*******************************************************************************
1330:.\Generated_Source\PSoC4/CyDMA.c **** * Function Name: CyDmaSetPreemptable
1331:.\Generated_Source\PSoC4/CyDMA.c **** ********************************************************************************
1332:.\Generated_Source\PSoC4/CyDMA.c **** *
1333:.\Generated_Source\PSoC4/CyDMA.c **** * Summary:
1334:.\Generated_Source\PSoC4/CyDMA.c **** *  Determines if the descriptor is preemptable.
1335:.\Generated_Source\PSoC4/CyDMA.c **** *
1336:.\Generated_Source\PSoC4/CyDMA.c **** * Parameters:
1337:.\Generated_Source\PSoC4/CyDMA.c **** *  channel:     Channel used by this function.
1338:.\Generated_Source\PSoC4/CyDMA.c **** *  descriptor:  Descriptor (0 or 1) modified by this function.
1339:.\Generated_Source\PSoC4/CyDMA.c **** *  preemptable: Descriptor preemption settings. Refer to the API bit fields
1340:.\Generated_Source\PSoC4/CyDMA.c **** *               definition in CyDMA_P4.h or the API description in the DMA 
1341:.\Generated_Source\PSoC4/CyDMA.c **** *               channel datasheet for the parameter options.
1342:.\Generated_Source\PSoC4/CyDMA.c **** *                   
1343:.\Generated_Source\PSoC4/CyDMA.c **** * Return:
1344:.\Generated_Source\PSoC4/CyDMA.c **** *  None.
1345:.\Generated_Source\PSoC4/CyDMA.c **** *
1346:.\Generated_Source\PSoC4/CyDMA.c **** * Side effect:
1347:.\Generated_Source\PSoC4/CyDMA.c **** *  This function should not be called when the specified descriptor is active
1348:.\Generated_Source\PSoC4/CyDMA.c **** *  in the DMA transfer engine. This can be checked by calling CyDmaGetStatus(). 
1349:.\Generated_Source\PSoC4/CyDMA.c **** *
1350:.\Generated_Source\PSoC4/CyDMA.c **** *******************************************************************************/
1351:.\Generated_Source\PSoC4/CyDMA.c **** void CyDmaSetPreemptable(int32 channel, int32 descriptor, uint32 preemptable)
1352:.\Generated_Source\PSoC4/CyDMA.c **** {
 2278              		.loc 1 1352 0
 2279              		.cfi_startproc
 2280              	.LVL225:
 2281 0000 70B5     		push	{r4, r5, r6, lr}
 2282              		.cfi_def_cfa_offset 16
 2283              		.cfi_offset 4, -16
 2284              		.cfi_offset 5, -12
 2285              		.cfi_offset 6, -8
 2286              		.cfi_offset 14, -4
 2287 0002 061C     		mov	r6, r0
 2288 0004 0C1C     		mov	r4, r1
 2289 0006 151C     		mov	r5, r2
1353:.\Generated_Source\PSoC4/CyDMA.c ****     uint32 regValue;
1354:.\Generated_Source\PSoC4/CyDMA.c **** 
1355:.\Generated_Source\PSoC4/CyDMA.c ****     CYASSERT((channel    >= 0) && (channel    < CYDMA_CH_NR));
 2290              		.loc 1 1355 0
 2291 0008 0728     		cmp	r0, #7
ARM GAS  C:\Users\TOM~1.MCK\AppData\Local\Temp\ccARJkPm.s 			page 66


 2292 000a 02D9     		bls	.L204
 2293              		.loc 1 1355 0 is_stmt 0 discriminator 1
 2294 000c 0020     		mov	r0, #0
 2295              	.LVL226:
 2296 000e FFF7FEFF 		bl	CyHalt
 2297              	.LVL227:
 2298              	.L204:
1356:.\Generated_Source\PSoC4/CyDMA.c ****     CYASSERT((descriptor >= 0) && (descriptor < CYDMA_DESCR_NR));
 2299              		.loc 1 1356 0 is_stmt 1
 2300 0012 012C     		cmp	r4, #1
 2301 0014 02D9     		bls	.L205
 2302              		.loc 1 1356 0 is_stmt 0 discriminator 1
 2303 0016 0020     		mov	r0, #0
 2304 0018 FFF7FEFF 		bl	CyHalt
 2305              	.LVL228:
 2306              	.L205:
1357:.\Generated_Source\PSoC4/CyDMA.c ****     CYASSERT(0u == (preemptable & (uint32)~CYDMA_PREEMPTABLE));
 2307              		.loc 1 1357 0 is_stmt 1
 2308 001c 084B     		ldr	r3, .L207
 2309 001e 1D42     		tst	r5, r3
 2310 0020 02D0     		beq	.L206
 2311              		.loc 1 1357 0 is_stmt 0 discriminator 1
 2312 0022 0020     		mov	r0, #0
 2313 0024 FFF7FEFF 		bl	CyHalt
 2314              	.LVL229:
 2315              	.L206:
1358:.\Generated_Source\PSoC4/CyDMA.c **** 
1359:.\Generated_Source\PSoC4/CyDMA.c ****     regValue = CYDMA_DESCR_BASE.descriptor[channel][descriptor].ctl & (uint32)~CYDMA_PREEMPTABLE;
 2316              		.loc 1 1359 0 is_stmt 1
 2317 0028 7600     		lsl	r6, r6, #1
 2318              	.LVL230:
 2319 002a 3419     		add	r4, r6, r4
 2320              	.LVL231:
 2321 002c 2401     		lsl	r4, r4, #4
 2322 002e 054B     		ldr	r3, .L207+4
 2323 0030 9C46     		mov	ip, r3
 2324 0032 6444     		add	r4, r4, ip
 2325 0034 A268     		ldr	r2, [r4, #8]
 2326 0036 024B     		ldr	r3, .L207
 2327 0038 1340     		and	r3, r2
 2328              	.LVL232:
