ARM GAS  C:\Users\TOM~1.MCK\AppData\Local\Temp\cc6eDOnC.s 			page 1


   1              		.cpu cortex-m0
   2              		.fpu softvfp
   3              		.eabi_attribute 20, 1
   4              		.eabi_attribute 21, 1
   5              		.eabi_attribute 23, 3
   6              		.eabi_attribute 24, 1
   7              		.eabi_attribute 25, 1
   8              		.eabi_attribute 26, 1
   9              		.eabi_attribute 30, 1
  10              		.eabi_attribute 34, 0
  11              		.eabi_attribute 18, 4
  12              		.code	16
  13              		.file	"IDAC8_PM.c"
  14              		.text
  15              	.Ltext0:
  16              		.cfi_sections	.debug_frame
  17              		.section	.text.IDAC8_SaveConfig,"ax",%progbits
  18              		.align	2
  19              		.global	IDAC8_SaveConfig
  20              		.code	16
  21              		.thumb_func
  22              		.type	IDAC8_SaveConfig, %function
  23              	IDAC8_SaveConfig:
  24              	.LFB2:
  25              		.file 1 ".\\Generated_Source\\PSoC4\\IDAC8_PM.c"
   1:.\Generated_Source\PSoC4/IDAC8_PM.c **** /*******************************************************************************
   2:.\Generated_Source\PSoC4/IDAC8_PM.c **** * File Name: IDAC8_PM.c
   3:.\Generated_Source\PSoC4/IDAC8_PM.c **** * Version 1.10
   4:.\Generated_Source\PSoC4/IDAC8_PM.c **** *
   5:.\Generated_Source\PSoC4/IDAC8_PM.c **** * Description:
   6:.\Generated_Source\PSoC4/IDAC8_PM.c **** *  This file provides Low power mode APIs for IDAC_P4 component.
   7:.\Generated_Source\PSoC4/IDAC8_PM.c **** *
   8:.\Generated_Source\PSoC4/IDAC8_PM.c **** ********************************************************************************
   9:.\Generated_Source\PSoC4/IDAC8_PM.c **** * Copyright 2013-2015, Cypress Semiconductor Corporation.  All rights reserved.
  10:.\Generated_Source\PSoC4/IDAC8_PM.c **** * You may use this file only in accordance with the license, terms, conditions,
  11:.\Generated_Source\PSoC4/IDAC8_PM.c **** * disclaimers, and limitations in the end user license agreement accompanying
  12:.\Generated_Source\PSoC4/IDAC8_PM.c **** * the software package with which this file was provided.
  13:.\Generated_Source\PSoC4/IDAC8_PM.c **** *******************************************************************************/
  14:.\Generated_Source\PSoC4/IDAC8_PM.c **** 
  15:.\Generated_Source\PSoC4/IDAC8_PM.c **** #include "IDAC8.h"
  16:.\Generated_Source\PSoC4/IDAC8_PM.c **** 
  17:.\Generated_Source\PSoC4/IDAC8_PM.c **** 
  18:.\Generated_Source\PSoC4/IDAC8_PM.c **** static IDAC8_BACKUP_STRUCT IDAC8_backup;
  19:.\Generated_Source\PSoC4/IDAC8_PM.c **** 
  20:.\Generated_Source\PSoC4/IDAC8_PM.c **** 
  21:.\Generated_Source\PSoC4/IDAC8_PM.c **** /*******************************************************************************
  22:.\Generated_Source\PSoC4/IDAC8_PM.c **** * Function Name: IDAC8_SaveConfig
  23:.\Generated_Source\PSoC4/IDAC8_PM.c **** ********************************************************************************
  24:.\Generated_Source\PSoC4/IDAC8_PM.c **** *
  25:.\Generated_Source\PSoC4/IDAC8_PM.c **** * Summary:
  26:.\Generated_Source\PSoC4/IDAC8_PM.c **** *  Saves component state before sleep
  27:.\Generated_Source\PSoC4/IDAC8_PM.c **** * Parameters:
  28:.\Generated_Source\PSoC4/IDAC8_PM.c **** *  None
  29:.\Generated_Source\PSoC4/IDAC8_PM.c **** *
  30:.\Generated_Source\PSoC4/IDAC8_PM.c **** * Return:
  31:.\Generated_Source\PSoC4/IDAC8_PM.c **** *  None
  32:.\Generated_Source\PSoC4/IDAC8_PM.c **** *
ARM GAS  C:\Users\TOM~1.MCK\AppData\Local\Temp\cc6eDOnC.s 			page 2


  33:.\Generated_Source\PSoC4/IDAC8_PM.c **** * Global Variables:
  34:.\Generated_Source\PSoC4/IDAC8_PM.c **** *  None
  35:.\Generated_Source\PSoC4/IDAC8_PM.c **** *
  36:.\Generated_Source\PSoC4/IDAC8_PM.c **** *******************************************************************************/
  37:.\Generated_Source\PSoC4/IDAC8_PM.c **** void IDAC8_SaveConfig(void)
  38:.\Generated_Source\PSoC4/IDAC8_PM.c **** {
  26              		.loc 1 38 0
  27              		.cfi_startproc
  39:.\Generated_Source\PSoC4/IDAC8_PM.c ****     /* All registers are retention - nothing to save */
  40:.\Generated_Source\PSoC4/IDAC8_PM.c **** }
  28              		.loc 1 40 0
  29              		@ sp needed
  30 0000 7047     		bx	lr
  31              		.cfi_endproc
  32              	.LFE2:
  33              		.size	IDAC8_SaveConfig, .-IDAC8_SaveConfig
  34 0002 C046     		.section	.text.IDAC8_Sleep,"ax",%progbits
  35              		.align	2
  36              		.global	IDAC8_Sleep
  37              		.code	16
  38              		.thumb_func
  39              		.type	IDAC8_Sleep, %function
  40              	IDAC8_Sleep:
  41              	.LFB3:
  41:.\Generated_Source\PSoC4/IDAC8_PM.c **** 
  42:.\Generated_Source\PSoC4/IDAC8_PM.c **** 
  43:.\Generated_Source\PSoC4/IDAC8_PM.c **** /*******************************************************************************
  44:.\Generated_Source\PSoC4/IDAC8_PM.c **** * Function Name: IDAC8_Sleep
  45:.\Generated_Source\PSoC4/IDAC8_PM.c **** ********************************************************************************
  46:.\Generated_Source\PSoC4/IDAC8_PM.c **** *
  47:.\Generated_Source\PSoC4/IDAC8_PM.c **** * Summary:
  48:.\Generated_Source\PSoC4/IDAC8_PM.c **** *  Calls _SaveConfig() function
  49:.\Generated_Source\PSoC4/IDAC8_PM.c **** * Parameters:
  50:.\Generated_Source\PSoC4/IDAC8_PM.c **** *  None
  51:.\Generated_Source\PSoC4/IDAC8_PM.c **** *
  52:.\Generated_Source\PSoC4/IDAC8_PM.c **** * Return:
  53:.\Generated_Source\PSoC4/IDAC8_PM.c **** *  None
  54:.\Generated_Source\PSoC4/IDAC8_PM.c **** *
  55:.\Generated_Source\PSoC4/IDAC8_PM.c **** *******************************************************************************/
  56:.\Generated_Source\PSoC4/IDAC8_PM.c **** void IDAC8_Sleep(void)
  57:.\Generated_Source\PSoC4/IDAC8_PM.c **** {
  42              		.loc 1 57 0
  43              		.cfi_startproc
  44 0000 08B5     		push	{r3, lr}
  45              		.cfi_def_cfa_offset 8
  46              		.cfi_offset 3, -8
  47              		.cfi_offset 14, -4
  58:.\Generated_Source\PSoC4/IDAC8_PM.c ****         if(0u != (IDAC8_IDAC_CONTROL_REG & ((uint32)IDAC8_IDAC_MODE_MASK <<
  48              		.loc 1 58 0
  49 0002 084B     		ldr	r3, .L5
  50 0004 1A68     		ldr	r2, [r3]
  51 0006 C023     		mov	r3, #192
  52 0008 9B00     		lsl	r3, r3, #2
  53 000a 1A42     		tst	r2, r3
  54 000c 03D0     		beq	.L3
  59:.\Generated_Source\PSoC4/IDAC8_PM.c ****         IDAC8_IDAC_MODE_POSITION)))
  60:.\Generated_Source\PSoC4/IDAC8_PM.c ****         {
ARM GAS  C:\Users\TOM~1.MCK\AppData\Local\Temp\cc6eDOnC.s 			page 3


  61:.\Generated_Source\PSoC4/IDAC8_PM.c ****             IDAC8_backup.enableState = 1u;
  55              		.loc 1 61 0
  56 000e 0122     		mov	r2, #1
  57 0010 054B     		ldr	r3, .L5+4
  58 0012 1A70     		strb	r2, [r3]
  59 0014 02E0     		b	.L4
  60              	.L3:
  62:.\Generated_Source\PSoC4/IDAC8_PM.c ****         }
  63:.\Generated_Source\PSoC4/IDAC8_PM.c ****         else
  64:.\Generated_Source\PSoC4/IDAC8_PM.c ****         {
  65:.\Generated_Source\PSoC4/IDAC8_PM.c ****             IDAC8_backup.enableState = 0u;
  61              		.loc 1 65 0
  62 0016 0022     		mov	r2, #0
  63 0018 034B     		ldr	r3, .L5+4
  64 001a 1A70     		strb	r2, [r3]
  65              	.L4:
  66:.\Generated_Source\PSoC4/IDAC8_PM.c ****         }
  67:.\Generated_Source\PSoC4/IDAC8_PM.c **** 
  68:.\Generated_Source\PSoC4/IDAC8_PM.c ****     IDAC8_Stop();
  66              		.loc 1 68 0
  67 001c FFF7FEFF 		bl	IDAC8_Stop
  68              	.LVL0:
  69:.\Generated_Source\PSoC4/IDAC8_PM.c ****     IDAC8_SaveConfig();
  70:.\Generated_Source\PSoC4/IDAC8_PM.c **** }
  69              		.loc 1 70 0
  70              		@ sp needed
  71 0020 08BD     		pop	{r3, pc}
  72              	.L6:
  73 0022 C046     		.align	2
  74              	.L5:
  75 0024 08002840 		.word	1076363272
  76 0028 00000000 		.word	.LANCHOR0
  77              		.cfi_endproc
  78              	.LFE3:
  79              		.size	IDAC8_Sleep, .-IDAC8_Sleep
  80              		.section	.text.IDAC8_RestoreConfig,"ax",%progbits
  81              		.align	2
  82              		.global	IDAC8_RestoreConfig
  83              		.code	16
  84              		.thumb_func
  85              		.type	IDAC8_RestoreConfig, %function
  86              	IDAC8_RestoreConfig:
  87              	.LFB4:
  71:.\Generated_Source\PSoC4/IDAC8_PM.c **** 
  72:.\Generated_Source\PSoC4/IDAC8_PM.c **** 
  73:.\Generated_Source\PSoC4/IDAC8_PM.c **** /*******************************************************************************
  74:.\Generated_Source\PSoC4/IDAC8_PM.c **** * Function Name: IDAC8_RestoreConfig
  75:.\Generated_Source\PSoC4/IDAC8_PM.c **** ********************************************************************************
  76:.\Generated_Source\PSoC4/IDAC8_PM.c **** *
  77:.\Generated_Source\PSoC4/IDAC8_PM.c **** * Summary:
  78:.\Generated_Source\PSoC4/IDAC8_PM.c **** *  Restores component state after wakeup
  79:.\Generated_Source\PSoC4/IDAC8_PM.c **** * Parameters:
  80:.\Generated_Source\PSoC4/IDAC8_PM.c **** *  None
  81:.\Generated_Source\PSoC4/IDAC8_PM.c **** *
  82:.\Generated_Source\PSoC4/IDAC8_PM.c **** * Return:
  83:.\Generated_Source\PSoC4/IDAC8_PM.c **** *  None
  84:.\Generated_Source\PSoC4/IDAC8_PM.c **** *
ARM GAS  C:\Users\TOM~1.MCK\AppData\Local\Temp\cc6eDOnC.s 			page 4


  85:.\Generated_Source\PSoC4/IDAC8_PM.c **** * Global Variables:
  86:.\Generated_Source\PSoC4/IDAC8_PM.c **** *  None
  87:.\Generated_Source\PSoC4/IDAC8_PM.c **** *
  88:.\Generated_Source\PSoC4/IDAC8_PM.c **** *******************************************************************************/
  89:.\Generated_Source\PSoC4/IDAC8_PM.c **** void IDAC8_RestoreConfig(void)
  90:.\Generated_Source\PSoC4/IDAC8_PM.c **** {
  88              		.loc 1 90 0
  89              		.cfi_startproc
  91:.\Generated_Source\PSoC4/IDAC8_PM.c ****     /* All registers are retention - nothing to save */
  92:.\Generated_Source\PSoC4/IDAC8_PM.c **** }
  90              		.loc 1 92 0
  91              		@ sp needed
  92 0000 7047     		bx	lr
  93              		.cfi_endproc
  94              	.LFE4:
  95              		.size	IDAC8_RestoreConfig, .-IDAC8_RestoreConfig
  96 0002 C046     		.section	.text.IDAC8_Wakeup,"ax",%progbits
  97              		.align	2
  98              		.global	IDAC8_Wakeup
  99              		.code	16
 100              		.thumb_func
 101              		.type	IDAC8_Wakeup, %function
 102              	IDAC8_Wakeup:
 103              	.LFB5:
  93:.\Generated_Source\PSoC4/IDAC8_PM.c **** 
  94:.\Generated_Source\PSoC4/IDAC8_PM.c **** 
  95:.\Generated_Source\PSoC4/IDAC8_PM.c **** /*******************************************************************************
  96:.\Generated_Source\PSoC4/IDAC8_PM.c **** * Function Name: IDAC8_Wakeup
  97:.\Generated_Source\PSoC4/IDAC8_PM.c **** ********************************************************************************
  98:.\Generated_Source\PSoC4/IDAC8_PM.c **** *
  99:.\Generated_Source\PSoC4/IDAC8_PM.c **** * Summary:
 100:.\Generated_Source\PSoC4/IDAC8_PM.c **** *  Calls _RestoreConfig() function
 101:.\Generated_Source\PSoC4/IDAC8_PM.c **** * Parameters:
 102:.\Generated_Source\PSoC4/IDAC8_PM.c **** *  None
 103:.\Generated_Source\PSoC4/IDAC8_PM.c **** *
 104:.\Generated_Source\PSoC4/IDAC8_PM.c **** * Return:
 105:.\Generated_Source\PSoC4/IDAC8_PM.c **** *  None
 106:.\Generated_Source\PSoC4/IDAC8_PM.c **** *
 107:.\Generated_Source\PSoC4/IDAC8_PM.c **** *******************************************************************************/
 108:.\Generated_Source\PSoC4/IDAC8_PM.c **** void IDAC8_Wakeup(void)
 109:.\Generated_Source\PSoC4/IDAC8_PM.c **** {
 104              		.loc 1 109 0
 105              		.cfi_startproc
 106 0000 08B5     		push	{r3, lr}
 107              		.cfi_def_cfa_offset 8
 108              		.cfi_offset 3, -8
 109              		.cfi_offset 14, -4
 110:.\Generated_Source\PSoC4/IDAC8_PM.c ****     /* Restore IDAC register settings */
 111:.\Generated_Source\PSoC4/IDAC8_PM.c ****     IDAC8_RestoreConfig();
 112:.\Generated_Source\PSoC4/IDAC8_PM.c ****     if(IDAC8_backup.enableState == 1u)
 110              		.loc 1 112 0
 111 0002 034B     		ldr	r3, .L10
 112 0004 1B78     		ldrb	r3, [r3]
 113 0006 012B     		cmp	r3, #1
 114 0008 01D1     		bne	.L8
 113:.\Generated_Source\PSoC4/IDAC8_PM.c ****     {
 114:.\Generated_Source\PSoC4/IDAC8_PM.c ****         /* Enable operation */
ARM GAS  C:\Users\TOM~1.MCK\AppData\Local\Temp\cc6eDOnC.s 			page 5


 115:.\Generated_Source\PSoC4/IDAC8_PM.c ****         IDAC8_Enable();
 115              		.loc 1 115 0
 116 000a FFF7FEFF 		bl	IDAC8_Enable
 117              	.LVL1:
 118              	.L8:
 116:.\Generated_Source\PSoC4/IDAC8_PM.c ****     } /* Do nothing if the component was disabled before */
 117:.\Generated_Source\PSoC4/IDAC8_PM.c **** 
 118:.\Generated_Source\PSoC4/IDAC8_PM.c **** }
 119              		.loc 1 118 0
 120              		@ sp needed
 121 000e 08BD     		pop	{r3, pc}
 122              	.L11:
 123              		.align	2
 124              	.L10:
 125 0010 00000000 		.word	.LANCHOR0
 126              		.cfi_endproc
 127              	.LFE5:
 128              		.size	IDAC8_Wakeup, .-IDAC8_Wakeup
 129              		.bss
 130              		.align	2
 131              		.set	.LANCHOR0,. + 0
 132              		.type	IDAC8_backup, %object
 133              		.size	IDAC8_backup, 1
 134              	IDAC8_backup:
 135 0000 00       		.space	1
 136 0001 000000   		.text
 137              	.Letext0:
 138              		.file 2 ".\\Generated_Source\\PSoC4\\cytypes.h"
 139              		.file 3 ".\\Generated_Source\\PSoC4\\IDAC8.h"
