ARM GAS  C:\Users\TOM~1.MCK\AppData\Local\Temp\ccAQAXh7.s 			page 1


   1              		.cpu cortex-m0
   2              		.fpu softvfp
   3              		.eabi_attribute 20, 1
   4              		.eabi_attribute 21, 1
   5              		.eabi_attribute 23, 3
   6              		.eabi_attribute 24, 1
   7              		.eabi_attribute 25, 1
   8              		.eabi_attribute 26, 1
   9              		.eabi_attribute 30, 1
  10              		.eabi_attribute 34, 0
  11              		.eabi_attribute 18, 4
  12              		.code	16
  13              		.file	"main.c"
  14              		.text
  15              	.Ltext0:
  16              		.cfi_sections	.debug_frame
  17              		.section	.text.main,"ax",%progbits
  18              		.align	2
  19              		.global	main
  20              		.code	16
  21              		.thumb_func
  22              		.type	main, %function
  23              	main:
  24              	.LFB69:
  25              		.file 1 ".\\main.c"
   1:.\main.c      **** /*******************************************************************************
   2:.\main.c      **** * File Name: main.c
   3:.\main.c      **** *
   4:.\main.c      **** * Version:   1.0
   5:.\main.c      **** *
   6:.\main.c      **** * Description:
   7:.\main.c      **** *  direct DMA from ADC to IDAC prototype 
   8:.\main.c      **** *
   9:.\main.c      **** *  
  10:.\main.c      **** *
  11:.\main.c      **** ********************************************************************************
  12:.\main.c      **** * Copyright 2016, Pacific Ave Research, LLC 2016. All rights reserved.
  13:.\main.c      **** * This software is owned by Cypress Semiconductor Corporation and is protected
  14:.\main.c      **** * by and subject to worldwide patent and copyright laws and treaties.
  15:.\main.c      **** * Therefore, you may use this software only as provided in the license agreement
  16:.\main.c      **** * accompanying the software package from which you obtained this software.
  17:.\main.c      **** * CYPRESS AND ITS SUPPLIERS MAKE NO WARRANTY OF ANY KIND, EXPRESS OR IMPLIED,
  18:.\main.c      **** * WITH REGARD TO THIS SOFTWARE, INCLUDING, BUT NOT LIMITED TO, NONINFRINGEMENT,
  19:.\main.c      **** * IMPLIED WARRANTIES OF MERCHANTABILITY AND FITNESS FOR A PARTICULAR PURPOSE.
  20:.\main.c      **** *******************************************************************************/
  21:.\main.c      **** #include <project.h>
  22:.\main.c      **** 
  23:.\main.c      **** /*******************************************************************************
  24:.\main.c      **** *  Helipful data manipulation defines from psoc5 pass thru example
  25:.\main.c      **** *******************************************************************************/
  26:.\main.c      **** 
  27:.\main.c      **** /* Get 8 bits of 16 bit value. */
  28:.\main.c      **** #define LO8(x)                  ((uint8) ((x) & 0xFFu))
  29:.\main.c      **** #define HI8(x)                  ((uint8) ((uint16)(x) >> 8))
  30:.\main.c      **** 
  31:.\main.c      **** /* Get 16 bits of 32 bit value. */
  32:.\main.c      **** #define LO16(x)                 ((uint16) ((x) & 0xFFFFu))
ARM GAS  C:\Users\TOM~1.MCK\AppData\Local\Temp\ccAQAXh7.s 			page 2


  33:.\main.c      **** #define HI16(x)                 ((uint16) ((uint32)(x) >> 16))
  34:.\main.c      **** 
  35:.\main.c      **** 
  36:.\main.c      **** 
  37:.\main.c      **** #define    IDAC_VAL     (0x33u)
  38:.\main.c      **** #define    IDAC_CURRENT (120u)
  39:.\main.c      **** 
  40:.\main.c      **** 
  41:.\main.c      **** 
  42:.\main.c      ****  
  43:.\main.c      **** 
  44:.\main.c      **** /*******************************************************************************
  45:.\main.c      **** *   Function Prototypes
  46:.\main.c      **** *******************************************************************************/
  47:.\main.c      **** 
  48:.\main.c      **** 
  49:.\main.c      **** 
  50:.\main.c      **** /*******************************************************************************
  51:.\main.c      **** *   Global Variables
  52:.\main.c      **** *******************************************************************************/
  53:.\main.c      **** 
  54:.\main.c      **** 
  55:.\main.c      **** 
  56:.\main.c      **** /* ADC measurement status and result */
  57:.\main.c      **** int16   adcSample = 0;
  58:.\main.c      **** int16   adcSampleQpoint = 0;
  59:.\main.c      **** uint8   idacSet = 0x33;
  60:.\main.c      **** int32   newRegisterValue = 0x0;
  61:.\main.c      **** 
  62:.\main.c      ****  const uint8 sinetable[ 32 ] = {     127, 152, 176, 198, 217, 233, 245, 252,
  63:.\main.c      ****                                     254, 252, 245, 233, 217, 198, 176, 152,
  64:.\main.c      ****                                     128, 103,  79,  57,  38,  22,  10,   3,
  65:.\main.c      ****                                       0,   3,  10,  22,  38,  57,  79, 103 };
  66:.\main.c      **** 
  67:.\main.c      **** uint8 sineptr = 0;
  68:.\main.c      **** uint8 freqCount = 0;
  69:.\main.c      **** uint8 modulate = 0;
  70:.\main.c      **** 
  71:.\main.c      **** 
  72:.\main.c      **** /*******************************************************************************
  73:.\main.c      **** * Function Name: main
  74:.\main.c      **** ********************************************************************************
  75:.\main.c      **** *
  76:.\main.c      **** * Summary:
  77:.\main.c      **** *  Sets DMA pointers.
  78:.\main.c      **** *  Starts all the components. 
  79:.\main.c      **** *
  80:.\main.c      **** * Parameters:
  81:.\main.c      **** *  None
  82:.\main.c      **** *
  83:.\main.c      **** * Return:
  84:.\main.c      **** *  None
  85:.\main.c      **** *
  86:.\main.c      **** *******************************************************************************/
  87:.\main.c      **** int main()
  88:.\main.c      **** {
  26              		.loc 1 88 0
ARM GAS  C:\Users\TOM~1.MCK\AppData\Local\Temp\ccAQAXh7.s 			page 3


  27              		.cfi_startproc
  28 0000 10B5     		push	{r4, lr}
  29              		.cfi_def_cfa_offset 8
  30              		.cfi_offset 4, -8
  31              		.cfi_offset 14, -4
  89:.\main.c      ****         /* Start Opamp component */
  90:.\main.c      **** 
  91:.\main.c      **** 
  92:.\main.c      ****   OpampLPFilter_Start();
  32              		.loc 1 92 0
  33 0002 FFF7FEFF 		bl	OpampLPFilter_Start
  34              	.LVL0:
  93:.\main.c      ****   OpampLPFilter_SetPower(OpampLPFilter_HIGH_POWER);
  35              		.loc 1 93 0
  36 0006 0320     		mov	r0, #3
  37 0008 FFF7FEFF 		bl	OpampLPFilter_SetPower
  38              	.LVL1:
  94:.\main.c      **** 
  95:.\main.c      ****     
  96:.\main.c      ****     /* Initialize ADC. Conversion is not enabled yet. */
  97:.\main.c      ****     ADC_Start();
  39              		.loc 1 97 0
  40 000c FFF7FEFF 		bl	ADC_Start
  41              	.LVL2:
  98:.\main.c      ****     
  99:.\main.c      ****     /* Start the IDAC component */
 100:.\main.c      ****     IDAC8_Start();
  42              		.loc 1 100 0
  43 0010 FFF7FEFF 		bl	IDAC8_Start
  44              	.LVL3:
 101:.\main.c      **** 
 102:.\main.c      ****   
 103:.\main.c      ****     /* Configure DMA source and destination locations to transfer from
 104:.\main.c      ****     * ADC data register to memory variable.
 105:.\main.c      ****     */    
 106:.\main.c      ****    
 107:.\main.c      **** 
 108:.\main.c      ****      DMA_Start((void *)ADC_SAR_CHAN0_RESULT_PTR, (void *)&adcSample);
  45              		.loc 1 108 0
  46 0014 154C     		ldr	r4, .L5
  47 0016 1648     		ldr	r0, .L5+4
  48 0018 211C     		mov	r1, r4
  49 001a FFF7FEFF 		bl	DMA_Start
  50              	.LVL4:
 109:.\main.c      **** 
 110:.\main.c      ****     /* Start ADC conversion. */
 111:.\main.c      ****     ADC_StartConvert();
  51              		.loc 1 111 0
  52 001e FFF7FEFF 		bl	ADC_StartConvert
  53              	.LVL5:
 112:.\main.c      ****   
 113:.\main.c      ****     adcSampleQpoint=0x3E;
  54              		.loc 1 113 0
  55 0022 3E23     		mov	r3, #62
  56 0024 6380     		strh	r3, [r4, #2]
  57              	.L3:
 114:.\main.c      ****     
ARM GAS  C:\Users\TOM~1.MCK\AppData\Local\Temp\ccAQAXh7.s 			page 4


 115:.\main.c      ****     for(;;)
 116:.\main.c      ****     {
 117:.\main.c      ****         
 118:.\main.c      ****                 idacSet=0*(adcSample-adcSampleQpoint)*modulate/32+adcSample;
  58              		.loc 1 118 0
  59 0026 1149     		ldr	r1, .L5
  60 0028 0A78     		ldrb	r2, [r1]
  61 002a 124B     		ldr	r3, .L5+8
  62 002c 1A70     		strb	r2, [r3]
 119:.\main.c      ****                 newRegisterValue = ((IDAC8_IDAC_CONTROL_REG & (~(uint32)IDAC8_IDAC_VALUE_MASK)) | i
  63              		.loc 1 119 0
  64 002e 1248     		ldr	r0, .L5+12
  65 0030 0368     		ldr	r3, [r0]
  66 0032 FF24     		mov	r4, #255
  67 0034 A343     		bic	r3, r4
  68 0036 1343     		orr	r3, r2
  69 0038 4B60     		str	r3, [r1, #4]
 120:.\main.c      ****                 IDAC8_IDAC_CONTROL_REG = newRegisterValue;
  70              		.loc 1 120 0
  71 003a 0360     		str	r3, [r0]
 121:.\main.c      ****                 if (freqCount == 32) {
  72              		.loc 1 121 0
  73 003c 0B7A     		ldrb	r3, [r1, #8]
  74 003e 202B     		cmp	r3, #32
  75 0040 08D1     		bne	.L2
 122:.\main.c      ****                 modulate=sinetable[sineptr++];
  76              		.loc 1 122 0
  77 0042 0B1C     		mov	r3, r1
  78 0044 4A7A     		ldrb	r2, [r1, #9]
  79 0046 511C     		add	r1, r2, #1
  80 0048 5972     		strb	r1, [r3, #9]
  81 004a 0C49     		ldr	r1, .L5+16
  82 004c 8A5C     		ldrb	r2, [r1, r2]
  83 004e 9A72     		strb	r2, [r3, #10]
 123:.\main.c      ****                 freqCount=0;
  84              		.loc 1 123 0
  85 0050 0022     		mov	r2, #0
  86 0052 1A72     		strb	r2, [r3, #8]
  87              	.L2:
 124:.\main.c      ****                 }
 125:.\main.c      ****                 
 126:.\main.c      ****                 freqCount++;
  88              		.loc 1 126 0
  89 0054 054B     		ldr	r3, .L5
  90 0056 1A7A     		ldrb	r2, [r3, #8]
  91 0058 0132     		add	r2, r2, #1
  92 005a 1A72     		strb	r2, [r3, #8]
 127:.\main.c      ****                 if ( sineptr == 32 ) sineptr = 0;
  93              		.loc 1 127 0
  94 005c 5B7A     		ldrb	r3, [r3, #9]
  95 005e 202B     		cmp	r3, #32
  96 0060 E1D1     		bne	.L3
  97              		.loc 1 127 0 is_stmt 0 discriminator 1
  98 0062 0022     		mov	r2, #0
  99 0064 014B     		ldr	r3, .L5
 100 0066 5A72     		strb	r2, [r3, #9]
 101 0068 DDE7     		b	.L3
ARM GAS  C:\Users\TOM~1.MCK\AppData\Local\Temp\ccAQAXh7.s 			page 5


 102              	.L6:
 103 006a C046     		.align	2
 104              	.L5:
 105 006c 00000000 		.word	.LANCHOR0
 106 0070 80013A40 		.word	1077543296
 107 0074 00000000 		.word	.LANCHOR1
 108 0078 08002840 		.word	1076363272
 109 007c 00000000 		.word	.LANCHOR2
 110              		.cfi_endproc
 111              	.LFE69:
 112              		.size	main, .-main
 113              		.global	modulate
 114              		.global	freqCount
 115              		.global	sineptr
 116              		.global	sinetable
 117              		.global	newRegisterValue
 118              		.global	idacSet
 119              		.global	adcSampleQpoint
 120              		.global	adcSample
 121              		.section	.rodata
 122              		.align	2
 123              		.set	.LANCHOR2,. + 0
 124              		.type	sinetable, %object
 125              		.size	sinetable, 32
 126              	sinetable:
 127 0000 7F       		.byte	127
 128 0001 98       		.byte	-104
 129 0002 B0       		.byte	-80
 130 0003 C6       		.byte	-58
 131 0004 D9       		.byte	-39
 132 0005 E9       		.byte	-23
 133 0006 F5       		.byte	-11
 134 0007 FC       		.byte	-4
 135 0008 FE       		.byte	-2
 136 0009 FC       		.byte	-4
 137 000a F5       		.byte	-11
 138 000b E9       		.byte	-23
 139 000c D9       		.byte	-39
 140 000d C6       		.byte	-58
 141 000e B0       		.byte	-80
 142 000f 98       		.byte	-104
 143 0010 80       		.byte	-128
 144 0011 67       		.byte	103
 145 0012 4F       		.byte	79
 146 0013 39       		.byte	57
 147 0014 26       		.byte	38
 148 0015 16       		.byte	22
 149 0016 0A       		.byte	10
 150 0017 03       		.byte	3
 151 0018 00       		.byte	0
 152 0019 03       		.byte	3
 153 001a 0A       		.byte	10
 154 001b 16       		.byte	22
 155 001c 26       		.byte	38
 156 001d 39       		.byte	57
 157 001e 4F       		.byte	79
 158 001f 67       		.byte	103
ARM GAS  C:\Users\TOM~1.MCK\AppData\Local\Temp\ccAQAXh7.s 			page 6


 159              		.data
 160              		.set	.LANCHOR1,. + 0
 161              		.type	idacSet, %object
 162              		.size	idacSet, 1
 163              	idacSet:
 164 0000 33       		.byte	51
 165              		.bss
 166              		.align	2
 167              		.set	.LANCHOR0,. + 0
 168              		.type	adcSample, %object
 169              		.size	adcSample, 2
 170              	adcSample:
 171 0000 0000     		.space	2
 172              		.type	adcSampleQpoint, %object
 173              		.size	adcSampleQpoint, 2
 174              	adcSampleQpoint:
 175 0002 0000     		.space	2
 176              		.type	newRegisterValue, %object
 177              		.size	newRegisterValue, 4
 178              	newRegisterValue:
 179 0004 00000000 		.space	4
 180              		.type	freqCount, %object
 181              		.size	freqCount, 1
 182              	freqCount:
 183 0008 00       		.space	1
 184              		.type	sineptr, %object
 185              		.size	sineptr, 1
 186              	sineptr:
 187 0009 00       		.space	1
 188              		.type	modulate, %object
 189              		.size	modulate, 1
 190              	modulate:
 191 000a 00       		.space	1
 192 000b 00       		.text
 193              	.Letext0:
 194              		.file 2 "Generated_Source\\PSoC4/cytypes.h"
 195              		.file 3 "Generated_Source\\PSoC4/OpampLPFilter.h"
 196              		.file 4 "Generated_Source\\PSoC4/ADC.h"
 197              		.file 5 "Generated_Source\\PSoC4/IDAC8.h"
 198              		.file 6 "Generated_Source\\PSoC4/DMA.h"
