ARM GAS  C:\Users\TOM~1.MCK\AppData\Local\Temp\cc8qaq0g.s 			page 1


   1              		.cpu cortex-m0
   2              		.fpu softvfp
   3              		.eabi_attribute 20, 1
   4              		.eabi_attribute 21, 1
   5              		.eabi_attribute 23, 3
   6              		.eabi_attribute 24, 1
   7              		.eabi_attribute 25, 1
   8              		.eabi_attribute 26, 1
   9              		.eabi_attribute 30, 1
  10              		.eabi_attribute 34, 0
  11              		.eabi_attribute 18, 4
  12              		.code	16
  13              		.file	"Opamp_1.c"
  14              		.text
  15              	.Ltext0:
  16              		.cfi_sections	.debug_frame
  17              		.section	.text.Opamp_1_Init,"ax",%progbits
  18              		.align	2
  19              		.global	Opamp_1_Init
  20              		.code	16
  21              		.thumb_func
  22              		.type	Opamp_1_Init, %function
  23              	Opamp_1_Init:
  24              	.LFB0:
  25              		.file 1 ".\\Generated_Source\\PSoC4\\Opamp_1.c"
   1:.\Generated_Source\PSoC4/Opamp_1.c **** /*******************************************************************************
   2:.\Generated_Source\PSoC4/Opamp_1.c **** * File Name: Opamp_1.c
   3:.\Generated_Source\PSoC4/Opamp_1.c **** * Version 1.20
   4:.\Generated_Source\PSoC4/Opamp_1.c **** *
   5:.\Generated_Source\PSoC4/Opamp_1.c **** * Description:
   6:.\Generated_Source\PSoC4/Opamp_1.c **** *  This file provides the source code to the API for the Opamp (Analog Buffer)
   7:.\Generated_Source\PSoC4/Opamp_1.c **** *  Component.
   8:.\Generated_Source\PSoC4/Opamp_1.c **** *
   9:.\Generated_Source\PSoC4/Opamp_1.c **** *
  10:.\Generated_Source\PSoC4/Opamp_1.c **** ********************************************************************************
  11:.\Generated_Source\PSoC4/Opamp_1.c **** * Copyright 2013-2015, Cypress Semiconductor Corporation.  All rights reserved.
  12:.\Generated_Source\PSoC4/Opamp_1.c **** * You may use this file only in accordance with the license, terms, conditions,
  13:.\Generated_Source\PSoC4/Opamp_1.c **** * disclaimers, and limitations in the end user license agreement accompanying
  14:.\Generated_Source\PSoC4/Opamp_1.c **** * the software package with which this file was provided.
  15:.\Generated_Source\PSoC4/Opamp_1.c **** *******************************************************************************/
  16:.\Generated_Source\PSoC4/Opamp_1.c **** 
  17:.\Generated_Source\PSoC4/Opamp_1.c **** #include "Opamp_1.h"
  18:.\Generated_Source\PSoC4/Opamp_1.c **** 
  19:.\Generated_Source\PSoC4/Opamp_1.c **** uint8 Opamp_1_initVar = 0u; /* Defines if component was initialized */
  20:.\Generated_Source\PSoC4/Opamp_1.c **** static uint32 Opamp_1_internalPower = 0u; /* Defines component Power value */
  21:.\Generated_Source\PSoC4/Opamp_1.c **** 
  22:.\Generated_Source\PSoC4/Opamp_1.c **** 
  23:.\Generated_Source\PSoC4/Opamp_1.c **** /*******************************************************************************
  24:.\Generated_Source\PSoC4/Opamp_1.c **** * Function Name: Opamp_1_Init
  25:.\Generated_Source\PSoC4/Opamp_1.c **** ********************************************************************************
  26:.\Generated_Source\PSoC4/Opamp_1.c **** *
  27:.\Generated_Source\PSoC4/Opamp_1.c **** * Summary:
  28:.\Generated_Source\PSoC4/Opamp_1.c **** *  Initializes or restores the component according to the customizer Configure 
  29:.\Generated_Source\PSoC4/Opamp_1.c **** *  dialog settings. It is not necessary to call Init() because the Start() API 
  30:.\Generated_Source\PSoC4/Opamp_1.c **** *  calls this function and is the preferred method to begin the component operation.
  31:.\Generated_Source\PSoC4/Opamp_1.c **** *
  32:.\Generated_Source\PSoC4/Opamp_1.c **** * Parameters:
ARM GAS  C:\Users\TOM~1.MCK\AppData\Local\Temp\cc8qaq0g.s 			page 2


  33:.\Generated_Source\PSoC4/Opamp_1.c **** *  None
  34:.\Generated_Source\PSoC4/Opamp_1.c **** *
  35:.\Generated_Source\PSoC4/Opamp_1.c **** * Return:
  36:.\Generated_Source\PSoC4/Opamp_1.c **** *  None
  37:.\Generated_Source\PSoC4/Opamp_1.c **** *
  38:.\Generated_Source\PSoC4/Opamp_1.c **** *******************************************************************************/
  39:.\Generated_Source\PSoC4/Opamp_1.c **** void Opamp_1_Init(void)
  40:.\Generated_Source\PSoC4/Opamp_1.c **** {
  26              		.loc 1 40 0
  27              		.cfi_startproc
  41:.\Generated_Source\PSoC4/Opamp_1.c ****     Opamp_1_internalPower = Opamp_1_POWER;
  28              		.loc 1 41 0
  29 0000 0223     		mov	r3, #2
  30 0002 064A     		ldr	r2, .L2
  31 0004 1360     		str	r3, [r2]
  42:.\Generated_Source\PSoC4/Opamp_1.c ****     Opamp_1_CTB_CTRL_REG = Opamp_1_DEFAULT_CTB_CTRL;
  32              		.loc 1 42 0
  33 0006 8021     		mov	r1, #128
  34 0008 0906     		lsl	r1, r1, #24
  35 000a 054A     		ldr	r2, .L2+4
  36 000c 1160     		str	r1, [r2]
  43:.\Generated_Source\PSoC4/Opamp_1.c ****     Opamp_1_OA_RES_CTRL_REG = Opamp_1_DEFAULT_OA_RES_CTRL;
  37              		.loc 1 43 0
  38 000e 0421     		mov	r1, #4
  39 0010 044A     		ldr	r2, .L2+8
  40 0012 1160     		str	r1, [r2]
  44:.\Generated_Source\PSoC4/Opamp_1.c ****     Opamp_1_OA_COMP_TRIM_REG = Opamp_1_DEFAULT_OA_COMP_TRIM_REG;
  41              		.loc 1 44 0
  42 0014 044A     		ldr	r2, .L2+12
  43 0016 1360     		str	r3, [r2]
  45:.\Generated_Source\PSoC4/Opamp_1.c **** }
  44              		.loc 1 45 0
  45              		@ sp needed
  46 0018 7047     		bx	lr
  47              	.L3:
  48 001a C046     		.align	2
  49              	.L2:
  50 001c 00000000 		.word	.LANCHOR0
  51 0020 00003140 		.word	1076953088
  52 0024 08003140 		.word	1076953096
  53 0028 140F3140 		.word	1076956948
  54              		.cfi_endproc
  55              	.LFE0:
  56              		.size	Opamp_1_Init, .-Opamp_1_Init
  57              		.section	.text.Opamp_1_Enable,"ax",%progbits
  58              		.align	2
  59              		.global	Opamp_1_Enable
  60              		.code	16
  61              		.thumb_func
  62              		.type	Opamp_1_Enable, %function
  63              	Opamp_1_Enable:
  64              	.LFB1:
  46:.\Generated_Source\PSoC4/Opamp_1.c **** 
  47:.\Generated_Source\PSoC4/Opamp_1.c **** 
  48:.\Generated_Source\PSoC4/Opamp_1.c **** /*******************************************************************************
  49:.\Generated_Source\PSoC4/Opamp_1.c **** * Function Name: Opamp_1_Enable
  50:.\Generated_Source\PSoC4/Opamp_1.c **** ********************************************************************************
ARM GAS  C:\Users\TOM~1.MCK\AppData\Local\Temp\cc8qaq0g.s 			page 3


  51:.\Generated_Source\PSoC4/Opamp_1.c **** *
  52:.\Generated_Source\PSoC4/Opamp_1.c **** * Summary:
  53:.\Generated_Source\PSoC4/Opamp_1.c **** *  Activates the hardware and begins the component operation. It is not necessary to 
  54:.\Generated_Source\PSoC4/Opamp_1.c **** *  call Enable() because the Start() API calls this function, which is the 
  55:.\Generated_Source\PSoC4/Opamp_1.c **** *  preferred method to begin the component operation.
  56:.\Generated_Source\PSoC4/Opamp_1.c **** *
  57:.\Generated_Source\PSoC4/Opamp_1.c **** * Parameters:
  58:.\Generated_Source\PSoC4/Opamp_1.c **** *  None
  59:.\Generated_Source\PSoC4/Opamp_1.c **** *
  60:.\Generated_Source\PSoC4/Opamp_1.c **** * Return:
  61:.\Generated_Source\PSoC4/Opamp_1.c **** *  None
  62:.\Generated_Source\PSoC4/Opamp_1.c **** *
  63:.\Generated_Source\PSoC4/Opamp_1.c **** *******************************************************************************/
  64:.\Generated_Source\PSoC4/Opamp_1.c **** void Opamp_1_Enable(void)
  65:.\Generated_Source\PSoC4/Opamp_1.c **** {
  65              		.loc 1 65 0
  66              		.cfi_startproc
  66:.\Generated_Source\PSoC4/Opamp_1.c ****     Opamp_1_OA_RES_CTRL_REG |= Opamp_1_internalPower | \
  67              		.loc 1 66 0
  68 0000 044A     		ldr	r2, .L5
  69 0002 1168     		ldr	r1, [r2]
  70 0004 044B     		ldr	r3, .L5+4
  71 0006 1B68     		ldr	r3, [r3]
  72 0008 0B43     		orr	r3, r1
  73 000a 8021     		mov	r1, #128
  74 000c 0901     		lsl	r1, r1, #4
  75 000e 0B43     		orr	r3, r1
  76 0010 1360     		str	r3, [r2]
  67:.\Generated_Source\PSoC4/Opamp_1.c ****                                         Opamp_1_OA_PUMP_EN;
  68:.\Generated_Source\PSoC4/Opamp_1.c **** }
  77              		.loc 1 68 0
  78              		@ sp needed
  79 0012 7047     		bx	lr
  80              	.L6:
  81              		.align	2
  82              	.L5:
  83 0014 08003140 		.word	1076953096
  84 0018 00000000 		.word	.LANCHOR0
  85              		.cfi_endproc
  86              	.LFE1:
  87              		.size	Opamp_1_Enable, .-Opamp_1_Enable
  88              		.section	.text.Opamp_1_Start,"ax",%progbits
  89              		.align	2
  90              		.global	Opamp_1_Start
  91              		.code	16
  92              		.thumb_func
  93              		.type	Opamp_1_Start, %function
  94              	Opamp_1_Start:
  95              	.LFB2:
  69:.\Generated_Source\PSoC4/Opamp_1.c **** 
  70:.\Generated_Source\PSoC4/Opamp_1.c **** 
  71:.\Generated_Source\PSoC4/Opamp_1.c **** /*******************************************************************************
  72:.\Generated_Source\PSoC4/Opamp_1.c **** * Function Name: Opamp_1_Start
  73:.\Generated_Source\PSoC4/Opamp_1.c **** ********************************************************************************
  74:.\Generated_Source\PSoC4/Opamp_1.c **** *
  75:.\Generated_Source\PSoC4/Opamp_1.c **** * Summary:
  76:.\Generated_Source\PSoC4/Opamp_1.c **** *  Performs all of the required initialization for the component and enables power 
ARM GAS  C:\Users\TOM~1.MCK\AppData\Local\Temp\cc8qaq0g.s 			page 4


  77:.\Generated_Source\PSoC4/Opamp_1.c **** *  to the block. The first time the routine is executed, the Power level, Mode, 
  78:.\Generated_Source\PSoC4/Opamp_1.c **** *  and Output mode are set. When called to restart the Opamp following a Stop() call, 
  79:.\Generated_Source\PSoC4/Opamp_1.c **** *  the current component parameter settings are retained.
  80:.\Generated_Source\PSoC4/Opamp_1.c **** *
  81:.\Generated_Source\PSoC4/Opamp_1.c **** * Parameters:
  82:.\Generated_Source\PSoC4/Opamp_1.c **** *  None
  83:.\Generated_Source\PSoC4/Opamp_1.c **** *
  84:.\Generated_Source\PSoC4/Opamp_1.c **** * Return:
  85:.\Generated_Source\PSoC4/Opamp_1.c **** *  None
  86:.\Generated_Source\PSoC4/Opamp_1.c **** *
  87:.\Generated_Source\PSoC4/Opamp_1.c **** * Global variables:
  88:.\Generated_Source\PSoC4/Opamp_1.c **** *  Opamp_1_initVar: Used to check the initial configuration, modified
  89:.\Generated_Source\PSoC4/Opamp_1.c **** *  when this function is called for the first time.
  90:.\Generated_Source\PSoC4/Opamp_1.c **** *
  91:.\Generated_Source\PSoC4/Opamp_1.c **** *******************************************************************************/
  92:.\Generated_Source\PSoC4/Opamp_1.c **** void Opamp_1_Start(void)
  93:.\Generated_Source\PSoC4/Opamp_1.c **** {
  96              		.loc 1 93 0
  97              		.cfi_startproc
  98 0000 08B5     		push	{r3, lr}
  99              		.cfi_def_cfa_offset 8
 100              		.cfi_offset 3, -8
 101              		.cfi_offset 14, -4
  94:.\Generated_Source\PSoC4/Opamp_1.c ****     if( 0u == Opamp_1_initVar)
 102              		.loc 1 94 0
 103 0002 064B     		ldr	r3, .L9
 104 0004 1B79     		ldrb	r3, [r3, #4]
 105 0006 002B     		cmp	r3, #0
 106 0008 04D1     		bne	.L8
  95:.\Generated_Source\PSoC4/Opamp_1.c ****     {
  96:.\Generated_Source\PSoC4/Opamp_1.c ****         Opamp_1_Init();
 107              		.loc 1 96 0
 108 000a FFF7FEFF 		bl	Opamp_1_Init
 109              	.LVL0:
  97:.\Generated_Source\PSoC4/Opamp_1.c ****         Opamp_1_initVar = 1u;
 110              		.loc 1 97 0
 111 000e 0122     		mov	r2, #1
 112 0010 024B     		ldr	r3, .L9
 113 0012 1A71     		strb	r2, [r3, #4]
 114              	.L8:
  98:.\Generated_Source\PSoC4/Opamp_1.c ****     }
  99:.\Generated_Source\PSoC4/Opamp_1.c ****     Opamp_1_Enable();
 115              		.loc 1 99 0
 116 0014 FFF7FEFF 		bl	Opamp_1_Enable
 117              	.LVL1:
 100:.\Generated_Source\PSoC4/Opamp_1.c **** }
 118              		.loc 1 100 0
 119              		@ sp needed
 120 0018 08BD     		pop	{r3, pc}
 121              	.L10:
 122 001a C046     		.align	2
 123              	.L9:
 124 001c 00000000 		.word	.LANCHOR0
 125              		.cfi_endproc
 126              	.LFE2:
 127              		.size	Opamp_1_Start, .-Opamp_1_Start
 128              		.section	.text.Opamp_1_Stop,"ax",%progbits
ARM GAS  C:\Users\TOM~1.MCK\AppData\Local\Temp\cc8qaq0g.s 			page 5


 129              		.align	2
 130              		.global	Opamp_1_Stop
 131              		.code	16
 132              		.thumb_func
 133              		.type	Opamp_1_Stop, %function
 134              	Opamp_1_Stop:
 135              	.LFB3:
 101:.\Generated_Source\PSoC4/Opamp_1.c **** 
 102:.\Generated_Source\PSoC4/Opamp_1.c **** 
 103:.\Generated_Source\PSoC4/Opamp_1.c **** /*******************************************************************************
 104:.\Generated_Source\PSoC4/Opamp_1.c **** * Function Name: Opamp_1_Stop
 105:.\Generated_Source\PSoC4/Opamp_1.c **** ********************************************************************************
 106:.\Generated_Source\PSoC4/Opamp_1.c **** *
 107:.\Generated_Source\PSoC4/Opamp_1.c **** * Summary:
 108:.\Generated_Source\PSoC4/Opamp_1.c **** *  Turn off the Opamp block.
 109:.\Generated_Source\PSoC4/Opamp_1.c **** *
 110:.\Generated_Source\PSoC4/Opamp_1.c **** * Parameters:
 111:.\Generated_Source\PSoC4/Opamp_1.c **** *  None
 112:.\Generated_Source\PSoC4/Opamp_1.c **** *
 113:.\Generated_Source\PSoC4/Opamp_1.c **** * Return:
 114:.\Generated_Source\PSoC4/Opamp_1.c **** *  None
 115:.\Generated_Source\PSoC4/Opamp_1.c **** *
 116:.\Generated_Source\PSoC4/Opamp_1.c **** *******************************************************************************/
 117:.\Generated_Source\PSoC4/Opamp_1.c **** void Opamp_1_Stop(void)
 118:.\Generated_Source\PSoC4/Opamp_1.c **** {
 136              		.loc 1 118 0
 137              		.cfi_startproc
 119:.\Generated_Source\PSoC4/Opamp_1.c ****     Opamp_1_OA_RES_CTRL_REG &= ((uint32)~(Opamp_1_OA_PWR_MODE_MASK | \
 138              		.loc 1 119 0
 139 0000 024A     		ldr	r2, .L12
 140 0002 1168     		ldr	r1, [r2]
 141 0004 024B     		ldr	r3, .L12+4
 142 0006 0B40     		and	r3, r1
 143 0008 1360     		str	r3, [r2]
 120:.\Generated_Source\PSoC4/Opamp_1.c ****                                                    Opamp_1_OA_PUMP_EN));
 121:.\Generated_Source\PSoC4/Opamp_1.c **** }
 144              		.loc 1 121 0
 145              		@ sp needed
 146 000a 7047     		bx	lr
 147              	.L13:
 148              		.align	2
 149              	.L12:
 150 000c 08003140 		.word	1076953096
 151 0010 FCF7FFFF 		.word	-2052
 152              		.cfi_endproc
 153              	.LFE3:
 154              		.size	Opamp_1_Stop, .-Opamp_1_Stop
 155              		.section	.text.Opamp_1_SetPower,"ax",%progbits
 156              		.align	2
 157              		.global	Opamp_1_SetPower
 158              		.code	16
 159              		.thumb_func
 160              		.type	Opamp_1_SetPower, %function
 161              	Opamp_1_SetPower:
 162              	.LFB4:
 122:.\Generated_Source\PSoC4/Opamp_1.c **** 
 123:.\Generated_Source\PSoC4/Opamp_1.c **** 
ARM GAS  C:\Users\TOM~1.MCK\AppData\Local\Temp\cc8qaq0g.s 			page 6


 124:.\Generated_Source\PSoC4/Opamp_1.c **** /*******************************************************************************
 125:.\Generated_Source\PSoC4/Opamp_1.c **** * Function Name: Opamp_1_SetPower
 126:.\Generated_Source\PSoC4/Opamp_1.c **** ********************************************************************************
 127:.\Generated_Source\PSoC4/Opamp_1.c **** *
 128:.\Generated_Source\PSoC4/Opamp_1.c **** * Summary:
 129:.\Generated_Source\PSoC4/Opamp_1.c **** *  Sets the Opamp to one of the three power levels.
 130:.\Generated_Source\PSoC4/Opamp_1.c **** *
 131:.\Generated_Source\PSoC4/Opamp_1.c **** * Parameters:
 132:.\Generated_Source\PSoC4/Opamp_1.c **** *  power: power levels.
 133:.\Generated_Source\PSoC4/Opamp_1.c **** *   Opamp_1_LOW_POWER - Lowest active power
 134:.\Generated_Source\PSoC4/Opamp_1.c **** *   Opamp_1_MED_POWER - Medium power
 135:.\Generated_Source\PSoC4/Opamp_1.c **** *   Opamp_1_HIGH_POWER - Highest active power
 136:.\Generated_Source\PSoC4/Opamp_1.c **** *
 137:.\Generated_Source\PSoC4/Opamp_1.c **** * Return:
 138:.\Generated_Source\PSoC4/Opamp_1.c **** *  None
 139:.\Generated_Source\PSoC4/Opamp_1.c **** *
 140:.\Generated_Source\PSoC4/Opamp_1.c **** **********************************************************************************/
 141:.\Generated_Source\PSoC4/Opamp_1.c **** void Opamp_1_SetPower(uint32 power)
 142:.\Generated_Source\PSoC4/Opamp_1.c **** {
 163              		.loc 1 142 0
 164              		.cfi_startproc
 165              	.LVL2:
 143:.\Generated_Source\PSoC4/Opamp_1.c ****     uint32 tmp;
 144:.\Generated_Source\PSoC4/Opamp_1.c ****     
 145:.\Generated_Source\PSoC4/Opamp_1.c ****     Opamp_1_internalPower = Opamp_1_GET_OA_PWR_MODE(power);
 166              		.loc 1 145 0
 167 0000 0321     		mov	r1, #3
 168 0002 0840     		and	r0, r1
 169              	.LVL3:
 170 0004 034B     		ldr	r3, .L15
 171 0006 1860     		str	r0, [r3]
 146:.\Generated_Source\PSoC4/Opamp_1.c ****     tmp = Opamp_1_OA_RES_CTRL_REG & \
 172              		.loc 1 146 0
 173 0008 034A     		ldr	r2, .L15+4
 174 000a 1368     		ldr	r3, [r2]
 175 000c 8B43     		bic	r3, r1
 176              	.LVL4:
 147:.\Generated_Source\PSoC4/Opamp_1.c ****            (uint32)~Opamp_1_OA_PWR_MODE_MASK;
 148:.\Generated_Source\PSoC4/Opamp_1.c ****     Opamp_1_OA_RES_CTRL_REG = tmp | Opamp_1_internalPower;
 177              		.loc 1 148 0
 178 000e 1843     		orr	r0, r3
 179 0010 1060     		str	r0, [r2]
 149:.\Generated_Source\PSoC4/Opamp_1.c **** }
 180              		.loc 1 149 0
 181              		@ sp needed
 182 0012 7047     		bx	lr
 183              	.L16:
 184              		.align	2
 185              	.L15:
 186 0014 00000000 		.word	.LANCHOR0
 187 0018 08003140 		.word	1076953096
 188              		.cfi_endproc
 189              	.LFE4:
 190              		.size	Opamp_1_SetPower, .-Opamp_1_SetPower
 191              		.section	.text.Opamp_1_PumpControl,"ax",%progbits
 192              		.align	2
 193              		.global	Opamp_1_PumpControl
ARM GAS  C:\Users\TOM~1.MCK\AppData\Local\Temp\cc8qaq0g.s 			page 7


 194              		.code	16
 195              		.thumb_func
 196              		.type	Opamp_1_PumpControl, %function
 197              	Opamp_1_PumpControl:
 198              	.LFB5:
 150:.\Generated_Source\PSoC4/Opamp_1.c **** 
 151:.\Generated_Source\PSoC4/Opamp_1.c **** 
 152:.\Generated_Source\PSoC4/Opamp_1.c **** /*******************************************************************************
 153:.\Generated_Source\PSoC4/Opamp_1.c **** * Function Name: Opamp_1_PumpControl
 154:.\Generated_Source\PSoC4/Opamp_1.c **** ********************************************************************************
 155:.\Generated_Source\PSoC4/Opamp_1.c **** *
 156:.\Generated_Source\PSoC4/Opamp_1.c **** * Summary:
 157:.\Generated_Source\PSoC4/Opamp_1.c **** *  Allows the user to turn the Opamp's boost pump on or off. By Default the Start() 
 158:.\Generated_Source\PSoC4/Opamp_1.c **** *  function turns on the pump. Use this API to turn it off. The boost must be 
 159:.\Generated_Source\PSoC4/Opamp_1.c **** *  turned on when the supply is less than 2.7 volts and off if the supply is more 
 160:.\Generated_Source\PSoC4/Opamp_1.c **** *  than 4 volts.
 161:.\Generated_Source\PSoC4/Opamp_1.c **** *
 162:.\Generated_Source\PSoC4/Opamp_1.c **** * Parameters:
 163:.\Generated_Source\PSoC4/Opamp_1.c **** *  onOff: Control the pump.
 164:.\Generated_Source\PSoC4/Opamp_1.c **** *   Opamp_1_PUMP_OFF - Turn off the pump
 165:.\Generated_Source\PSoC4/Opamp_1.c **** *   Opamp_1_PUMP_ON - Turn on the pump
 166:.\Generated_Source\PSoC4/Opamp_1.c **** *
 167:.\Generated_Source\PSoC4/Opamp_1.c **** * Return:
 168:.\Generated_Source\PSoC4/Opamp_1.c **** *  None
 169:.\Generated_Source\PSoC4/Opamp_1.c **** *
 170:.\Generated_Source\PSoC4/Opamp_1.c **** **********************************************************************************/
 171:.\Generated_Source\PSoC4/Opamp_1.c **** void Opamp_1_PumpControl(uint32 onOff)
 172:.\Generated_Source\PSoC4/Opamp_1.c **** {
 199              		.loc 1 172 0
 200              		.cfi_startproc
 201              	.LVL5:
 173:.\Generated_Source\PSoC4/Opamp_1.c ****     
 174:.\Generated_Source\PSoC4/Opamp_1.c ****     if(0u != onOff)
 202              		.loc 1 174 0
 203 0000 0028     		cmp	r0, #0
 204 0002 06D0     		beq	.L18
 175:.\Generated_Source\PSoC4/Opamp_1.c ****     {
 176:.\Generated_Source\PSoC4/Opamp_1.c ****         Opamp_1_OA_RES_CTRL |= Opamp_1_OA_PUMP_EN;    
 205              		.loc 1 176 0
 206 0004 064A     		ldr	r2, .L20
 207 0006 1368     		ldr	r3, [r2]
 208 0008 8021     		mov	r1, #128
 209 000a 0901     		lsl	r1, r1, #4
 210 000c 0B43     		orr	r3, r1
 211 000e 1360     		str	r3, [r2]
 212 0010 04E0     		b	.L17
 213              	.L18:
 177:.\Generated_Source\PSoC4/Opamp_1.c ****     }
 178:.\Generated_Source\PSoC4/Opamp_1.c ****     else
 179:.\Generated_Source\PSoC4/Opamp_1.c ****     {
 180:.\Generated_Source\PSoC4/Opamp_1.c ****         Opamp_1_OA_RES_CTRL &= (uint32)~Opamp_1_OA_PUMP_EN;
 214              		.loc 1 180 0
 215 0012 034A     		ldr	r2, .L20
 216 0014 1168     		ldr	r1, [r2]
 217 0016 034B     		ldr	r3, .L20+4
 218 0018 0B40     		and	r3, r1
 219 001a 1360     		str	r3, [r2]
ARM GAS  C:\Users\TOM~1.MCK\AppData\Local\Temp\cc8qaq0g.s 			page 8


 220              	.L17:
 181:.\Generated_Source\PSoC4/Opamp_1.c ****     }
 182:.\Generated_Source\PSoC4/Opamp_1.c **** }
 221              		.loc 1 182 0
 222              		@ sp needed
 223 001c 7047     		bx	lr
 224              	.L21:
 225 001e C046     		.align	2
 226              	.L20:
 227 0020 08003140 		.word	1076953096
 228 0024 FFF7FFFF 		.word	-2049
 229              		.cfi_endproc
 230              	.LFE5:
 231              		.size	Opamp_1_PumpControl, .-Opamp_1_PumpControl
 232              		.global	Opamp_1_initVar
 233              		.bss
 234              		.align	2
 235              		.set	.LANCHOR0,. + 0
 236              		.type	Opamp_1_internalPower, %object
 237              		.size	Opamp_1_internalPower, 4
 238              	Opamp_1_internalPower:
 239 0000 00000000 		.space	4
 240              		.type	Opamp_1_initVar, %object
 241              		.size	Opamp_1_initVar, 1
 242              	Opamp_1_initVar:
 243 0004 00       		.space	1
 244 0005 000000   		.text
 245              	.Letext0:
 246              		.file 2 ".\\Generated_Source\\PSoC4\\cytypes.h"
