ARM GAS  C:\Users\TOM~1.MCK\AppData\Local\Temp\cc9B7QQv.s 			page 1


   1              		.cpu cortex-m0
   2              		.fpu softvfp
   3              		.eabi_attribute 20, 1
   4              		.eabi_attribute 21, 1
   5              		.eabi_attribute 23, 3
   6              		.eabi_attribute 24, 1
   7              		.eabi_attribute 25, 1
   8              		.eabi_attribute 26, 1
   9              		.eabi_attribute 30, 1
  10              		.eabi_attribute 34, 0
  11              		.eabi_attribute 18, 4
  12              		.code	16
  13              		.file	"OpampLPFilter.c"
  14              		.text
  15              	.Ltext0:
  16              		.cfi_sections	.debug_frame
  17              		.section	.text.OpampLPFilter_Init,"ax",%progbits
  18              		.align	2
  19              		.global	OpampLPFilter_Init
  20              		.code	16
  21              		.thumb_func
  22              		.type	OpampLPFilter_Init, %function
  23              	OpampLPFilter_Init:
  24              	.LFB0:
  25              		.file 1 ".\\Generated_Source\\PSoC4\\OpampLPFilter.c"
   1:.\Generated_Source\PSoC4/OpampLPFilter.c **** /*******************************************************************************
   2:.\Generated_Source\PSoC4/OpampLPFilter.c **** * File Name: OpampLPFilter.c
   3:.\Generated_Source\PSoC4/OpampLPFilter.c **** * Version 1.20
   4:.\Generated_Source\PSoC4/OpampLPFilter.c **** *
   5:.\Generated_Source\PSoC4/OpampLPFilter.c **** * Description:
   6:.\Generated_Source\PSoC4/OpampLPFilter.c **** *  This file provides the source code to the API for the Opamp (Analog Buffer)
   7:.\Generated_Source\PSoC4/OpampLPFilter.c **** *  Component.
   8:.\Generated_Source\PSoC4/OpampLPFilter.c **** *
   9:.\Generated_Source\PSoC4/OpampLPFilter.c **** *
  10:.\Generated_Source\PSoC4/OpampLPFilter.c **** ********************************************************************************
  11:.\Generated_Source\PSoC4/OpampLPFilter.c **** * Copyright 2013-2015, Cypress Semiconductor Corporation.  All rights reserved.
  12:.\Generated_Source\PSoC4/OpampLPFilter.c **** * You may use this file only in accordance with the license, terms, conditions,
  13:.\Generated_Source\PSoC4/OpampLPFilter.c **** * disclaimers, and limitations in the end user license agreement accompanying
  14:.\Generated_Source\PSoC4/OpampLPFilter.c **** * the software package with which this file was provided.
  15:.\Generated_Source\PSoC4/OpampLPFilter.c **** *******************************************************************************/
  16:.\Generated_Source\PSoC4/OpampLPFilter.c **** 
  17:.\Generated_Source\PSoC4/OpampLPFilter.c **** #include "OpampLPFilter.h"
  18:.\Generated_Source\PSoC4/OpampLPFilter.c **** 
  19:.\Generated_Source\PSoC4/OpampLPFilter.c **** uint8 OpampLPFilter_initVar = 0u; /* Defines if component was initialized */
  20:.\Generated_Source\PSoC4/OpampLPFilter.c **** static uint32 OpampLPFilter_internalPower = 0u; /* Defines component Power value */
  21:.\Generated_Source\PSoC4/OpampLPFilter.c **** 
  22:.\Generated_Source\PSoC4/OpampLPFilter.c **** 
  23:.\Generated_Source\PSoC4/OpampLPFilter.c **** /*******************************************************************************
  24:.\Generated_Source\PSoC4/OpampLPFilter.c **** * Function Name: OpampLPFilter_Init
  25:.\Generated_Source\PSoC4/OpampLPFilter.c **** ********************************************************************************
  26:.\Generated_Source\PSoC4/OpampLPFilter.c **** *
  27:.\Generated_Source\PSoC4/OpampLPFilter.c **** * Summary:
  28:.\Generated_Source\PSoC4/OpampLPFilter.c **** *  Initializes or restores the component according to the customizer Configure 
  29:.\Generated_Source\PSoC4/OpampLPFilter.c **** *  dialog settings. It is not necessary to call Init() because the Start() API 
  30:.\Generated_Source\PSoC4/OpampLPFilter.c **** *  calls this function and is the preferred method to begin the component operation.
  31:.\Generated_Source\PSoC4/OpampLPFilter.c **** *
  32:.\Generated_Source\PSoC4/OpampLPFilter.c **** * Parameters:
ARM GAS  C:\Users\TOM~1.MCK\AppData\Local\Temp\cc9B7QQv.s 			page 2


  33:.\Generated_Source\PSoC4/OpampLPFilter.c **** *  None
  34:.\Generated_Source\PSoC4/OpampLPFilter.c **** *
  35:.\Generated_Source\PSoC4/OpampLPFilter.c **** * Return:
  36:.\Generated_Source\PSoC4/OpampLPFilter.c **** *  None
  37:.\Generated_Source\PSoC4/OpampLPFilter.c **** *
  38:.\Generated_Source\PSoC4/OpampLPFilter.c **** *******************************************************************************/
  39:.\Generated_Source\PSoC4/OpampLPFilter.c **** void OpampLPFilter_Init(void)
  40:.\Generated_Source\PSoC4/OpampLPFilter.c **** {
  26              		.loc 1 40 0
  27              		.cfi_startproc
  41:.\Generated_Source\PSoC4/OpampLPFilter.c ****     OpampLPFilter_internalPower = OpampLPFilter_POWER;
  28              		.loc 1 41 0
  29 0000 0222     		mov	r2, #2
  30 0002 064B     		ldr	r3, .L2
  31 0004 1A60     		str	r2, [r3]
  42:.\Generated_Source\PSoC4/OpampLPFilter.c ****     OpampLPFilter_CTB_CTRL_REG = OpampLPFilter_DEFAULT_CTB_CTRL;
  32              		.loc 1 42 0
  33 0006 8022     		mov	r2, #128
  34 0008 1206     		lsl	r2, r2, #24
  35 000a 054B     		ldr	r3, .L2+4
  36 000c 1A60     		str	r2, [r3]
  43:.\Generated_Source\PSoC4/OpampLPFilter.c ****     OpampLPFilter_OA_RES_CTRL_REG = OpampLPFilter_DEFAULT_OA_RES_CTRL;
  37              		.loc 1 43 0
  38 000e 0422     		mov	r2, #4
  39 0010 044B     		ldr	r3, .L2+8
  40 0012 1A60     		str	r2, [r3]
  44:.\Generated_Source\PSoC4/OpampLPFilter.c ****     OpampLPFilter_OA_COMP_TRIM_REG = OpampLPFilter_DEFAULT_OA_COMP_TRIM_REG;
  41              		.loc 1 44 0
  42 0014 013A     		sub	r2, r2, #1
  43 0016 044B     		ldr	r3, .L2+12
  44 0018 1A60     		str	r2, [r3]
  45:.\Generated_Source\PSoC4/OpampLPFilter.c **** }
  45              		.loc 1 45 0
  46              		@ sp needed
  47 001a 7047     		bx	lr
  48              	.L3:
  49              		.align	2
  50              	.L2:
  51 001c 00000000 		.word	.LANCHOR0
  52 0020 00003140 		.word	1076953088
  53 0024 04003140 		.word	1076953092
  54 0028 080F3140 		.word	1076956936
  55              		.cfi_endproc
  56              	.LFE0:
  57              		.size	OpampLPFilter_Init, .-OpampLPFilter_Init
  58              		.section	.text.OpampLPFilter_Enable,"ax",%progbits
  59              		.align	2
  60              		.global	OpampLPFilter_Enable
  61              		.code	16
  62              		.thumb_func
  63              		.type	OpampLPFilter_Enable, %function
  64              	OpampLPFilter_Enable:
  65              	.LFB1:
  46:.\Generated_Source\PSoC4/OpampLPFilter.c **** 
  47:.\Generated_Source\PSoC4/OpampLPFilter.c **** 
  48:.\Generated_Source\PSoC4/OpampLPFilter.c **** /*******************************************************************************
  49:.\Generated_Source\PSoC4/OpampLPFilter.c **** * Function Name: OpampLPFilter_Enable
ARM GAS  C:\Users\TOM~1.MCK\AppData\Local\Temp\cc9B7QQv.s 			page 3


  50:.\Generated_Source\PSoC4/OpampLPFilter.c **** ********************************************************************************
  51:.\Generated_Source\PSoC4/OpampLPFilter.c **** *
  52:.\Generated_Source\PSoC4/OpampLPFilter.c **** * Summary:
  53:.\Generated_Source\PSoC4/OpampLPFilter.c **** *  Activates the hardware and begins the component operation. It is not necessary to 
  54:.\Generated_Source\PSoC4/OpampLPFilter.c **** *  call Enable() because the Start() API calls this function, which is the 
  55:.\Generated_Source\PSoC4/OpampLPFilter.c **** *  preferred method to begin the component operation.
  56:.\Generated_Source\PSoC4/OpampLPFilter.c **** *
  57:.\Generated_Source\PSoC4/OpampLPFilter.c **** * Parameters:
  58:.\Generated_Source\PSoC4/OpampLPFilter.c **** *  None
  59:.\Generated_Source\PSoC4/OpampLPFilter.c **** *
  60:.\Generated_Source\PSoC4/OpampLPFilter.c **** * Return:
  61:.\Generated_Source\PSoC4/OpampLPFilter.c **** *  None
  62:.\Generated_Source\PSoC4/OpampLPFilter.c **** *
  63:.\Generated_Source\PSoC4/OpampLPFilter.c **** *******************************************************************************/
  64:.\Generated_Source\PSoC4/OpampLPFilter.c **** void OpampLPFilter_Enable(void)
  65:.\Generated_Source\PSoC4/OpampLPFilter.c **** {
  66              		.loc 1 65 0
  67              		.cfi_startproc
  66:.\Generated_Source\PSoC4/OpampLPFilter.c ****     OpampLPFilter_OA_RES_CTRL_REG |= OpampLPFilter_internalPower | \
  68              		.loc 1 66 0
  69 0000 044A     		ldr	r2, .L5
  70 0002 1168     		ldr	r1, [r2]
  71 0004 044B     		ldr	r3, .L5+4
  72 0006 1B68     		ldr	r3, [r3]
  73 0008 0B43     		orr	r3, r1
  74 000a 8021     		mov	r1, #128
  75 000c 0901     		lsl	r1, r1, #4
  76 000e 0B43     		orr	r3, r1
  77 0010 1360     		str	r3, [r2]
  67:.\Generated_Source\PSoC4/OpampLPFilter.c ****                                         OpampLPFilter_OA_PUMP_EN;
  68:.\Generated_Source\PSoC4/OpampLPFilter.c **** }
  78              		.loc 1 68 0
  79              		@ sp needed
  80 0012 7047     		bx	lr
  81              	.L6:
  82              		.align	2
  83              	.L5:
  84 0014 04003140 		.word	1076953092
  85 0018 00000000 		.word	.LANCHOR0
  86              		.cfi_endproc
  87              	.LFE1:
  88              		.size	OpampLPFilter_Enable, .-OpampLPFilter_Enable
  89              		.section	.text.OpampLPFilter_Start,"ax",%progbits
  90              		.align	2
  91              		.global	OpampLPFilter_Start
  92              		.code	16
  93              		.thumb_func
  94              		.type	OpampLPFilter_Start, %function
  95              	OpampLPFilter_Start:
  96              	.LFB2:
  69:.\Generated_Source\PSoC4/OpampLPFilter.c **** 
  70:.\Generated_Source\PSoC4/OpampLPFilter.c **** 
  71:.\Generated_Source\PSoC4/OpampLPFilter.c **** /*******************************************************************************
  72:.\Generated_Source\PSoC4/OpampLPFilter.c **** * Function Name: OpampLPFilter_Start
  73:.\Generated_Source\PSoC4/OpampLPFilter.c **** ********************************************************************************
  74:.\Generated_Source\PSoC4/OpampLPFilter.c **** *
  75:.\Generated_Source\PSoC4/OpampLPFilter.c **** * Summary:
ARM GAS  C:\Users\TOM~1.MCK\AppData\Local\Temp\cc9B7QQv.s 			page 4


  76:.\Generated_Source\PSoC4/OpampLPFilter.c **** *  Performs all of the required initialization for the component and enables power 
  77:.\Generated_Source\PSoC4/OpampLPFilter.c **** *  to the block. The first time the routine is executed, the Power level, Mode, 
  78:.\Generated_Source\PSoC4/OpampLPFilter.c **** *  and Output mode are set. When called to restart the Opamp following a Stop() call, 
  79:.\Generated_Source\PSoC4/OpampLPFilter.c **** *  the current component parameter settings are retained.
  80:.\Generated_Source\PSoC4/OpampLPFilter.c **** *
  81:.\Generated_Source\PSoC4/OpampLPFilter.c **** * Parameters:
  82:.\Generated_Source\PSoC4/OpampLPFilter.c **** *  None
  83:.\Generated_Source\PSoC4/OpampLPFilter.c **** *
  84:.\Generated_Source\PSoC4/OpampLPFilter.c **** * Return:
  85:.\Generated_Source\PSoC4/OpampLPFilter.c **** *  None
  86:.\Generated_Source\PSoC4/OpampLPFilter.c **** *
  87:.\Generated_Source\PSoC4/OpampLPFilter.c **** * Global variables:
  88:.\Generated_Source\PSoC4/OpampLPFilter.c **** *  OpampLPFilter_initVar: Used to check the initial configuration, modified
  89:.\Generated_Source\PSoC4/OpampLPFilter.c **** *  when this function is called for the first time.
  90:.\Generated_Source\PSoC4/OpampLPFilter.c **** *
  91:.\Generated_Source\PSoC4/OpampLPFilter.c **** *******************************************************************************/
  92:.\Generated_Source\PSoC4/OpampLPFilter.c **** void OpampLPFilter_Start(void)
  93:.\Generated_Source\PSoC4/OpampLPFilter.c **** {
  97              		.loc 1 93 0
  98              		.cfi_startproc
  99 0000 08B5     		push	{r3, lr}
 100              		.cfi_def_cfa_offset 8
 101              		.cfi_offset 3, -8
 102              		.cfi_offset 14, -4
  94:.\Generated_Source\PSoC4/OpampLPFilter.c ****     if( 0u == OpampLPFilter_initVar)
 103              		.loc 1 94 0
 104 0002 064B     		ldr	r3, .L9
 105 0004 1B79     		ldrb	r3, [r3, #4]
 106 0006 002B     		cmp	r3, #0
 107 0008 04D1     		bne	.L8
  95:.\Generated_Source\PSoC4/OpampLPFilter.c ****     {
  96:.\Generated_Source\PSoC4/OpampLPFilter.c ****         OpampLPFilter_Init();
 108              		.loc 1 96 0
 109 000a FFF7FEFF 		bl	OpampLPFilter_Init
 110              	.LVL0:
  97:.\Generated_Source\PSoC4/OpampLPFilter.c ****         OpampLPFilter_initVar = 1u;
 111              		.loc 1 97 0
 112 000e 0122     		mov	r2, #1
 113 0010 024B     		ldr	r3, .L9
 114 0012 1A71     		strb	r2, [r3, #4]
 115              	.L8:
  98:.\Generated_Source\PSoC4/OpampLPFilter.c ****     }
  99:.\Generated_Source\PSoC4/OpampLPFilter.c ****     OpampLPFilter_Enable();
 116              		.loc 1 99 0
 117 0014 FFF7FEFF 		bl	OpampLPFilter_Enable
 118              	.LVL1:
 100:.\Generated_Source\PSoC4/OpampLPFilter.c **** }
 119              		.loc 1 100 0
 120              		@ sp needed
 121 0018 08BD     		pop	{r3, pc}
 122              	.L10:
 123 001a C046     		.align	2
 124              	.L9:
 125 001c 00000000 		.word	.LANCHOR0
 126              		.cfi_endproc
 127              	.LFE2:
 128              		.size	OpampLPFilter_Start, .-OpampLPFilter_Start
ARM GAS  C:\Users\TOM~1.MCK\AppData\Local\Temp\cc9B7QQv.s 			page 5


 129              		.section	.text.OpampLPFilter_Stop,"ax",%progbits
 130              		.align	2
 131              		.global	OpampLPFilter_Stop
 132              		.code	16
 133              		.thumb_func
 134              		.type	OpampLPFilter_Stop, %function
 135              	OpampLPFilter_Stop:
 136              	.LFB3:
 101:.\Generated_Source\PSoC4/OpampLPFilter.c **** 
 102:.\Generated_Source\PSoC4/OpampLPFilter.c **** 
 103:.\Generated_Source\PSoC4/OpampLPFilter.c **** /*******************************************************************************
 104:.\Generated_Source\PSoC4/OpampLPFilter.c **** * Function Name: OpampLPFilter_Stop
 105:.\Generated_Source\PSoC4/OpampLPFilter.c **** ********************************************************************************
 106:.\Generated_Source\PSoC4/OpampLPFilter.c **** *
 107:.\Generated_Source\PSoC4/OpampLPFilter.c **** * Summary:
 108:.\Generated_Source\PSoC4/OpampLPFilter.c **** *  Turn off the Opamp block.
 109:.\Generated_Source\PSoC4/OpampLPFilter.c **** *
 110:.\Generated_Source\PSoC4/OpampLPFilter.c **** * Parameters:
 111:.\Generated_Source\PSoC4/OpampLPFilter.c **** *  None
 112:.\Generated_Source\PSoC4/OpampLPFilter.c **** *
 113:.\Generated_Source\PSoC4/OpampLPFilter.c **** * Return:
 114:.\Generated_Source\PSoC4/OpampLPFilter.c **** *  None
 115:.\Generated_Source\PSoC4/OpampLPFilter.c **** *
 116:.\Generated_Source\PSoC4/OpampLPFilter.c **** *******************************************************************************/
 117:.\Generated_Source\PSoC4/OpampLPFilter.c **** void OpampLPFilter_Stop(void)
 118:.\Generated_Source\PSoC4/OpampLPFilter.c **** {
 137              		.loc 1 118 0
 138              		.cfi_startproc
 119:.\Generated_Source\PSoC4/OpampLPFilter.c ****     OpampLPFilter_OA_RES_CTRL_REG &= ((uint32)~(OpampLPFilter_OA_PWR_MODE_MASK | \
 139              		.loc 1 119 0
 140 0000 024A     		ldr	r2, .L12
 141 0002 1168     		ldr	r1, [r2]
 142 0004 024B     		ldr	r3, .L12+4
 143 0006 0B40     		and	r3, r1
 144 0008 1360     		str	r3, [r2]
 120:.\Generated_Source\PSoC4/OpampLPFilter.c ****                                                    OpampLPFilter_OA_PUMP_EN));
 121:.\Generated_Source\PSoC4/OpampLPFilter.c **** }
 145              		.loc 1 121 0
 146              		@ sp needed
 147 000a 7047     		bx	lr
 148              	.L13:
 149              		.align	2
 150              	.L12:
 151 000c 04003140 		.word	1076953092
 152 0010 FCF7FFFF 		.word	-2052
 153              		.cfi_endproc
 154              	.LFE3:
 155              		.size	OpampLPFilter_Stop, .-OpampLPFilter_Stop
 156              		.section	.text.OpampLPFilter_SetPower,"ax",%progbits
 157              		.align	2
 158              		.global	OpampLPFilter_SetPower
 159              		.code	16
 160              		.thumb_func
 161              		.type	OpampLPFilter_SetPower, %function
 162              	OpampLPFilter_SetPower:
 163              	.LFB4:
 122:.\Generated_Source\PSoC4/OpampLPFilter.c **** 
ARM GAS  C:\Users\TOM~1.MCK\AppData\Local\Temp\cc9B7QQv.s 			page 6


 123:.\Generated_Source\PSoC4/OpampLPFilter.c **** 
 124:.\Generated_Source\PSoC4/OpampLPFilter.c **** /*******************************************************************************
 125:.\Generated_Source\PSoC4/OpampLPFilter.c **** * Function Name: OpampLPFilter_SetPower
 126:.\Generated_Source\PSoC4/OpampLPFilter.c **** ********************************************************************************
 127:.\Generated_Source\PSoC4/OpampLPFilter.c **** *
 128:.\Generated_Source\PSoC4/OpampLPFilter.c **** * Summary:
 129:.\Generated_Source\PSoC4/OpampLPFilter.c **** *  Sets the Opamp to one of the three power levels.
 130:.\Generated_Source\PSoC4/OpampLPFilter.c **** *
 131:.\Generated_Source\PSoC4/OpampLPFilter.c **** * Parameters:
 132:.\Generated_Source\PSoC4/OpampLPFilter.c **** *  power: power levels.
 133:.\Generated_Source\PSoC4/OpampLPFilter.c **** *   OpampLPFilter_LOW_POWER - Lowest active power
 134:.\Generated_Source\PSoC4/OpampLPFilter.c **** *   OpampLPFilter_MED_POWER - Medium power
 135:.\Generated_Source\PSoC4/OpampLPFilter.c **** *   OpampLPFilter_HIGH_POWER - Highest active power
 136:.\Generated_Source\PSoC4/OpampLPFilter.c **** *
 137:.\Generated_Source\PSoC4/OpampLPFilter.c **** * Return:
 138:.\Generated_Source\PSoC4/OpampLPFilter.c **** *  None
 139:.\Generated_Source\PSoC4/OpampLPFilter.c **** *
 140:.\Generated_Source\PSoC4/OpampLPFilter.c **** **********************************************************************************/
 141:.\Generated_Source\PSoC4/OpampLPFilter.c **** void OpampLPFilter_SetPower(uint32 power)
 142:.\Generated_Source\PSoC4/OpampLPFilter.c **** {
 164              		.loc 1 142 0
 165              		.cfi_startproc
 166              	.LVL2:
 143:.\Generated_Source\PSoC4/OpampLPFilter.c ****     uint32 tmp;
 144:.\Generated_Source\PSoC4/OpampLPFilter.c ****     
 145:.\Generated_Source\PSoC4/OpampLPFilter.c ****     OpampLPFilter_internalPower = OpampLPFilter_GET_OA_PWR_MODE(power);
 167              		.loc 1 145 0
 168 0000 0321     		mov	r1, #3
 169 0002 0840     		and	r0, r1
 170              	.LVL3:
 171 0004 034B     		ldr	r3, .L15
 172 0006 1860     		str	r0, [r3]
 146:.\Generated_Source\PSoC4/OpampLPFilter.c ****     tmp = OpampLPFilter_OA_RES_CTRL_REG & \
 173              		.loc 1 146 0
 174 0008 034A     		ldr	r2, .L15+4
 175 000a 1368     		ldr	r3, [r2]
 176 000c 8B43     		bic	r3, r1
 177              	.LVL4:
 147:.\Generated_Source\PSoC4/OpampLPFilter.c ****            (uint32)~OpampLPFilter_OA_PWR_MODE_MASK;
 148:.\Generated_Source\PSoC4/OpampLPFilter.c ****     OpampLPFilter_OA_RES_CTRL_REG = tmp | OpampLPFilter_internalPower;
 178              		.loc 1 148 0
 179 000e 1843     		orr	r0, r3
 180 0010 1060     		str	r0, [r2]
 149:.\Generated_Source\PSoC4/OpampLPFilter.c **** }
 181              		.loc 1 149 0
 182              		@ sp needed
 183 0012 7047     		bx	lr
 184              	.L16:
 185              		.align	2
 186              	.L15:
 187 0014 00000000 		.word	.LANCHOR0
 188 0018 04003140 		.word	1076953092
 189              		.cfi_endproc
 190              	.LFE4:
 191              		.size	OpampLPFilter_SetPower, .-OpampLPFilter_SetPower
 192              		.section	.text.OpampLPFilter_PumpControl,"ax",%progbits
 193              		.align	2
ARM GAS  C:\Users\TOM~1.MCK\AppData\Local\Temp\cc9B7QQv.s 			page 7


 194              		.global	OpampLPFilter_PumpControl
 195              		.code	16
 196              		.thumb_func
 197              		.type	OpampLPFilter_PumpControl, %function
 198              	OpampLPFilter_PumpControl:
 199              	.LFB5:
 150:.\Generated_Source\PSoC4/OpampLPFilter.c **** 
 151:.\Generated_Source\PSoC4/OpampLPFilter.c **** 
 152:.\Generated_Source\PSoC4/OpampLPFilter.c **** /*******************************************************************************
 153:.\Generated_Source\PSoC4/OpampLPFilter.c **** * Function Name: OpampLPFilter_PumpControl
 154:.\Generated_Source\PSoC4/OpampLPFilter.c **** ********************************************************************************
 155:.\Generated_Source\PSoC4/OpampLPFilter.c **** *
 156:.\Generated_Source\PSoC4/OpampLPFilter.c **** * Summary:
 157:.\Generated_Source\PSoC4/OpampLPFilter.c **** *  Allows the user to turn the Opamp's boost pump on or off. By Default the Start() 
 158:.\Generated_Source\PSoC4/OpampLPFilter.c **** *  function turns on the pump. Use this API to turn it off. The boost must be 
 159:.\Generated_Source\PSoC4/OpampLPFilter.c **** *  turned on when the supply is less than 2.7 volts and off if the supply is more 
 160:.\Generated_Source\PSoC4/OpampLPFilter.c **** *  than 4 volts.
 161:.\Generated_Source\PSoC4/OpampLPFilter.c **** *
 162:.\Generated_Source\PSoC4/OpampLPFilter.c **** * Parameters:
 163:.\Generated_Source\PSoC4/OpampLPFilter.c **** *  onOff: Control the pump.
 164:.\Generated_Source\PSoC4/OpampLPFilter.c **** *   OpampLPFilter_PUMP_OFF - Turn off the pump
 165:.\Generated_Source\PSoC4/OpampLPFilter.c **** *   OpampLPFilter_PUMP_ON - Turn on the pump
 166:.\Generated_Source\PSoC4/OpampLPFilter.c **** *
 167:.\Generated_Source\PSoC4/OpampLPFilter.c **** * Return:
 168:.\Generated_Source\PSoC4/OpampLPFilter.c **** *  None
 169:.\Generated_Source\PSoC4/OpampLPFilter.c **** *
 170:.\Generated_Source\PSoC4/OpampLPFilter.c **** **********************************************************************************/
 171:.\Generated_Source\PSoC4/OpampLPFilter.c **** void OpampLPFilter_PumpControl(uint32 onOff)
 172:.\Generated_Source\PSoC4/OpampLPFilter.c **** {
 200              		.loc 1 172 0
 201              		.cfi_startproc
 202              	.LVL5:
 173:.\Generated_Source\PSoC4/OpampLPFilter.c ****     
 174:.\Generated_Source\PSoC4/OpampLPFilter.c ****     if(0u != onOff)
 203              		.loc 1 174 0
 204 0000 0028     		cmp	r0, #0
 205 0002 06D0     		beq	.L18
 175:.\Generated_Source\PSoC4/OpampLPFilter.c ****     {
 176:.\Generated_Source\PSoC4/OpampLPFilter.c ****         OpampLPFilter_OA_RES_CTRL |= OpampLPFilter_OA_PUMP_EN;    
 206              		.loc 1 176 0
 207 0004 064A     		ldr	r2, .L20
 208 0006 1368     		ldr	r3, [r2]
 209 0008 8021     		mov	r1, #128
 210 000a 0901     		lsl	r1, r1, #4
 211 000c 0B43     		orr	r3, r1
 212 000e 1360     		str	r3, [r2]
 213 0010 04E0     		b	.L17
 214              	.L18:
 177:.\Generated_Source\PSoC4/OpampLPFilter.c ****     }
 178:.\Generated_Source\PSoC4/OpampLPFilter.c ****     else
 179:.\Generated_Source\PSoC4/OpampLPFilter.c ****     {
 180:.\Generated_Source\PSoC4/OpampLPFilter.c ****         OpampLPFilter_OA_RES_CTRL &= (uint32)~OpampLPFilter_OA_PUMP_EN;
 215              		.loc 1 180 0
 216 0012 034A     		ldr	r2, .L20
 217 0014 1168     		ldr	r1, [r2]
 218 0016 034B     		ldr	r3, .L20+4
 219 0018 0B40     		and	r3, r1
ARM GAS  C:\Users\TOM~1.MCK\AppData\Local\Temp\cc9B7QQv.s 			page 8


 220 001a 1360     		str	r3, [r2]
 221              	.L17:
 181:.\Generated_Source\PSoC4/OpampLPFilter.c ****     }
 182:.\Generated_Source\PSoC4/OpampLPFilter.c **** }
 222              		.loc 1 182 0
 223              		@ sp needed
 224 001c 7047     		bx	lr
 225              	.L21:
 226 001e C046     		.align	2
 227              	.L20:
 228 0020 04003140 		.word	1076953092
 229 0024 FFF7FFFF 		.word	-2049
 230              		.cfi_endproc
 231              	.LFE5:
 232              		.size	OpampLPFilter_PumpControl, .-OpampLPFilter_PumpControl
 233              		.global	OpampLPFilter_initVar
 234              		.bss
 235              		.align	2
 236              		.set	.LANCHOR0,. + 0
 237              		.type	OpampLPFilter_internalPower, %object
 238              		.size	OpampLPFilter_internalPower, 4
 239              	OpampLPFilter_internalPower:
 240 0000 00000000 		.space	4
 241              		.type	OpampLPFilter_initVar, %object
 242              		.size	OpampLPFilter_initVar, 1
 243              	OpampLPFilter_initVar:
 244 0004 00       		.space	1
 245 0005 000000   		.text
 246              	.Letext0:
 247              		.file 2 ".\\Generated_Source\\PSoC4\\cytypes.h"
