ARM GAS  C:\Users\TOM~1.MCK\AppData\Local\Temp\ccudFFGk.s 			page 1


   1              		.cpu cortex-m0
   2              		.fpu softvfp
   3              		.eabi_attribute 20, 1
   4              		.eabi_attribute 21, 1
   5              		.eabi_attribute 23, 3
   6              		.eabi_attribute 24, 1
   7              		.eabi_attribute 25, 1
   8              		.eabi_attribute 26, 1
   9              		.eabi_attribute 30, 1
  10              		.eabi_attribute 34, 0
  11              		.eabi_attribute 18, 4
  12              		.code	16
  13              		.file	"main.c"
  14              		.text
  15              	.Ltext0:
  16              		.cfi_sections	.debug_frame
  17              		.section	.text.main,"ax",%progbits
  18              		.align	2
  19              		.global	main
  20              		.code	16
  21              		.thumb_func
  22              		.type	main, %function
  23              	main:
  24              	.LFB165:
  25              		.file 1 ".\\main.c"
   1:.\main.c      **** /*******************************************************************************
   2:.\main.c      **** * File Name: main.c
   3:.\main.c      **** *
   4:.\main.c      **** * Version:   1.0
   5:.\main.c      **** *
   6:.\main.c      **** * Description:
   7:.\main.c      **** *  This example shows how to use the DMA to transfer data from a RAM array to
   8:.\main.c      **** *  the SPI TX buffer, and shows how to use the DMA to transfer data from the SPI
   9:.\main.c      **** *  RX buffer to a RAM array.
  10:.\main.c      **** *
  11:.\main.c      **** ********************************************************************************
  12:.\main.c      **** * Copyright 2015, Cypress Semiconductor Corporation. All rights reserved.
  13:.\main.c      **** * This software is owned by Cypress Semiconductor Corporation and is protected
  14:.\main.c      **** * by and subject to worldwide patent and copyright laws and treaties.
  15:.\main.c      **** * Therefore, you may use this software only as provided in the license agreement
  16:.\main.c      **** * accompanying the software package from which you obtained this software.
  17:.\main.c      **** * CYPRESS AND ITS SUPPLIERS MAKE NO WARRANTY OF ANY KIND, EXPRESS OR IMPLIED,
  18:.\main.c      **** * WITH REGARD TO THIS SOFTWARE, INCLUDING, BUT NOT LIMITED TO, NONINFRINGEMENT,
  19:.\main.c      **** * IMPLIED WARRANTIES OF MERCHANTABILITY AND FITNESS FOR A PARTICULAR PURPOSE.
  20:.\main.c      **** *******************************************************************************/
  21:.\main.c      **** 
  22:.\main.c      **** #include <project.h>
  23:.\main.c      **** #include <string.h>
  24:.\main.c      **** 
  25:.\main.c      **** #define     DESCR0              0
  26:.\main.c      **** #define     DESCR1              1
  27:.\main.c      **** #define     BUFFER_SIZE        32
  28:.\main.c      **** 
  29:.\main.c      **** /* LED control defines. LED is active low. */
  30:.\main.c      **** #define     LED_ON              0
  31:.\main.c      **** #define     LED_OFF             1
  32:.\main.c      **** 
ARM GAS  C:\Users\TOM~1.MCK\AppData\Local\Temp\ccudFFGk.s 			page 2


  33:.\main.c      **** /* Data buffers */
  34:.\main.c      **** static const int8 CYCODE masterTxBuffer[BUFFER_SIZE] = {"Data to transmit by SPI Master !"};
  35:.\main.c      **** static int8 masterRxBuffer[BUFFER_SIZE] = {0};
  36:.\main.c      **** 
  37:.\main.c      **** static const int8 CYCODE slaveTxBuffer[BUFFER_SIZE]  = {"Data to return by SPI Slave !!!!"};
  38:.\main.c      **** static int8 slaveRxBuffer[BUFFER_SIZE] = {0};
  39:.\main.c      **** 
  40:.\main.c      **** 
  41:.\main.c      **** /*******************************************************************************
  42:.\main.c      **** * Function Name: main
  43:.\main.c      **** ********************************************************************************
  44:.\main.c      **** *
  45:.\main.c      **** * Summary:
  46:.\main.c      **** *  This function starts the SPI communication, configures and starts DMA
  47:.\main.c      **** *  transfers. Once data exchange completes, checks the content of sent and
  48:.\main.c      **** *  received data.
  49:.\main.c      **** *
  50:.\main.c      **** * Parameters:
  51:.\main.c      **** *  None
  52:.\main.c      **** *
  53:.\main.c      **** * Return:
  54:.\main.c      **** *  None
  55:.\main.c      **** *
  56:.\main.c      **** *******************************************************************************/
  57:.\main.c      **** int main()
  58:.\main.c      **** {
  26              		.loc 1 58 0
  27              		.cfi_startproc
  28 0000 10B5     		push	{r4, lr}
  29              		.cfi_def_cfa_offset 8
  30              		.cfi_offset 4, -8
  31              		.cfi_offset 14, -4
  59:.\main.c      ****     /* Start TxDmaS to fill SPIS transmit FIFO in preparation for a data
  60:.\main.c      ****     * transfer. Other DMA channels are disabled.
  61:.\main.c      ****     */
  62:.\main.c      ****     TxDmaS_Start((void *)slaveTxBuffer, (void *)SPIS_TXDATA_PTR);
  32              		.loc 1 62 0
  33 0002 3048     		ldr	r0, .L9
  34 0004 3049     		ldr	r1, .L9+4
  35 0006 FFF7FEFF 		bl	TxDmaS_Start
  36              	.LVL0:
  63:.\main.c      ****     
  64:.\main.c      ****     /* Start SPI communication. */
  65:.\main.c      ****     SPIS_Start();
  37              		.loc 1 65 0
  38 000a FFF7FEFF 		bl	SPIS_Start
  39              	.LVL1:
  66:.\main.c      ****     SPIM_Start();
  40              		.loc 1 66 0
  41 000e FFF7FEFF 		bl	SPIM_Start
  42              	.LVL2:
  67:.\main.c      **** 
  68:.\main.c      ****     /* When configured in CPHA=0 mode, the SPI slave sends the very first byte
  69:.\main.c      ****     * from the internal shift register and then loads the next data bytes from
  70:.\main.c      ****     * transmit FIFO. Therefore, the first byte should either be written directly
  71:.\main.c      ****     * into the shift register or discarded by SPI master.
  72:.\main.c      ****     * Send a dummy byte not using a DMA. This byte will be discarded.
ARM GAS  C:\Users\TOM~1.MCK\AppData\Local\Temp\ccudFFGk.s 			page 3


  73:.\main.c      ****     */
  74:.\main.c      ****     SPIM_SpiUartWriteTxData(0u);
  43              		.loc 1 74 0
  44 0012 0020     		mov	r0, #0
  45 0014 FFF7FEFF 		bl	SPIM_SpiUartWriteTxData
  46              	.LVL3:
  47              	.L2:
  75:.\main.c      **** 
  76:.\main.c      ****     while(0u == SPIM_SpiUartGetRxBufferSize())
  48              		.loc 1 76 0 discriminator 1
  49 0018 FFF7FEFF 		bl	SPIM_SpiUartGetRxBufferSize
  50              	.LVL4:
  51 001c 0028     		cmp	r0, #0
  52 001e FBD0     		beq	.L2
  77:.\main.c      ****     {
  78:.\main.c      ****         /* Wait for the first byte exchange. */
  79:.\main.c      ****     }
  80:.\main.c      **** 
  81:.\main.c      ****     /* The first received byte is discarded. Clear data buffers. */
  82:.\main.c      ****     SPIM_SpiUartClearRxBuffer();
  53              		.loc 1 82 0
  54 0020 FFF7FEFF 		bl	SPIM_SpiUartClearRxBuffer
  55              	.LVL5:
  83:.\main.c      ****     SPIS_ClearRxBuffer();
  56              		.loc 1 83 0
  57 0024 FFF7FEFF 		bl	SPIS_ClearRxBuffer
  58              	.LVL6:
  84:.\main.c      **** 
  85:.\main.c      ****     /* Start other DMA channels to begin data transfer. */
  86:.\main.c      ****     RxDmaM_Start((void *)SPIM_RX_FIFO_RD_PTR, (void *)masterRxBuffer);
  59              		.loc 1 86 0
  60 0028 284C     		ldr	r4, .L9+8
  61 002a 2948     		ldr	r0, .L9+12
  62 002c 211C     		mov	r1, r4
  63 002e FFF7FEFF 		bl	RxDmaM_Start
  64              	.LVL7:
  87:.\main.c      ****     RxDmaS_Start((void *)SPIS_RXDATA_PTR, (void *)slaveRxBuffer);
  65              		.loc 1 87 0
  66 0032 211C     		mov	r1, r4
  67 0034 2031     		add	r1, r1, #32
  68 0036 2748     		ldr	r0, .L9+16
  69 0038 FFF7FEFF 		bl	RxDmaS_Start
  70              	.LVL8:
  88:.\main.c      ****     TxDmaM_Start((void *)masterTxBuffer, (void *)SPIM_TX_FIFO_WR_PTR);
  71              		.loc 1 88 0
  72 003c 2148     		ldr	r0, .L9
  73 003e 2030     		add	r0, r0, #32
  74 0040 2549     		ldr	r1, .L9+20
  75 0042 FFF7FEFF 		bl	TxDmaM_Start
  76              	.LVL9:
  77              	.L3:
  89:.\main.c      **** 
  90:.\main.c      ****     for(;;)
  91:.\main.c      ****     {
  92:.\main.c      ****         /* Check whether data exchange has been finished. RxDmaM and RxDmaS are 
  93:.\main.c      ****         * configured to set an interrupt when they finish transferring all data
  94:.\main.c      ****         * elements.
ARM GAS  C:\Users\TOM~1.MCK\AppData\Local\Temp\ccudFFGk.s 			page 4


  95:.\main.c      ****         */
  96:.\main.c      ****         if(0u == (CyDmaGetInterruptSourceMasked() ^ (RxDmaM_CHANNEL_MASK | RxDmaS_CHANNEL_MASK)))
  78              		.loc 1 96 0
  79 0046 FFF7FEFF 		bl	CyDmaGetInterruptSourceMasked
  80              	.LVL10:
  81 004a 0A28     		cmp	r0, #10
  82 004c FBD1     		bne	.L3
  97:.\main.c      ****         {
  98:.\main.c      ****             /* Once asserted, interrupt bits remain high until cleared. */
  99:.\main.c      ****             CyDmaClearInterruptSource(RxDmaM_CHANNEL_MASK | RxDmaS_CHANNEL_MASK);
  83              		.loc 1 99 0
  84 004e FFF7FEFF 		bl	CyDmaClearInterruptSource
  85              	.LVL11:
 100:.\main.c      **** 
 101:.\main.c      ****             /* Clear previous transfer complete status. */
 102:.\main.c      ****             SUCCESS_Write(LED_OFF);
  86              		.loc 1 102 0
  87 0052 0120     		mov	r0, #1
  88 0054 FFF7FEFF 		bl	SUCCESS_Write
  89              	.LVL12:
 103:.\main.c      **** 
 104:.\main.c      ****             /* Compare content of receive and transmit buffers to check if
 105:.\main.c      ****             * transfer has been successfully finished.
 106:.\main.c      ****             */
 107:.\main.c      ****             if(0 != memcmp((const void *) masterRxBuffer, (const void *) slaveTxBuffer, BUFFER_SIZE
  90              		.loc 1 107 0
  91 0058 1C48     		ldr	r0, .L9+8
  92 005a 1A49     		ldr	r1, .L9
  93 005c 2022     		mov	r2, #32
  94 005e FFF7FEFF 		bl	memcmp
  95              	.LVL13:
  96 0062 0028     		cmp	r0, #0
  97 0064 03D0     		beq	.L4
 108:.\main.c      ****             {
 109:.\main.c      ****                 /* Transfer finished with errors - Turn red LED on to indicate error. */
 110:.\main.c      ****                 ERROR_Write(LED_ON);
  98              		.loc 1 110 0
  99 0066 0020     		mov	r0, #0
 100 0068 FFF7FEFF 		bl	ERROR_Write
 101              	.LVL14:
 102              	.L5:
 111:.\main.c      **** 
 112:.\main.c      ****                 /* We must not get here. If we do, go into infinite loop. */
 113:.\main.c      ****                 while(1);
 103              		.loc 1 113 0 discriminator 1
 104 006c FEE7     		b	.L5
 105              	.L4:
 114:.\main.c      ****             }
 115:.\main.c      **** 
 116:.\main.c      ****             if(0 != memcmp((const void *) slaveRxBuffer, (const void *) masterTxBuffer, BUFFER_SIZE
 106              		.loc 1 116 0
 107 006e 1748     		ldr	r0, .L9+8
 108 0070 2030     		add	r0, r0, #32
 109 0072 1449     		ldr	r1, .L9
 110 0074 2031     		add	r1, r1, #32
 111 0076 2022     		mov	r2, #32
 112 0078 FFF7FEFF 		bl	memcmp
ARM GAS  C:\Users\TOM~1.MCK\AppData\Local\Temp\ccudFFGk.s 			page 5


 113              	.LVL15:
 114 007c 0028     		cmp	r0, #0
 115 007e 03D0     		beq	.L6
 117:.\main.c      ****             {
 118:.\main.c      ****                 /* Transfer finished with errors - Turn red LED on to indicate error. */
 119:.\main.c      ****                 ERROR_Write(LED_ON);
 116              		.loc 1 119 0
 117 0080 0020     		mov	r0, #0
 118 0082 FFF7FEFF 		bl	ERROR_Write
 119              	.LVL16:
 120              	.L7:
 120:.\main.c      **** 
 121:.\main.c      ****                 /* We must not get here. If we do, go into infinite loop. */
 122:.\main.c      ****                 while(1);
 121              		.loc 1 122 0 discriminator 2
 122 0086 FEE7     		b	.L7
 123              	.L6:
 123:.\main.c      ****             }
 124:.\main.c      **** 
 125:.\main.c      ****             /* Set transfer complete status. */
 126:.\main.c      ****             SUCCESS_Write(LED_ON);
 124              		.loc 1 126 0
 125 0088 0020     		mov	r0, #0
 126 008a FFF7FEFF 		bl	SUCCESS_Write
 127              	.LVL17:
 127:.\main.c      **** 
 128:.\main.c      ****             /* Reset receive buffers. */
 129:.\main.c      ****             memset((void *) masterRxBuffer, 0, BUFFER_SIZE);
 128              		.loc 1 129 0
 129 008e 0F4A     		ldr	r2, .L9+8
 130 0090 0023     		mov	r3, #0
 131 0092 1360     		str	r3, [r2]
 132 0094 5360     		str	r3, [r2, #4]
 133 0096 9360     		str	r3, [r2, #8]
 134 0098 D360     		str	r3, [r2, #12]
 135 009a 1361     		str	r3, [r2, #16]
 136 009c 5361     		str	r3, [r2, #20]
 137 009e 9361     		str	r3, [r2, #24]
 138 00a0 D361     		str	r3, [r2, #28]
 130:.\main.c      ****             memset((void *) slaveRxBuffer,  0, BUFFER_SIZE);
 139              		.loc 1 130 0
 140 00a2 1362     		str	r3, [r2, #32]
 141 00a4 5362     		str	r3, [r2, #36]
 142 00a6 9362     		str	r3, [r2, #40]
 143 00a8 D362     		str	r3, [r2, #44]
 144 00aa 1363     		str	r3, [r2, #48]
 145 00ac 5363     		str	r3, [r2, #52]
 146 00ae 9363     		str	r3, [r2, #56]
 147 00b0 D363     		str	r3, [r2, #60]
 148              	.LVL18:
 149              	.LBB6:
 150              	.LBB7:
 151              		.file 2 "Generated_Source\\PSoC4/TxDmaM.h"
   1:Generated_Source\PSoC4/TxDmaM.h **** /*******************************************************************************
   2:Generated_Source\PSoC4/TxDmaM.h **** * File Name: TxDmaM.h
   3:Generated_Source\PSoC4/TxDmaM.h **** * Version 1.0
   4:Generated_Source\PSoC4/TxDmaM.h **** *
ARM GAS  C:\Users\TOM~1.MCK\AppData\Local\Temp\ccudFFGk.s 			page 6


   5:Generated_Source\PSoC4/TxDmaM.h **** * Description:
   6:Generated_Source\PSoC4/TxDmaM.h **** *  This file provides DMA channel defines and API function definitions.
   7:Generated_Source\PSoC4/TxDmaM.h **** *
   8:Generated_Source\PSoC4/TxDmaM.h **** ********************************************************************************
   9:Generated_Source\PSoC4/TxDmaM.h **** * Copyright 2015, Cypress Semiconductor Corporation. All rights reserved.
  10:Generated_Source\PSoC4/TxDmaM.h **** * You may use this file only in accordance with the license, terms, conditions,
  11:Generated_Source\PSoC4/TxDmaM.h **** * disclaimers, and limitations in the end user license agreement accompanying
  12:Generated_Source\PSoC4/TxDmaM.h **** * the software package with which this file was provided.
  13:Generated_Source\PSoC4/TxDmaM.h **** *******************************************************************************/
  14:Generated_Source\PSoC4/TxDmaM.h **** 
  15:Generated_Source\PSoC4/TxDmaM.h **** #ifndef CY_DMA_CHANNEL_TxDmaM_H
  16:Generated_Source\PSoC4/TxDmaM.h **** #define CY_DMA_CHANNEL_TxDmaM_H
  17:Generated_Source\PSoC4/TxDmaM.h **** 
  18:Generated_Source\PSoC4/TxDmaM.h **** #include "CyDMA.h"
  19:Generated_Source\PSoC4/TxDmaM.h **** 
  20:Generated_Source\PSoC4/TxDmaM.h ****     
  21:Generated_Source\PSoC4/TxDmaM.h **** /***************************************
  22:Generated_Source\PSoC4/TxDmaM.h **** *   Conditional Compilation Parameters
  23:Generated_Source\PSoC4/TxDmaM.h **** ***************************************/
  24:Generated_Source\PSoC4/TxDmaM.h **** 
  25:Generated_Source\PSoC4/TxDmaM.h **** #define TxDmaM_CHANNEL           (TxDmaM__CHANNEL_NUMBER)
  26:Generated_Source\PSoC4/TxDmaM.h **** #define TxDmaM_CHANNEL_MASK      ((uint32)(1UL << TxDmaM_CHANNEL))
  27:Generated_Source\PSoC4/TxDmaM.h **** 
  28:Generated_Source\PSoC4/TxDmaM.h **** 
  29:Generated_Source\PSoC4/TxDmaM.h **** /***************************************
  30:Generated_Source\PSoC4/TxDmaM.h **** *        Function Prototypes
  31:Generated_Source\PSoC4/TxDmaM.h **** ***************************************/
  32:Generated_Source\PSoC4/TxDmaM.h **** 
  33:Generated_Source\PSoC4/TxDmaM.h **** /* Functions specific to this DMA channel */
  34:Generated_Source\PSoC4/TxDmaM.h **** void TxDmaM_Init(void);
  35:Generated_Source\PSoC4/TxDmaM.h **** void TxDmaM_Start(void * srcAddress, void * dstAddress);
  36:Generated_Source\PSoC4/TxDmaM.h **** 
  37:Generated_Source\PSoC4/TxDmaM.h **** /* Inline functions that call global API functions */
  38:Generated_Source\PSoC4/TxDmaM.h **** static void   TxDmaM_ChEnable(void);
  39:Generated_Source\PSoC4/TxDmaM.h **** static void   TxDmaM_ChDisable(void);
  40:Generated_Source\PSoC4/TxDmaM.h **** static void   TxDmaM_Trigger(void);
  41:Generated_Source\PSoC4/TxDmaM.h **** static void   TxDmaM_SetPriority(int32 priority);
  42:Generated_Source\PSoC4/TxDmaM.h **** static int32  TxDmaM_GetPriority(void);
  43:Generated_Source\PSoC4/TxDmaM.h **** static void   TxDmaM_SetNextDescriptor(int32 descriptor);
  44:Generated_Source\PSoC4/TxDmaM.h **** static int32  TxDmaM_GetNextDescriptor(void);
  45:Generated_Source\PSoC4/TxDmaM.h **** static void   TxDmaM_SetConfiguration(int32 descriptor, const cydma_init_struct * config);
  46:Generated_Source\PSoC4/TxDmaM.h **** static void   TxDmaM_ValidateDescriptor(int32 descriptor);
  47:Generated_Source\PSoC4/TxDmaM.h **** static uint32 TxDmaM_GetDescriptorStatus(int32 descriptor);
  48:Generated_Source\PSoC4/TxDmaM.h **** static void   TxDmaM_SetSrcAddress(int32 descriptor, void * srcAddress);
  49:Generated_Source\PSoC4/TxDmaM.h **** static void * TxDmaM_GetSrcAddress(int32 descriptor);
  50:Generated_Source\PSoC4/TxDmaM.h **** static void   TxDmaM_SetDstAddress(int32 descriptor, void * dstAddress);
  51:Generated_Source\PSoC4/TxDmaM.h **** static void * TxDmaM_GetDstAddress(int32 descriptor);
  52:Generated_Source\PSoC4/TxDmaM.h **** static void   TxDmaM_SetDataElementSize(int32 descriptor, uint32 dataElementSize);
  53:Generated_Source\PSoC4/TxDmaM.h **** static uint32 TxDmaM_GetDataElementSize(int32 descriptor);
  54:Generated_Source\PSoC4/TxDmaM.h **** static void   TxDmaM_SetNumDataElements(int32 descriptor, int32 numDataElements);
  55:Generated_Source\PSoC4/TxDmaM.h **** static int32  TxDmaM_GetNumDataElements(int32 descriptor);
  56:Generated_Source\PSoC4/TxDmaM.h **** static void   TxDmaM_SetSrcDstTransferWidth(int32 descriptor, uint32 transferWidth);
  57:Generated_Source\PSoC4/TxDmaM.h **** static uint32 TxDmaM_GetSrcDstTransferWidth(int32 descriptor);
  58:Generated_Source\PSoC4/TxDmaM.h **** static void   TxDmaM_SetAddressIncrement(int32 descriptor, uint32 addressIncrement);
  59:Generated_Source\PSoC4/TxDmaM.h **** static uint32 TxDmaM_GetAddressIncrement(int32 descriptor);
  60:Generated_Source\PSoC4/TxDmaM.h **** static void   TxDmaM_SetTriggerType(int32 descriptor, uint32 triggerType);
  61:Generated_Source\PSoC4/TxDmaM.h **** static uint32 TxDmaM_GetTriggerType(int32 descriptor);
ARM GAS  C:\Users\TOM~1.MCK\AppData\Local\Temp\ccudFFGk.s 			page 7


  62:Generated_Source\PSoC4/TxDmaM.h **** static void   TxDmaM_SetTransferMode(int32 descriptor, uint32 transferMode);
  63:Generated_Source\PSoC4/TxDmaM.h **** static uint32 TxDmaM_GetTransferMode(int32 descriptor);
  64:Generated_Source\PSoC4/TxDmaM.h **** static void   TxDmaM_SetPreemptable(int32 descriptor, uint32 preemptable);
  65:Generated_Source\PSoC4/TxDmaM.h **** static uint32 TxDmaM_GetPreemptable(int32 descriptor);
  66:Generated_Source\PSoC4/TxDmaM.h **** static void   TxDmaM_SetPostCompletionActions(int32 descriptor, uint32 actions);
  67:Generated_Source\PSoC4/TxDmaM.h **** static uint32 TxDmaM_GetPostCompletionAction(int32 descriptor);
  68:Generated_Source\PSoC4/TxDmaM.h **** static cydma_callback_t TxDmaM_SetInterruptCallback(cydma_callback_t callback);
  69:Generated_Source\PSoC4/TxDmaM.h **** static cydma_callback_t TxDmaM_GetInterruptCallback(void);
  70:Generated_Source\PSoC4/TxDmaM.h **** 
  71:Generated_Source\PSoC4/TxDmaM.h **** 
  72:Generated_Source\PSoC4/TxDmaM.h **** /*******************************************************************************
  73:Generated_Source\PSoC4/TxDmaM.h **** * Function Name: TxDmaM_ChEnable
  74:Generated_Source\PSoC4/TxDmaM.h **** ********************************************************************************
  75:Generated_Source\PSoC4/TxDmaM.h **** *
  76:Generated_Source\PSoC4/TxDmaM.h **** * Summary:
  77:Generated_Source\PSoC4/TxDmaM.h **** *  Enables the DMA channel. It is not necessary to call TxDmaM_ChEnable()
  78:Generated_Source\PSoC4/TxDmaM.h **** *  because the TxDmaM_Start() API calls this function, which is the
  79:Generated_Source\PSoC4/TxDmaM.h **** *  preferred method to begin the component operation.
  80:Generated_Source\PSoC4/TxDmaM.h **** *
  81:Generated_Source\PSoC4/TxDmaM.h **** * Parameters:
  82:Generated_Source\PSoC4/TxDmaM.h **** *  None.
  83:Generated_Source\PSoC4/TxDmaM.h **** *                   
  84:Generated_Source\PSoC4/TxDmaM.h **** * Return:
  85:Generated_Source\PSoC4/TxDmaM.h **** *  None.
  86:Generated_Source\PSoC4/TxDmaM.h **** *
  87:Generated_Source\PSoC4/TxDmaM.h **** * Side effect:
  88:Generated_Source\PSoC4/TxDmaM.h **** *  If this function is called before TxDmaM_Start(), or TxDmaM_Init()
  89:Generated_Source\PSoC4/TxDmaM.h **** *  or TxDmaM_SetConfiguration(), and TxDmaM_SetSrcAddress()
  90:Generated_Source\PSoC4/TxDmaM.h **** *  and TxDmaM_SetDstAddress the operation of the DMA is 
  91:Generated_Source\PSoC4/TxDmaM.h **** *  undefined and could result in system data corruption. 
  92:Generated_Source\PSoC4/TxDmaM.h **** *
  93:Generated_Source\PSoC4/TxDmaM.h **** *******************************************************************************/
  94:Generated_Source\PSoC4/TxDmaM.h **** static CY_INLINE void TxDmaM_ChEnable(void)
  95:Generated_Source\PSoC4/TxDmaM.h **** {
  96:Generated_Source\PSoC4/TxDmaM.h ****     CyDmaChEnable(TxDmaM_CHANNEL);
  97:Generated_Source\PSoC4/TxDmaM.h **** }
  98:Generated_Source\PSoC4/TxDmaM.h **** 
  99:Generated_Source\PSoC4/TxDmaM.h **** 
 100:Generated_Source\PSoC4/TxDmaM.h **** /*******************************************************************************
 101:Generated_Source\PSoC4/TxDmaM.h **** * Function Name: TxDmaM_ChDisable
 102:Generated_Source\PSoC4/TxDmaM.h **** ********************************************************************************
 103:Generated_Source\PSoC4/TxDmaM.h **** *
 104:Generated_Source\PSoC4/TxDmaM.h **** * Summary:
 105:Generated_Source\PSoC4/TxDmaM.h **** *  Disables the DMA channel.
 106:Generated_Source\PSoC4/TxDmaM.h **** *
 107:Generated_Source\PSoC4/TxDmaM.h **** * Parameters:
 108:Generated_Source\PSoC4/TxDmaM.h **** *  None.
 109:Generated_Source\PSoC4/TxDmaM.h **** *                   
 110:Generated_Source\PSoC4/TxDmaM.h **** * Return:
 111:Generated_Source\PSoC4/TxDmaM.h **** *  None.
 112:Generated_Source\PSoC4/TxDmaM.h **** *
 113:Generated_Source\PSoC4/TxDmaM.h **** * Side effect:
 114:Generated_Source\PSoC4/TxDmaM.h **** *  If this function is called during a DMA transfer the transfer is aborted. 
 115:Generated_Source\PSoC4/TxDmaM.h **** *
 116:Generated_Source\PSoC4/TxDmaM.h **** *******************************************************************************/
 117:Generated_Source\PSoC4/TxDmaM.h **** static CY_INLINE void TxDmaM_ChDisable(void)
 118:Generated_Source\PSoC4/TxDmaM.h **** {
ARM GAS  C:\Users\TOM~1.MCK\AppData\Local\Temp\ccudFFGk.s 			page 8


 119:Generated_Source\PSoC4/TxDmaM.h ****     CyDmaChDisable(TxDmaM_CHANNEL);
 120:Generated_Source\PSoC4/TxDmaM.h **** }
 121:Generated_Source\PSoC4/TxDmaM.h **** 
 122:Generated_Source\PSoC4/TxDmaM.h **** 
 123:Generated_Source\PSoC4/TxDmaM.h **** /*******************************************************************************
 124:Generated_Source\PSoC4/TxDmaM.h **** * Function Name: TxDmaM_Trigger
 125:Generated_Source\PSoC4/TxDmaM.h **** ********************************************************************************
 126:Generated_Source\PSoC4/TxDmaM.h **** *
 127:Generated_Source\PSoC4/TxDmaM.h **** * Summary:
 128:Generated_Source\PSoC4/TxDmaM.h **** *  Triggers the DMA channel, this is useful only for software triggers. This is
 129:Generated_Source\PSoC4/TxDmaM.h **** *  not needed when hardware triggers are used.
 130:Generated_Source\PSoC4/TxDmaM.h **** *
 131:Generated_Source\PSoC4/TxDmaM.h **** * Parameters:
 132:Generated_Source\PSoC4/TxDmaM.h **** *  None.
 133:Generated_Source\PSoC4/TxDmaM.h **** *                   
 134:Generated_Source\PSoC4/TxDmaM.h **** * Return:
 135:Generated_Source\PSoC4/TxDmaM.h **** *  None. 
 136:Generated_Source\PSoC4/TxDmaM.h **** *
 137:Generated_Source\PSoC4/TxDmaM.h **** *******************************************************************************/
 138:Generated_Source\PSoC4/TxDmaM.h **** static CY_INLINE void TxDmaM_Trigger(void)
 139:Generated_Source\PSoC4/TxDmaM.h **** {
 140:Generated_Source\PSoC4/TxDmaM.h ****     CyDmaTrigger(TxDmaM_CHANNEL);
 141:Generated_Source\PSoC4/TxDmaM.h **** }
 142:Generated_Source\PSoC4/TxDmaM.h **** 
 143:Generated_Source\PSoC4/TxDmaM.h **** 
 144:Generated_Source\PSoC4/TxDmaM.h **** /*******************************************************************************
 145:Generated_Source\PSoC4/TxDmaM.h **** * Function Name: TxDmaM_SetPriority
 146:Generated_Source\PSoC4/TxDmaM.h **** ********************************************************************************
 147:Generated_Source\PSoC4/TxDmaM.h **** *
 148:Generated_Source\PSoC4/TxDmaM.h **** * Summary:
 149:Generated_Source\PSoC4/TxDmaM.h **** *  Sets the priority for the channel.
 150:Generated_Source\PSoC4/TxDmaM.h **** *
 151:Generated_Source\PSoC4/TxDmaM.h **** * Parameters:
 152:Generated_Source\PSoC4/TxDmaM.h **** *  priority: Priority for channel. Priority can be 0,1,2, or 3.
 153:Generated_Source\PSoC4/TxDmaM.h **** *            0 is the highest priority.
 154:Generated_Source\PSoC4/TxDmaM.h **** *                   
 155:Generated_Source\PSoC4/TxDmaM.h **** * Return:
 156:Generated_Source\PSoC4/TxDmaM.h **** *  None.
 157:Generated_Source\PSoC4/TxDmaM.h **** *
 158:Generated_Source\PSoC4/TxDmaM.h **** * Side effect:
 159:Generated_Source\PSoC4/TxDmaM.h **** *  This function should not be called while the channel is enabled.
 160:Generated_Source\PSoC4/TxDmaM.h **** *
 161:Generated_Source\PSoC4/TxDmaM.h **** *******************************************************************************/
 162:Generated_Source\PSoC4/TxDmaM.h **** static CY_INLINE void TxDmaM_SetPriority(int32 priority)
 163:Generated_Source\PSoC4/TxDmaM.h **** {
 164:Generated_Source\PSoC4/TxDmaM.h ****     CyDmaSetPriority(TxDmaM_CHANNEL, priority);
 165:Generated_Source\PSoC4/TxDmaM.h **** }
 166:Generated_Source\PSoC4/TxDmaM.h **** 
 167:Generated_Source\PSoC4/TxDmaM.h **** 
 168:Generated_Source\PSoC4/TxDmaM.h **** /*******************************************************************************
 169:Generated_Source\PSoC4/TxDmaM.h **** * Function Name: TxDmaM_GetPriority
 170:Generated_Source\PSoC4/TxDmaM.h **** ********************************************************************************
 171:Generated_Source\PSoC4/TxDmaM.h **** *
 172:Generated_Source\PSoC4/TxDmaM.h **** * Summary:
 173:Generated_Source\PSoC4/TxDmaM.h **** *  Gets the priority for the channel.
 174:Generated_Source\PSoC4/TxDmaM.h **** *
 175:Generated_Source\PSoC4/TxDmaM.h **** * Parameters:
ARM GAS  C:\Users\TOM~1.MCK\AppData\Local\Temp\ccudFFGk.s 			page 9


 176:Generated_Source\PSoC4/TxDmaM.h **** *  None.
 177:Generated_Source\PSoC4/TxDmaM.h **** *                   
 178:Generated_Source\PSoC4/TxDmaM.h **** * Return:
 179:Generated_Source\PSoC4/TxDmaM.h **** *  Priority for channel. Priority can be 0,1,2, or 3. 0 is the highest priority.
 180:Generated_Source\PSoC4/TxDmaM.h **** *
 181:Generated_Source\PSoC4/TxDmaM.h **** *******************************************************************************/
 182:Generated_Source\PSoC4/TxDmaM.h **** static CY_INLINE int32 TxDmaM_GetPriority(void)
 183:Generated_Source\PSoC4/TxDmaM.h **** {
 184:Generated_Source\PSoC4/TxDmaM.h ****     return (CyDmaGetPriority(TxDmaM_CHANNEL));
 185:Generated_Source\PSoC4/TxDmaM.h **** }
 186:Generated_Source\PSoC4/TxDmaM.h **** 
 187:Generated_Source\PSoC4/TxDmaM.h **** 
 188:Generated_Source\PSoC4/TxDmaM.h **** /*******************************************************************************
 189:Generated_Source\PSoC4/TxDmaM.h **** * Function Name: TxDmaM_SetNextDescriptor
 190:Generated_Source\PSoC4/TxDmaM.h **** ********************************************************************************
 191:Generated_Source\PSoC4/TxDmaM.h **** *
 192:Generated_Source\PSoC4/TxDmaM.h **** * Summary:
 193:Generated_Source\PSoC4/TxDmaM.h **** *  Sets the descriptor that should be run the next time the channel is
 194:Generated_Source\PSoC4/TxDmaM.h **** *  triggered.
 195:Generated_Source\PSoC4/TxDmaM.h **** *
 196:Generated_Source\PSoC4/TxDmaM.h **** * Parameters:
 197:Generated_Source\PSoC4/TxDmaM.h **** *  descriptor: Next Descriptor to run (0 or 1).
 198:Generated_Source\PSoC4/TxDmaM.h **** *                   
 199:Generated_Source\PSoC4/TxDmaM.h **** * Side effect:
 200:Generated_Source\PSoC4/TxDmaM.h **** *  This function should not be called while the channel is enabled.
 201:Generated_Source\PSoC4/TxDmaM.h **** *
 202:Generated_Source\PSoC4/TxDmaM.h **** *******************************************************************************/
 203:Generated_Source\PSoC4/TxDmaM.h **** static CY_INLINE void TxDmaM_SetNextDescriptor(int32 descriptor)
 204:Generated_Source\PSoC4/TxDmaM.h **** {
 205:Generated_Source\PSoC4/TxDmaM.h ****     CyDmaSetNextDescriptor(TxDmaM_CHANNEL, descriptor);
 206:Generated_Source\PSoC4/TxDmaM.h **** }
 207:Generated_Source\PSoC4/TxDmaM.h **** 
 208:Generated_Source\PSoC4/TxDmaM.h **** 
 209:Generated_Source\PSoC4/TxDmaM.h **** /*******************************************************************************
 210:Generated_Source\PSoC4/TxDmaM.h **** * Function Name: TxDmaM_GetNextDescriptor
 211:Generated_Source\PSoC4/TxDmaM.h **** ********************************************************************************
 212:Generated_Source\PSoC4/TxDmaM.h **** *
 213:Generated_Source\PSoC4/TxDmaM.h **** * Summary:
 214:Generated_Source\PSoC4/TxDmaM.h **** *  Returns the next descriptor that should be run, as set by 
 215:Generated_Source\PSoC4/TxDmaM.h **** *  TxDmaM_SetNextDescriptor().
 216:Generated_Source\PSoC4/TxDmaM.h **** *
 217:Generated_Source\PSoC4/TxDmaM.h **** * Parameters:
 218:Generated_Source\PSoC4/TxDmaM.h **** *  None.
 219:Generated_Source\PSoC4/TxDmaM.h **** *                   
 220:Generated_Source\PSoC4/TxDmaM.h **** * Return:
 221:Generated_Source\PSoC4/TxDmaM.h **** *  Next Descriptor to run (0 or 1).
 222:Generated_Source\PSoC4/TxDmaM.h **** *
 223:Generated_Source\PSoC4/TxDmaM.h **** *******************************************************************************/
 224:Generated_Source\PSoC4/TxDmaM.h **** static CY_INLINE int32 TxDmaM_GetNextDescriptor(void)
 225:Generated_Source\PSoC4/TxDmaM.h **** {
 226:Generated_Source\PSoC4/TxDmaM.h ****     return (CyDmaGetNextDescriptor(TxDmaM_CHANNEL));
 227:Generated_Source\PSoC4/TxDmaM.h **** }
 228:Generated_Source\PSoC4/TxDmaM.h **** 
 229:Generated_Source\PSoC4/TxDmaM.h **** 
 230:Generated_Source\PSoC4/TxDmaM.h **** /*******************************************************************************
 231:Generated_Source\PSoC4/TxDmaM.h **** * Function Name: TxDmaM_SetConfiguration
 232:Generated_Source\PSoC4/TxDmaM.h **** ********************************************************************************
ARM GAS  C:\Users\TOM~1.MCK\AppData\Local\Temp\ccudFFGk.s 			page 10


 233:Generated_Source\PSoC4/TxDmaM.h **** *
 234:Generated_Source\PSoC4/TxDmaM.h **** * Summary:
 235:Generated_Source\PSoC4/TxDmaM.h **** *  Sets configuration information for the specified descriptor.
 236:Generated_Source\PSoC4/TxDmaM.h **** *
 237:Generated_Source\PSoC4/TxDmaM.h **** * Parameters:
 238:Generated_Source\PSoC4/TxDmaM.h **** *  descriptor: Descriptor (0 or 1) modified by this function.
 239:Generated_Source\PSoC4/TxDmaM.h **** *  config: Pointer to a configuration structure. Refer to cydma_init_struct
 240:Generated_Source\PSoC4/TxDmaM.h **** *          structure definition in CyDMA_P4.h or the component datasheet.
 241:Generated_Source\PSoC4/TxDmaM.h **** *                   
 242:Generated_Source\PSoC4/TxDmaM.h **** * Return:
 243:Generated_Source\PSoC4/TxDmaM.h **** *  None.
 244:Generated_Source\PSoC4/TxDmaM.h **** *
 245:Generated_Source\PSoC4/TxDmaM.h **** * Side effect:
 246:Generated_Source\PSoC4/TxDmaM.h **** *  The status register associated with the specified descriptor is reset to
 247:Generated_Source\PSoC4/TxDmaM.h **** *  zero after this function call. This function also validates the descriptor.
 248:Generated_Source\PSoC4/TxDmaM.h **** *  This function should not be called while the descriptor is active.
 249:Generated_Source\PSoC4/TxDmaM.h **** *  This can be checked by calling CyDmaGetStatus().
 250:Generated_Source\PSoC4/TxDmaM.h **** *
 251:Generated_Source\PSoC4/TxDmaM.h **** *******************************************************************************/
 252:Generated_Source\PSoC4/TxDmaM.h **** static CY_INLINE void TxDmaM_SetConfiguration(int32 descriptor, const cydma_init_struct * config)
 253:Generated_Source\PSoC4/TxDmaM.h **** {
 254:Generated_Source\PSoC4/TxDmaM.h ****     CyDmaSetConfiguration(TxDmaM_CHANNEL, descriptor, config);
 255:Generated_Source\PSoC4/TxDmaM.h **** }
 256:Generated_Source\PSoC4/TxDmaM.h **** 
 257:Generated_Source\PSoC4/TxDmaM.h **** 
 258:Generated_Source\PSoC4/TxDmaM.h **** /*******************************************************************************
 259:Generated_Source\PSoC4/TxDmaM.h **** * Function Name: TxDmaM_ValidateDescriptor
 260:Generated_Source\PSoC4/TxDmaM.h **** ********************************************************************************
 261:Generated_Source\PSoC4/TxDmaM.h **** *
 262:Generated_Source\PSoC4/TxDmaM.h **** * Summary:
 263:Generated_Source\PSoC4/TxDmaM.h **** *  Validates the specified descriptor after it has been invalidated.
 264:Generated_Source\PSoC4/TxDmaM.h **** *
 265:Generated_Source\PSoC4/TxDmaM.h **** * Parameters:
 266:Generated_Source\PSoC4/TxDmaM.h **** *  descriptor: Descriptor (0 or 1) modified by this function.
 267:Generated_Source\PSoC4/TxDmaM.h **** *                   
 268:Generated_Source\PSoC4/TxDmaM.h **** * Return:
 269:Generated_Source\PSoC4/TxDmaM.h **** *  None. 
 270:Generated_Source\PSoC4/TxDmaM.h **** *
 271:Generated_Source\PSoC4/TxDmaM.h **** * Side effect:
 272:Generated_Source\PSoC4/TxDmaM.h **** *  The status register associated with the specified descriptor is reset to
 273:Generated_Source\PSoC4/TxDmaM.h **** *  zero after this function call. This function should not be called while the
 274:Generated_Source\PSoC4/TxDmaM.h **** *  descriptor is active. This can be checked by calling CyDmaGetStatus().
 275:Generated_Source\PSoC4/TxDmaM.h **** *
 276:Generated_Source\PSoC4/TxDmaM.h **** *******************************************************************************/
 277:Generated_Source\PSoC4/TxDmaM.h **** static CY_INLINE void TxDmaM_ValidateDescriptor(int32 descriptor)
 278:Generated_Source\PSoC4/TxDmaM.h **** {
 279:Generated_Source\PSoC4/TxDmaM.h ****     CyDmaValidateDescriptor(TxDmaM_CHANNEL, descriptor);
 152              		.loc 2 279 0
 153 00b2 0220     		mov	r0, #2
 154 00b4 0021     		mov	r1, #0
 155 00b6 FFF7FEFF 		bl	CyDmaValidateDescriptor
 156              	.LVL19:
 157              	.LBE7:
 158              	.LBE6:
 159              	.LBB8:
 160              	.LBB9:
  96:Generated_Source\PSoC4/TxDmaM.h **** }
ARM GAS  C:\Users\TOM~1.MCK\AppData\Local\Temp\ccudFFGk.s 			page 11


 161              		.loc 2 96 0
 162 00ba 0220     		mov	r0, #2
 163 00bc FFF7FEFF 		bl	CyDmaChEnable
 164              	.LVL20:
 165 00c0 C1E7     		b	.L3
 166              	.L10:
 167 00c2 C046     		.align	2
 168              	.L9:
 169 00c4 00000000 		.word	.LANCHOR0
 170 00c8 41000F40 		.word	1074724929
 171 00cc 00000000 		.word	.LANCHOR1
 172 00d0 40032540 		.word	1076167488
 173 00d4 51000F40 		.word	1074724945
 174 00d8 40022540 		.word	1076167232
 175              	.LBE9:
 176              	.LBE8:
 177              		.cfi_endproc
 178              	.LFE165:
 179              		.size	main, .-main
 180              		.section	.rodata
 181              		.align	2
 182              		.set	.LANCHOR0,. + 0
 183              		.type	slaveTxBuffer, %object
 184              		.size	slaveTxBuffer, 32
 185              	slaveTxBuffer:
 186 0000 44617461 		.ascii	"Data to return by SPI Slave !!!!"
 186      20746F20 
 186      72657475 
 186      726E2062 
 186      79205350 
 187              		.type	masterTxBuffer, %object
 188              		.size	masterTxBuffer, 32
 189              	masterTxBuffer:
 190 0020 44617461 		.ascii	"Data to transmit by SPI Master !"
 190      20746F20 
 190      7472616E 
 190      736D6974 
 190      20627920 
 191              		.bss
 192              		.align	2
 193              		.set	.LANCHOR1,. + 0
 194              		.type	masterRxBuffer, %object
 195              		.size	masterRxBuffer, 32
 196              	masterRxBuffer:
 197 0000 00000000 		.space	32
 197      00000000 
 197      00000000 
 197      00000000 
 197      00000000 
 198              		.type	slaveRxBuffer, %object
 199              		.size	slaveRxBuffer, 32
 200              	slaveRxBuffer:
 201 0020 00000000 		.space	32
 201      00000000 
 201      00000000 
 201      00000000 
 201      00000000 
ARM GAS  C:\Users\TOM~1.MCK\AppData\Local\Temp\ccudFFGk.s 			page 12


 202              		.text
 203              	.Letext0:
 204              		.file 3 "Generated_Source\\PSoC4/cytypes.h"
 205              		.file 4 "c:\\program files (x86)\\cypress\\psoc creator\\3.3\\psoc creator\\import\\gnu\\arm\\4.9.
 206              		.file 5 "Generated_Source\\PSoC4/CyDMA.h"
 207              		.file 6 "Generated_Source\\PSoC4/TxDmaS.h"
 208              		.file 7 "Generated_Source\\PSoC4/SPIS.h"
 209              		.file 8 "Generated_Source\\PSoC4/SPIM.h"
 210              		.file 9 "Generated_Source\\PSoC4/SPIM_SPI_UART.h"
 211              		.file 10 "Generated_Source\\PSoC4/RxDmaM.h"
 212              		.file 11 "Generated_Source\\PSoC4/RxDmaS.h"
 213              		.file 12 "Generated_Source\\PSoC4/SUCCESS.h"
 214              		.file 13 "c:\\program files (x86)\\cypress\\psoc creator\\3.3\\psoc creator\\import\\gnu\\arm\\4.9
 215              		.file 14 "Generated_Source\\PSoC4/ERROR.h"
