ARM GAS  C:\Users\TOM~1.MCK\AppData\Local\Temp\cclpicWu.s 			page 1


   1              		.cpu cortex-m0
   2              		.fpu softvfp
   3              		.eabi_attribute 20, 1
   4              		.eabi_attribute 21, 1
   5              		.eabi_attribute 23, 3
   6              		.eabi_attribute 24, 1
   7              		.eabi_attribute 25, 1
   8              		.eabi_attribute 26, 1
   9              		.eabi_attribute 30, 1
  10              		.eabi_attribute 34, 0
  11              		.eabi_attribute 18, 4
  12              		.code	16
  13              		.file	"SPIS.c"
  14              		.text
  15              	.Ltext0:
  16              		.cfi_sections	.debug_frame
  17              		.section	.text.SPIS_Enable,"ax",%progbits
  18              		.align	2
  19              		.global	SPIS_Enable
  20              		.code	16
  21              		.thumb_func
  22              		.type	SPIS_Enable, %function
  23              	SPIS_Enable:
  24              	.LFB3:
  25              		.file 1 ".\\Generated_Source\\PSoC4\\SPIS.c"
   1:.\Generated_Source\PSoC4/SPIS.c **** /*******************************************************************************
   2:.\Generated_Source\PSoC4/SPIS.c **** * File Name: SPIS.c
   3:.\Generated_Source\PSoC4/SPIS.c **** * Version 2.70
   4:.\Generated_Source\PSoC4/SPIS.c **** *
   5:.\Generated_Source\PSoC4/SPIS.c **** * Description:
   6:.\Generated_Source\PSoC4/SPIS.c **** *  This file provides all API functionality of the SPI Slave component.
   7:.\Generated_Source\PSoC4/SPIS.c **** *
   8:.\Generated_Source\PSoC4/SPIS.c **** * Note:
   9:.\Generated_Source\PSoC4/SPIS.c **** *  None.
  10:.\Generated_Source\PSoC4/SPIS.c **** *
  11:.\Generated_Source\PSoC4/SPIS.c **** ********************************************************************************
  12:.\Generated_Source\PSoC4/SPIS.c **** * Copyright 2008-2015, Cypress Semiconductor Corporation.  All rights reserved.
  13:.\Generated_Source\PSoC4/SPIS.c **** * You may use this file only in accordance with the license, terms, conditions,
  14:.\Generated_Source\PSoC4/SPIS.c **** * disclaimers, and limitations in the end user license agreement accompanying
  15:.\Generated_Source\PSoC4/SPIS.c **** * the software package with which this file was provided.
  16:.\Generated_Source\PSoC4/SPIS.c **** *******************************************************************************/
  17:.\Generated_Source\PSoC4/SPIS.c **** 
  18:.\Generated_Source\PSoC4/SPIS.c **** #include "SPIS_PVT.h"
  19:.\Generated_Source\PSoC4/SPIS.c **** 
  20:.\Generated_Source\PSoC4/SPIS.c **** #if (SPIS_TX_SOFTWARE_BUF_ENABLED)
  21:.\Generated_Source\PSoC4/SPIS.c **** 
  22:.\Generated_Source\PSoC4/SPIS.c ****     volatile uint8 SPIS_txBuffer[SPIS_TX_BUFFER_SIZE];
  23:.\Generated_Source\PSoC4/SPIS.c ****     volatile uint8 SPIS_txBufferRead;
  24:.\Generated_Source\PSoC4/SPIS.c ****     volatile uint8 SPIS_txBufferWrite;
  25:.\Generated_Source\PSoC4/SPIS.c ****     volatile uint8 SPIS_txBufferFull;
  26:.\Generated_Source\PSoC4/SPIS.c **** 
  27:.\Generated_Source\PSoC4/SPIS.c **** #endif /* SPIS_TX_SOFTWARE_BUF_ENABLED*/
  28:.\Generated_Source\PSoC4/SPIS.c **** 
  29:.\Generated_Source\PSoC4/SPIS.c **** #if (SPIS_RX_SOFTWARE_BUF_ENABLED)
  30:.\Generated_Source\PSoC4/SPIS.c **** 
  31:.\Generated_Source\PSoC4/SPIS.c ****     volatile uint8 SPIS_rxBuffer[SPIS_RX_BUFFER_SIZE];
  32:.\Generated_Source\PSoC4/SPIS.c ****     volatile uint8 SPIS_rxBufferRead;
ARM GAS  C:\Users\TOM~1.MCK\AppData\Local\Temp\cclpicWu.s 			page 2


  33:.\Generated_Source\PSoC4/SPIS.c ****     volatile uint8 SPIS_rxBufferWrite;
  34:.\Generated_Source\PSoC4/SPIS.c ****     volatile uint8 SPIS_rxBufferFull;
  35:.\Generated_Source\PSoC4/SPIS.c **** 
  36:.\Generated_Source\PSoC4/SPIS.c **** #endif /* SPIS_RX_SOFTWARE_BUF_ENABLED */
  37:.\Generated_Source\PSoC4/SPIS.c **** 
  38:.\Generated_Source\PSoC4/SPIS.c **** uint8 SPIS_initVar = 0u;
  39:.\Generated_Source\PSoC4/SPIS.c **** 
  40:.\Generated_Source\PSoC4/SPIS.c **** volatile uint8 SPIS_swStatusTx;
  41:.\Generated_Source\PSoC4/SPIS.c **** volatile uint8 SPIS_swStatusRx;
  42:.\Generated_Source\PSoC4/SPIS.c **** 
  43:.\Generated_Source\PSoC4/SPIS.c **** 
  44:.\Generated_Source\PSoC4/SPIS.c **** /*******************************************************************************
  45:.\Generated_Source\PSoC4/SPIS.c **** * Function Name: SPIS_Init
  46:.\Generated_Source\PSoC4/SPIS.c **** ********************************************************************************
  47:.\Generated_Source\PSoC4/SPIS.c **** *
  48:.\Generated_Source\PSoC4/SPIS.c **** * Summary:
  49:.\Generated_Source\PSoC4/SPIS.c **** *  Inits/Restores default SPIS configuration provided with customizer.
  50:.\Generated_Source\PSoC4/SPIS.c **** *
  51:.\Generated_Source\PSoC4/SPIS.c **** * Parameters:
  52:.\Generated_Source\PSoC4/SPIS.c **** *  None.
  53:.\Generated_Source\PSoC4/SPIS.c **** *
  54:.\Generated_Source\PSoC4/SPIS.c **** * Return:
  55:.\Generated_Source\PSoC4/SPIS.c **** *  None.
  56:.\Generated_Source\PSoC4/SPIS.c **** *
  57:.\Generated_Source\PSoC4/SPIS.c **** * Side Effects:
  58:.\Generated_Source\PSoC4/SPIS.c **** *  When this function is called it initializes all of the necessary parameters
  59:.\Generated_Source\PSoC4/SPIS.c **** *  for execution. i.e. setting the initial interrupt mask, configuring the
  60:.\Generated_Source\PSoC4/SPIS.c **** *  interrupt service routine, configuring the bit-counter parameters and
  61:.\Generated_Source\PSoC4/SPIS.c **** *  clearing the FIFO and Status Register.
  62:.\Generated_Source\PSoC4/SPIS.c **** *
  63:.\Generated_Source\PSoC4/SPIS.c **** * Reentrant:
  64:.\Generated_Source\PSoC4/SPIS.c **** *  No.
  65:.\Generated_Source\PSoC4/SPIS.c **** *
  66:.\Generated_Source\PSoC4/SPIS.c **** *******************************************************************************/
  67:.\Generated_Source\PSoC4/SPIS.c **** void SPIS_Init(void) 
  68:.\Generated_Source\PSoC4/SPIS.c **** {
  69:.\Generated_Source\PSoC4/SPIS.c ****     /*Initialize the Bit counter */
  70:.\Generated_Source\PSoC4/SPIS.c ****     SPIS_COUNTER_PERIOD_REG = SPIS_BITCTR_INIT;
  71:.\Generated_Source\PSoC4/SPIS.c **** 
  72:.\Generated_Source\PSoC4/SPIS.c ****     /* ISR initialization */
  73:.\Generated_Source\PSoC4/SPIS.c ****     #if(SPIS_INTERNAL_TX_INT_ENABLED)
  74:.\Generated_Source\PSoC4/SPIS.c **** 
  75:.\Generated_Source\PSoC4/SPIS.c ****         CyIntDisable(SPIS_TX_ISR_NUMBER);
  76:.\Generated_Source\PSoC4/SPIS.c **** 
  77:.\Generated_Source\PSoC4/SPIS.c ****         /* Set the ISR to point to the SPIS_isr Interrupt. */
  78:.\Generated_Source\PSoC4/SPIS.c ****         (void)CyIntSetVector(SPIS_TX_ISR_NUMBER, &SPIS_TX_ISR);
  79:.\Generated_Source\PSoC4/SPIS.c **** 
  80:.\Generated_Source\PSoC4/SPIS.c ****         /* Set the priority. */
  81:.\Generated_Source\PSoC4/SPIS.c ****         CyIntSetPriority(SPIS_TX_ISR_NUMBER, SPIS_TX_ISR_PRIORITY);
  82:.\Generated_Source\PSoC4/SPIS.c **** 
  83:.\Generated_Source\PSoC4/SPIS.c ****     #endif /* SPIS_INTERNAL_TX_INT_ENABLED */
  84:.\Generated_Source\PSoC4/SPIS.c **** 
  85:.\Generated_Source\PSoC4/SPIS.c ****     #if(SPIS_INTERNAL_RX_INT_ENABLED)
  86:.\Generated_Source\PSoC4/SPIS.c **** 
  87:.\Generated_Source\PSoC4/SPIS.c ****         CyIntDisable(SPIS_RX_ISR_NUMBER);
  88:.\Generated_Source\PSoC4/SPIS.c **** 
  89:.\Generated_Source\PSoC4/SPIS.c ****         /* Set the ISR to point to the SPIS_isr Interrupt. */
ARM GAS  C:\Users\TOM~1.MCK\AppData\Local\Temp\cclpicWu.s 			page 3


  90:.\Generated_Source\PSoC4/SPIS.c ****         (void)CyIntSetVector(SPIS_RX_ISR_NUMBER, &SPIS_RX_ISR);
  91:.\Generated_Source\PSoC4/SPIS.c **** 
  92:.\Generated_Source\PSoC4/SPIS.c ****         /* Set the priority. */
  93:.\Generated_Source\PSoC4/SPIS.c ****         CyIntSetPriority(SPIS_RX_ISR_NUMBER, SPIS_RX_ISR_PRIORITY);
  94:.\Generated_Source\PSoC4/SPIS.c **** 
  95:.\Generated_Source\PSoC4/SPIS.c ****     #endif /* SPIS_INTERNAL_RX_INT_ENABLED */
  96:.\Generated_Source\PSoC4/SPIS.c **** 
  97:.\Generated_Source\PSoC4/SPIS.c ****     /* Clear any stray data from the RX and TX FIFO */
  98:.\Generated_Source\PSoC4/SPIS.c ****     SPIS_ClearFIFO();
  99:.\Generated_Source\PSoC4/SPIS.c **** 
 100:.\Generated_Source\PSoC4/SPIS.c ****     #if(SPIS_RX_SOFTWARE_BUF_ENABLED)
 101:.\Generated_Source\PSoC4/SPIS.c ****         SPIS_rxBufferFull = 0u;
 102:.\Generated_Source\PSoC4/SPIS.c ****         SPIS_rxBufferRead = 0u;
 103:.\Generated_Source\PSoC4/SPIS.c ****         SPIS_rxBufferWrite = 0u;
 104:.\Generated_Source\PSoC4/SPIS.c ****     #endif /* SPIS_RX_SOFTWARE_BUF_ENABLED */
 105:.\Generated_Source\PSoC4/SPIS.c **** 
 106:.\Generated_Source\PSoC4/SPIS.c ****     #if(SPIS_TX_SOFTWARE_BUF_ENABLED)
 107:.\Generated_Source\PSoC4/SPIS.c ****         SPIS_txBufferFull = 0u;
 108:.\Generated_Source\PSoC4/SPIS.c ****         SPIS_txBufferRead = 0u;
 109:.\Generated_Source\PSoC4/SPIS.c ****         SPIS_txBufferWrite = 0u;
 110:.\Generated_Source\PSoC4/SPIS.c ****     #endif /* SPIS_TX_SOFTWARE_BUF_ENABLED */
 111:.\Generated_Source\PSoC4/SPIS.c **** 
 112:.\Generated_Source\PSoC4/SPIS.c ****     (void) SPIS_ReadTxStatus(); /* Clear any pending status bits */
 113:.\Generated_Source\PSoC4/SPIS.c ****     (void) SPIS_ReadRxStatus(); /* Clear any pending status bits */
 114:.\Generated_Source\PSoC4/SPIS.c **** 
 115:.\Generated_Source\PSoC4/SPIS.c **** 
 116:.\Generated_Source\PSoC4/SPIS.c ****     /* Configure the Initial interrupt mask */
 117:.\Generated_Source\PSoC4/SPIS.c ****     #if (SPIS_TX_SOFTWARE_BUF_ENABLED)
 118:.\Generated_Source\PSoC4/SPIS.c ****         SPIS_TX_STATUS_MASK_REG  = (SPIS_TX_INIT_INTERRUPTS_MASK &
 119:.\Generated_Source\PSoC4/SPIS.c ****                                                 (uint8)~SPIS_STS_TX_FIFO_NOT_FULL);
 120:.\Generated_Source\PSoC4/SPIS.c ****     #else /* SPIS_TX_SOFTWARE_BUF_ENABLED */
 121:.\Generated_Source\PSoC4/SPIS.c ****         SPIS_TX_STATUS_MASK_REG  = SPIS_TX_INIT_INTERRUPTS_MASK;
 122:.\Generated_Source\PSoC4/SPIS.c ****     #endif /* SPIS_TX_SOFTWARE_BUF_ENABLED */
 123:.\Generated_Source\PSoC4/SPIS.c **** 
 124:.\Generated_Source\PSoC4/SPIS.c ****     SPIS_RX_STATUS_MASK_REG  = SPIS_RX_INIT_INTERRUPTS_MASK;
 125:.\Generated_Source\PSoC4/SPIS.c **** }
 126:.\Generated_Source\PSoC4/SPIS.c **** 
 127:.\Generated_Source\PSoC4/SPIS.c **** 
 128:.\Generated_Source\PSoC4/SPIS.c **** /*******************************************************************************
 129:.\Generated_Source\PSoC4/SPIS.c **** * Function Name: SPIS_Enable
 130:.\Generated_Source\PSoC4/SPIS.c **** ********************************************************************************
 131:.\Generated_Source\PSoC4/SPIS.c **** *
 132:.\Generated_Source\PSoC4/SPIS.c **** * Summary:
 133:.\Generated_Source\PSoC4/SPIS.c **** *  Enable SPIS component.
 134:.\Generated_Source\PSoC4/SPIS.c **** *
 135:.\Generated_Source\PSoC4/SPIS.c **** * Parameters:
 136:.\Generated_Source\PSoC4/SPIS.c **** *  None.
 137:.\Generated_Source\PSoC4/SPIS.c **** *
 138:.\Generated_Source\PSoC4/SPIS.c **** * Return:
 139:.\Generated_Source\PSoC4/SPIS.c **** *  None.
 140:.\Generated_Source\PSoC4/SPIS.c **** *
 141:.\Generated_Source\PSoC4/SPIS.c **** *******************************************************************************/
 142:.\Generated_Source\PSoC4/SPIS.c **** void SPIS_Enable(void) 
 143:.\Generated_Source\PSoC4/SPIS.c **** {
  26              		.loc 1 143 0
  27              		.cfi_startproc
  28 0000 08B5     		push	{r3, lr}
ARM GAS  C:\Users\TOM~1.MCK\AppData\Local\Temp\cclpicWu.s 			page 4


  29              		.cfi_def_cfa_offset 8
  30              		.cfi_offset 3, -8
  31              		.cfi_offset 14, -4
 144:.\Generated_Source\PSoC4/SPIS.c ****     uint8 enableInterrupts;
 145:.\Generated_Source\PSoC4/SPIS.c ****     enableInterrupts = CyEnterCriticalSection();
  32              		.loc 1 145 0
  33 0002 FFF7FEFF 		bl	CyEnterCriticalSection
  34              	.LVL0:
 146:.\Generated_Source\PSoC4/SPIS.c **** 
 147:.\Generated_Source\PSoC4/SPIS.c ****     SPIS_COUNTER_CONTROL_REG |= SPIS_CNTR_ENABLE;
  35              		.loc 1 147 0
  36 0006 094A     		ldr	r2, .L2
  37 0008 1178     		ldrb	r1, [r2]
  38 000a 2023     		mov	r3, #32
  39 000c 0B43     		orr	r3, r1
  40 000e 1370     		strb	r3, [r2]
 148:.\Generated_Source\PSoC4/SPIS.c ****     SPIS_TX_STATUS_ACTL_REG |= SPIS_INT_ENABLE;
  41              		.loc 1 148 0
  42 0010 0749     		ldr	r1, .L2+4
  43 0012 0A78     		ldrb	r2, [r1]
  44 0014 1023     		mov	r3, #16
  45 0016 1A43     		orr	r2, r3
  46 0018 D2B2     		uxtb	r2, r2
  47 001a 0A70     		strb	r2, [r1]
 149:.\Generated_Source\PSoC4/SPIS.c ****     SPIS_RX_STATUS_ACTL_REG |= SPIS_INT_ENABLE;
  48              		.loc 1 149 0
  49 001c 054A     		ldr	r2, .L2+8
  50 001e 1178     		ldrb	r1, [r2]
  51 0020 0B43     		orr	r3, r1
  52 0022 DBB2     		uxtb	r3, r3
  53 0024 1370     		strb	r3, [r2]
 150:.\Generated_Source\PSoC4/SPIS.c **** 
 151:.\Generated_Source\PSoC4/SPIS.c ****     CyExitCriticalSection(enableInterrupts);
  54              		.loc 1 151 0
  55 0026 FFF7FEFF 		bl	CyExitCriticalSection
  56              	.LVL1:
 152:.\Generated_Source\PSoC4/SPIS.c **** 
 153:.\Generated_Source\PSoC4/SPIS.c ****     #if(SPIS_INTERNAL_TX_INT_ENABLED)
 154:.\Generated_Source\PSoC4/SPIS.c ****         CyIntEnable(SPIS_TX_ISR_NUMBER);
 155:.\Generated_Source\PSoC4/SPIS.c ****     #endif /* SPIS_INTERNAL_TX_INT_ENABLED */
 156:.\Generated_Source\PSoC4/SPIS.c **** 
 157:.\Generated_Source\PSoC4/SPIS.c ****     #if(SPIS_INTERNAL_RX_INT_ENABLED)
 158:.\Generated_Source\PSoC4/SPIS.c ****         CyIntEnable(SPIS_RX_ISR_NUMBER);
 159:.\Generated_Source\PSoC4/SPIS.c ****     #endif /* SPIS_INTERNAL_RX_INT_ENABLED */
 160:.\Generated_Source\PSoC4/SPIS.c **** }
  57              		.loc 1 160 0
  58              		@ sp needed
  59 002a 08BD     		pop	{r3, pc}
  60              	.L3:
  61              		.align	2
  62              	.L2:
  63 002c 92000F40 		.word	1074725010
  64 0030 93000F40 		.word	1074725011
  65 0034 90000F40 		.word	1074725008
  66              		.cfi_endproc
  67              	.LFE3:
  68              		.size	SPIS_Enable, .-SPIS_Enable
ARM GAS  C:\Users\TOM~1.MCK\AppData\Local\Temp\cclpicWu.s 			page 5


  69              		.section	.text.SPIS_Stop,"ax",%progbits
  70              		.align	2
  71              		.global	SPIS_Stop
  72              		.code	16
  73              		.thumb_func
  74              		.type	SPIS_Stop, %function
  75              	SPIS_Stop:
  76              	.LFB5:
 161:.\Generated_Source\PSoC4/SPIS.c **** 
 162:.\Generated_Source\PSoC4/SPIS.c **** 
 163:.\Generated_Source\PSoC4/SPIS.c **** /*******************************************************************************
 164:.\Generated_Source\PSoC4/SPIS.c **** * Function Name: SPIS_Start
 165:.\Generated_Source\PSoC4/SPIS.c **** ********************************************************************************
 166:.\Generated_Source\PSoC4/SPIS.c **** *
 167:.\Generated_Source\PSoC4/SPIS.c **** * Summary:
 168:.\Generated_Source\PSoC4/SPIS.c **** *  Initialize and Enable the SPI Slave component.
 169:.\Generated_Source\PSoC4/SPIS.c **** *
 170:.\Generated_Source\PSoC4/SPIS.c **** * Parameters:
 171:.\Generated_Source\PSoC4/SPIS.c **** *  None.
 172:.\Generated_Source\PSoC4/SPIS.c **** *
 173:.\Generated_Source\PSoC4/SPIS.c **** * Return:
 174:.\Generated_Source\PSoC4/SPIS.c **** *  None.
 175:.\Generated_Source\PSoC4/SPIS.c **** *
 176:.\Generated_Source\PSoC4/SPIS.c **** * Global variables:
 177:.\Generated_Source\PSoC4/SPIS.c **** *  SPIS_initVar - used to check initial configuration, modified on
 178:.\Generated_Source\PSoC4/SPIS.c **** *  first function call.
 179:.\Generated_Source\PSoC4/SPIS.c **** *
 180:.\Generated_Source\PSoC4/SPIS.c **** * Theory:
 181:.\Generated_Source\PSoC4/SPIS.c **** *  Enable the clock input to enable operation.
 182:.\Generated_Source\PSoC4/SPIS.c **** *
 183:.\Generated_Source\PSoC4/SPIS.c **** * Reentrant:
 184:.\Generated_Source\PSoC4/SPIS.c **** *  No.
 185:.\Generated_Source\PSoC4/SPIS.c **** *
 186:.\Generated_Source\PSoC4/SPIS.c **** *******************************************************************************/
 187:.\Generated_Source\PSoC4/SPIS.c **** void SPIS_Start(void) 
 188:.\Generated_Source\PSoC4/SPIS.c **** {
 189:.\Generated_Source\PSoC4/SPIS.c ****     if(SPIS_initVar == 0u)
 190:.\Generated_Source\PSoC4/SPIS.c ****     {
 191:.\Generated_Source\PSoC4/SPIS.c ****         SPIS_Init();
 192:.\Generated_Source\PSoC4/SPIS.c ****         SPIS_initVar = 1u;
 193:.\Generated_Source\PSoC4/SPIS.c ****     }
 194:.\Generated_Source\PSoC4/SPIS.c **** 
 195:.\Generated_Source\PSoC4/SPIS.c ****     SPIS_Enable();
 196:.\Generated_Source\PSoC4/SPIS.c **** }
 197:.\Generated_Source\PSoC4/SPIS.c **** 
 198:.\Generated_Source\PSoC4/SPIS.c **** 
 199:.\Generated_Source\PSoC4/SPIS.c **** /*******************************************************************************
 200:.\Generated_Source\PSoC4/SPIS.c **** * Function Name: SPIS_Stop
 201:.\Generated_Source\PSoC4/SPIS.c **** ********************************************************************************
 202:.\Generated_Source\PSoC4/SPIS.c **** *
 203:.\Generated_Source\PSoC4/SPIS.c **** * Summary:
 204:.\Generated_Source\PSoC4/SPIS.c **** *  Disable the SPI Slave component.
 205:.\Generated_Source\PSoC4/SPIS.c **** *
 206:.\Generated_Source\PSoC4/SPIS.c **** * Parameters:
 207:.\Generated_Source\PSoC4/SPIS.c **** *  None.
 208:.\Generated_Source\PSoC4/SPIS.c **** *
 209:.\Generated_Source\PSoC4/SPIS.c **** * Return:
ARM GAS  C:\Users\TOM~1.MCK\AppData\Local\Temp\cclpicWu.s 			page 6


 210:.\Generated_Source\PSoC4/SPIS.c **** *  None.
 211:.\Generated_Source\PSoC4/SPIS.c **** *
 212:.\Generated_Source\PSoC4/SPIS.c **** * Theory:
 213:.\Generated_Source\PSoC4/SPIS.c **** *  Disable the internal interrupt if one is used.
 214:.\Generated_Source\PSoC4/SPIS.c **** *
 215:.\Generated_Source\PSoC4/SPIS.c **** *******************************************************************************/
 216:.\Generated_Source\PSoC4/SPIS.c **** void SPIS_Stop(void) 
 217:.\Generated_Source\PSoC4/SPIS.c **** {
  77              		.loc 1 217 0
  78              		.cfi_startproc
  79 0000 08B5     		push	{r3, lr}
  80              		.cfi_def_cfa_offset 8
  81              		.cfi_offset 3, -8
  82              		.cfi_offset 14, -4
 218:.\Generated_Source\PSoC4/SPIS.c ****     uint8 enableInterrupts;
 219:.\Generated_Source\PSoC4/SPIS.c ****     enableInterrupts = CyEnterCriticalSection();
  83              		.loc 1 219 0
  84 0002 FFF7FEFF 		bl	CyEnterCriticalSection
  85              	.LVL2:
 220:.\Generated_Source\PSoC4/SPIS.c **** 
 221:.\Generated_Source\PSoC4/SPIS.c ****     SPIS_TX_STATUS_ACTL_REG &= (uint8)~SPIS_INT_ENABLE;
  86              		.loc 1 221 0
  87 0006 064A     		ldr	r2, .L5
  88 0008 1378     		ldrb	r3, [r2]
  89 000a 1021     		mov	r1, #16
  90 000c 8B43     		bic	r3, r1
  91 000e 1370     		strb	r3, [r2]
 222:.\Generated_Source\PSoC4/SPIS.c ****     SPIS_RX_STATUS_ACTL_REG &= (uint8)~SPIS_INT_ENABLE;
  92              		.loc 1 222 0
  93 0010 044A     		ldr	r2, .L5+4
  94 0012 1378     		ldrb	r3, [r2]
  95 0014 8B43     		bic	r3, r1
  96 0016 1370     		strb	r3, [r2]
 223:.\Generated_Source\PSoC4/SPIS.c **** 
 224:.\Generated_Source\PSoC4/SPIS.c ****     CyExitCriticalSection(enableInterrupts);
  97              		.loc 1 224 0
  98 0018 FFF7FEFF 		bl	CyExitCriticalSection
  99              	.LVL3:
 225:.\Generated_Source\PSoC4/SPIS.c **** 
 226:.\Generated_Source\PSoC4/SPIS.c ****     #if(SPIS_INTERNAL_TX_INT_ENABLED)
 227:.\Generated_Source\PSoC4/SPIS.c ****         CyIntDisable(SPIS_TX_ISR_NUMBER);
 228:.\Generated_Source\PSoC4/SPIS.c ****     #endif /* SPIS_INTERNAL_TX_INT_ENABLED */
 229:.\Generated_Source\PSoC4/SPIS.c **** 
 230:.\Generated_Source\PSoC4/SPIS.c ****     #if(SPIS_INTERNAL_RX_INT_ENABLED)
 231:.\Generated_Source\PSoC4/SPIS.c ****         CyIntDisable(SPIS_RX_ISR_NUMBER);
 232:.\Generated_Source\PSoC4/SPIS.c ****     #endif /* SPIS_INTERNAL_RX_INT_ENABLED */
 233:.\Generated_Source\PSoC4/SPIS.c **** }
 100              		.loc 1 233 0
 101              		@ sp needed
 102 001c 08BD     		pop	{r3, pc}
 103              	.L6:
 104 001e C046     		.align	2
 105              	.L5:
 106 0020 93000F40 		.word	1074725011
 107 0024 90000F40 		.word	1074725008
 108              		.cfi_endproc
 109              	.LFE5:
ARM GAS  C:\Users\TOM~1.MCK\AppData\Local\Temp\cclpicWu.s 			page 7


 110              		.size	SPIS_Stop, .-SPIS_Stop
 111              		.section	.text.SPIS_EnableTxInt,"ax",%progbits
 112              		.align	2
 113              		.global	SPIS_EnableTxInt
 114              		.code	16
 115              		.thumb_func
 116              		.type	SPIS_EnableTxInt, %function
 117              	SPIS_EnableTxInt:
 118              	.LFB6:
 234:.\Generated_Source\PSoC4/SPIS.c **** 
 235:.\Generated_Source\PSoC4/SPIS.c **** 
 236:.\Generated_Source\PSoC4/SPIS.c **** /*******************************************************************************
 237:.\Generated_Source\PSoC4/SPIS.c **** * Function Name: SPIS_EnableTxInt
 238:.\Generated_Source\PSoC4/SPIS.c **** ********************************************************************************
 239:.\Generated_Source\PSoC4/SPIS.c **** *
 240:.\Generated_Source\PSoC4/SPIS.c **** * Summary:
 241:.\Generated_Source\PSoC4/SPIS.c **** *  Enable internal Tx interrupt generation.
 242:.\Generated_Source\PSoC4/SPIS.c **** *
 243:.\Generated_Source\PSoC4/SPIS.c **** * Parameters:
 244:.\Generated_Source\PSoC4/SPIS.c **** *  None.
 245:.\Generated_Source\PSoC4/SPIS.c **** *
 246:.\Generated_Source\PSoC4/SPIS.c **** * Return:
 247:.\Generated_Source\PSoC4/SPIS.c **** *  None.
 248:.\Generated_Source\PSoC4/SPIS.c **** *
 249:.\Generated_Source\PSoC4/SPIS.c **** * Theory:
 250:.\Generated_Source\PSoC4/SPIS.c **** *  Enable the internal Tx interrupt output -or- the interrupt component itself.
 251:.\Generated_Source\PSoC4/SPIS.c **** *
 252:.\Generated_Source\PSoC4/SPIS.c **** *******************************************************************************/
 253:.\Generated_Source\PSoC4/SPIS.c **** void SPIS_EnableTxInt(void) 
 254:.\Generated_Source\PSoC4/SPIS.c **** {
 119              		.loc 1 254 0
 120              		.cfi_startproc
 255:.\Generated_Source\PSoC4/SPIS.c ****     #if(SPIS_INTERNAL_TX_INT_ENABLED)
 256:.\Generated_Source\PSoC4/SPIS.c ****         CyIntEnable(SPIS_TX_ISR_NUMBER);
 257:.\Generated_Source\PSoC4/SPIS.c ****     #endif /* SPIS_INTERNAL_TX_INT_ENABLED */
 258:.\Generated_Source\PSoC4/SPIS.c **** }
 121              		.loc 1 258 0
 122              		@ sp needed
 123 0000 7047     		bx	lr
 124              		.cfi_endproc
 125              	.LFE6:
 126              		.size	SPIS_EnableTxInt, .-SPIS_EnableTxInt
 127 0002 C046     		.section	.text.SPIS_EnableRxInt,"ax",%progbits
 128              		.align	2
 129              		.global	SPIS_EnableRxInt
 130              		.code	16
 131              		.thumb_func
 132              		.type	SPIS_EnableRxInt, %function
 133              	SPIS_EnableRxInt:
 134              	.LFB7:
 259:.\Generated_Source\PSoC4/SPIS.c **** 
 260:.\Generated_Source\PSoC4/SPIS.c **** 
 261:.\Generated_Source\PSoC4/SPIS.c **** /*******************************************************************************
 262:.\Generated_Source\PSoC4/SPIS.c **** * Function Name: SPIS_EnableRxInt
 263:.\Generated_Source\PSoC4/SPIS.c **** ********************************************************************************
 264:.\Generated_Source\PSoC4/SPIS.c **** *
 265:.\Generated_Source\PSoC4/SPIS.c **** * Summary:
ARM GAS  C:\Users\TOM~1.MCK\AppData\Local\Temp\cclpicWu.s 			page 8


 266:.\Generated_Source\PSoC4/SPIS.c **** *  Enable internal Rx interrupt generation.
 267:.\Generated_Source\PSoC4/SPIS.c **** *
 268:.\Generated_Source\PSoC4/SPIS.c **** * Parameters:
 269:.\Generated_Source\PSoC4/SPIS.c **** *  None.
 270:.\Generated_Source\PSoC4/SPIS.c **** *
 271:.\Generated_Source\PSoC4/SPIS.c **** * Return:
 272:.\Generated_Source\PSoC4/SPIS.c **** *  None.
 273:.\Generated_Source\PSoC4/SPIS.c **** *
 274:.\Generated_Source\PSoC4/SPIS.c **** * Theory:
 275:.\Generated_Source\PSoC4/SPIS.c **** *  Enable the internal Rx interrupt output -or- the interrupt component itself.
 276:.\Generated_Source\PSoC4/SPIS.c **** *
 277:.\Generated_Source\PSoC4/SPIS.c **** *******************************************************************************/
 278:.\Generated_Source\PSoC4/SPIS.c **** void SPIS_EnableRxInt(void) 
 279:.\Generated_Source\PSoC4/SPIS.c **** {
 135              		.loc 1 279 0
 136              		.cfi_startproc
 280:.\Generated_Source\PSoC4/SPIS.c ****     #if(SPIS_INTERNAL_RX_INT_ENABLED)
 281:.\Generated_Source\PSoC4/SPIS.c ****         CyIntEnable(SPIS_RX_ISR_NUMBER);
 282:.\Generated_Source\PSoC4/SPIS.c ****     #endif /* SPIS_INTERNAL_RX_INT_ENABLED */
 283:.\Generated_Source\PSoC4/SPIS.c **** }
 137              		.loc 1 283 0
 138              		@ sp needed
 139 0000 7047     		bx	lr
 140              		.cfi_endproc
 141              	.LFE7:
 142              		.size	SPIS_EnableRxInt, .-SPIS_EnableRxInt
 143 0002 C046     		.section	.text.SPIS_DisableTxInt,"ax",%progbits
 144              		.align	2
 145              		.global	SPIS_DisableTxInt
 146              		.code	16
 147              		.thumb_func
 148              		.type	SPIS_DisableTxInt, %function
 149              	SPIS_DisableTxInt:
 150              	.LFB8:
 284:.\Generated_Source\PSoC4/SPIS.c **** 
 285:.\Generated_Source\PSoC4/SPIS.c **** 
 286:.\Generated_Source\PSoC4/SPIS.c **** /*******************************************************************************
 287:.\Generated_Source\PSoC4/SPIS.c **** * Function Name: SPIS_DisableTxInt
 288:.\Generated_Source\PSoC4/SPIS.c **** ********************************************************************************
 289:.\Generated_Source\PSoC4/SPIS.c **** *
 290:.\Generated_Source\PSoC4/SPIS.c **** * Summary:
 291:.\Generated_Source\PSoC4/SPIS.c **** *  Disable internal Tx interrupt generation.
 292:.\Generated_Source\PSoC4/SPIS.c **** *
 293:.\Generated_Source\PSoC4/SPIS.c **** * Parameters:
 294:.\Generated_Source\PSoC4/SPIS.c **** *  None.
 295:.\Generated_Source\PSoC4/SPIS.c **** *
 296:.\Generated_Source\PSoC4/SPIS.c **** * Return:
 297:.\Generated_Source\PSoC4/SPIS.c **** *  None.
 298:.\Generated_Source\PSoC4/SPIS.c **** *
 299:.\Generated_Source\PSoC4/SPIS.c **** * Theory:
 300:.\Generated_Source\PSoC4/SPIS.c **** *  Disable the internal Tx interrupt output -or- the interrupt component itself.
 301:.\Generated_Source\PSoC4/SPIS.c **** *
 302:.\Generated_Source\PSoC4/SPIS.c **** *******************************************************************************/
 303:.\Generated_Source\PSoC4/SPIS.c **** void SPIS_DisableTxInt(void) 
 304:.\Generated_Source\PSoC4/SPIS.c **** {
 151              		.loc 1 304 0
 152              		.cfi_startproc
ARM GAS  C:\Users\TOM~1.MCK\AppData\Local\Temp\cclpicWu.s 			page 9


 305:.\Generated_Source\PSoC4/SPIS.c ****     #if(SPIS_INTERNAL_TX_INT_ENABLED)
 306:.\Generated_Source\PSoC4/SPIS.c ****         CyIntDisable(SPIS_TX_ISR_NUMBER);
 307:.\Generated_Source\PSoC4/SPIS.c ****     #endif /* SPIS_INTERNAL_TX_INT_ENABLED */
 308:.\Generated_Source\PSoC4/SPIS.c **** }
 153              		.loc 1 308 0
 154              		@ sp needed
 155 0000 7047     		bx	lr
 156              		.cfi_endproc
 157              	.LFE8:
 158              		.size	SPIS_DisableTxInt, .-SPIS_DisableTxInt
 159 0002 C046     		.section	.text.SPIS_DisableRxInt,"ax",%progbits
 160              		.align	2
 161              		.global	SPIS_DisableRxInt
 162              		.code	16
 163              		.thumb_func
 164              		.type	SPIS_DisableRxInt, %function
 165              	SPIS_DisableRxInt:
 166              	.LFB9:
 309:.\Generated_Source\PSoC4/SPIS.c **** 
 310:.\Generated_Source\PSoC4/SPIS.c **** 
 311:.\Generated_Source\PSoC4/SPIS.c **** /*******************************************************************************
 312:.\Generated_Source\PSoC4/SPIS.c **** * Function Name: SPIS_DisableRxInt
 313:.\Generated_Source\PSoC4/SPIS.c **** ********************************************************************************
 314:.\Generated_Source\PSoC4/SPIS.c **** *
 315:.\Generated_Source\PSoC4/SPIS.c **** * Summary:
 316:.\Generated_Source\PSoC4/SPIS.c **** *  Disable internal Rx interrupt generation.
 317:.\Generated_Source\PSoC4/SPIS.c **** *
 318:.\Generated_Source\PSoC4/SPIS.c **** * Parameters:
 319:.\Generated_Source\PSoC4/SPIS.c **** *  None.
 320:.\Generated_Source\PSoC4/SPIS.c **** *
 321:.\Generated_Source\PSoC4/SPIS.c **** * Return:
 322:.\Generated_Source\PSoC4/SPIS.c **** *  None.
 323:.\Generated_Source\PSoC4/SPIS.c **** *
 324:.\Generated_Source\PSoC4/SPIS.c **** * Theory:
 325:.\Generated_Source\PSoC4/SPIS.c **** *  Disable the internal Rx interrupt output -or- the interrupt component itself.
 326:.\Generated_Source\PSoC4/SPIS.c **** *
 327:.\Generated_Source\PSoC4/SPIS.c **** *******************************************************************************/
 328:.\Generated_Source\PSoC4/SPIS.c **** void SPIS_DisableRxInt(void) 
 329:.\Generated_Source\PSoC4/SPIS.c **** {
 167              		.loc 1 329 0
 168              		.cfi_startproc
 330:.\Generated_Source\PSoC4/SPIS.c ****     #if(SPIS_INTERNAL_RX_INT_ENABLED)
 331:.\Generated_Source\PSoC4/SPIS.c ****         CyIntDisable(SPIS_RX_ISR_NUMBER);
 332:.\Generated_Source\PSoC4/SPIS.c ****     #endif /* SPIS_INTERNAL_RX_INT_ENABLED */
 333:.\Generated_Source\PSoC4/SPIS.c **** }
 169              		.loc 1 333 0
 170              		@ sp needed
 171 0000 7047     		bx	lr
 172              		.cfi_endproc
 173              	.LFE9:
 174              		.size	SPIS_DisableRxInt, .-SPIS_DisableRxInt
 175 0002 C046     		.section	.text.SPIS_SetTxInterruptMode,"ax",%progbits
 176              		.align	2
 177              		.global	SPIS_SetTxInterruptMode
 178              		.code	16
 179              		.thumb_func
 180              		.type	SPIS_SetTxInterruptMode, %function
ARM GAS  C:\Users\TOM~1.MCK\AppData\Local\Temp\cclpicWu.s 			page 10


 181              	SPIS_SetTxInterruptMode:
 182              	.LFB10:
 334:.\Generated_Source\PSoC4/SPIS.c **** 
 335:.\Generated_Source\PSoC4/SPIS.c **** 
 336:.\Generated_Source\PSoC4/SPIS.c **** /*******************************************************************************
 337:.\Generated_Source\PSoC4/SPIS.c **** * Function Name: SPIS_SetTxInterruptMode
 338:.\Generated_Source\PSoC4/SPIS.c **** ********************************************************************************
 339:.\Generated_Source\PSoC4/SPIS.c **** *
 340:.\Generated_Source\PSoC4/SPIS.c **** * Summary:
 341:.\Generated_Source\PSoC4/SPIS.c **** *  Configure which status bits trigger an interrupt event.
 342:.\Generated_Source\PSoC4/SPIS.c **** *
 343:.\Generated_Source\PSoC4/SPIS.c **** * Parameters:
 344:.\Generated_Source\PSoC4/SPIS.c **** *  intSrc: An or'd combination of the desired status bit masks (defined in the
 345:.\Generated_Source\PSoC4/SPIS.c **** *  header file).
 346:.\Generated_Source\PSoC4/SPIS.c **** *
 347:.\Generated_Source\PSoC4/SPIS.c **** * Return:
 348:.\Generated_Source\PSoC4/SPIS.c **** *  None.
 349:.\Generated_Source\PSoC4/SPIS.c **** *
 350:.\Generated_Source\PSoC4/SPIS.c **** * Theory:
 351:.\Generated_Source\PSoC4/SPIS.c **** *  Enables the output of specific status bits to the interrupt controller.
 352:.\Generated_Source\PSoC4/SPIS.c **** *
 353:.\Generated_Source\PSoC4/SPIS.c **** *******************************************************************************/
 354:.\Generated_Source\PSoC4/SPIS.c **** void SPIS_SetTxInterruptMode(uint8 intSrc) 
 355:.\Generated_Source\PSoC4/SPIS.c **** {
 183              		.loc 1 355 0
 184              		.cfi_startproc
 185              	.LVL4:
 356:.\Generated_Source\PSoC4/SPIS.c ****     SPIS_TX_STATUS_MASK_REG  = intSrc;
 186              		.loc 1 356 0
 187 0000 014B     		ldr	r3, .L12
 188 0002 1870     		strb	r0, [r3]
 357:.\Generated_Source\PSoC4/SPIS.c **** }
 189              		.loc 1 357 0
 190              		@ sp needed
 191 0004 7047     		bx	lr
 192              	.L13:
 193 0006 C046     		.align	2
 194              	.L12:
 195 0008 83000F40 		.word	1074724995
 196              		.cfi_endproc
 197              	.LFE10:
 198              		.size	SPIS_SetTxInterruptMode, .-SPIS_SetTxInterruptMode
 199              		.section	.text.SPIS_SetRxInterruptMode,"ax",%progbits
 200              		.align	2
 201              		.global	SPIS_SetRxInterruptMode
 202              		.code	16
 203              		.thumb_func
 204              		.type	SPIS_SetRxInterruptMode, %function
 205              	SPIS_SetRxInterruptMode:
 206              	.LFB11:
 358:.\Generated_Source\PSoC4/SPIS.c **** 
 359:.\Generated_Source\PSoC4/SPIS.c **** 
 360:.\Generated_Source\PSoC4/SPIS.c **** /*******************************************************************************
 361:.\Generated_Source\PSoC4/SPIS.c **** * Function Name: SPIS_SetRxInterruptMode
 362:.\Generated_Source\PSoC4/SPIS.c **** ********************************************************************************
 363:.\Generated_Source\PSoC4/SPIS.c **** *
 364:.\Generated_Source\PSoC4/SPIS.c **** * Summary:
ARM GAS  C:\Users\TOM~1.MCK\AppData\Local\Temp\cclpicWu.s 			page 11


 365:.\Generated_Source\PSoC4/SPIS.c **** *  Configure which status bits trigger an interrupt event.
 366:.\Generated_Source\PSoC4/SPIS.c **** *
 367:.\Generated_Source\PSoC4/SPIS.c **** * Parameters:
 368:.\Generated_Source\PSoC4/SPIS.c **** *  intSrc: An or'd combination of the desired status bit masks (defined in the
 369:.\Generated_Source\PSoC4/SPIS.c **** *  header file).
 370:.\Generated_Source\PSoC4/SPIS.c **** *
 371:.\Generated_Source\PSoC4/SPIS.c **** * Return:
 372:.\Generated_Source\PSoC4/SPIS.c **** *  None.
 373:.\Generated_Source\PSoC4/SPIS.c **** *
 374:.\Generated_Source\PSoC4/SPIS.c **** * Theory:
 375:.\Generated_Source\PSoC4/SPIS.c **** *  Enables the output of specific status bits to the interrupt controller.
 376:.\Generated_Source\PSoC4/SPIS.c **** *
 377:.\Generated_Source\PSoC4/SPIS.c **** *******************************************************************************/
 378:.\Generated_Source\PSoC4/SPIS.c **** void SPIS_SetRxInterruptMode(uint8 intSrc) 
 379:.\Generated_Source\PSoC4/SPIS.c **** {
 207              		.loc 1 379 0
 208              		.cfi_startproc
 209              	.LVL5:
 380:.\Generated_Source\PSoC4/SPIS.c ****     SPIS_RX_STATUS_MASK_REG  = intSrc;
 210              		.loc 1 380 0
 211 0000 014B     		ldr	r3, .L15
 212 0002 1870     		strb	r0, [r3]
 381:.\Generated_Source\PSoC4/SPIS.c **** }
 213              		.loc 1 381 0
 214              		@ sp needed
 215 0004 7047     		bx	lr
 216              	.L16:
 217 0006 C046     		.align	2
 218              	.L15:
 219 0008 80000F40 		.word	1074724992
 220              		.cfi_endproc
 221              	.LFE11:
 222              		.size	SPIS_SetRxInterruptMode, .-SPIS_SetRxInterruptMode
 223              		.section	.text.SPIS_ReadTxStatus,"ax",%progbits
 224              		.align	2
 225              		.global	SPIS_ReadTxStatus
 226              		.code	16
 227              		.thumb_func
 228              		.type	SPIS_ReadTxStatus, %function
 229              	SPIS_ReadTxStatus:
 230              	.LFB12:
 382:.\Generated_Source\PSoC4/SPIS.c **** 
 383:.\Generated_Source\PSoC4/SPIS.c **** 
 384:.\Generated_Source\PSoC4/SPIS.c **** /*******************************************************************************
 385:.\Generated_Source\PSoC4/SPIS.c **** * Function Name: SPIS_ReadTxStatus
 386:.\Generated_Source\PSoC4/SPIS.c **** ********************************************************************************
 387:.\Generated_Source\PSoC4/SPIS.c **** *
 388:.\Generated_Source\PSoC4/SPIS.c **** * Summary:
 389:.\Generated_Source\PSoC4/SPIS.c **** *  Read the Tx status register for the component.
 390:.\Generated_Source\PSoC4/SPIS.c **** *
 391:.\Generated_Source\PSoC4/SPIS.c **** * Parameters:
 392:.\Generated_Source\PSoC4/SPIS.c **** *  None.
 393:.\Generated_Source\PSoC4/SPIS.c **** *
 394:.\Generated_Source\PSoC4/SPIS.c **** * Return:
 395:.\Generated_Source\PSoC4/SPIS.c **** *  Contents of the Tx status register.
 396:.\Generated_Source\PSoC4/SPIS.c **** *
 397:.\Generated_Source\PSoC4/SPIS.c **** * Global variables:
ARM GAS  C:\Users\TOM~1.MCK\AppData\Local\Temp\cclpicWu.s 			page 12


 398:.\Generated_Source\PSoC4/SPIS.c **** *  SPIS_swStatusTx - used to store in software status register,
 399:.\Generated_Source\PSoC4/SPIS.c **** *  modified every function call - resets to zero.
 400:.\Generated_Source\PSoC4/SPIS.c **** *
 401:.\Generated_Source\PSoC4/SPIS.c **** * Theory:
 402:.\Generated_Source\PSoC4/SPIS.c **** *  Allows the user and the API to read the Tx status register for error
 403:.\Generated_Source\PSoC4/SPIS.c **** *  detection and flow control.
 404:.\Generated_Source\PSoC4/SPIS.c **** *
 405:.\Generated_Source\PSoC4/SPIS.c **** * Side Effects:
 406:.\Generated_Source\PSoC4/SPIS.c **** *  Clear Tx status register of the component.
 407:.\Generated_Source\PSoC4/SPIS.c **** *
 408:.\Generated_Source\PSoC4/SPIS.c **** * Reentrant:
 409:.\Generated_Source\PSoC4/SPIS.c **** *  No.
 410:.\Generated_Source\PSoC4/SPIS.c **** *
 411:.\Generated_Source\PSoC4/SPIS.c **** *******************************************************************************/
 412:.\Generated_Source\PSoC4/SPIS.c **** uint8 SPIS_ReadTxStatus(void) 
 413:.\Generated_Source\PSoC4/SPIS.c **** {
 231              		.loc 1 413 0
 232              		.cfi_startproc
 414:.\Generated_Source\PSoC4/SPIS.c ****     uint8 tmpStatus;
 415:.\Generated_Source\PSoC4/SPIS.c **** 
 416:.\Generated_Source\PSoC4/SPIS.c ****     #if (SPIS_TX_SOFTWARE_BUF_ENABLED)
 417:.\Generated_Source\PSoC4/SPIS.c **** 
 418:.\Generated_Source\PSoC4/SPIS.c ****         SPIS_DisableTxInt();
 419:.\Generated_Source\PSoC4/SPIS.c **** 
 420:.\Generated_Source\PSoC4/SPIS.c ****         tmpStatus = SPIS_GET_STATUS_TX(SPIS_swStatusTx);
 421:.\Generated_Source\PSoC4/SPIS.c **** 
 422:.\Generated_Source\PSoC4/SPIS.c ****         SPIS_swStatusTx = 0u;
 423:.\Generated_Source\PSoC4/SPIS.c **** 
 424:.\Generated_Source\PSoC4/SPIS.c ****         /* Enable Interrupts */
 425:.\Generated_Source\PSoC4/SPIS.c ****         SPIS_EnableTxInt();
 426:.\Generated_Source\PSoC4/SPIS.c **** 
 427:.\Generated_Source\PSoC4/SPIS.c ****     #else /* !SPIS_TX_SOFTWARE_BUF_ENABLED */
 428:.\Generated_Source\PSoC4/SPIS.c **** 
 429:.\Generated_Source\PSoC4/SPIS.c ****         tmpStatus = SPIS_TX_STATUS_REG;
 233              		.loc 1 429 0
 234 0000 014B     		ldr	r3, .L18
 235 0002 1878     		ldrb	r0, [r3]
 236 0004 C0B2     		uxtb	r0, r0
 237              	.LVL6:
 430:.\Generated_Source\PSoC4/SPIS.c **** 
 431:.\Generated_Source\PSoC4/SPIS.c ****     #endif /* SPIS_TX_SOFTWARE_BUF_ENABLED */
 432:.\Generated_Source\PSoC4/SPIS.c **** 
 433:.\Generated_Source\PSoC4/SPIS.c ****     return(tmpStatus);
 434:.\Generated_Source\PSoC4/SPIS.c **** }
 238              		.loc 1 434 0
 239              		@ sp needed
 240 0006 7047     		bx	lr
 241              	.L19:
 242              		.align	2
 243              	.L18:
 244 0008 63000F40 		.word	1074724963
 245              		.cfi_endproc
 246              	.LFE12:
 247              		.size	SPIS_ReadTxStatus, .-SPIS_ReadTxStatus
 248              		.section	.text.SPIS_ReadRxStatus,"ax",%progbits
 249              		.align	2
 250              		.global	SPIS_ReadRxStatus
ARM GAS  C:\Users\TOM~1.MCK\AppData\Local\Temp\cclpicWu.s 			page 13


 251              		.code	16
 252              		.thumb_func
 253              		.type	SPIS_ReadRxStatus, %function
 254              	SPIS_ReadRxStatus:
 255              	.LFB13:
 435:.\Generated_Source\PSoC4/SPIS.c **** 
 436:.\Generated_Source\PSoC4/SPIS.c **** 
 437:.\Generated_Source\PSoC4/SPIS.c **** /*******************************************************************************
 438:.\Generated_Source\PSoC4/SPIS.c **** * Function Name: SPIS_ReadRxStatus
 439:.\Generated_Source\PSoC4/SPIS.c **** ********************************************************************************
 440:.\Generated_Source\PSoC4/SPIS.c **** *
 441:.\Generated_Source\PSoC4/SPIS.c **** * Summary:
 442:.\Generated_Source\PSoC4/SPIS.c **** *  Read the Rx status register for the component.
 443:.\Generated_Source\PSoC4/SPIS.c **** *
 444:.\Generated_Source\PSoC4/SPIS.c **** * Parameters:
 445:.\Generated_Source\PSoC4/SPIS.c **** *  None.
 446:.\Generated_Source\PSoC4/SPIS.c **** *
 447:.\Generated_Source\PSoC4/SPIS.c **** * Return:
 448:.\Generated_Source\PSoC4/SPIS.c **** *  Contents of the Rx status register.
 449:.\Generated_Source\PSoC4/SPIS.c **** *
 450:.\Generated_Source\PSoC4/SPIS.c **** * Global variables:
 451:.\Generated_Source\PSoC4/SPIS.c **** *  SPIS_swStatusRx - used to store in software Rx status register,
 452:.\Generated_Source\PSoC4/SPIS.c **** *  modified every function call - resets to zero.
 453:.\Generated_Source\PSoC4/SPIS.c **** *
 454:.\Generated_Source\PSoC4/SPIS.c **** * Theory:
 455:.\Generated_Source\PSoC4/SPIS.c **** *  Allows the user and the API to read the Rx status register for error
 456:.\Generated_Source\PSoC4/SPIS.c **** *  detection and flow control.
 457:.\Generated_Source\PSoC4/SPIS.c **** *
 458:.\Generated_Source\PSoC4/SPIS.c **** * Side Effects:
 459:.\Generated_Source\PSoC4/SPIS.c **** *  Clear Rx status register of the component.
 460:.\Generated_Source\PSoC4/SPIS.c **** *
 461:.\Generated_Source\PSoC4/SPIS.c **** * Reentrant:
 462:.\Generated_Source\PSoC4/SPIS.c **** *  No.
 463:.\Generated_Source\PSoC4/SPIS.c **** *
 464:.\Generated_Source\PSoC4/SPIS.c **** *******************************************************************************/
 465:.\Generated_Source\PSoC4/SPIS.c **** uint8 SPIS_ReadRxStatus(void) 
 466:.\Generated_Source\PSoC4/SPIS.c **** {
 256              		.loc 1 466 0
 257              		.cfi_startproc
 467:.\Generated_Source\PSoC4/SPIS.c ****     uint8 tmpStatus;
 468:.\Generated_Source\PSoC4/SPIS.c **** 
 469:.\Generated_Source\PSoC4/SPIS.c ****     #if (SPIS_RX_SOFTWARE_BUF_ENABLED)
 470:.\Generated_Source\PSoC4/SPIS.c **** 
 471:.\Generated_Source\PSoC4/SPIS.c ****         SPIS_DisableRxInt();
 472:.\Generated_Source\PSoC4/SPIS.c **** 
 473:.\Generated_Source\PSoC4/SPIS.c ****         tmpStatus = SPIS_GET_STATUS_RX(SPIS_swStatusRx);
 474:.\Generated_Source\PSoC4/SPIS.c **** 
 475:.\Generated_Source\PSoC4/SPIS.c ****         SPIS_swStatusRx = 0u;
 476:.\Generated_Source\PSoC4/SPIS.c **** 
 477:.\Generated_Source\PSoC4/SPIS.c ****         /* Enable Interrupts */
 478:.\Generated_Source\PSoC4/SPIS.c ****         SPIS_EnableRxInt();
 479:.\Generated_Source\PSoC4/SPIS.c **** 
 480:.\Generated_Source\PSoC4/SPIS.c ****     #else /* !SPIS_RX_SOFTWARE_BUF_ENABLED */
 481:.\Generated_Source\PSoC4/SPIS.c **** 
 482:.\Generated_Source\PSoC4/SPIS.c ****         tmpStatus = SPIS_RX_STATUS_REG;
 258              		.loc 1 482 0
 259 0000 014B     		ldr	r3, .L21
ARM GAS  C:\Users\TOM~1.MCK\AppData\Local\Temp\cclpicWu.s 			page 14


 260 0002 1878     		ldrb	r0, [r3]
 261 0004 C0B2     		uxtb	r0, r0
 262              	.LVL7:
 483:.\Generated_Source\PSoC4/SPIS.c **** 
 484:.\Generated_Source\PSoC4/SPIS.c ****     #endif /* SPIS_RX_SOFTWARE_BUF_ENABLED */
 485:.\Generated_Source\PSoC4/SPIS.c **** 
 486:.\Generated_Source\PSoC4/SPIS.c ****     return(tmpStatus);
 487:.\Generated_Source\PSoC4/SPIS.c **** }
 263              		.loc 1 487 0
 264              		@ sp needed
 265 0006 7047     		bx	lr
 266              	.L22:
 267              		.align	2
 268              	.L21:
 269 0008 60000F40 		.word	1074724960
 270              		.cfi_endproc
 271              	.LFE13:
 272              		.size	SPIS_ReadRxStatus, .-SPIS_ReadRxStatus
 273              		.section	.text.SPIS_WriteTxData,"ax",%progbits
 274              		.align	2
 275              		.global	SPIS_WriteTxData
 276              		.code	16
 277              		.thumb_func
 278              		.type	SPIS_WriteTxData, %function
 279              	SPIS_WriteTxData:
 280              	.LFB14:
 488:.\Generated_Source\PSoC4/SPIS.c **** 
 489:.\Generated_Source\PSoC4/SPIS.c **** 
 490:.\Generated_Source\PSoC4/SPIS.c **** /*******************************************************************************
 491:.\Generated_Source\PSoC4/SPIS.c **** * Function Name: SPIS_WriteTxData
 492:.\Generated_Source\PSoC4/SPIS.c **** ********************************************************************************
 493:.\Generated_Source\PSoC4/SPIS.c **** *
 494:.\Generated_Source\PSoC4/SPIS.c **** * Summary:
 495:.\Generated_Source\PSoC4/SPIS.c **** *  Write a byte of data to be sent across the SPI.
 496:.\Generated_Source\PSoC4/SPIS.c **** *
 497:.\Generated_Source\PSoC4/SPIS.c **** * Parameters:
 498:.\Generated_Source\PSoC4/SPIS.c **** *  txDataByte: The data value to send across the SPI.
 499:.\Generated_Source\PSoC4/SPIS.c **** *
 500:.\Generated_Source\PSoC4/SPIS.c **** * Return:
 501:.\Generated_Source\PSoC4/SPIS.c **** *  None.
 502:.\Generated_Source\PSoC4/SPIS.c **** *
 503:.\Generated_Source\PSoC4/SPIS.c **** * Global variables:
 504:.\Generated_Source\PSoC4/SPIS.c **** *  SPIS_txBufferWrite - used for the account of the bytes which
 505:.\Generated_Source\PSoC4/SPIS.c **** *  have been written down in the TX software buffer, modified every function
 506:.\Generated_Source\PSoC4/SPIS.c **** *  call if TX Software Buffer is used.
 507:.\Generated_Source\PSoC4/SPIS.c **** *  SPIS_txBufferRead - used for the account of the bytes which
 508:.\Generated_Source\PSoC4/SPIS.c **** *  have been read from the TX software buffer.
 509:.\Generated_Source\PSoC4/SPIS.c **** *  SPIS_txBuffer[SPIS_TX_BUFFER_SIZE] - used to store
 510:.\Generated_Source\PSoC4/SPIS.c **** *  data to sending, modified every function call if TX Software Buffer is used.
 511:.\Generated_Source\PSoC4/SPIS.c **** *
 512:.\Generated_Source\PSoC4/SPIS.c **** * Theory:
 513:.\Generated_Source\PSoC4/SPIS.c **** *  Allows the user to transmit any byte of data in a single transfer.
 514:.\Generated_Source\PSoC4/SPIS.c **** *
 515:.\Generated_Source\PSoC4/SPIS.c **** * Side Effects:
 516:.\Generated_Source\PSoC4/SPIS.c **** *  If this function is called again before the previous byte is finished then
 517:.\Generated_Source\PSoC4/SPIS.c **** *  the next byte will be appended to the transfer with no time between
 518:.\Generated_Source\PSoC4/SPIS.c **** *  the byte transfers. Clear Tx status register of the component.
ARM GAS  C:\Users\TOM~1.MCK\AppData\Local\Temp\cclpicWu.s 			page 15


 519:.\Generated_Source\PSoC4/SPIS.c **** *
 520:.\Generated_Source\PSoC4/SPIS.c **** * Reentrant:
 521:.\Generated_Source\PSoC4/SPIS.c **** *  No.
 522:.\Generated_Source\PSoC4/SPIS.c **** *
 523:.\Generated_Source\PSoC4/SPIS.c **** *******************************************************************************/
 524:.\Generated_Source\PSoC4/SPIS.c **** void SPIS_WriteTxData(uint8 txData) 
 525:.\Generated_Source\PSoC4/SPIS.c **** {
 281              		.loc 1 525 0
 282              		.cfi_startproc
 283              	.LVL8:
 284              	.L24:
 526:.\Generated_Source\PSoC4/SPIS.c ****     #if(SPIS_TX_SOFTWARE_BUF_ENABLED)
 527:.\Generated_Source\PSoC4/SPIS.c **** 
 528:.\Generated_Source\PSoC4/SPIS.c ****         uint8 tempStatus;
 529:.\Generated_Source\PSoC4/SPIS.c ****         uint8 tmpTxBufferRead;
 530:.\Generated_Source\PSoC4/SPIS.c **** 
 531:.\Generated_Source\PSoC4/SPIS.c ****         /* Block if buffer is full, so we don't overwrite. */
 532:.\Generated_Source\PSoC4/SPIS.c ****         do
 533:.\Generated_Source\PSoC4/SPIS.c ****         {
 534:.\Generated_Source\PSoC4/SPIS.c ****             tmpTxBufferRead = SPIS_txBufferRead;
 535:.\Generated_Source\PSoC4/SPIS.c ****             if (0u == tmpTxBufferRead)
 536:.\Generated_Source\PSoC4/SPIS.c ****             {
 537:.\Generated_Source\PSoC4/SPIS.c ****                 tmpTxBufferRead = SPIS_TX_BUFFER_SIZE - 1u;
 538:.\Generated_Source\PSoC4/SPIS.c ****             }
 539:.\Generated_Source\PSoC4/SPIS.c ****             else
 540:.\Generated_Source\PSoC4/SPIS.c ****             {
 541:.\Generated_Source\PSoC4/SPIS.c ****                 tmpTxBufferRead--;
 542:.\Generated_Source\PSoC4/SPIS.c ****             }
 543:.\Generated_Source\PSoC4/SPIS.c **** 
 544:.\Generated_Source\PSoC4/SPIS.c ****         }
 545:.\Generated_Source\PSoC4/SPIS.c ****         while(tmpTxBufferRead == SPIS_txBufferWrite);
 546:.\Generated_Source\PSoC4/SPIS.c **** 
 547:.\Generated_Source\PSoC4/SPIS.c ****         /* Disable Interrupt to protect variables that could change on interrupt. */
 548:.\Generated_Source\PSoC4/SPIS.c ****         SPIS_DisableTxInt();
 549:.\Generated_Source\PSoC4/SPIS.c **** 
 550:.\Generated_Source\PSoC4/SPIS.c ****         tempStatus = SPIS_GET_STATUS_TX(SPIS_swStatusTx);
 551:.\Generated_Source\PSoC4/SPIS.c ****         SPIS_swStatusTx = tempStatus;
 552:.\Generated_Source\PSoC4/SPIS.c **** 
 553:.\Generated_Source\PSoC4/SPIS.c ****         if((SPIS_txBufferRead == SPIS_txBufferWrite) &&
 554:.\Generated_Source\PSoC4/SPIS.c ****             (0u != (SPIS_swStatusTx & SPIS_STS_TX_FIFO_NOT_FULL)))
 555:.\Generated_Source\PSoC4/SPIS.c ****         {
 556:.\Generated_Source\PSoC4/SPIS.c ****             /* Put data element into the TX FIFO */
 557:.\Generated_Source\PSoC4/SPIS.c ****             CY_SET_REG8(SPIS_TXDATA_PTR, txData);
 558:.\Generated_Source\PSoC4/SPIS.c ****         }
 559:.\Generated_Source\PSoC4/SPIS.c ****         else
 560:.\Generated_Source\PSoC4/SPIS.c ****         {
 561:.\Generated_Source\PSoC4/SPIS.c ****             /* Put data element into the software buffer */
 562:.\Generated_Source\PSoC4/SPIS.c ****             SPIS_txBufferWrite++;
 563:.\Generated_Source\PSoC4/SPIS.c ****             if(SPIS_txBufferWrite >= SPIS_TX_BUFFER_SIZE)
 564:.\Generated_Source\PSoC4/SPIS.c ****             {
 565:.\Generated_Source\PSoC4/SPIS.c ****                 SPIS_txBufferWrite = 0u;
 566:.\Generated_Source\PSoC4/SPIS.c ****             }
 567:.\Generated_Source\PSoC4/SPIS.c **** 
 568:.\Generated_Source\PSoC4/SPIS.c ****             if(SPIS_txBufferWrite == SPIS_txBufferRead)
 569:.\Generated_Source\PSoC4/SPIS.c ****             {
 570:.\Generated_Source\PSoC4/SPIS.c ****                 SPIS_txBufferRead++;
 571:.\Generated_Source\PSoC4/SPIS.c ****                 if(SPIS_txBufferRead >= SPIS_RX_BUFFER_SIZE)
ARM GAS  C:\Users\TOM~1.MCK\AppData\Local\Temp\cclpicWu.s 			page 16


 572:.\Generated_Source\PSoC4/SPIS.c ****                 {
 573:.\Generated_Source\PSoC4/SPIS.c ****                     SPIS_txBufferRead = 0u;
 574:.\Generated_Source\PSoC4/SPIS.c ****                 }
 575:.\Generated_Source\PSoC4/SPIS.c ****                 SPIS_txBufferFull = 1u;
 576:.\Generated_Source\PSoC4/SPIS.c ****             }
 577:.\Generated_Source\PSoC4/SPIS.c **** 
 578:.\Generated_Source\PSoC4/SPIS.c ****             SPIS_txBuffer[SPIS_txBufferWrite] = txData;
 579:.\Generated_Source\PSoC4/SPIS.c **** 
 580:.\Generated_Source\PSoC4/SPIS.c ****             SPIS_TX_STATUS_MASK_REG |= SPIS_STS_TX_FIFO_NOT_FULL;
 581:.\Generated_Source\PSoC4/SPIS.c ****         }
 582:.\Generated_Source\PSoC4/SPIS.c **** 
 583:.\Generated_Source\PSoC4/SPIS.c ****         /* Enable Interrupt. */
 584:.\Generated_Source\PSoC4/SPIS.c ****         SPIS_EnableTxInt();
 585:.\Generated_Source\PSoC4/SPIS.c **** 
 586:.\Generated_Source\PSoC4/SPIS.c ****     #else /* !SPIS_TX_SOFTWARE_BUF_ENABLED */
 587:.\Generated_Source\PSoC4/SPIS.c ****         /* Wait until TX FIFO has a place */
 588:.\Generated_Source\PSoC4/SPIS.c ****         while(0u == (SPIS_TX_STATUS_REG & SPIS_STS_TX_FIFO_NOT_FULL))
 285              		.loc 1 588 0 discriminator 1
 286 0000 034B     		ldr	r3, .L25
 287 0002 1B78     		ldrb	r3, [r3]
 288 0004 9B07     		lsl	r3, r3, #30
 289 0006 FBD5     		bpl	.L24
 589:.\Generated_Source\PSoC4/SPIS.c ****         {
 590:.\Generated_Source\PSoC4/SPIS.c ****         }
 591:.\Generated_Source\PSoC4/SPIS.c **** 
 592:.\Generated_Source\PSoC4/SPIS.c ****         /* Put data element into the TX FIFO */
 593:.\Generated_Source\PSoC4/SPIS.c ****         CY_SET_REG8(SPIS_TXDATA_PTR, txData);
 290              		.loc 1 593 0
 291 0008 024B     		ldr	r3, .L25+4
 292 000a 1870     		strb	r0, [r3]
 594:.\Generated_Source\PSoC4/SPIS.c ****         
 595:.\Generated_Source\PSoC4/SPIS.c ****     #endif /* SPIS_TX_SOFTWARE_BUF_ENABLED */
 596:.\Generated_Source\PSoC4/SPIS.c **** }
 293              		.loc 1 596 0
 294              		@ sp needed
 295 000c 7047     		bx	lr
 296              	.L26:
 297 000e C046     		.align	2
 298              	.L25:
 299 0010 63000F40 		.word	1074724963
 300 0014 41000F40 		.word	1074724929
 301              		.cfi_endproc
 302              	.LFE14:
 303              		.size	SPIS_WriteTxData, .-SPIS_WriteTxData
 304              		.section	.text.SPIS_WriteTxDataZero,"ax",%progbits
 305              		.align	2
 306              		.global	SPIS_WriteTxDataZero
 307              		.code	16
 308              		.thumb_func
 309              		.type	SPIS_WriteTxDataZero, %function
 310              	SPIS_WriteTxDataZero:
 311              	.LFB15:
 597:.\Generated_Source\PSoC4/SPIS.c **** 
 598:.\Generated_Source\PSoC4/SPIS.c **** #if(SPIS_MODE_USE_ZERO != 0u)
 599:.\Generated_Source\PSoC4/SPIS.c **** 
 600:.\Generated_Source\PSoC4/SPIS.c ****     /*******************************************************************************
 601:.\Generated_Source\PSoC4/SPIS.c ****     * Function Name: SPIS_WriteTxDataZero
ARM GAS  C:\Users\TOM~1.MCK\AppData\Local\Temp\cclpicWu.s 			page 17


 602:.\Generated_Source\PSoC4/SPIS.c ****     ********************************************************************************
 603:.\Generated_Source\PSoC4/SPIS.c ****     *
 604:.\Generated_Source\PSoC4/SPIS.c ****     * Summary:
 605:.\Generated_Source\PSoC4/SPIS.c ****     *  Write a byte zero of data to be sent across the SPI. This must be used in
 606:.\Generated_Source\PSoC4/SPIS.c ****     *  Mode 00 and 01 if the FIFO is empty and data is not being sent.
 607:.\Generated_Source\PSoC4/SPIS.c ****     *
 608:.\Generated_Source\PSoC4/SPIS.c ****     * Parameters:
 609:.\Generated_Source\PSoC4/SPIS.c ****     *  txDataByte: The data value to send across the SPI.
 610:.\Generated_Source\PSoC4/SPIS.c ****     *
 611:.\Generated_Source\PSoC4/SPIS.c ****     * Return:
 612:.\Generated_Source\PSoC4/SPIS.c ****     *  None.
 613:.\Generated_Source\PSoC4/SPIS.c ****     *
 614:.\Generated_Source\PSoC4/SPIS.c ****     * Theory:
 615:.\Generated_Source\PSoC4/SPIS.c ****     *  Allows the user to transmit any byte of data in a single transfer. Clear
 616:.\Generated_Source\PSoC4/SPIS.c ****     *  status register of the component.
 617:.\Generated_Source\PSoC4/SPIS.c ****     *
 618:.\Generated_Source\PSoC4/SPIS.c ****     *******************************************************************************/
 619:.\Generated_Source\PSoC4/SPIS.c ****     void SPIS_WriteTxDataZero(uint8 txDataByte)
 620:.\Generated_Source\PSoC4/SPIS.c ****                                         
 621:.\Generated_Source\PSoC4/SPIS.c ****     {
 312              		.loc 1 621 0
 313              		.cfi_startproc
 314              	.LVL9:
 622:.\Generated_Source\PSoC4/SPIS.c ****         CY_SET_REG8(SPIS_TXDATA_ZERO_PTR, txDataByte);
 315              		.loc 1 622 0
 316 0000 014B     		ldr	r3, .L28
 317 0002 1870     		strb	r0, [r3]
 623:.\Generated_Source\PSoC4/SPIS.c ****     }
 318              		.loc 1 623 0
 319              		@ sp needed
 320 0004 7047     		bx	lr
 321              	.L29:
 322 0006 C046     		.align	2
 323              	.L28:
 324 0008 01000F40 		.word	1074724865
 325              		.cfi_endproc
 326              	.LFE15:
 327              		.size	SPIS_WriteTxDataZero, .-SPIS_WriteTxDataZero
 328              		.section	.text.SPIS_ReadRxData,"ax",%progbits
 329              		.align	2
 330              		.global	SPIS_ReadRxData
 331              		.code	16
 332              		.thumb_func
 333              		.type	SPIS_ReadRxData, %function
 334              	SPIS_ReadRxData:
 335              	.LFB16:
 624:.\Generated_Source\PSoC4/SPIS.c **** 
 625:.\Generated_Source\PSoC4/SPIS.c **** #endif /* (SPIS_MODE_USE_ZERO != 0u) */
 626:.\Generated_Source\PSoC4/SPIS.c **** 
 627:.\Generated_Source\PSoC4/SPIS.c **** 
 628:.\Generated_Source\PSoC4/SPIS.c **** /*******************************************************************************
 629:.\Generated_Source\PSoC4/SPIS.c **** * Function Name: SPIS_ReadRxData
 630:.\Generated_Source\PSoC4/SPIS.c **** ********************************************************************************
 631:.\Generated_Source\PSoC4/SPIS.c **** *
 632:.\Generated_Source\PSoC4/SPIS.c **** * Summary:
 633:.\Generated_Source\PSoC4/SPIS.c **** *  Read the next byte of data received across the SPI.
 634:.\Generated_Source\PSoC4/SPIS.c **** *
ARM GAS  C:\Users\TOM~1.MCK\AppData\Local\Temp\cclpicWu.s 			page 18


 635:.\Generated_Source\PSoC4/SPIS.c **** * Parameters:
 636:.\Generated_Source\PSoC4/SPIS.c **** *  None.
 637:.\Generated_Source\PSoC4/SPIS.c **** *
 638:.\Generated_Source\PSoC4/SPIS.c **** * Return:
 639:.\Generated_Source\PSoC4/SPIS.c **** *  The next byte of data read from the FIFO.
 640:.\Generated_Source\PSoC4/SPIS.c **** *
 641:.\Generated_Source\PSoC4/SPIS.c **** * Global variables:
 642:.\Generated_Source\PSoC4/SPIS.c **** *  SPIS_rxBufferWrite - used for the account of the bytes which
 643:.\Generated_Source\PSoC4/SPIS.c **** *  have been written down in the RX software buffer.
 644:.\Generated_Source\PSoC4/SPIS.c **** *  SPIS_rxBufferRead - used for the account of the bytes which
 645:.\Generated_Source\PSoC4/SPIS.c **** *  have been read from the RX software buffer, modified every function
 646:.\Generated_Source\PSoC4/SPIS.c **** *  call if RX Software Buffer is used.
 647:.\Generated_Source\PSoC4/SPIS.c **** *  SPIS_rxBuffer[SPIS_RX_BUFFER_SIZE] - used to store
 648:.\Generated_Source\PSoC4/SPIS.c **** *  received data.
 649:.\Generated_Source\PSoC4/SPIS.c **** *
 650:.\Generated_Source\PSoC4/SPIS.c **** * Theory:
 651:.\Generated_Source\PSoC4/SPIS.c **** *  Allows the user to read a byte of data received.
 652:.\Generated_Source\PSoC4/SPIS.c **** *
 653:.\Generated_Source\PSoC4/SPIS.c **** * Side Effects:
 654:.\Generated_Source\PSoC4/SPIS.c **** *  Will return invalid data if the FIFO is empty.  User should poll for FIFO
 655:.\Generated_Source\PSoC4/SPIS.c **** *  empty status before calling Read function.
 656:.\Generated_Source\PSoC4/SPIS.c **** *
 657:.\Generated_Source\PSoC4/SPIS.c **** * Reentrant:
 658:.\Generated_Source\PSoC4/SPIS.c **** *  No.
 659:.\Generated_Source\PSoC4/SPIS.c **** *
 660:.\Generated_Source\PSoC4/SPIS.c **** *******************************************************************************/
 661:.\Generated_Source\PSoC4/SPIS.c **** uint8 SPIS_ReadRxData(void) 
 662:.\Generated_Source\PSoC4/SPIS.c **** {
 336              		.loc 1 662 0
 337              		.cfi_startproc
 663:.\Generated_Source\PSoC4/SPIS.c ****     uint8 rxData;
 664:.\Generated_Source\PSoC4/SPIS.c **** 
 665:.\Generated_Source\PSoC4/SPIS.c ****     #if(SPIS_RX_SOFTWARE_BUF_ENABLED)
 666:.\Generated_Source\PSoC4/SPIS.c **** 
 667:.\Generated_Source\PSoC4/SPIS.c ****         /* Disable Interrupt to protect variables that could change on interrupt. */
 668:.\Generated_Source\PSoC4/SPIS.c ****         SPIS_DisableRxInt();
 669:.\Generated_Source\PSoC4/SPIS.c **** 
 670:.\Generated_Source\PSoC4/SPIS.c ****         if(SPIS_rxBufferRead != SPIS_rxBufferWrite)
 671:.\Generated_Source\PSoC4/SPIS.c ****         {
 672:.\Generated_Source\PSoC4/SPIS.c ****             if(SPIS_rxBufferFull == 0u)
 673:.\Generated_Source\PSoC4/SPIS.c ****             {
 674:.\Generated_Source\PSoC4/SPIS.c ****                 SPIS_rxBufferRead++;
 675:.\Generated_Source\PSoC4/SPIS.c ****                 if(SPIS_rxBufferRead >= SPIS_RX_BUFFER_SIZE)
 676:.\Generated_Source\PSoC4/SPIS.c ****                 {
 677:.\Generated_Source\PSoC4/SPIS.c ****                     SPIS_rxBufferRead = 0u;
 678:.\Generated_Source\PSoC4/SPIS.c ****                 }
 679:.\Generated_Source\PSoC4/SPIS.c ****             }
 680:.\Generated_Source\PSoC4/SPIS.c ****             else
 681:.\Generated_Source\PSoC4/SPIS.c ****             {
 682:.\Generated_Source\PSoC4/SPIS.c ****                 SPIS_rxBufferFull = 0u;
 683:.\Generated_Source\PSoC4/SPIS.c ****             }
 684:.\Generated_Source\PSoC4/SPIS.c ****         }
 685:.\Generated_Source\PSoC4/SPIS.c **** 
 686:.\Generated_Source\PSoC4/SPIS.c ****         rxData = SPIS_rxBuffer[SPIS_rxBufferRead];
 687:.\Generated_Source\PSoC4/SPIS.c **** 
 688:.\Generated_Source\PSoC4/SPIS.c ****         /* Enable Interrupt. */
 689:.\Generated_Source\PSoC4/SPIS.c ****         SPIS_EnableRxInt();
ARM GAS  C:\Users\TOM~1.MCK\AppData\Local\Temp\cclpicWu.s 			page 19


 690:.\Generated_Source\PSoC4/SPIS.c **** 
 691:.\Generated_Source\PSoC4/SPIS.c ****     #else /* !SPIS_RX_SOFTWARE_BUF_ENABLED */
 692:.\Generated_Source\PSoC4/SPIS.c **** 
 693:.\Generated_Source\PSoC4/SPIS.c ****         rxData = CY_GET_REG8(SPIS_RXDATA_PTR);
 338              		.loc 1 693 0
 339 0000 014B     		ldr	r3, .L31
 340 0002 1878     		ldrb	r0, [r3]
 341 0004 C0B2     		uxtb	r0, r0
 342              	.LVL10:
 694:.\Generated_Source\PSoC4/SPIS.c **** 
 695:.\Generated_Source\PSoC4/SPIS.c ****     #endif /* SPIS_RX_SOFTWARE_BUF_ENABLED */
 696:.\Generated_Source\PSoC4/SPIS.c **** 
 697:.\Generated_Source\PSoC4/SPIS.c ****     return (rxData);
 698:.\Generated_Source\PSoC4/SPIS.c **** 
 699:.\Generated_Source\PSoC4/SPIS.c **** }
 343              		.loc 1 699 0
 344              		@ sp needed
 345 0006 7047     		bx	lr
 346              	.L32:
 347              		.align	2
 348              	.L31:
 349 0008 51000F40 		.word	1074724945
 350              		.cfi_endproc
 351              	.LFE16:
 352              		.size	SPIS_ReadRxData, .-SPIS_ReadRxData
 353              		.section	.text.SPIS_GetRxBufferSize,"ax",%progbits
 354              		.align	2
 355              		.global	SPIS_GetRxBufferSize
 356              		.code	16
 357              		.thumb_func
 358              		.type	SPIS_GetRxBufferSize, %function
 359              	SPIS_GetRxBufferSize:
 360              	.LFB17:
 700:.\Generated_Source\PSoC4/SPIS.c **** 
 701:.\Generated_Source\PSoC4/SPIS.c **** 
 702:.\Generated_Source\PSoC4/SPIS.c **** /*******************************************************************************
 703:.\Generated_Source\PSoC4/SPIS.c **** * Function Name: SPIS_GetRxBufferSize
 704:.\Generated_Source\PSoC4/SPIS.c **** ********************************************************************************
 705:.\Generated_Source\PSoC4/SPIS.c **** *
 706:.\Generated_Source\PSoC4/SPIS.c **** * Summary:
 707:.\Generated_Source\PSoC4/SPIS.c **** *  Returns the number of bytes/words of data currently held in the RX buffer.
 708:.\Generated_Source\PSoC4/SPIS.c **** *  If RX Software Buffer not used then function return 0 if FIFO empty or 1 if
 709:.\Generated_Source\PSoC4/SPIS.c **** *  FIFO not empty. In another case function return size of RX Software Buffer.
 710:.\Generated_Source\PSoC4/SPIS.c **** *
 711:.\Generated_Source\PSoC4/SPIS.c **** * Parameters:
 712:.\Generated_Source\PSoC4/SPIS.c **** *  None.
 713:.\Generated_Source\PSoC4/SPIS.c **** *
 714:.\Generated_Source\PSoC4/SPIS.c **** * Return:
 715:.\Generated_Source\PSoC4/SPIS.c **** *  Integer count of the number of bytes/words in the RX buffer.
 716:.\Generated_Source\PSoC4/SPIS.c **** *
 717:.\Generated_Source\PSoC4/SPIS.c **** * Global variables:
 718:.\Generated_Source\PSoC4/SPIS.c **** *  SPIS_rxBufferWrite - used for the account of the bytes which
 719:.\Generated_Source\PSoC4/SPIS.c **** *  have been written down in the RX software buffer.
 720:.\Generated_Source\PSoC4/SPIS.c **** *  SPIS_rxBufferRead - used for the account of the bytes which
 721:.\Generated_Source\PSoC4/SPIS.c **** *  have been read from the RX software buffer.
 722:.\Generated_Source\PSoC4/SPIS.c **** *
 723:.\Generated_Source\PSoC4/SPIS.c **** * Theory:
ARM GAS  C:\Users\TOM~1.MCK\AppData\Local\Temp\cclpicWu.s 			page 20


 724:.\Generated_Source\PSoC4/SPIS.c **** *  Allows the user to find out how full the RX Buffer is.
 725:.\Generated_Source\PSoC4/SPIS.c **** *
 726:.\Generated_Source\PSoC4/SPIS.c **** *******************************************************************************/
 727:.\Generated_Source\PSoC4/SPIS.c **** uint8 SPIS_GetRxBufferSize(void) 
 728:.\Generated_Source\PSoC4/SPIS.c **** {
 361              		.loc 1 728 0
 362              		.cfi_startproc
 729:.\Generated_Source\PSoC4/SPIS.c ****     uint8 size;
 730:.\Generated_Source\PSoC4/SPIS.c **** 
 731:.\Generated_Source\PSoC4/SPIS.c ****     #if(SPIS_RX_SOFTWARE_BUF_ENABLED)
 732:.\Generated_Source\PSoC4/SPIS.c **** 
 733:.\Generated_Source\PSoC4/SPIS.c ****         /* Disable Interrupt to protect variables that could change on interrupt. */
 734:.\Generated_Source\PSoC4/SPIS.c ****         SPIS_DisableRxInt();
 735:.\Generated_Source\PSoC4/SPIS.c **** 
 736:.\Generated_Source\PSoC4/SPIS.c ****         if(SPIS_rxBufferRead == SPIS_rxBufferWrite)
 737:.\Generated_Source\PSoC4/SPIS.c ****         {
 738:.\Generated_Source\PSoC4/SPIS.c ****             size = 0u; /* No data in RX buffer */
 739:.\Generated_Source\PSoC4/SPIS.c ****         }
 740:.\Generated_Source\PSoC4/SPIS.c ****         else if(SPIS_rxBufferRead < SPIS_rxBufferWrite)
 741:.\Generated_Source\PSoC4/SPIS.c ****         {
 742:.\Generated_Source\PSoC4/SPIS.c ****             size = (SPIS_rxBufferWrite - SPIS_rxBufferRead);
 743:.\Generated_Source\PSoC4/SPIS.c ****         }
 744:.\Generated_Source\PSoC4/SPIS.c ****         else
 745:.\Generated_Source\PSoC4/SPIS.c ****         {
 746:.\Generated_Source\PSoC4/SPIS.c ****             size = (SPIS_RX_BUFFER_SIZE - SPIS_rxBufferRead) + SPIS_rxBufferWrite;
 747:.\Generated_Source\PSoC4/SPIS.c ****         }
 748:.\Generated_Source\PSoC4/SPIS.c **** 
 749:.\Generated_Source\PSoC4/SPIS.c ****         /* Enable interrupt. */
 750:.\Generated_Source\PSoC4/SPIS.c ****         SPIS_EnableRxInt();
 751:.\Generated_Source\PSoC4/SPIS.c **** 
 752:.\Generated_Source\PSoC4/SPIS.c ****     #else /* !SPIS_RX_SOFTWARE_BUF_ENABLED*/
 753:.\Generated_Source\PSoC4/SPIS.c **** 
 754:.\Generated_Source\PSoC4/SPIS.c ****         /* We can only know if there is data in the fifo. */
 755:.\Generated_Source\PSoC4/SPIS.c ****         size = ((SPIS_RX_STATUS_REG & SPIS_STS_RX_FIFO_NOT_EMPTY) != 0u) ? 1u : 0u;
 363              		.loc 1 755 0
 364 0000 034B     		ldr	r3, .L36
 365 0002 1B78     		ldrb	r3, [r3]
 366 0004 1B07     		lsl	r3, r3, #28
 367 0006 01D5     		bpl	.L35
 368 0008 0120     		mov	r0, #1
 369 000a 00E0     		b	.L34
 370              	.L35:
 371 000c 0020     		mov	r0, #0
 372              	.L34:
 373              	.LVL11:
 756:.\Generated_Source\PSoC4/SPIS.c **** 
 757:.\Generated_Source\PSoC4/SPIS.c ****     #endif /* SPIS_RX_SOFTWARE_BUF_ENABLED */
 758:.\Generated_Source\PSoC4/SPIS.c **** 
 759:.\Generated_Source\PSoC4/SPIS.c ****     return (size);
 760:.\Generated_Source\PSoC4/SPIS.c **** }
 374              		.loc 1 760 0 discriminator 4
 375              		@ sp needed
 376 000e 7047     		bx	lr
 377              	.L37:
 378              		.align	2
 379              	.L36:
 380 0010 60000F40 		.word	1074724960
ARM GAS  C:\Users\TOM~1.MCK\AppData\Local\Temp\cclpicWu.s 			page 21


 381              		.cfi_endproc
 382              	.LFE17:
 383              		.size	SPIS_GetRxBufferSize, .-SPIS_GetRxBufferSize
 384              		.section	.text.SPIS_GetTxBufferSize,"ax",%progbits
 385              		.align	2
 386              		.global	SPIS_GetTxBufferSize
 387              		.code	16
 388              		.thumb_func
 389              		.type	SPIS_GetTxBufferSize, %function
 390              	SPIS_GetTxBufferSize:
 391              	.LFB18:
 761:.\Generated_Source\PSoC4/SPIS.c **** 
 762:.\Generated_Source\PSoC4/SPIS.c **** 
 763:.\Generated_Source\PSoC4/SPIS.c **** /*******************************************************************************
 764:.\Generated_Source\PSoC4/SPIS.c **** * Function Name: SPIS_GetTxBufferSize
 765:.\Generated_Source\PSoC4/SPIS.c **** ********************************************************************************
 766:.\Generated_Source\PSoC4/SPIS.c **** *
 767:.\Generated_Source\PSoC4/SPIS.c **** * Summary:
 768:.\Generated_Source\PSoC4/SPIS.c **** *  Returns the number of bytes/words of data currently held in the TX buffer.
 769:.\Generated_Source\PSoC4/SPIS.c **** *  If TX Software Buffer not used then function return 0 - if FIFO empty, 1 - if
 770:.\Generated_Source\PSoC4/SPIS.c **** *  FIFO not full, 4 - if FIFO full. In another case function return size of TX
 771:.\Generated_Source\PSoC4/SPIS.c **** *  Software Buffer.
 772:.\Generated_Source\PSoC4/SPIS.c **** *
 773:.\Generated_Source\PSoC4/SPIS.c **** * Parameters:
 774:.\Generated_Source\PSoC4/SPIS.c **** *  None.
 775:.\Generated_Source\PSoC4/SPIS.c **** *
 776:.\Generated_Source\PSoC4/SPIS.c **** * Return:
 777:.\Generated_Source\PSoC4/SPIS.c **** *  Integer count of the number of bytes/words in the TX buffer.
 778:.\Generated_Source\PSoC4/SPIS.c **** *
 779:.\Generated_Source\PSoC4/SPIS.c **** * Global variables:
 780:.\Generated_Source\PSoC4/SPIS.c **** *  SPIS_txBufferWrite - used for the account of the bytes which
 781:.\Generated_Source\PSoC4/SPIS.c **** *  have been written down in the TX software buffer.
 782:.\Generated_Source\PSoC4/SPIS.c **** *  SPIS_txBufferRead - used for the account of the bytes which
 783:.\Generated_Source\PSoC4/SPIS.c **** *  have been read from the TX software buffer.
 784:.\Generated_Source\PSoC4/SPIS.c **** *
 785:.\Generated_Source\PSoC4/SPIS.c **** * Theory:
 786:.\Generated_Source\PSoC4/SPIS.c **** *  Allows the user to find out how full the TX Buffer is.
 787:.\Generated_Source\PSoC4/SPIS.c **** *
 788:.\Generated_Source\PSoC4/SPIS.c **** * Side Effects:
 789:.\Generated_Source\PSoC4/SPIS.c **** *  Clear status register of the component.
 790:.\Generated_Source\PSoC4/SPIS.c **** *
 791:.\Generated_Source\PSoC4/SPIS.c **** *******************************************************************************/
 792:.\Generated_Source\PSoC4/SPIS.c **** uint8  SPIS_GetTxBufferSize(void) 
 793:.\Generated_Source\PSoC4/SPIS.c **** {
 392              		.loc 1 793 0
 393              		.cfi_startproc
 794:.\Generated_Source\PSoC4/SPIS.c ****     uint8 size;
 795:.\Generated_Source\PSoC4/SPIS.c **** 
 796:.\Generated_Source\PSoC4/SPIS.c ****     #if(SPIS_TX_SOFTWARE_BUF_ENABLED)
 797:.\Generated_Source\PSoC4/SPIS.c **** 
 798:.\Generated_Source\PSoC4/SPIS.c ****         /* Disable Interrupt to protect variables that could change on interrupt. */
 799:.\Generated_Source\PSoC4/SPIS.c ****         SPIS_DisableTxInt();
 800:.\Generated_Source\PSoC4/SPIS.c **** 
 801:.\Generated_Source\PSoC4/SPIS.c ****         if(SPIS_txBufferRead == SPIS_txBufferWrite)
 802:.\Generated_Source\PSoC4/SPIS.c ****         {
 803:.\Generated_Source\PSoC4/SPIS.c ****             size = 0u;
 804:.\Generated_Source\PSoC4/SPIS.c ****         }
ARM GAS  C:\Users\TOM~1.MCK\AppData\Local\Temp\cclpicWu.s 			page 22


 805:.\Generated_Source\PSoC4/SPIS.c ****         else if(SPIS_txBufferRead < SPIS_txBufferWrite)
 806:.\Generated_Source\PSoC4/SPIS.c ****         {
 807:.\Generated_Source\PSoC4/SPIS.c ****             size = (SPIS_txBufferWrite - SPIS_txBufferRead);
 808:.\Generated_Source\PSoC4/SPIS.c ****         }
 809:.\Generated_Source\PSoC4/SPIS.c ****         else
 810:.\Generated_Source\PSoC4/SPIS.c ****         {
 811:.\Generated_Source\PSoC4/SPIS.c ****             size = (SPIS_TX_BUFFER_SIZE - SPIS_txBufferRead) + SPIS_txBufferWrite;
 812:.\Generated_Source\PSoC4/SPIS.c ****         }
 813:.\Generated_Source\PSoC4/SPIS.c **** 
 814:.\Generated_Source\PSoC4/SPIS.c ****         /* Enable Interrupt. */
 815:.\Generated_Source\PSoC4/SPIS.c ****         SPIS_EnableTxInt();
 816:.\Generated_Source\PSoC4/SPIS.c **** 
 817:.\Generated_Source\PSoC4/SPIS.c ****     #else /* !SPIS_TX_SOFTWARE_BUF_ENABLED */
 818:.\Generated_Source\PSoC4/SPIS.c **** 
 819:.\Generated_Source\PSoC4/SPIS.c ****         size = SPIS_TX_STATUS_REG;
 394              		.loc 1 819 0
 395 0000 064B     		ldr	r3, .L42
 396 0002 1B78     		ldrb	r3, [r3]
 397 0004 DBB2     		uxtb	r3, r3
 398              	.LVL12:
 820:.\Generated_Source\PSoC4/SPIS.c **** 
 821:.\Generated_Source\PSoC4/SPIS.c ****         /* Is the fifo is full. */
 822:.\Generated_Source\PSoC4/SPIS.c ****         if((size & SPIS_STS_TX_FIFO_EMPTY) != 0u)
 399              		.loc 1 822 0
 400 0006 5A07     		lsl	r2, r3, #29
 401 0008 03D4     		bmi	.L40
 823:.\Generated_Source\PSoC4/SPIS.c ****         {
 824:.\Generated_Source\PSoC4/SPIS.c ****             size = 0u;
 825:.\Generated_Source\PSoC4/SPIS.c ****         }
 826:.\Generated_Source\PSoC4/SPIS.c ****         else if((size & SPIS_STS_TX_FIFO_NOT_FULL) != 0u)
 402              		.loc 1 826 0
 403 000a 9B07     		lsl	r3, r3, #30
 404 000c 03D5     		bpl	.L41
 405              	.LVL13:
 827:.\Generated_Source\PSoC4/SPIS.c ****         {
 828:.\Generated_Source\PSoC4/SPIS.c ****             size = 1u;
 406              		.loc 1 828 0
 407 000e 0120     		mov	r0, #1
 408 0010 02E0     		b	.L39
 409              	.LVL14:
 410              	.L40:
 824:.\Generated_Source\PSoC4/SPIS.c ****         }
 411              		.loc 1 824 0
 412 0012 0020     		mov	r0, #0
 413 0014 00E0     		b	.L39
 414              	.LVL15:
 415              	.L41:
 829:.\Generated_Source\PSoC4/SPIS.c ****         }
 830:.\Generated_Source\PSoC4/SPIS.c ****         else
 831:.\Generated_Source\PSoC4/SPIS.c ****         {
 832:.\Generated_Source\PSoC4/SPIS.c ****             size = 4u;
 416              		.loc 1 832 0
 417 0016 0420     		mov	r0, #4
 418              	.L39:
 419              	.LVL16:
 833:.\Generated_Source\PSoC4/SPIS.c ****         }
 834:.\Generated_Source\PSoC4/SPIS.c **** 
ARM GAS  C:\Users\TOM~1.MCK\AppData\Local\Temp\cclpicWu.s 			page 23


 835:.\Generated_Source\PSoC4/SPIS.c ****     #endif /* SPIS_TX_SOFTWARE_BUF_ENABLED */
 836:.\Generated_Source\PSoC4/SPIS.c **** 
 837:.\Generated_Source\PSoC4/SPIS.c ****     return (size);
 838:.\Generated_Source\PSoC4/SPIS.c **** }
 420              		.loc 1 838 0
 421              		@ sp needed
 422 0018 7047     		bx	lr
 423              	.L43:
 424 001a C046     		.align	2
 425              	.L42:
 426 001c 63000F40 		.word	1074724963
 427              		.cfi_endproc
 428              	.LFE18:
 429              		.size	SPIS_GetTxBufferSize, .-SPIS_GetTxBufferSize
 430              		.section	.text.SPIS_ClearRxBuffer,"ax",%progbits
 431              		.align	2
 432              		.global	SPIS_ClearRxBuffer
 433              		.code	16
 434              		.thumb_func
 435              		.type	SPIS_ClearRxBuffer, %function
 436              	SPIS_ClearRxBuffer:
 437              	.LFB19:
 839:.\Generated_Source\PSoC4/SPIS.c **** 
 840:.\Generated_Source\PSoC4/SPIS.c **** 
 841:.\Generated_Source\PSoC4/SPIS.c **** /*******************************************************************************
 842:.\Generated_Source\PSoC4/SPIS.c **** * Function Name: SPIS_ClearRxBuffer
 843:.\Generated_Source\PSoC4/SPIS.c **** ********************************************************************************
 844:.\Generated_Source\PSoC4/SPIS.c **** *
 845:.\Generated_Source\PSoC4/SPIS.c **** * Summary:
 846:.\Generated_Source\PSoC4/SPIS.c **** *  Clear the RX RAM buffer by setting the read and write pointers both to zero.
 847:.\Generated_Source\PSoC4/SPIS.c **** *
 848:.\Generated_Source\PSoC4/SPIS.c **** * Parameters:
 849:.\Generated_Source\PSoC4/SPIS.c **** *  None.
 850:.\Generated_Source\PSoC4/SPIS.c **** *
 851:.\Generated_Source\PSoC4/SPIS.c **** * Return:
 852:.\Generated_Source\PSoC4/SPIS.c **** *  None.
 853:.\Generated_Source\PSoC4/SPIS.c **** *
 854:.\Generated_Source\PSoC4/SPIS.c **** * Global variables:
 855:.\Generated_Source\PSoC4/SPIS.c **** *  SPIS_rxBufferWrite - used for the account of the bytes which
 856:.\Generated_Source\PSoC4/SPIS.c **** *  have been written down in the RX software buffer, modified every function
 857:.\Generated_Source\PSoC4/SPIS.c **** *  call - resets to zero.
 858:.\Generated_Source\PSoC4/SPIS.c **** *  SPIS_rxBufferRead - used for the account of the bytes which
 859:.\Generated_Source\PSoC4/SPIS.c **** *  have been read from the RX software buffer, modified every function call -
 860:.\Generated_Source\PSoC4/SPIS.c **** *  resets to zero.
 861:.\Generated_Source\PSoC4/SPIS.c **** *
 862:.\Generated_Source\PSoC4/SPIS.c **** * Theory:
 863:.\Generated_Source\PSoC4/SPIS.c **** *  Setting the pointers to zero makes the system believe there is no data to
 864:.\Generated_Source\PSoC4/SPIS.c **** *  read and writing will resume at address 0 overwriting any data that may have
 865:.\Generated_Source\PSoC4/SPIS.c **** *  remained in the RAM.
 866:.\Generated_Source\PSoC4/SPIS.c **** *
 867:.\Generated_Source\PSoC4/SPIS.c **** * Side Effects:
 868:.\Generated_Source\PSoC4/SPIS.c **** *  Any received data not read from the RAM buffer will be lost when overwritten.
 869:.\Generated_Source\PSoC4/SPIS.c **** *
 870:.\Generated_Source\PSoC4/SPIS.c **** * Reentrant:
 871:.\Generated_Source\PSoC4/SPIS.c **** *  No.
 872:.\Generated_Source\PSoC4/SPIS.c **** *
 873:.\Generated_Source\PSoC4/SPIS.c **** *******************************************************************************/
ARM GAS  C:\Users\TOM~1.MCK\AppData\Local\Temp\cclpicWu.s 			page 24


 874:.\Generated_Source\PSoC4/SPIS.c **** void SPIS_ClearRxBuffer(void) 
 875:.\Generated_Source\PSoC4/SPIS.c **** {
 438              		.loc 1 875 0
 439              		.cfi_startproc
 876:.\Generated_Source\PSoC4/SPIS.c ****     /* Clear Hardware RX FIFO */
 877:.\Generated_Source\PSoC4/SPIS.c ****     while((SPIS_RX_STATUS_REG & SPIS_STS_RX_FIFO_NOT_EMPTY) != 0u)
 440              		.loc 1 877 0
 441 0000 01E0     		b	.L45
 442              	.L46:
 878:.\Generated_Source\PSoC4/SPIS.c ****     {
 879:.\Generated_Source\PSoC4/SPIS.c ****         CY_GET_REG8(SPIS_RXDATA_PTR);
 443              		.loc 1 879 0
 444 0002 034B     		ldr	r3, .L47
 445 0004 1B78     		ldrb	r3, [r3]
 446              	.L45:
 877:.\Generated_Source\PSoC4/SPIS.c ****     {
 447              		.loc 1 877 0
 448 0006 034B     		ldr	r3, .L47+4
 449 0008 1B78     		ldrb	r3, [r3]
 450 000a 1B07     		lsl	r3, r3, #28
 451 000c F9D4     		bmi	.L46
 880:.\Generated_Source\PSoC4/SPIS.c ****     }
 881:.\Generated_Source\PSoC4/SPIS.c **** 
 882:.\Generated_Source\PSoC4/SPIS.c ****     #if(SPIS_RX_SOFTWARE_BUF_ENABLED)
 883:.\Generated_Source\PSoC4/SPIS.c **** 
 884:.\Generated_Source\PSoC4/SPIS.c ****         /* Disable interrupt to protect variables that could change on interrupt. */
 885:.\Generated_Source\PSoC4/SPIS.c ****         SPIS_DisableRxInt();
 886:.\Generated_Source\PSoC4/SPIS.c **** 
 887:.\Generated_Source\PSoC4/SPIS.c ****         SPIS_rxBufferRead  = 0u;
 888:.\Generated_Source\PSoC4/SPIS.c ****         SPIS_rxBufferWrite = 0u;
 889:.\Generated_Source\PSoC4/SPIS.c **** 		SPIS_rxBufferFull  = 0u;
 890:.\Generated_Source\PSoC4/SPIS.c ****         /* Enable interrupt. */
 891:.\Generated_Source\PSoC4/SPIS.c ****         SPIS_EnableRxInt();
 892:.\Generated_Source\PSoC4/SPIS.c **** 
 893:.\Generated_Source\PSoC4/SPIS.c ****     #endif /* SPIS_RX_SOFTWARE_BUF_ENABLED */
 894:.\Generated_Source\PSoC4/SPIS.c **** }
 452              		.loc 1 894 0
 453              		@ sp needed
 454 000e 7047     		bx	lr
 455              	.L48:
 456              		.align	2
 457              	.L47:
 458 0010 51000F40 		.word	1074724945
 459 0014 60000F40 		.word	1074724960
 460              		.cfi_endproc
 461              	.LFE19:
 462              		.size	SPIS_ClearRxBuffer, .-SPIS_ClearRxBuffer
 463              		.section	.text.SPIS_ClearTxBuffer,"ax",%progbits
 464              		.align	2
 465              		.global	SPIS_ClearTxBuffer
 466              		.code	16
 467              		.thumb_func
 468              		.type	SPIS_ClearTxBuffer, %function
 469              	SPIS_ClearTxBuffer:
 470              	.LFB20:
 895:.\Generated_Source\PSoC4/SPIS.c **** 
 896:.\Generated_Source\PSoC4/SPIS.c **** 
ARM GAS  C:\Users\TOM~1.MCK\AppData\Local\Temp\cclpicWu.s 			page 25


 897:.\Generated_Source\PSoC4/SPIS.c **** /*******************************************************************************
 898:.\Generated_Source\PSoC4/SPIS.c **** * Function Name: SPIS_ClearTxBuffer
 899:.\Generated_Source\PSoC4/SPIS.c **** ********************************************************************************
 900:.\Generated_Source\PSoC4/SPIS.c **** *
 901:.\Generated_Source\PSoC4/SPIS.c **** * Summary:
 902:.\Generated_Source\PSoC4/SPIS.c **** *  Clear the TX RAM buffer by setting the read and write pointers both to zero.
 903:.\Generated_Source\PSoC4/SPIS.c **** *
 904:.\Generated_Source\PSoC4/SPIS.c **** * Parameters:
 905:.\Generated_Source\PSoC4/SPIS.c **** *  None.
 906:.\Generated_Source\PSoC4/SPIS.c **** *
 907:.\Generated_Source\PSoC4/SPIS.c **** * Return:
 908:.\Generated_Source\PSoC4/SPIS.c **** *  None.
 909:.\Generated_Source\PSoC4/SPIS.c **** *
 910:.\Generated_Source\PSoC4/SPIS.c **** * Global variables:
 911:.\Generated_Source\PSoC4/SPIS.c **** *  SPIS_txBufferWrite - used for the account of the bytes which
 912:.\Generated_Source\PSoC4/SPIS.c **** *  have been written down in the TX software buffer, modified every function
 913:.\Generated_Source\PSoC4/SPIS.c **** *  call - resets to zero.
 914:.\Generated_Source\PSoC4/SPIS.c **** *  SPIS_txBufferRead - used for the account of the bytes which
 915:.\Generated_Source\PSoC4/SPIS.c **** *  have been read from the TX software buffer, modified every function call -
 916:.\Generated_Source\PSoC4/SPIS.c **** *  resets to zero.
 917:.\Generated_Source\PSoC4/SPIS.c **** *
 918:.\Generated_Source\PSoC4/SPIS.c **** * Theory:
 919:.\Generated_Source\PSoC4/SPIS.c **** *  Setting the pointers to zero makes the system believe there is no data to
 920:.\Generated_Source\PSoC4/SPIS.c **** *  read and writing will resume at address 0 overwriting any data that may have
 921:.\Generated_Source\PSoC4/SPIS.c **** *  remained in the RAM.
 922:.\Generated_Source\PSoC4/SPIS.c **** *
 923:.\Generated_Source\PSoC4/SPIS.c **** * Side Effects:
 924:.\Generated_Source\PSoC4/SPIS.c **** *  Any data not yet transmitted from the RAM buffer will be lost when
 925:.\Generated_Source\PSoC4/SPIS.c **** *  overwritten.
 926:.\Generated_Source\PSoC4/SPIS.c **** *
 927:.\Generated_Source\PSoC4/SPIS.c **** * Reentrant:
 928:.\Generated_Source\PSoC4/SPIS.c **** *  No.
 929:.\Generated_Source\PSoC4/SPIS.c **** *
 930:.\Generated_Source\PSoC4/SPIS.c **** *******************************************************************************/
 931:.\Generated_Source\PSoC4/SPIS.c **** void SPIS_ClearTxBuffer(void) 
 932:.\Generated_Source\PSoC4/SPIS.c **** {
 471              		.loc 1 932 0
 472              		.cfi_startproc
 473 0000 08B5     		push	{r3, lr}
 474              		.cfi_def_cfa_offset 8
 475              		.cfi_offset 3, -8
 476              		.cfi_offset 14, -4
 933:.\Generated_Source\PSoC4/SPIS.c ****     uint8 enableInterrupts;
 934:.\Generated_Source\PSoC4/SPIS.c **** 
 935:.\Generated_Source\PSoC4/SPIS.c ****     /* Clear Hardware TX FIFO */
 936:.\Generated_Source\PSoC4/SPIS.c ****     enableInterrupts = CyEnterCriticalSection();
 477              		.loc 1 936 0
 478 0002 FFF7FEFF 		bl	CyEnterCriticalSection
 479              	.LVL17:
 937:.\Generated_Source\PSoC4/SPIS.c **** 
 938:.\Generated_Source\PSoC4/SPIS.c ****     #if(SPIS_DATA_WIDTH <= 8u)
 939:.\Generated_Source\PSoC4/SPIS.c **** 
 940:.\Generated_Source\PSoC4/SPIS.c ****         /* Clear TX FIFO */
 941:.\Generated_Source\PSoC4/SPIS.c ****         SPIS_TX_AUX_CONTROL_DP0_REG |= (uint8)SPIS_FIFO_CLR;
 480              		.loc 1 941 0
 481 0006 064B     		ldr	r3, .L50
 482 0008 1978     		ldrb	r1, [r3]
ARM GAS  C:\Users\TOM~1.MCK\AppData\Local\Temp\cclpicWu.s 			page 26


 483 000a 0322     		mov	r2, #3
 484 000c 0A43     		orr	r2, r1
 485 000e 1A70     		strb	r2, [r3]
 942:.\Generated_Source\PSoC4/SPIS.c ****         SPIS_TX_AUX_CONTROL_DP0_REG &= (uint8)~SPIS_FIFO_CLR;
 486              		.loc 1 942 0
 487 0010 1A78     		ldrb	r2, [r3]
 488 0012 0321     		mov	r1, #3
 489 0014 8A43     		bic	r2, r1
 490 0016 1A70     		strb	r2, [r3]
 943:.\Generated_Source\PSoC4/SPIS.c **** 
 944:.\Generated_Source\PSoC4/SPIS.c ****     #else
 945:.\Generated_Source\PSoC4/SPIS.c **** 
 946:.\Generated_Source\PSoC4/SPIS.c ****         /* Clear TX FIFO */
 947:.\Generated_Source\PSoC4/SPIS.c ****         SPIS_TX_AUX_CONTROL_DP0_REG |= (uint8)SPIS_FIFO_CLR;
 948:.\Generated_Source\PSoC4/SPIS.c ****         SPIS_TX_AUX_CONTROL_DP0_REG &= (uint8)~SPIS_FIFO_CLR;
 949:.\Generated_Source\PSoC4/SPIS.c ****         SPIS_TX_AUX_CONTROL_DP1_REG |= (uint8)SPIS_FIFO_CLR;
 950:.\Generated_Source\PSoC4/SPIS.c ****         SPIS_TX_AUX_CONTROL_DP1_REG &= (uint8)~SPIS_FIFO_CLR;
 951:.\Generated_Source\PSoC4/SPIS.c **** 
 952:.\Generated_Source\PSoC4/SPIS.c ****     #endif /* SPIS_DATA_WIDTH > 8u */
 953:.\Generated_Source\PSoC4/SPIS.c **** 
 954:.\Generated_Source\PSoC4/SPIS.c ****     CyExitCriticalSection(enableInterrupts);
 491              		.loc 1 954 0
 492 0018 FFF7FEFF 		bl	CyExitCriticalSection
 493              	.LVL18:
 955:.\Generated_Source\PSoC4/SPIS.c **** 
 956:.\Generated_Source\PSoC4/SPIS.c ****     #if(SPIS_TX_SOFTWARE_BUF_ENABLED)
 957:.\Generated_Source\PSoC4/SPIS.c **** 
 958:.\Generated_Source\PSoC4/SPIS.c ****         /* Disable Interrupt to protect variables that could change on interrupt. */
 959:.\Generated_Source\PSoC4/SPIS.c ****         SPIS_DisableTxInt();
 960:.\Generated_Source\PSoC4/SPIS.c **** 
 961:.\Generated_Source\PSoC4/SPIS.c ****         SPIS_txBufferRead  = 0u;
 962:.\Generated_Source\PSoC4/SPIS.c ****         SPIS_txBufferWrite = 0u;
 963:.\Generated_Source\PSoC4/SPIS.c **** 		SPIS_txBufferFull  = 0u;
 964:.\Generated_Source\PSoC4/SPIS.c **** 		
 965:.\Generated_Source\PSoC4/SPIS.c ****         /* If Buffer is empty then disable TX FIFO status interrupt */
 966:.\Generated_Source\PSoC4/SPIS.c ****         SPIS_TX_STATUS_MASK_REG &= (uint8)~SPIS_STS_TX_FIFO_NOT_FULL;
 967:.\Generated_Source\PSoC4/SPIS.c **** 
 968:.\Generated_Source\PSoC4/SPIS.c ****         /* Enable Interrupt. */
 969:.\Generated_Source\PSoC4/SPIS.c ****         SPIS_EnableTxInt();
 970:.\Generated_Source\PSoC4/SPIS.c **** 
 971:.\Generated_Source\PSoC4/SPIS.c ****     #endif /* SPIS_TX_SOFTWARE_BUF_ENABLED */
 972:.\Generated_Source\PSoC4/SPIS.c **** }
 494              		.loc 1 972 0
 495              		@ sp needed
 496 001c 08BD     		pop	{r3, pc}
 497              	.L51:
 498 001e C046     		.align	2
 499              	.L50:
 500 0020 91000F40 		.word	1074725009
 501              		.cfi_endproc
 502              	.LFE20:
 503              		.size	SPIS_ClearTxBuffer, .-SPIS_ClearTxBuffer
 504              		.section	.text.SPIS_PutArray,"ax",%progbits
 505              		.align	2
 506              		.global	SPIS_PutArray
 507              		.code	16
 508              		.thumb_func
ARM GAS  C:\Users\TOM~1.MCK\AppData\Local\Temp\cclpicWu.s 			page 27


 509              		.type	SPIS_PutArray, %function
 510              	SPIS_PutArray:
 511              	.LFB21:
 973:.\Generated_Source\PSoC4/SPIS.c **** 
 974:.\Generated_Source\PSoC4/SPIS.c **** 
 975:.\Generated_Source\PSoC4/SPIS.c **** #if (SPIS_BIDIRECTIONAL_MODE != 0u)
 976:.\Generated_Source\PSoC4/SPIS.c **** 
 977:.\Generated_Source\PSoC4/SPIS.c ****     /*******************************************************************************
 978:.\Generated_Source\PSoC4/SPIS.c ****     * Function Name: SPIS_TxEnable
 979:.\Generated_Source\PSoC4/SPIS.c ****     ********************************************************************************
 980:.\Generated_Source\PSoC4/SPIS.c ****     *
 981:.\Generated_Source\PSoC4/SPIS.c ****     * Summary:
 982:.\Generated_Source\PSoC4/SPIS.c ****     *  If the SPI Slave is configured to use a single bi-directional pin then this
 983:.\Generated_Source\PSoC4/SPIS.c ****     *  will set the bi-directional pin to transmit.
 984:.\Generated_Source\PSoC4/SPIS.c ****     *
 985:.\Generated_Source\PSoC4/SPIS.c ****     * Parameters:
 986:.\Generated_Source\PSoC4/SPIS.c ****     *  None.
 987:.\Generated_Source\PSoC4/SPIS.c ****     *
 988:.\Generated_Source\PSoC4/SPIS.c ****     * Return:
 989:.\Generated_Source\PSoC4/SPIS.c ****     *  None.
 990:.\Generated_Source\PSoC4/SPIS.c ****     *
 991:.\Generated_Source\PSoC4/SPIS.c ****     *******************************************************************************/
 992:.\Generated_Source\PSoC4/SPIS.c ****     void SPIS_TxEnable(void) 
 993:.\Generated_Source\PSoC4/SPIS.c ****     {
 994:.\Generated_Source\PSoC4/SPIS.c ****             SPIS_CONTROL_REG |= SPIS_CTRL_TX_SIGNAL_EN;
 995:.\Generated_Source\PSoC4/SPIS.c ****     }
 996:.\Generated_Source\PSoC4/SPIS.c **** 
 997:.\Generated_Source\PSoC4/SPIS.c **** 
 998:.\Generated_Source\PSoC4/SPIS.c ****     /*******************************************************************************
 999:.\Generated_Source\PSoC4/SPIS.c ****     * Function Name: SPIS_TxDisable
1000:.\Generated_Source\PSoC4/SPIS.c ****     ********************************************************************************
1001:.\Generated_Source\PSoC4/SPIS.c ****     *
1002:.\Generated_Source\PSoC4/SPIS.c ****     * Summary:
1003:.\Generated_Source\PSoC4/SPIS.c ****     *  If the SPI Slave is configured to use a single bi-directional pin then this
1004:.\Generated_Source\PSoC4/SPIS.c ****     *  will set the bi-directional pin to receive.
1005:.\Generated_Source\PSoC4/SPIS.c ****     *
1006:.\Generated_Source\PSoC4/SPIS.c ****     * Parameters:
1007:.\Generated_Source\PSoC4/SPIS.c ****     *  None.
1008:.\Generated_Source\PSoC4/SPIS.c ****     *
1009:.\Generated_Source\PSoC4/SPIS.c ****     * Return:
1010:.\Generated_Source\PSoC4/SPIS.c ****     *  None.
1011:.\Generated_Source\PSoC4/SPIS.c ****     *
1012:.\Generated_Source\PSoC4/SPIS.c ****     *******************************************************************************/
1013:.\Generated_Source\PSoC4/SPIS.c ****     void SPIS_TxDisable(void) 
1014:.\Generated_Source\PSoC4/SPIS.c ****     {
1015:.\Generated_Source\PSoC4/SPIS.c ****             SPIS_CONTROL_REG &= (uint8)~SPIS_CTRL_TX_SIGNAL_EN;
1016:.\Generated_Source\PSoC4/SPIS.c ****     }
1017:.\Generated_Source\PSoC4/SPIS.c **** 
1018:.\Generated_Source\PSoC4/SPIS.c **** #endif /* SPIS_BIDIRECTIONAL_MODE != 0u */
1019:.\Generated_Source\PSoC4/SPIS.c **** 
1020:.\Generated_Source\PSoC4/SPIS.c **** 
1021:.\Generated_Source\PSoC4/SPIS.c **** /*******************************************************************************
1022:.\Generated_Source\PSoC4/SPIS.c **** * Function Name: SPIS_PutArray
1023:.\Generated_Source\PSoC4/SPIS.c **** ********************************************************************************
1024:.\Generated_Source\PSoC4/SPIS.c **** *
1025:.\Generated_Source\PSoC4/SPIS.c **** * Summary:
1026:.\Generated_Source\PSoC4/SPIS.c **** *  Write available data from RAM/ROM to the TX buffer while space is available
ARM GAS  C:\Users\TOM~1.MCK\AppData\Local\Temp\cclpicWu.s 			page 28


1027:.\Generated_Source\PSoC4/SPIS.c **** *  in the TX buffer. Keep trying until all data is passed to the TX buffer. If
1028:.\Generated_Source\PSoC4/SPIS.c **** *  used Mode 00 or 01 before PutArray() function should be called
1029:.\Generated_Source\PSoC4/SPIS.c **** *  WriteTxDataZero() function.
1030:.\Generated_Source\PSoC4/SPIS.c **** *
1031:.\Generated_Source\PSoC4/SPIS.c **** * Parameters:
1032:.\Generated_Source\PSoC4/SPIS.c **** *  *buffer: Pointer to the location in RAM containing the data to send
1033:.\Generated_Source\PSoC4/SPIS.c **** *  byteCount: The number of bytes to move to the transmit buffer.
1034:.\Generated_Source\PSoC4/SPIS.c **** *
1035:.\Generated_Source\PSoC4/SPIS.c **** * Return:
1036:.\Generated_Source\PSoC4/SPIS.c **** *  None.
1037:.\Generated_Source\PSoC4/SPIS.c **** *
1038:.\Generated_Source\PSoC4/SPIS.c **** * Side Effects:
1039:.\Generated_Source\PSoC4/SPIS.c **** *  Will stay in this routine until all data has been sent.  May get locked in
1040:.\Generated_Source\PSoC4/SPIS.c **** *  this loop if data is not being initiated by the master if there is not
1041:.\Generated_Source\PSoC4/SPIS.c **** *  enough room in the TX FIFO.
1042:.\Generated_Source\PSoC4/SPIS.c **** *
1043:.\Generated_Source\PSoC4/SPIS.c **** * Reentrant:
1044:.\Generated_Source\PSoC4/SPIS.c **** *  No.
1045:.\Generated_Source\PSoC4/SPIS.c **** *
1046:.\Generated_Source\PSoC4/SPIS.c **** *******************************************************************************/
1047:.\Generated_Source\PSoC4/SPIS.c **** void SPIS_PutArray(const uint8 buffer[], uint8 byteCount)
1048:.\Generated_Source\PSoC4/SPIS.c ****                                                                     
1049:.\Generated_Source\PSoC4/SPIS.c **** {
 512              		.loc 1 1049 0
 513              		.cfi_startproc
 514              	.LVL19:
 515 0000 70B5     		push	{r4, r5, r6, lr}
 516              		.cfi_def_cfa_offset 16
 517              		.cfi_offset 4, -16
 518              		.cfi_offset 5, -12
 519              		.cfi_offset 6, -8
 520              		.cfi_offset 14, -4
 521 0002 061C     		mov	r6, r0
 522 0004 0C1C     		mov	r4, r1
 523              	.LVL20:
1050:.\Generated_Source\PSoC4/SPIS.c ****     uint8 bufIndex;
1051:.\Generated_Source\PSoC4/SPIS.c ****     bufIndex = 0u;
 524              		.loc 1 1051 0
 525 0006 0025     		mov	r5, #0
1052:.\Generated_Source\PSoC4/SPIS.c **** 
1053:.\Generated_Source\PSoC4/SPIS.c ****     while(byteCount > 0u)
 526              		.loc 1 1053 0
 527 0008 06E0     		b	.L53
 528              	.LVL21:
 529              	.L54:
1054:.\Generated_Source\PSoC4/SPIS.c ****     {
1055:.\Generated_Source\PSoC4/SPIS.c ****         SPIS_WriteTxData(buffer[bufIndex]);
 530              		.loc 1 1055 0
 531 000a 705D     		ldrb	r0, [r6, r5]
 532 000c FFF7FEFF 		bl	SPIS_WriteTxData
 533              	.LVL22:
1056:.\Generated_Source\PSoC4/SPIS.c ****         bufIndex++;
 534              		.loc 1 1056 0
 535 0010 0135     		add	r5, r5, #1
 536              	.LVL23:
 537 0012 EDB2     		uxtb	r5, r5
 538              	.LVL24:
ARM GAS  C:\Users\TOM~1.MCK\AppData\Local\Temp\cclpicWu.s 			page 29


1057:.\Generated_Source\PSoC4/SPIS.c ****         byteCount--;
 539              		.loc 1 1057 0
 540 0014 013C     		sub	r4, r4, #1
 541              	.LVL25:
 542 0016 E4B2     		uxtb	r4, r4
 543              	.LVL26:
 544              	.L53:
1053:.\Generated_Source\PSoC4/SPIS.c ****     {
 545              		.loc 1 1053 0
 546 0018 002C     		cmp	r4, #0
 547 001a F6D1     		bne	.L54
1058:.\Generated_Source\PSoC4/SPIS.c ****     }
1059:.\Generated_Source\PSoC4/SPIS.c **** }
 548              		.loc 1 1059 0
 549              		@ sp needed
 550              	.LVL27:
 551              	.LVL28:
 552              	.LVL29:
 553 001c 70BD     		pop	{r4, r5, r6, pc}
 554              		.cfi_endproc
 555              	.LFE21:
 556              		.size	SPIS_PutArray, .-SPIS_PutArray
 557 001e C046     		.section	.text.SPIS_ClearFIFO,"ax",%progbits
 558              		.align	2
 559              		.global	SPIS_ClearFIFO
 560              		.code	16
 561              		.thumb_func
 562              		.type	SPIS_ClearFIFO, %function
 563              	SPIS_ClearFIFO:
 564              	.LFB22:
1060:.\Generated_Source\PSoC4/SPIS.c **** 
1061:.\Generated_Source\PSoC4/SPIS.c **** 
1062:.\Generated_Source\PSoC4/SPIS.c **** /*******************************************************************************
1063:.\Generated_Source\PSoC4/SPIS.c **** * Function Name: SPIS_ClearFIFO
1064:.\Generated_Source\PSoC4/SPIS.c **** ********************************************************************************
1065:.\Generated_Source\PSoC4/SPIS.c **** *
1066:.\Generated_Source\PSoC4/SPIS.c **** * Summary:
1067:.\Generated_Source\PSoC4/SPIS.c **** *  Clear the RX and TX FIFO's of all data for a fresh start.
1068:.\Generated_Source\PSoC4/SPIS.c **** *
1069:.\Generated_Source\PSoC4/SPIS.c **** * Parameters:
1070:.\Generated_Source\PSoC4/SPIS.c **** *  None.
1071:.\Generated_Source\PSoC4/SPIS.c **** *
1072:.\Generated_Source\PSoC4/SPIS.c **** * Return:
1073:.\Generated_Source\PSoC4/SPIS.c **** *  None.
1074:.\Generated_Source\PSoC4/SPIS.c **** *
1075:.\Generated_Source\PSoC4/SPIS.c **** * Side Effects:
1076:.\Generated_Source\PSoC4/SPIS.c **** *  Clear status register of the component.
1077:.\Generated_Source\PSoC4/SPIS.c **** *
1078:.\Generated_Source\PSoC4/SPIS.c **** *******************************************************************************/
1079:.\Generated_Source\PSoC4/SPIS.c **** void SPIS_ClearFIFO(void) 
1080:.\Generated_Source\PSoC4/SPIS.c **** {
 565              		.loc 1 1080 0
 566              		.cfi_startproc
 567 0000 08B5     		push	{r3, lr}
 568              		.cfi_def_cfa_offset 8
 569              		.cfi_offset 3, -8
 570              		.cfi_offset 14, -4
ARM GAS  C:\Users\TOM~1.MCK\AppData\Local\Temp\cclpicWu.s 			page 30


1081:.\Generated_Source\PSoC4/SPIS.c ****     uint8 enableInterrupts;
1082:.\Generated_Source\PSoC4/SPIS.c **** 
1083:.\Generated_Source\PSoC4/SPIS.c ****     while((SPIS_RX_STATUS_REG & SPIS_STS_RX_FIFO_NOT_EMPTY) != 0u)
 571              		.loc 1 1083 0
 572 0002 01E0     		b	.L56
 573              	.L57:
1084:.\Generated_Source\PSoC4/SPIS.c ****     {
1085:.\Generated_Source\PSoC4/SPIS.c ****         CY_GET_REG8(SPIS_RXDATA_PTR);
 574              		.loc 1 1085 0
 575 0004 094B     		ldr	r3, .L58
 576 0006 1B78     		ldrb	r3, [r3]
 577              	.L56:
1083:.\Generated_Source\PSoC4/SPIS.c ****     {
 578              		.loc 1 1083 0
 579 0008 094B     		ldr	r3, .L58+4
 580 000a 1B78     		ldrb	r3, [r3]
 581 000c 1B07     		lsl	r3, r3, #28
 582 000e F9D4     		bmi	.L57
1086:.\Generated_Source\PSoC4/SPIS.c ****     }
1087:.\Generated_Source\PSoC4/SPIS.c **** 
1088:.\Generated_Source\PSoC4/SPIS.c ****     enableInterrupts = CyEnterCriticalSection();
 583              		.loc 1 1088 0
 584 0010 FFF7FEFF 		bl	CyEnterCriticalSection
 585              	.LVL30:
1089:.\Generated_Source\PSoC4/SPIS.c **** 
1090:.\Generated_Source\PSoC4/SPIS.c ****     #if(SPIS_DATA_WIDTH <= 8u)
1091:.\Generated_Source\PSoC4/SPIS.c **** 
1092:.\Generated_Source\PSoC4/SPIS.c ****         /* Clear TX FIFO */
1093:.\Generated_Source\PSoC4/SPIS.c ****         SPIS_TX_AUX_CONTROL_DP0_REG |= (uint8)SPIS_FIFO_CLR;
 586              		.loc 1 1093 0
 587 0014 074B     		ldr	r3, .L58+8
 588 0016 1978     		ldrb	r1, [r3]
 589 0018 0322     		mov	r2, #3
 590 001a 0A43     		orr	r2, r1
 591 001c 1A70     		strb	r2, [r3]
1094:.\Generated_Source\PSoC4/SPIS.c ****         SPIS_TX_AUX_CONTROL_DP0_REG &= (uint8)~SPIS_FIFO_CLR;
 592              		.loc 1 1094 0
 593 001e 1A78     		ldrb	r2, [r3]
 594 0020 0321     		mov	r1, #3
 595 0022 8A43     		bic	r2, r1
 596 0024 1A70     		strb	r2, [r3]
1095:.\Generated_Source\PSoC4/SPIS.c **** 
1096:.\Generated_Source\PSoC4/SPIS.c ****     #else
1097:.\Generated_Source\PSoC4/SPIS.c **** 
1098:.\Generated_Source\PSoC4/SPIS.c ****         /* Clear TX FIFO */
1099:.\Generated_Source\PSoC4/SPIS.c ****         SPIS_TX_AUX_CONTROL_DP0_REG |= (uint8)SPIS_FIFO_CLR;
1100:.\Generated_Source\PSoC4/SPIS.c ****         SPIS_TX_AUX_CONTROL_DP0_REG &= (uint8)~SPIS_FIFO_CLR;
1101:.\Generated_Source\PSoC4/SPIS.c ****         SPIS_TX_AUX_CONTROL_DP1_REG |= (uint8)SPIS_FIFO_CLR;
1102:.\Generated_Source\PSoC4/SPIS.c ****         SPIS_TX_AUX_CONTROL_DP1_REG &= (uint8)~SPIS_FIFO_CLR;
1103:.\Generated_Source\PSoC4/SPIS.c **** 
1104:.\Generated_Source\PSoC4/SPIS.c ****     #endif /* SPIS_DATA_WIDTH <= 8u */
1105:.\Generated_Source\PSoC4/SPIS.c **** 
1106:.\Generated_Source\PSoC4/SPIS.c ****     CyExitCriticalSection(enableInterrupts);
 597              		.loc 1 1106 0
 598 0026 FFF7FEFF 		bl	CyExitCriticalSection
 599              	.LVL31:
1107:.\Generated_Source\PSoC4/SPIS.c **** }
ARM GAS  C:\Users\TOM~1.MCK\AppData\Local\Temp\cclpicWu.s 			page 31


 600              		.loc 1 1107 0
 601              		@ sp needed
 602 002a 08BD     		pop	{r3, pc}
 603              	.L59:
 604              		.align	2
 605              	.L58:
 606 002c 51000F40 		.word	1074724945
 607 0030 60000F40 		.word	1074724960
 608 0034 91000F40 		.word	1074725009
 609              		.cfi_endproc
 610              	.LFE22:
 611              		.size	SPIS_ClearFIFO, .-SPIS_ClearFIFO
 612              		.section	.text.SPIS_Init,"ax",%progbits
 613              		.align	2
 614              		.global	SPIS_Init
 615              		.code	16
 616              		.thumb_func
 617              		.type	SPIS_Init, %function
 618              	SPIS_Init:
 619              	.LFB2:
  68:.\Generated_Source\PSoC4/SPIS.c ****     /*Initialize the Bit counter */
 620              		.loc 1 68 0
 621              		.cfi_startproc
 622 0000 08B5     		push	{r3, lr}
 623              		.cfi_def_cfa_offset 8
 624              		.cfi_offset 3, -8
 625              		.cfi_offset 14, -4
  70:.\Generated_Source\PSoC4/SPIS.c **** 
 626              		.loc 1 70 0
 627 0002 0722     		mov	r2, #7
 628 0004 074B     		ldr	r3, .L61
 629 0006 1A70     		strb	r2, [r3]
  98:.\Generated_Source\PSoC4/SPIS.c **** 
 630              		.loc 1 98 0
 631 0008 FFF7FEFF 		bl	SPIS_ClearFIFO
 632              	.LVL32:
 112:.\Generated_Source\PSoC4/SPIS.c ****     (void) SPIS_ReadRxStatus(); /* Clear any pending status bits */
 633              		.loc 1 112 0
 634 000c FFF7FEFF 		bl	SPIS_ReadTxStatus
 635              	.LVL33:
 113:.\Generated_Source\PSoC4/SPIS.c **** 
 636              		.loc 1 113 0
 637 0010 FFF7FEFF 		bl	SPIS_ReadRxStatus
 638              	.LVL34:
 121:.\Generated_Source\PSoC4/SPIS.c ****     #endif /* SPIS_TX_SOFTWARE_BUF_ENABLED */
 639              		.loc 1 121 0
 640 0014 0222     		mov	r2, #2
 641 0016 044B     		ldr	r3, .L61+4
 642 0018 1A70     		strb	r2, [r3]
 124:.\Generated_Source\PSoC4/SPIS.c **** }
 643              		.loc 1 124 0
 644 001a 0632     		add	r2, r2, #6
 645 001c 034B     		ldr	r3, .L61+8
 646 001e 1A70     		strb	r2, [r3]
 125:.\Generated_Source\PSoC4/SPIS.c **** 
 647              		.loc 1 125 0
 648              		@ sp needed
ARM GAS  C:\Users\TOM~1.MCK\AppData\Local\Temp\cclpicWu.s 			page 32


 649 0020 08BD     		pop	{r3, pc}
 650              	.L62:
 651 0022 C046     		.align	2
 652              	.L61:
 653 0024 82000F40 		.word	1074724994
 654 0028 83000F40 		.word	1074724995
 655 002c 80000F40 		.word	1074724992
 656              		.cfi_endproc
 657              	.LFE2:
 658              		.size	SPIS_Init, .-SPIS_Init
 659              		.section	.text.SPIS_Start,"ax",%progbits
 660              		.align	2
 661              		.global	SPIS_Start
 662              		.code	16
 663              		.thumb_func
 664              		.type	SPIS_Start, %function
 665              	SPIS_Start:
 666              	.LFB4:
 188:.\Generated_Source\PSoC4/SPIS.c ****     if(SPIS_initVar == 0u)
 667              		.loc 1 188 0
 668              		.cfi_startproc
 669 0000 08B5     		push	{r3, lr}
 670              		.cfi_def_cfa_offset 8
 671              		.cfi_offset 3, -8
 672              		.cfi_offset 14, -4
 189:.\Generated_Source\PSoC4/SPIS.c ****     {
 673              		.loc 1 189 0
 674 0002 064B     		ldr	r3, .L65
 675 0004 1B78     		ldrb	r3, [r3]
 676 0006 002B     		cmp	r3, #0
 677 0008 04D1     		bne	.L64
 191:.\Generated_Source\PSoC4/SPIS.c ****         SPIS_initVar = 1u;
 678              		.loc 1 191 0
 679 000a FFF7FEFF 		bl	SPIS_Init
 680              	.LVL35:
 192:.\Generated_Source\PSoC4/SPIS.c ****     }
 681              		.loc 1 192 0
 682 000e 0122     		mov	r2, #1
 683 0010 024B     		ldr	r3, .L65
 684 0012 1A70     		strb	r2, [r3]
 685              	.L64:
 195:.\Generated_Source\PSoC4/SPIS.c **** }
 686              		.loc 1 195 0
 687 0014 FFF7FEFF 		bl	SPIS_Enable
 688              	.LVL36:
 196:.\Generated_Source\PSoC4/SPIS.c **** 
 689              		.loc 1 196 0
 690              		@ sp needed
 691 0018 08BD     		pop	{r3, pc}
 692              	.L66:
 693 001a C046     		.align	2
 694              	.L65:
 695 001c 00000000 		.word	.LANCHOR0
 696              		.cfi_endproc
 697              	.LFE4:
 698              		.size	SPIS_Start, .-SPIS_Start
 699              		.section	.text.SPIS_EnableInt,"ax",%progbits
ARM GAS  C:\Users\TOM~1.MCK\AppData\Local\Temp\cclpicWu.s 			page 33


 700              		.align	2
 701              		.global	SPIS_EnableInt
 702              		.code	16
 703              		.thumb_func
 704              		.type	SPIS_EnableInt, %function
 705              	SPIS_EnableInt:
 706              	.LFB23:
1108:.\Generated_Source\PSoC4/SPIS.c **** 
1109:.\Generated_Source\PSoC4/SPIS.c **** 
1110:.\Generated_Source\PSoC4/SPIS.c **** /* Following functions are for version Compatibility, they are obsolete.
1111:.\Generated_Source\PSoC4/SPIS.c **** *  Please do not use it in new projects.
1112:.\Generated_Source\PSoC4/SPIS.c **** */
1113:.\Generated_Source\PSoC4/SPIS.c **** 
1114:.\Generated_Source\PSoC4/SPIS.c **** 
1115:.\Generated_Source\PSoC4/SPIS.c **** /*******************************************************************************
1116:.\Generated_Source\PSoC4/SPIS.c **** * Function Name: SPIS_EnableInt
1117:.\Generated_Source\PSoC4/SPIS.c **** ********************************************************************************
1118:.\Generated_Source\PSoC4/SPIS.c **** *
1119:.\Generated_Source\PSoC4/SPIS.c **** * Summary:
1120:.\Generated_Source\PSoC4/SPIS.c **** *  Enable internal interrupt generation.
1121:.\Generated_Source\PSoC4/SPIS.c **** *
1122:.\Generated_Source\PSoC4/SPIS.c **** * Parameters:
1123:.\Generated_Source\PSoC4/SPIS.c **** *  None.
1124:.\Generated_Source\PSoC4/SPIS.c **** *
1125:.\Generated_Source\PSoC4/SPIS.c **** * Return:
1126:.\Generated_Source\PSoC4/SPIS.c **** *  None.
1127:.\Generated_Source\PSoC4/SPIS.c **** *
1128:.\Generated_Source\PSoC4/SPIS.c **** * Theory:
1129:.\Generated_Source\PSoC4/SPIS.c **** *  Enable the internal interrupt output -or- the interrupt component itself.
1130:.\Generated_Source\PSoC4/SPIS.c **** *
1131:.\Generated_Source\PSoC4/SPIS.c **** *******************************************************************************/
1132:.\Generated_Source\PSoC4/SPIS.c **** void SPIS_EnableInt(void) 
1133:.\Generated_Source\PSoC4/SPIS.c **** {
 707              		.loc 1 1133 0
 708              		.cfi_startproc
1134:.\Generated_Source\PSoC4/SPIS.c ****     #if(SPIS_INTERNAL_TX_INT_ENABLED)
1135:.\Generated_Source\PSoC4/SPIS.c ****         CyIntEnable(SPIS_TX_ISR_NUMBER);
1136:.\Generated_Source\PSoC4/SPIS.c ****     #endif /* SPIS_INTERNAL_TX_INT_ENABLED */
1137:.\Generated_Source\PSoC4/SPIS.c **** 
1138:.\Generated_Source\PSoC4/SPIS.c ****     #if(SPIS_INTERNAL_RX_INT_ENABLED)
1139:.\Generated_Source\PSoC4/SPIS.c ****         CyIntEnable(SPIS_RX_ISR_NUMBER);
1140:.\Generated_Source\PSoC4/SPIS.c ****     #endif /* SPIS_INTERNAL_RX_INT_ENABLED */
1141:.\Generated_Source\PSoC4/SPIS.c **** }
 709              		.loc 1 1141 0
 710              		@ sp needed
 711 0000 7047     		bx	lr
 712              		.cfi_endproc
 713              	.LFE23:
 714              		.size	SPIS_EnableInt, .-SPIS_EnableInt
 715 0002 C046     		.section	.text.SPIS_DisableInt,"ax",%progbits
 716              		.align	2
 717              		.global	SPIS_DisableInt
 718              		.code	16
 719              		.thumb_func
 720              		.type	SPIS_DisableInt, %function
 721              	SPIS_DisableInt:
 722              	.LFB24:
ARM GAS  C:\Users\TOM~1.MCK\AppData\Local\Temp\cclpicWu.s 			page 34


1142:.\Generated_Source\PSoC4/SPIS.c **** 
1143:.\Generated_Source\PSoC4/SPIS.c **** 
1144:.\Generated_Source\PSoC4/SPIS.c **** /*******************************************************************************
1145:.\Generated_Source\PSoC4/SPIS.c **** * Function Name: SPIS_DisableInt
1146:.\Generated_Source\PSoC4/SPIS.c **** ********************************************************************************
1147:.\Generated_Source\PSoC4/SPIS.c **** *
1148:.\Generated_Source\PSoC4/SPIS.c **** * Summary:
1149:.\Generated_Source\PSoC4/SPIS.c **** *  Disable internal interrupt generation.
1150:.\Generated_Source\PSoC4/SPIS.c **** *
1151:.\Generated_Source\PSoC4/SPIS.c **** * Parameters:
1152:.\Generated_Source\PSoC4/SPIS.c **** *  None.
1153:.\Generated_Source\PSoC4/SPIS.c **** *
1154:.\Generated_Source\PSoC4/SPIS.c **** * Return:
1155:.\Generated_Source\PSoC4/SPIS.c **** *  None.
1156:.\Generated_Source\PSoC4/SPIS.c **** *
1157:.\Generated_Source\PSoC4/SPIS.c **** * Theory:
1158:.\Generated_Source\PSoC4/SPIS.c **** *  Disable the internal interrupt output -or- the interrupt component itself.
1159:.\Generated_Source\PSoC4/SPIS.c **** *
1160:.\Generated_Source\PSoC4/SPIS.c **** *******************************************************************************/
1161:.\Generated_Source\PSoC4/SPIS.c **** void SPIS_DisableInt(void) 
1162:.\Generated_Source\PSoC4/SPIS.c **** {
 723              		.loc 1 1162 0
 724              		.cfi_startproc
1163:.\Generated_Source\PSoC4/SPIS.c ****     #if(SPIS_INTERNAL_TX_INT_ENABLED)
1164:.\Generated_Source\PSoC4/SPIS.c ****         CyIntDisable(SPIS_TX_ISR_NUMBER);
1165:.\Generated_Source\PSoC4/SPIS.c ****     #endif /* SPIS_INTERNAL_TX_INT_ENABLED */
1166:.\Generated_Source\PSoC4/SPIS.c **** 
1167:.\Generated_Source\PSoC4/SPIS.c ****     #if(SPIS_INTERNAL_RX_INT_ENABLED)
1168:.\Generated_Source\PSoC4/SPIS.c ****         CyIntDisable(SPIS_RX_ISR_NUMBER);
1169:.\Generated_Source\PSoC4/SPIS.c ****     #endif /* SPIS_INTERNAL_RX_INT_ENABLED */
1170:.\Generated_Source\PSoC4/SPIS.c **** }
 725              		.loc 1 1170 0
 726              		@ sp needed
 727 0000 7047     		bx	lr
 728              		.cfi_endproc
 729              	.LFE24:
 730              		.size	SPIS_DisableInt, .-SPIS_DisableInt
 731 0002 C046     		.section	.text.SPIS_SetInterruptMode,"ax",%progbits
 732              		.align	2
 733              		.global	SPIS_SetInterruptMode
 734              		.code	16
 735              		.thumb_func
 736              		.type	SPIS_SetInterruptMode, %function
 737              	SPIS_SetInterruptMode:
 738              	.LFB25:
1171:.\Generated_Source\PSoC4/SPIS.c **** 
1172:.\Generated_Source\PSoC4/SPIS.c **** 
1173:.\Generated_Source\PSoC4/SPIS.c **** /*******************************************************************************
1174:.\Generated_Source\PSoC4/SPIS.c **** * Function Name: SPIS_SetInterruptMode
1175:.\Generated_Source\PSoC4/SPIS.c **** ********************************************************************************
1176:.\Generated_Source\PSoC4/SPIS.c **** *
1177:.\Generated_Source\PSoC4/SPIS.c **** * Summary:
1178:.\Generated_Source\PSoC4/SPIS.c **** *  Configure which status bits trigger an interrupt event.
1179:.\Generated_Source\PSoC4/SPIS.c **** *
1180:.\Generated_Source\PSoC4/SPIS.c **** * Parameters:
1181:.\Generated_Source\PSoC4/SPIS.c **** *  intSrc: An or'd combination of the desired status bit masks (defined in the
1182:.\Generated_Source\PSoC4/SPIS.c **** *  header file).
ARM GAS  C:\Users\TOM~1.MCK\AppData\Local\Temp\cclpicWu.s 			page 35


1183:.\Generated_Source\PSoC4/SPIS.c **** *
1184:.\Generated_Source\PSoC4/SPIS.c **** * Return:
1185:.\Generated_Source\PSoC4/SPIS.c **** *  None.
1186:.\Generated_Source\PSoC4/SPIS.c **** *
1187:.\Generated_Source\PSoC4/SPIS.c **** * Theory:
1188:.\Generated_Source\PSoC4/SPIS.c **** *  Enables the output of specific status bits to the interrupt controller.
1189:.\Generated_Source\PSoC4/SPIS.c **** *
1190:.\Generated_Source\PSoC4/SPIS.c **** *******************************************************************************/
1191:.\Generated_Source\PSoC4/SPIS.c **** void SPIS_SetInterruptMode(uint8 intSrc) 
1192:.\Generated_Source\PSoC4/SPIS.c **** {
 739              		.loc 1 1192 0
 740              		.cfi_startproc
 741              	.LVL37:
1193:.\Generated_Source\PSoC4/SPIS.c ****     SPIS_TX_STATUS_MASK_REG  = intSrc;
 742              		.loc 1 1193 0
 743 0000 024B     		ldr	r3, .L70
 744 0002 1870     		strb	r0, [r3]
1194:.\Generated_Source\PSoC4/SPIS.c ****     SPIS_RX_STATUS_MASK_REG  = intSrc;
 745              		.loc 1 1194 0
 746 0004 024B     		ldr	r3, .L70+4
 747 0006 1870     		strb	r0, [r3]
1195:.\Generated_Source\PSoC4/SPIS.c **** }
 748              		.loc 1 1195 0
 749              		@ sp needed
 750 0008 7047     		bx	lr
 751              	.L71:
 752 000a C046     		.align	2
 753              	.L70:
 754 000c 83000F40 		.word	1074724995
 755 0010 80000F40 		.word	1074724992
 756              		.cfi_endproc
 757              	.LFE25:
 758              		.size	SPIS_SetInterruptMode, .-SPIS_SetInterruptMode
 759              		.section	.text.SPIS_ReadStatus,"ax",%progbits
 760              		.align	2
 761              		.global	SPIS_ReadStatus
 762              		.code	16
 763              		.thumb_func
 764              		.type	SPIS_ReadStatus, %function
 765              	SPIS_ReadStatus:
 766              	.LFB26:
1196:.\Generated_Source\PSoC4/SPIS.c **** 
1197:.\Generated_Source\PSoC4/SPIS.c **** 
1198:.\Generated_Source\PSoC4/SPIS.c **** /*******************************************************************************
1199:.\Generated_Source\PSoC4/SPIS.c **** * Function Name: SPIS_ReadStatus
1200:.\Generated_Source\PSoC4/SPIS.c **** ********************************************************************************
1201:.\Generated_Source\PSoC4/SPIS.c **** *
1202:.\Generated_Source\PSoC4/SPIS.c **** * Summary:
1203:.\Generated_Source\PSoC4/SPIS.c **** *  Read the status register for the component.
1204:.\Generated_Source\PSoC4/SPIS.c **** *
1205:.\Generated_Source\PSoC4/SPIS.c **** * Parameters:
1206:.\Generated_Source\PSoC4/SPIS.c **** *  None.
1207:.\Generated_Source\PSoC4/SPIS.c **** *
1208:.\Generated_Source\PSoC4/SPIS.c **** * Return:
1209:.\Generated_Source\PSoC4/SPIS.c **** *  Contents of the status register.
1210:.\Generated_Source\PSoC4/SPIS.c **** *
1211:.\Generated_Source\PSoC4/SPIS.c **** * Global variables:
ARM GAS  C:\Users\TOM~1.MCK\AppData\Local\Temp\cclpicWu.s 			page 36


1212:.\Generated_Source\PSoC4/SPIS.c **** *  SPIS_swStatus - used to store in software status register,
1213:.\Generated_Source\PSoC4/SPIS.c **** *  modified every function call - resets to zero.
1214:.\Generated_Source\PSoC4/SPIS.c **** *
1215:.\Generated_Source\PSoC4/SPIS.c **** * Theory:
1216:.\Generated_Source\PSoC4/SPIS.c **** *  Allows the user and the API to read the status register for error detection
1217:.\Generated_Source\PSoC4/SPIS.c **** *  and flow control.
1218:.\Generated_Source\PSoC4/SPIS.c **** *
1219:.\Generated_Source\PSoC4/SPIS.c **** * Side Effects:
1220:.\Generated_Source\PSoC4/SPIS.c **** *  Clear status register of the component.
1221:.\Generated_Source\PSoC4/SPIS.c **** *
1222:.\Generated_Source\PSoC4/SPIS.c **** * Reentrant:
1223:.\Generated_Source\PSoC4/SPIS.c **** *  No.
1224:.\Generated_Source\PSoC4/SPIS.c **** *
1225:.\Generated_Source\PSoC4/SPIS.c **** *******************************************************************************/
1226:.\Generated_Source\PSoC4/SPIS.c **** uint8 SPIS_ReadStatus(void) 
1227:.\Generated_Source\PSoC4/SPIS.c **** {
 767              		.loc 1 1227 0
 768              		.cfi_startproc
1228:.\Generated_Source\PSoC4/SPIS.c ****     uint8 tmpStatus;
1229:.\Generated_Source\PSoC4/SPIS.c **** 
1230:.\Generated_Source\PSoC4/SPIS.c ****     #if ((SPIS_TX_SOFTWARE_BUF_ENABLED) || (SPIS_RX_SOFTWARE_BUF_ENABLED))
1231:.\Generated_Source\PSoC4/SPIS.c **** 
1232:.\Generated_Source\PSoC4/SPIS.c ****         SPIS_DisableInt();
1233:.\Generated_Source\PSoC4/SPIS.c **** 
1234:.\Generated_Source\PSoC4/SPIS.c ****         tmpStatus = SPIS_GET_STATUS_TX(SPIS_swStatusTx) |
1235:.\Generated_Source\PSoC4/SPIS.c ****               (SPIS_GET_STATUS_RX(SPIS_swStatusRx) & (uint8)~SPIS_STS_RX_FIFO_FULL);
1236:.\Generated_Source\PSoC4/SPIS.c **** 
1237:.\Generated_Source\PSoC4/SPIS.c ****         SPIS_swStatusTx = 0u;
1238:.\Generated_Source\PSoC4/SPIS.c ****         SPIS_swStatusRx = 0u;
1239:.\Generated_Source\PSoC4/SPIS.c **** 
1240:.\Generated_Source\PSoC4/SPIS.c ****         /* Enable Interrupts */
1241:.\Generated_Source\PSoC4/SPIS.c ****         SPIS_EnableInt();
1242:.\Generated_Source\PSoC4/SPIS.c **** 
1243:.\Generated_Source\PSoC4/SPIS.c ****     #else /* !((SPIS_TX_SOFTWARE_BUF_ENABLED) || (SPIS_RX_SOFTWARE_BUF_ENABLED)) */
1244:.\Generated_Source\PSoC4/SPIS.c **** 
1245:.\Generated_Source\PSoC4/SPIS.c ****         tmpStatus = SPIS_TX_STATUS_REG | (SPIS_RX_STATUS_REG &
 769              		.loc 1 1245 0
 770 0000 034B     		ldr	r3, .L73
 771 0002 1B78     		ldrb	r3, [r3]
 772 0004 034A     		ldr	r2, .L73+4
 773 0006 1078     		ldrb	r0, [r2]
 774 0008 4022     		mov	r2, #64
 775 000a 9043     		bic	r0, r2
 776 000c 1843     		orr	r0, r3
 777              	.LVL38:
1246:.\Generated_Source\PSoC4/SPIS.c ****                                                       (uint8)~SPIS_STS_RX_FIFO_FULL);
1247:.\Generated_Source\PSoC4/SPIS.c **** 
1248:.\Generated_Source\PSoC4/SPIS.c ****     #endif /* (SPIS_TX_SOFTWARE_BUF_ENABLED) || (SPIS_RX_SOFTWARE_BUF_ENABLED) */
1249:.\Generated_Source\PSoC4/SPIS.c **** 
1250:.\Generated_Source\PSoC4/SPIS.c ****     return(tmpStatus);
1251:.\Generated_Source\PSoC4/SPIS.c **** }
 778              		.loc 1 1251 0
 779              		@ sp needed
 780 000e 7047     		bx	lr
 781              	.L74:
 782              		.align	2
 783              	.L73:
ARM GAS  C:\Users\TOM~1.MCK\AppData\Local\Temp\cclpicWu.s 			page 37


 784 0010 63000F40 		.word	1074724963
 785 0014 60000F40 		.word	1074724960
 786              		.cfi_endproc
 787              	.LFE26:
 788              		.size	SPIS_ReadStatus, .-SPIS_ReadStatus
 789              		.comm	SPIS_swStatusRx,1,1
 790              		.comm	SPIS_swStatusTx,1,1
 791              		.global	SPIS_initVar
 792              		.bss
 793              		.set	.LANCHOR0,. + 0
 794              		.type	SPIS_initVar, %object
 795              		.size	SPIS_initVar, 1
 796              	SPIS_initVar:
 797 0000 00       		.space	1
 798              		.text
 799              	.Letext0:
 800              		.file 2 ".\\Generated_Source\\PSoC4\\cytypes.h"
 801              		.file 3 ".\\Generated_Source\\PSoC4\\CyLib.h"
