ARM GAS  C:\Users\TOM~1.MCK\AppData\Local\Temp\ccSNA1FW.s 			page 1


   1              		.cpu cortex-m0
   2              		.fpu softvfp
   3              		.eabi_attribute 20, 1
   4              		.eabi_attribute 21, 1
   5              		.eabi_attribute 23, 3
   6              		.eabi_attribute 24, 1
   7              		.eabi_attribute 25, 1
   8              		.eabi_attribute 26, 1
   9              		.eabi_attribute 30, 1
  10              		.eabi_attribute 34, 0
  11              		.eabi_attribute 18, 4
  12              		.code	16
  13              		.file	"ADC_intClock.c"
  14              		.text
  15              	.Ltext0:
  16              		.cfi_sections	.debug_frame
  17              		.section	.text.ADC_intClock_StartEx,"ax",%progbits
  18              		.align	2
  19              		.global	ADC_intClock_StartEx
  20              		.code	16
  21              		.thumb_func
  22              		.type	ADC_intClock_StartEx, %function
  23              	ADC_intClock_StartEx:
  24              	.LFB0:
  25              		.file 1 ".\\Generated_Source\\PSoC4\\ADC_intClock.c"
   1:.\Generated_Source\PSoC4/ADC_intClock.c **** /*******************************************************************************
   2:.\Generated_Source\PSoC4/ADC_intClock.c **** * File Name: ADC_intClock.c
   3:.\Generated_Source\PSoC4/ADC_intClock.c **** * Version 2.20
   4:.\Generated_Source\PSoC4/ADC_intClock.c **** *
   5:.\Generated_Source\PSoC4/ADC_intClock.c **** *  Description:
   6:.\Generated_Source\PSoC4/ADC_intClock.c **** *   Provides system API for the clocking, interrupts and watchdog timer.
   7:.\Generated_Source\PSoC4/ADC_intClock.c **** *
   8:.\Generated_Source\PSoC4/ADC_intClock.c **** *  Note:
   9:.\Generated_Source\PSoC4/ADC_intClock.c **** *   Documentation of the API's in this file is located in the
  10:.\Generated_Source\PSoC4/ADC_intClock.c **** *   System Reference Guide provided with PSoC Creator.
  11:.\Generated_Source\PSoC4/ADC_intClock.c **** *
  12:.\Generated_Source\PSoC4/ADC_intClock.c **** ********************************************************************************
  13:.\Generated_Source\PSoC4/ADC_intClock.c **** * Copyright 2008-2012, Cypress Semiconductor Corporation.  All rights reserved.
  14:.\Generated_Source\PSoC4/ADC_intClock.c **** * You may use this file only in accordance with the license, terms, conditions,
  15:.\Generated_Source\PSoC4/ADC_intClock.c **** * disclaimers, and limitations in the end user license agreement accompanying
  16:.\Generated_Source\PSoC4/ADC_intClock.c **** * the software package with which this file was provided.
  17:.\Generated_Source\PSoC4/ADC_intClock.c **** *******************************************************************************/
  18:.\Generated_Source\PSoC4/ADC_intClock.c **** 
  19:.\Generated_Source\PSoC4/ADC_intClock.c **** #include <cydevice_trm.h>
  20:.\Generated_Source\PSoC4/ADC_intClock.c **** #include "ADC_intClock.h"
  21:.\Generated_Source\PSoC4/ADC_intClock.c **** 
  22:.\Generated_Source\PSoC4/ADC_intClock.c **** #if defined CYREG_PERI_DIV_CMD
  23:.\Generated_Source\PSoC4/ADC_intClock.c **** 
  24:.\Generated_Source\PSoC4/ADC_intClock.c **** /*******************************************************************************
  25:.\Generated_Source\PSoC4/ADC_intClock.c **** * Function Name: ADC_intClock_StartEx
  26:.\Generated_Source\PSoC4/ADC_intClock.c **** ********************************************************************************
  27:.\Generated_Source\PSoC4/ADC_intClock.c **** *
  28:.\Generated_Source\PSoC4/ADC_intClock.c **** * Summary:
  29:.\Generated_Source\PSoC4/ADC_intClock.c **** *  Starts the clock, aligned to the specified running clock.
  30:.\Generated_Source\PSoC4/ADC_intClock.c **** *
  31:.\Generated_Source\PSoC4/ADC_intClock.c **** * Parameters:
  32:.\Generated_Source\PSoC4/ADC_intClock.c **** *  alignClkDiv:  The divider to which phase alignment is performed when the
ARM GAS  C:\Users\TOM~1.MCK\AppData\Local\Temp\ccSNA1FW.s 			page 2


  33:.\Generated_Source\PSoC4/ADC_intClock.c **** *    clock is started.
  34:.\Generated_Source\PSoC4/ADC_intClock.c **** *
  35:.\Generated_Source\PSoC4/ADC_intClock.c **** * Returns:
  36:.\Generated_Source\PSoC4/ADC_intClock.c **** *  None
  37:.\Generated_Source\PSoC4/ADC_intClock.c **** *
  38:.\Generated_Source\PSoC4/ADC_intClock.c **** *******************************************************************************/
  39:.\Generated_Source\PSoC4/ADC_intClock.c **** void ADC_intClock_StartEx(uint32 alignClkDiv)
  40:.\Generated_Source\PSoC4/ADC_intClock.c **** {
  26              		.loc 1 40 0
  27              		.cfi_startproc
  28              	.LVL0:
  29              	.L2:
  41:.\Generated_Source\PSoC4/ADC_intClock.c ****     /* Make sure any previous start command has finished. */
  42:.\Generated_Source\PSoC4/ADC_intClock.c ****     while((ADC_intClock_CMD_REG & ADC_intClock_CMD_ENABLE_MASK) != 0u)
  30              		.loc 1 42 0 discriminator 1
  31 0000 044B     		ldr	r3, .L3
  32 0002 1B68     		ldr	r3, [r3]
  33 0004 002B     		cmp	r3, #0
  34 0006 FBDB     		blt	.L2
  43:.\Generated_Source\PSoC4/ADC_intClock.c ****     {
  44:.\Generated_Source\PSoC4/ADC_intClock.c ****     }
  45:.\Generated_Source\PSoC4/ADC_intClock.c ****     
  46:.\Generated_Source\PSoC4/ADC_intClock.c ****     /* Specify the target divider and it's alignment divider, and enable. */
  47:.\Generated_Source\PSoC4/ADC_intClock.c ****     ADC_intClock_CMD_REG =
  48:.\Generated_Source\PSoC4/ADC_intClock.c ****         ((uint32)ADC_intClock__DIV_ID << ADC_intClock_CMD_DIV_SHIFT)|
  49:.\Generated_Source\PSoC4/ADC_intClock.c ****         (alignClkDiv << ADC_intClock_CMD_PA_DIV_SHIFT) |
  35              		.loc 1 49 0
  36 0008 0002     		lsl	r0, r0, #8
  37              	.LVL1:
  38 000a 034B     		ldr	r3, .L3+4
  39 000c 1843     		orr	r0, r3
  47:.\Generated_Source\PSoC4/ADC_intClock.c ****         ((uint32)ADC_intClock__DIV_ID << ADC_intClock_CMD_DIV_SHIFT)|
  40              		.loc 1 47 0
  41 000e 014B     		ldr	r3, .L3
  42 0010 1860     		str	r0, [r3]
  50:.\Generated_Source\PSoC4/ADC_intClock.c ****         (uint32)ADC_intClock_CMD_ENABLE_MASK;
  51:.\Generated_Source\PSoC4/ADC_intClock.c **** }
  43              		.loc 1 51 0
  44              		@ sp needed
  45 0012 7047     		bx	lr
  46              	.L4:
  47              		.align	2
  48              	.L3:
  49 0014 00000140 		.word	1073807360
  50 0018 40000080 		.word	-2147483584
  51              		.cfi_endproc
  52              	.LFE0:
  53              		.size	ADC_intClock_StartEx, .-ADC_intClock_StartEx
  54              		.section	.text.ADC_intClock_Stop,"ax",%progbits
  55              		.align	2
  56              		.global	ADC_intClock_Stop
  57              		.code	16
  58              		.thumb_func
  59              		.type	ADC_intClock_Stop, %function
  60              	ADC_intClock_Stop:
  61              	.LFB1:
  52:.\Generated_Source\PSoC4/ADC_intClock.c **** 
ARM GAS  C:\Users\TOM~1.MCK\AppData\Local\Temp\ccSNA1FW.s 			page 3


  53:.\Generated_Source\PSoC4/ADC_intClock.c **** #else
  54:.\Generated_Source\PSoC4/ADC_intClock.c **** 
  55:.\Generated_Source\PSoC4/ADC_intClock.c **** /*******************************************************************************
  56:.\Generated_Source\PSoC4/ADC_intClock.c **** * Function Name: ADC_intClock_Start
  57:.\Generated_Source\PSoC4/ADC_intClock.c **** ********************************************************************************
  58:.\Generated_Source\PSoC4/ADC_intClock.c **** *
  59:.\Generated_Source\PSoC4/ADC_intClock.c **** * Summary:
  60:.\Generated_Source\PSoC4/ADC_intClock.c **** *  Starts the clock.
  61:.\Generated_Source\PSoC4/ADC_intClock.c **** *
  62:.\Generated_Source\PSoC4/ADC_intClock.c **** * Parameters:
  63:.\Generated_Source\PSoC4/ADC_intClock.c **** *  None
  64:.\Generated_Source\PSoC4/ADC_intClock.c **** *
  65:.\Generated_Source\PSoC4/ADC_intClock.c **** * Returns:
  66:.\Generated_Source\PSoC4/ADC_intClock.c **** *  None
  67:.\Generated_Source\PSoC4/ADC_intClock.c **** *
  68:.\Generated_Source\PSoC4/ADC_intClock.c **** *******************************************************************************/
  69:.\Generated_Source\PSoC4/ADC_intClock.c **** 
  70:.\Generated_Source\PSoC4/ADC_intClock.c **** void ADC_intClock_Start(void)
  71:.\Generated_Source\PSoC4/ADC_intClock.c **** {
  72:.\Generated_Source\PSoC4/ADC_intClock.c ****     /* Set the bit to enable the clock. */
  73:.\Generated_Source\PSoC4/ADC_intClock.c ****     ADC_intClock_ENABLE_REG |= ADC_intClock__ENABLE_MASK;
  74:.\Generated_Source\PSoC4/ADC_intClock.c **** }
  75:.\Generated_Source\PSoC4/ADC_intClock.c **** 
  76:.\Generated_Source\PSoC4/ADC_intClock.c **** #endif /* CYREG_PERI_DIV_CMD */
  77:.\Generated_Source\PSoC4/ADC_intClock.c **** 
  78:.\Generated_Source\PSoC4/ADC_intClock.c **** 
  79:.\Generated_Source\PSoC4/ADC_intClock.c **** /*******************************************************************************
  80:.\Generated_Source\PSoC4/ADC_intClock.c **** * Function Name: ADC_intClock_Stop
  81:.\Generated_Source\PSoC4/ADC_intClock.c **** ********************************************************************************
  82:.\Generated_Source\PSoC4/ADC_intClock.c **** *
  83:.\Generated_Source\PSoC4/ADC_intClock.c **** * Summary:
  84:.\Generated_Source\PSoC4/ADC_intClock.c **** *  Stops the clock and returns immediately. This API does not require the
  85:.\Generated_Source\PSoC4/ADC_intClock.c **** *  source clock to be running but may return before the hardware is actually
  86:.\Generated_Source\PSoC4/ADC_intClock.c **** *  disabled.
  87:.\Generated_Source\PSoC4/ADC_intClock.c **** *
  88:.\Generated_Source\PSoC4/ADC_intClock.c **** * Parameters:
  89:.\Generated_Source\PSoC4/ADC_intClock.c **** *  None
  90:.\Generated_Source\PSoC4/ADC_intClock.c **** *
  91:.\Generated_Source\PSoC4/ADC_intClock.c **** * Returns:
  92:.\Generated_Source\PSoC4/ADC_intClock.c **** *  None
  93:.\Generated_Source\PSoC4/ADC_intClock.c **** *
  94:.\Generated_Source\PSoC4/ADC_intClock.c **** *******************************************************************************/
  95:.\Generated_Source\PSoC4/ADC_intClock.c **** void ADC_intClock_Stop(void)
  96:.\Generated_Source\PSoC4/ADC_intClock.c **** {
  62              		.loc 1 96 0
  63              		.cfi_startproc
  64              	.L6:
  97:.\Generated_Source\PSoC4/ADC_intClock.c **** #if defined CYREG_PERI_DIV_CMD
  98:.\Generated_Source\PSoC4/ADC_intClock.c **** 
  99:.\Generated_Source\PSoC4/ADC_intClock.c ****     /* Make sure any previous start command has finished. */
 100:.\Generated_Source\PSoC4/ADC_intClock.c ****     while((ADC_intClock_CMD_REG & ADC_intClock_CMD_ENABLE_MASK) != 0u)
  65              		.loc 1 100 0 discriminator 1
  66 0000 034B     		ldr	r3, .L7
  67 0002 1B68     		ldr	r3, [r3]
  68 0004 002B     		cmp	r3, #0
  69 0006 FBDB     		blt	.L6
 101:.\Generated_Source\PSoC4/ADC_intClock.c ****     {
ARM GAS  C:\Users\TOM~1.MCK\AppData\Local\Temp\ccSNA1FW.s 			page 4


 102:.\Generated_Source\PSoC4/ADC_intClock.c ****     }
 103:.\Generated_Source\PSoC4/ADC_intClock.c ****     
 104:.\Generated_Source\PSoC4/ADC_intClock.c ****     /* Specify the target divider and it's alignment divider, and disable. */
 105:.\Generated_Source\PSoC4/ADC_intClock.c ****     ADC_intClock_CMD_REG =
  70              		.loc 1 105 0
  71 0008 024A     		ldr	r2, .L7+4
  72 000a 014B     		ldr	r3, .L7
  73 000c 1A60     		str	r2, [r3]
 106:.\Generated_Source\PSoC4/ADC_intClock.c ****         ((uint32)ADC_intClock__DIV_ID << ADC_intClock_CMD_DIV_SHIFT)|
 107:.\Generated_Source\PSoC4/ADC_intClock.c ****         ((uint32)ADC_intClock_CMD_DISABLE_MASK);
 108:.\Generated_Source\PSoC4/ADC_intClock.c **** 
 109:.\Generated_Source\PSoC4/ADC_intClock.c **** #else
 110:.\Generated_Source\PSoC4/ADC_intClock.c **** 
 111:.\Generated_Source\PSoC4/ADC_intClock.c ****     /* Clear the bit to disable the clock. */
 112:.\Generated_Source\PSoC4/ADC_intClock.c ****     ADC_intClock_ENABLE_REG &= (uint32)(~ADC_intClock__ENABLE_MASK);
 113:.\Generated_Source\PSoC4/ADC_intClock.c ****     
 114:.\Generated_Source\PSoC4/ADC_intClock.c **** #endif /* CYREG_PERI_DIV_CMD */
 115:.\Generated_Source\PSoC4/ADC_intClock.c **** }
  74              		.loc 1 115 0
  75              		@ sp needed
  76 000e 7047     		bx	lr
  77              	.L8:
  78              		.align	2
  79              	.L7:
  80 0010 00000140 		.word	1073807360
  81 0014 40000040 		.word	1073741888
  82              		.cfi_endproc
  83              	.LFE1:
  84              		.size	ADC_intClock_Stop, .-ADC_intClock_Stop
  85              		.section	.text.ADC_intClock_SetFractionalDividerRegister,"ax",%progbits
  86              		.align	2
  87              		.global	ADC_intClock_SetFractionalDividerRegister
  88              		.code	16
  89              		.thumb_func
  90              		.type	ADC_intClock_SetFractionalDividerRegister, %function
  91              	ADC_intClock_SetFractionalDividerRegister:
  92              	.LFB2:
 116:.\Generated_Source\PSoC4/ADC_intClock.c **** 
 117:.\Generated_Source\PSoC4/ADC_intClock.c **** 
 118:.\Generated_Source\PSoC4/ADC_intClock.c **** /*******************************************************************************
 119:.\Generated_Source\PSoC4/ADC_intClock.c **** * Function Name: ADC_intClock_SetFractionalDividerRegister
 120:.\Generated_Source\PSoC4/ADC_intClock.c **** ********************************************************************************
 121:.\Generated_Source\PSoC4/ADC_intClock.c **** *
 122:.\Generated_Source\PSoC4/ADC_intClock.c **** * Summary:
 123:.\Generated_Source\PSoC4/ADC_intClock.c **** *  Modifies the clock divider and the fractional divider.
 124:.\Generated_Source\PSoC4/ADC_intClock.c **** *
 125:.\Generated_Source\PSoC4/ADC_intClock.c **** * Parameters:
 126:.\Generated_Source\PSoC4/ADC_intClock.c **** *  clkDivider:  Divider register value (0-65535). This value is NOT the
 127:.\Generated_Source\PSoC4/ADC_intClock.c **** *    divider; the clock hardware divides by clkDivider plus one. For example,
 128:.\Generated_Source\PSoC4/ADC_intClock.c **** *    to divide the clock by 2, this parameter should be set to 1.
 129:.\Generated_Source\PSoC4/ADC_intClock.c **** *  fracDivider:  Fractional Divider register value (0-31).
 130:.\Generated_Source\PSoC4/ADC_intClock.c **** * Returns:
 131:.\Generated_Source\PSoC4/ADC_intClock.c **** *  None
 132:.\Generated_Source\PSoC4/ADC_intClock.c **** *
 133:.\Generated_Source\PSoC4/ADC_intClock.c **** *******************************************************************************/
 134:.\Generated_Source\PSoC4/ADC_intClock.c **** void ADC_intClock_SetFractionalDividerRegister(uint16 clkDivider, uint8 clkFractional)
 135:.\Generated_Source\PSoC4/ADC_intClock.c **** {
ARM GAS  C:\Users\TOM~1.MCK\AppData\Local\Temp\ccSNA1FW.s 			page 5


  93              		.loc 1 135 0
  94              		.cfi_startproc
  95              	.LVL2:
  96 0000 10B5     		push	{r4, lr}
  97              		.cfi_def_cfa_offset 8
  98              		.cfi_offset 4, -8
  99              		.cfi_offset 14, -4
 136:.\Generated_Source\PSoC4/ADC_intClock.c ****     uint32 maskVal;
 137:.\Generated_Source\PSoC4/ADC_intClock.c ****     uint32 regVal;
 138:.\Generated_Source\PSoC4/ADC_intClock.c ****     
 139:.\Generated_Source\PSoC4/ADC_intClock.c **** #if defined (ADC_intClock__FRAC_MASK) || defined (CYREG_PERI_DIV_CMD)
 140:.\Generated_Source\PSoC4/ADC_intClock.c ****     
 141:.\Generated_Source\PSoC4/ADC_intClock.c **** 	/* get all but divider bits */
 142:.\Generated_Source\PSoC4/ADC_intClock.c ****     maskVal = ADC_intClock_DIV_REG & 
 100              		.loc 1 142 0
 101 0002 064A     		ldr	r2, .L10
 102 0004 1368     		ldr	r3, [r2]
 103 0006 0724     		mov	r4, #7
 104 0008 2340     		and	r3, r4
 105              	.LVL3:
 143:.\Generated_Source\PSoC4/ADC_intClock.c ****                     (uint32)(~(uint32)(ADC_intClock_DIV_INT_MASK | ADC_intClock_DIV_FRAC_MASK)); 
 144:.\Generated_Source\PSoC4/ADC_intClock.c **** 	/* combine mask and new divider vals into 32-bit value */
 145:.\Generated_Source\PSoC4/ADC_intClock.c ****     regVal = maskVal |
 146:.\Generated_Source\PSoC4/ADC_intClock.c ****         ((uint32)((uint32)clkDivider <<  ADC_intClock_DIV_INT_SHIFT) & ADC_intClock_DIV_INT_MASK) |
 106              		.loc 1 146 0
 107 000a 0002     		lsl	r0, r0, #8
 108              	.LVL4:
 145:.\Generated_Source\PSoC4/ADC_intClock.c ****         ((uint32)((uint32)clkDivider <<  ADC_intClock_DIV_INT_SHIFT) & ADC_intClock_DIV_INT_MASK) |
 109              		.loc 1 145 0
 110 000c 1843     		orr	r0, r3
 147:.\Generated_Source\PSoC4/ADC_intClock.c ****         ((uint32)((uint32)clkFractional << ADC_intClock_DIV_FRAC_SHIFT) & ADC_intClock_DIV_FRAC_MAS
 111              		.loc 1 147 0
 112 000e CB00     		lsl	r3, r1, #3
 113              	.LVL5:
 114 0010 FF21     		mov	r1, #255
 115              	.LVL6:
 116 0012 1940     		and	r1, r3
 145:.\Generated_Source\PSoC4/ADC_intClock.c ****         ((uint32)((uint32)clkDivider <<  ADC_intClock_DIV_INT_SHIFT) & ADC_intClock_DIV_INT_MASK) |
 117              		.loc 1 145 0
 118 0014 0143     		orr	r1, r0
 119              	.LVL7:
 148:.\Generated_Source\PSoC4/ADC_intClock.c ****     
 149:.\Generated_Source\PSoC4/ADC_intClock.c **** #else
 150:.\Generated_Source\PSoC4/ADC_intClock.c ****     /* get all but integer divider bits */
 151:.\Generated_Source\PSoC4/ADC_intClock.c ****     maskVal = ADC_intClock_DIV_REG & (uint32)(~(uint32)ADC_intClock__DIVIDER_MASK);
 152:.\Generated_Source\PSoC4/ADC_intClock.c ****     /* combine mask and new divider val into 32-bit value */
 153:.\Generated_Source\PSoC4/ADC_intClock.c ****     regVal = clkDivider | maskVal;
 154:.\Generated_Source\PSoC4/ADC_intClock.c ****     
 155:.\Generated_Source\PSoC4/ADC_intClock.c **** #endif /* ADC_intClock__FRAC_MASK || CYREG_PERI_DIV_CMD */
 156:.\Generated_Source\PSoC4/ADC_intClock.c **** 
 157:.\Generated_Source\PSoC4/ADC_intClock.c ****     ADC_intClock_DIV_REG = regVal;
 120              		.loc 1 157 0
 121 0016 1160     		str	r1, [r2]
 158:.\Generated_Source\PSoC4/ADC_intClock.c **** }
 122              		.loc 1 158 0
 123              		@ sp needed
 124 0018 10BD     		pop	{r4, pc}
ARM GAS  C:\Users\TOM~1.MCK\AppData\Local\Temp\ccSNA1FW.s 			page 6


 125              	.L11:
 126 001a C046     		.align	2
 127              	.L10:
 128 001c 00030140 		.word	1073808128
 129              		.cfi_endproc
 130              	.LFE2:
 131              		.size	ADC_intClock_SetFractionalDividerRegister, .-ADC_intClock_SetFractionalDividerRegister
 132              		.section	.text.ADC_intClock_GetDividerRegister,"ax",%progbits
 133              		.align	2
 134              		.global	ADC_intClock_GetDividerRegister
 135              		.code	16
 136              		.thumb_func
 137              		.type	ADC_intClock_GetDividerRegister, %function
 138              	ADC_intClock_GetDividerRegister:
 139              	.LFB3:
 159:.\Generated_Source\PSoC4/ADC_intClock.c **** 
 160:.\Generated_Source\PSoC4/ADC_intClock.c **** 
 161:.\Generated_Source\PSoC4/ADC_intClock.c **** /*******************************************************************************
 162:.\Generated_Source\PSoC4/ADC_intClock.c **** * Function Name: ADC_intClock_GetDividerRegister
 163:.\Generated_Source\PSoC4/ADC_intClock.c **** ********************************************************************************
 164:.\Generated_Source\PSoC4/ADC_intClock.c **** *
 165:.\Generated_Source\PSoC4/ADC_intClock.c **** * Summary:
 166:.\Generated_Source\PSoC4/ADC_intClock.c **** *  Gets the clock divider register value.
 167:.\Generated_Source\PSoC4/ADC_intClock.c **** *
 168:.\Generated_Source\PSoC4/ADC_intClock.c **** * Parameters:
 169:.\Generated_Source\PSoC4/ADC_intClock.c **** *  None
 170:.\Generated_Source\PSoC4/ADC_intClock.c **** *
 171:.\Generated_Source\PSoC4/ADC_intClock.c **** * Returns:
 172:.\Generated_Source\PSoC4/ADC_intClock.c **** *  Divide value of the clock minus 1. For example, if the clock is set to
 173:.\Generated_Source\PSoC4/ADC_intClock.c **** *  divide by 2, the return value will be 1.
 174:.\Generated_Source\PSoC4/ADC_intClock.c **** *
 175:.\Generated_Source\PSoC4/ADC_intClock.c **** *******************************************************************************/
 176:.\Generated_Source\PSoC4/ADC_intClock.c **** uint16 ADC_intClock_GetDividerRegister(void)
 177:.\Generated_Source\PSoC4/ADC_intClock.c **** {
 140              		.loc 1 177 0
 141              		.cfi_startproc
 178:.\Generated_Source\PSoC4/ADC_intClock.c ****     return (uint16)((ADC_intClock_DIV_REG & ADC_intClock_DIV_INT_MASK)
 142              		.loc 1 178 0
 143 0000 024B     		ldr	r3, .L13
 144 0002 1868     		ldr	r0, [r3]
 179:.\Generated_Source\PSoC4/ADC_intClock.c ****         >> ADC_intClock_DIV_INT_SHIFT);
 145              		.loc 1 179 0
 146 0004 000A     		lsr	r0, r0, #8
 178:.\Generated_Source\PSoC4/ADC_intClock.c ****     return (uint16)((ADC_intClock_DIV_REG & ADC_intClock_DIV_INT_MASK)
 147              		.loc 1 178 0
 148 0006 80B2     		uxth	r0, r0
 180:.\Generated_Source\PSoC4/ADC_intClock.c **** }
 149              		.loc 1 180 0
 150              		@ sp needed
 151 0008 7047     		bx	lr
 152              	.L14:
 153 000a C046     		.align	2
 154              	.L13:
 155 000c 00030140 		.word	1073808128
 156              		.cfi_endproc
 157              	.LFE3:
 158              		.size	ADC_intClock_GetDividerRegister, .-ADC_intClock_GetDividerRegister
ARM GAS  C:\Users\TOM~1.MCK\AppData\Local\Temp\ccSNA1FW.s 			page 7


 159              		.section	.text.ADC_intClock_GetFractionalDividerRegister,"ax",%progbits
 160              		.align	2
 161              		.global	ADC_intClock_GetFractionalDividerRegister
 162              		.code	16
 163              		.thumb_func
 164              		.type	ADC_intClock_GetFractionalDividerRegister, %function
 165              	ADC_intClock_GetFractionalDividerRegister:
 166              	.LFB4:
 181:.\Generated_Source\PSoC4/ADC_intClock.c **** 
 182:.\Generated_Source\PSoC4/ADC_intClock.c **** 
 183:.\Generated_Source\PSoC4/ADC_intClock.c **** /*******************************************************************************
 184:.\Generated_Source\PSoC4/ADC_intClock.c **** * Function Name: ADC_intClock_GetFractionalDividerRegister
 185:.\Generated_Source\PSoC4/ADC_intClock.c **** ********************************************************************************
 186:.\Generated_Source\PSoC4/ADC_intClock.c **** *
 187:.\Generated_Source\PSoC4/ADC_intClock.c **** * Summary:
 188:.\Generated_Source\PSoC4/ADC_intClock.c **** *  Gets the clock fractional divider register value.
 189:.\Generated_Source\PSoC4/ADC_intClock.c **** *
 190:.\Generated_Source\PSoC4/ADC_intClock.c **** * Parameters:
 191:.\Generated_Source\PSoC4/ADC_intClock.c **** *  None
 192:.\Generated_Source\PSoC4/ADC_intClock.c **** *
 193:.\Generated_Source\PSoC4/ADC_intClock.c **** * Returns:
 194:.\Generated_Source\PSoC4/ADC_intClock.c **** *  Fractional Divide value of the clock
 195:.\Generated_Source\PSoC4/ADC_intClock.c **** *  0 if the fractional divider is not in use.
 196:.\Generated_Source\PSoC4/ADC_intClock.c **** *
 197:.\Generated_Source\PSoC4/ADC_intClock.c **** *******************************************************************************/
 198:.\Generated_Source\PSoC4/ADC_intClock.c **** uint8 ADC_intClock_GetFractionalDividerRegister(void)
 199:.\Generated_Source\PSoC4/ADC_intClock.c **** {
 167              		.loc 1 199 0
 168              		.cfi_startproc
 200:.\Generated_Source\PSoC4/ADC_intClock.c **** #if defined (ADC_intClock__FRAC_MASK)
 201:.\Generated_Source\PSoC4/ADC_intClock.c ****     /* return fractional divider bits */
 202:.\Generated_Source\PSoC4/ADC_intClock.c ****     return (uint8)((ADC_intClock_DIV_REG & ADC_intClock_DIV_FRAC_MASK)
 203:.\Generated_Source\PSoC4/ADC_intClock.c ****         >> ADC_intClock_DIV_FRAC_SHIFT);
 204:.\Generated_Source\PSoC4/ADC_intClock.c **** #else
 205:.\Generated_Source\PSoC4/ADC_intClock.c ****     return 0u;
 206:.\Generated_Source\PSoC4/ADC_intClock.c **** #endif /* ADC_intClock__FRAC_MASK */
 207:.\Generated_Source\PSoC4/ADC_intClock.c **** }
 169              		.loc 1 207 0
 170 0000 0020     		mov	r0, #0
 171              		@ sp needed
 172 0002 7047     		bx	lr
 173              		.cfi_endproc
 174              	.LFE4:
 175              		.size	ADC_intClock_GetFractionalDividerRegister, .-ADC_intClock_GetFractionalDividerRegister
 176              		.text
 177              	.Letext0:
 178              		.file 2 "Generated_Source\\PSoC4/cytypes.h"
