ARM GAS  C:\Users\TOM~1.MCK\AppData\Local\Temp\cc6wkXdr.s 			page 1


   1              		.cpu cortex-m0
   2              		.fpu softvfp
   3              		.eabi_attribute 20, 1
   4              		.eabi_attribute 21, 1
   5              		.eabi_attribute 23, 3
   6              		.eabi_attribute 24, 1
   7              		.eabi_attribute 25, 1
   8              		.eabi_attribute 26, 1
   9              		.eabi_attribute 30, 1
  10              		.eabi_attribute 34, 0
  11              		.eabi_attribute 18, 4
  12              		.code	16
  13              		.file	"ADC_IRQ.c"
  14              		.text
  15              	.Ltext0:
  16              		.cfi_sections	.debug_frame
  17              		.section	.text.ADC_IRQ_Interrupt,"ax",%progbits
  18              		.align	2
  19              		.global	ADC_IRQ_Interrupt
  20              		.code	16
  21              		.thumb_func
  22              		.type	ADC_IRQ_Interrupt, %function
  23              	ADC_IRQ_Interrupt:
  24              	.LFB5:
  25              		.file 1 ".\\Generated_Source\\PSoC4\\ADC_IRQ.c"
   1:.\Generated_Source\PSoC4/ADC_IRQ.c **** /*******************************************************************************
   2:.\Generated_Source\PSoC4/ADC_IRQ.c **** * File Name: ADC_IRQ.c  
   3:.\Generated_Source\PSoC4/ADC_IRQ.c **** * Version 1.70
   4:.\Generated_Source\PSoC4/ADC_IRQ.c **** *
   5:.\Generated_Source\PSoC4/ADC_IRQ.c **** *  Description:
   6:.\Generated_Source\PSoC4/ADC_IRQ.c **** *   API for controlling the state of an interrupt.
   7:.\Generated_Source\PSoC4/ADC_IRQ.c **** *
   8:.\Generated_Source\PSoC4/ADC_IRQ.c **** *
   9:.\Generated_Source\PSoC4/ADC_IRQ.c **** *  Note:
  10:.\Generated_Source\PSoC4/ADC_IRQ.c **** *
  11:.\Generated_Source\PSoC4/ADC_IRQ.c **** ********************************************************************************
  12:.\Generated_Source\PSoC4/ADC_IRQ.c **** * Copyright 2008-2015, Cypress Semiconductor Corporation.  All rights reserved.
  13:.\Generated_Source\PSoC4/ADC_IRQ.c **** * You may use this file only in accordance with the license, terms, conditions, 
  14:.\Generated_Source\PSoC4/ADC_IRQ.c **** * disclaimers, and limitations in the end user license agreement accompanying 
  15:.\Generated_Source\PSoC4/ADC_IRQ.c **** * the software package with which this file was provided.
  16:.\Generated_Source\PSoC4/ADC_IRQ.c **** *******************************************************************************/
  17:.\Generated_Source\PSoC4/ADC_IRQ.c **** 
  18:.\Generated_Source\PSoC4/ADC_IRQ.c **** 
  19:.\Generated_Source\PSoC4/ADC_IRQ.c **** #include <cydevice_trm.h>
  20:.\Generated_Source\PSoC4/ADC_IRQ.c **** #include <CyLib.h>
  21:.\Generated_Source\PSoC4/ADC_IRQ.c **** #include <ADC_IRQ.h>
  22:.\Generated_Source\PSoC4/ADC_IRQ.c **** #include "cyapicallbacks.h"
  23:.\Generated_Source\PSoC4/ADC_IRQ.c **** 
  24:.\Generated_Source\PSoC4/ADC_IRQ.c **** #if !defined(ADC_IRQ__REMOVED) /* Check for removal by optimization */
  25:.\Generated_Source\PSoC4/ADC_IRQ.c **** 
  26:.\Generated_Source\PSoC4/ADC_IRQ.c **** /*******************************************************************************
  27:.\Generated_Source\PSoC4/ADC_IRQ.c **** *  Place your includes, defines and code here 
  28:.\Generated_Source\PSoC4/ADC_IRQ.c **** ********************************************************************************/
  29:.\Generated_Source\PSoC4/ADC_IRQ.c **** /* `#START ADC_IRQ_intc` */
  30:.\Generated_Source\PSoC4/ADC_IRQ.c **** 
  31:.\Generated_Source\PSoC4/ADC_IRQ.c **** /* `#END` */
  32:.\Generated_Source\PSoC4/ADC_IRQ.c **** 
ARM GAS  C:\Users\TOM~1.MCK\AppData\Local\Temp\cc6wkXdr.s 			page 2


  33:.\Generated_Source\PSoC4/ADC_IRQ.c **** extern cyisraddress CyRamVectors[CYINT_IRQ_BASE + CY_NUM_INTERRUPTS];
  34:.\Generated_Source\PSoC4/ADC_IRQ.c **** 
  35:.\Generated_Source\PSoC4/ADC_IRQ.c **** /* Declared in startup, used to set unused interrupts to. */
  36:.\Generated_Source\PSoC4/ADC_IRQ.c **** CY_ISR_PROTO(IntDefaultHandler);
  37:.\Generated_Source\PSoC4/ADC_IRQ.c **** 
  38:.\Generated_Source\PSoC4/ADC_IRQ.c **** 
  39:.\Generated_Source\PSoC4/ADC_IRQ.c **** /*******************************************************************************
  40:.\Generated_Source\PSoC4/ADC_IRQ.c **** * Function Name: ADC_IRQ_Start
  41:.\Generated_Source\PSoC4/ADC_IRQ.c **** ********************************************************************************
  42:.\Generated_Source\PSoC4/ADC_IRQ.c **** *
  43:.\Generated_Source\PSoC4/ADC_IRQ.c **** * Summary:
  44:.\Generated_Source\PSoC4/ADC_IRQ.c **** *  Set up the interrupt and enable it. This function disables the interrupt, 
  45:.\Generated_Source\PSoC4/ADC_IRQ.c **** *  sets the default interrupt vector, sets the priority from the value in the
  46:.\Generated_Source\PSoC4/ADC_IRQ.c **** *  Design Wide Resources Interrupt Editor, then enables the interrupt to the 
  47:.\Generated_Source\PSoC4/ADC_IRQ.c **** *  interrupt controller.
  48:.\Generated_Source\PSoC4/ADC_IRQ.c **** *
  49:.\Generated_Source\PSoC4/ADC_IRQ.c **** * Parameters:  
  50:.\Generated_Source\PSoC4/ADC_IRQ.c **** *   None
  51:.\Generated_Source\PSoC4/ADC_IRQ.c **** *
  52:.\Generated_Source\PSoC4/ADC_IRQ.c **** * Return:
  53:.\Generated_Source\PSoC4/ADC_IRQ.c **** *   None
  54:.\Generated_Source\PSoC4/ADC_IRQ.c **** *
  55:.\Generated_Source\PSoC4/ADC_IRQ.c **** *******************************************************************************/
  56:.\Generated_Source\PSoC4/ADC_IRQ.c **** void ADC_IRQ_Start(void)
  57:.\Generated_Source\PSoC4/ADC_IRQ.c **** {
  58:.\Generated_Source\PSoC4/ADC_IRQ.c ****     /* For all we know the interrupt is active. */
  59:.\Generated_Source\PSoC4/ADC_IRQ.c ****     ADC_IRQ_Disable();
  60:.\Generated_Source\PSoC4/ADC_IRQ.c **** 
  61:.\Generated_Source\PSoC4/ADC_IRQ.c ****     /* Set the ISR to point to the ADC_IRQ Interrupt. */
  62:.\Generated_Source\PSoC4/ADC_IRQ.c ****     ADC_IRQ_SetVector(&ADC_IRQ_Interrupt);
  63:.\Generated_Source\PSoC4/ADC_IRQ.c **** 
  64:.\Generated_Source\PSoC4/ADC_IRQ.c ****     /* Set the priority. */
  65:.\Generated_Source\PSoC4/ADC_IRQ.c ****     ADC_IRQ_SetPriority((uint8)ADC_IRQ_INTC_PRIOR_NUMBER);
  66:.\Generated_Source\PSoC4/ADC_IRQ.c **** 
  67:.\Generated_Source\PSoC4/ADC_IRQ.c ****     /* Enable it. */
  68:.\Generated_Source\PSoC4/ADC_IRQ.c ****     ADC_IRQ_Enable();
  69:.\Generated_Source\PSoC4/ADC_IRQ.c **** }
  70:.\Generated_Source\PSoC4/ADC_IRQ.c **** 
  71:.\Generated_Source\PSoC4/ADC_IRQ.c **** 
  72:.\Generated_Source\PSoC4/ADC_IRQ.c **** /*******************************************************************************
  73:.\Generated_Source\PSoC4/ADC_IRQ.c **** * Function Name: ADC_IRQ_StartEx
  74:.\Generated_Source\PSoC4/ADC_IRQ.c **** ********************************************************************************
  75:.\Generated_Source\PSoC4/ADC_IRQ.c **** *
  76:.\Generated_Source\PSoC4/ADC_IRQ.c **** * Summary:
  77:.\Generated_Source\PSoC4/ADC_IRQ.c **** *  Sets up the interrupt and enables it. This function disables the interrupt,
  78:.\Generated_Source\PSoC4/ADC_IRQ.c **** *  sets the interrupt vector based on the address passed in, sets the priority 
  79:.\Generated_Source\PSoC4/ADC_IRQ.c **** *  from the value in the Design Wide Resources Interrupt Editor, then enables 
  80:.\Generated_Source\PSoC4/ADC_IRQ.c **** *  the interrupt to the interrupt controller.
  81:.\Generated_Source\PSoC4/ADC_IRQ.c **** *  
  82:.\Generated_Source\PSoC4/ADC_IRQ.c **** *  When defining ISR functions, the CY_ISR and CY_ISR_PROTO macros should be 
  83:.\Generated_Source\PSoC4/ADC_IRQ.c **** *  used to provide consistent definition across compilers:
  84:.\Generated_Source\PSoC4/ADC_IRQ.c **** *  
  85:.\Generated_Source\PSoC4/ADC_IRQ.c **** *  Function definition example:
  86:.\Generated_Source\PSoC4/ADC_IRQ.c **** *   CY_ISR(MyISR)
  87:.\Generated_Source\PSoC4/ADC_IRQ.c **** *   {
  88:.\Generated_Source\PSoC4/ADC_IRQ.c **** *   }
  89:.\Generated_Source\PSoC4/ADC_IRQ.c **** *   Function prototype example:
ARM GAS  C:\Users\TOM~1.MCK\AppData\Local\Temp\cc6wkXdr.s 			page 3


  90:.\Generated_Source\PSoC4/ADC_IRQ.c **** *   CY_ISR_PROTO(MyISR);
  91:.\Generated_Source\PSoC4/ADC_IRQ.c **** *
  92:.\Generated_Source\PSoC4/ADC_IRQ.c **** * Parameters:  
  93:.\Generated_Source\PSoC4/ADC_IRQ.c **** *   address: Address of the ISR to set in the interrupt vector table.
  94:.\Generated_Source\PSoC4/ADC_IRQ.c **** *
  95:.\Generated_Source\PSoC4/ADC_IRQ.c **** * Return:
  96:.\Generated_Source\PSoC4/ADC_IRQ.c **** *   None
  97:.\Generated_Source\PSoC4/ADC_IRQ.c **** *
  98:.\Generated_Source\PSoC4/ADC_IRQ.c **** *******************************************************************************/
  99:.\Generated_Source\PSoC4/ADC_IRQ.c **** void ADC_IRQ_StartEx(cyisraddress address)
 100:.\Generated_Source\PSoC4/ADC_IRQ.c **** {
 101:.\Generated_Source\PSoC4/ADC_IRQ.c ****     /* For all we know the interrupt is active. */
 102:.\Generated_Source\PSoC4/ADC_IRQ.c ****     ADC_IRQ_Disable();
 103:.\Generated_Source\PSoC4/ADC_IRQ.c **** 
 104:.\Generated_Source\PSoC4/ADC_IRQ.c ****     /* Set the ISR to point to the ADC_IRQ Interrupt. */
 105:.\Generated_Source\PSoC4/ADC_IRQ.c ****     ADC_IRQ_SetVector(address);
 106:.\Generated_Source\PSoC4/ADC_IRQ.c **** 
 107:.\Generated_Source\PSoC4/ADC_IRQ.c ****     /* Set the priority. */
 108:.\Generated_Source\PSoC4/ADC_IRQ.c ****     ADC_IRQ_SetPriority((uint8)ADC_IRQ_INTC_PRIOR_NUMBER);
 109:.\Generated_Source\PSoC4/ADC_IRQ.c **** 
 110:.\Generated_Source\PSoC4/ADC_IRQ.c ****     /* Enable it. */
 111:.\Generated_Source\PSoC4/ADC_IRQ.c ****     ADC_IRQ_Enable();
 112:.\Generated_Source\PSoC4/ADC_IRQ.c **** }
 113:.\Generated_Source\PSoC4/ADC_IRQ.c **** 
 114:.\Generated_Source\PSoC4/ADC_IRQ.c **** 
 115:.\Generated_Source\PSoC4/ADC_IRQ.c **** /*******************************************************************************
 116:.\Generated_Source\PSoC4/ADC_IRQ.c **** * Function Name: ADC_IRQ_Stop
 117:.\Generated_Source\PSoC4/ADC_IRQ.c **** ********************************************************************************
 118:.\Generated_Source\PSoC4/ADC_IRQ.c **** *
 119:.\Generated_Source\PSoC4/ADC_IRQ.c **** * Summary:
 120:.\Generated_Source\PSoC4/ADC_IRQ.c **** *   Disables and removes the interrupt.
 121:.\Generated_Source\PSoC4/ADC_IRQ.c **** *
 122:.\Generated_Source\PSoC4/ADC_IRQ.c **** * Parameters:  
 123:.\Generated_Source\PSoC4/ADC_IRQ.c **** *   None
 124:.\Generated_Source\PSoC4/ADC_IRQ.c **** *
 125:.\Generated_Source\PSoC4/ADC_IRQ.c **** * Return:
 126:.\Generated_Source\PSoC4/ADC_IRQ.c **** *   None
 127:.\Generated_Source\PSoC4/ADC_IRQ.c **** *
 128:.\Generated_Source\PSoC4/ADC_IRQ.c **** *******************************************************************************/
 129:.\Generated_Source\PSoC4/ADC_IRQ.c **** void ADC_IRQ_Stop(void)
 130:.\Generated_Source\PSoC4/ADC_IRQ.c **** {
 131:.\Generated_Source\PSoC4/ADC_IRQ.c ****     /* Disable this interrupt. */
 132:.\Generated_Source\PSoC4/ADC_IRQ.c ****     ADC_IRQ_Disable();
 133:.\Generated_Source\PSoC4/ADC_IRQ.c **** 
 134:.\Generated_Source\PSoC4/ADC_IRQ.c ****     /* Set the ISR to point to the passive one. */
 135:.\Generated_Source\PSoC4/ADC_IRQ.c ****     ADC_IRQ_SetVector(&IntDefaultHandler);
 136:.\Generated_Source\PSoC4/ADC_IRQ.c **** }
 137:.\Generated_Source\PSoC4/ADC_IRQ.c **** 
 138:.\Generated_Source\PSoC4/ADC_IRQ.c **** 
 139:.\Generated_Source\PSoC4/ADC_IRQ.c **** /*******************************************************************************
 140:.\Generated_Source\PSoC4/ADC_IRQ.c **** * Function Name: ADC_IRQ_Interrupt
 141:.\Generated_Source\PSoC4/ADC_IRQ.c **** ********************************************************************************
 142:.\Generated_Source\PSoC4/ADC_IRQ.c **** *
 143:.\Generated_Source\PSoC4/ADC_IRQ.c **** * Summary:
 144:.\Generated_Source\PSoC4/ADC_IRQ.c **** *   The default Interrupt Service Routine for ADC_IRQ.
 145:.\Generated_Source\PSoC4/ADC_IRQ.c **** *
 146:.\Generated_Source\PSoC4/ADC_IRQ.c **** *   Add custom code between the START and END comments to keep the next version
ARM GAS  C:\Users\TOM~1.MCK\AppData\Local\Temp\cc6wkXdr.s 			page 4


 147:.\Generated_Source\PSoC4/ADC_IRQ.c **** *   of this file from over-writing your code.
 148:.\Generated_Source\PSoC4/ADC_IRQ.c **** *
 149:.\Generated_Source\PSoC4/ADC_IRQ.c **** *   Note You may use either the default ISR by using this API, or you may define
 150:.\Generated_Source\PSoC4/ADC_IRQ.c **** *   your own separate ISR through ISR_StartEx().
 151:.\Generated_Source\PSoC4/ADC_IRQ.c **** *
 152:.\Generated_Source\PSoC4/ADC_IRQ.c **** * Parameters:  
 153:.\Generated_Source\PSoC4/ADC_IRQ.c **** *   None
 154:.\Generated_Source\PSoC4/ADC_IRQ.c **** *
 155:.\Generated_Source\PSoC4/ADC_IRQ.c **** * Return:
 156:.\Generated_Source\PSoC4/ADC_IRQ.c **** *   None
 157:.\Generated_Source\PSoC4/ADC_IRQ.c **** *
 158:.\Generated_Source\PSoC4/ADC_IRQ.c **** *******************************************************************************/
 159:.\Generated_Source\PSoC4/ADC_IRQ.c **** CY_ISR(ADC_IRQ_Interrupt)
 160:.\Generated_Source\PSoC4/ADC_IRQ.c **** {
  26              		.loc 1 160 0
  27              		.cfi_startproc
 161:.\Generated_Source\PSoC4/ADC_IRQ.c ****     #ifdef ADC_IRQ_INTERRUPT_INTERRUPT_CALLBACK
 162:.\Generated_Source\PSoC4/ADC_IRQ.c ****         ADC_IRQ_Interrupt_InterruptCallback();
 163:.\Generated_Source\PSoC4/ADC_IRQ.c ****     #endif /* ADC_IRQ_INTERRUPT_INTERRUPT_CALLBACK */ 
 164:.\Generated_Source\PSoC4/ADC_IRQ.c **** 
 165:.\Generated_Source\PSoC4/ADC_IRQ.c ****     /*  Place your Interrupt code here. */
 166:.\Generated_Source\PSoC4/ADC_IRQ.c ****     /* `#START ADC_IRQ_Interrupt` */
 167:.\Generated_Source\PSoC4/ADC_IRQ.c **** 
 168:.\Generated_Source\PSoC4/ADC_IRQ.c ****     /* `#END` */
 169:.\Generated_Source\PSoC4/ADC_IRQ.c **** }
  28              		.loc 1 169 0
  29              		@ sp needed
  30 0000 7047     		bx	lr
  31              		.cfi_endproc
  32              	.LFE5:
  33              		.size	ADC_IRQ_Interrupt, .-ADC_IRQ_Interrupt
  34 0002 C046     		.section	.text.ADC_IRQ_SetVector,"ax",%progbits
  35              		.align	2
  36              		.global	ADC_IRQ_SetVector
  37              		.code	16
  38              		.thumb_func
  39              		.type	ADC_IRQ_SetVector, %function
  40              	ADC_IRQ_SetVector:
  41              	.LFB6:
 170:.\Generated_Source\PSoC4/ADC_IRQ.c **** 
 171:.\Generated_Source\PSoC4/ADC_IRQ.c **** 
 172:.\Generated_Source\PSoC4/ADC_IRQ.c **** /*******************************************************************************
 173:.\Generated_Source\PSoC4/ADC_IRQ.c **** * Function Name: ADC_IRQ_SetVector
 174:.\Generated_Source\PSoC4/ADC_IRQ.c **** ********************************************************************************
 175:.\Generated_Source\PSoC4/ADC_IRQ.c **** *
 176:.\Generated_Source\PSoC4/ADC_IRQ.c **** * Summary:
 177:.\Generated_Source\PSoC4/ADC_IRQ.c **** *   Change the ISR vector for the Interrupt. Note calling ADC_IRQ_Start
 178:.\Generated_Source\PSoC4/ADC_IRQ.c **** *   will override any effect this method would have had. To set the vector 
 179:.\Generated_Source\PSoC4/ADC_IRQ.c **** *   before the component has been started use ADC_IRQ_StartEx instead.
 180:.\Generated_Source\PSoC4/ADC_IRQ.c **** * 
 181:.\Generated_Source\PSoC4/ADC_IRQ.c **** *   When defining ISR functions, the CY_ISR and CY_ISR_PROTO macros should be 
 182:.\Generated_Source\PSoC4/ADC_IRQ.c **** *   used to provide consistent definition across compilers:
 183:.\Generated_Source\PSoC4/ADC_IRQ.c **** *
 184:.\Generated_Source\PSoC4/ADC_IRQ.c **** *   Function definition example:
 185:.\Generated_Source\PSoC4/ADC_IRQ.c **** *   CY_ISR(MyISR)
 186:.\Generated_Source\PSoC4/ADC_IRQ.c **** *   {
 187:.\Generated_Source\PSoC4/ADC_IRQ.c **** *   }
ARM GAS  C:\Users\TOM~1.MCK\AppData\Local\Temp\cc6wkXdr.s 			page 5


 188:.\Generated_Source\PSoC4/ADC_IRQ.c **** *
 189:.\Generated_Source\PSoC4/ADC_IRQ.c **** *   Function prototype example:
 190:.\Generated_Source\PSoC4/ADC_IRQ.c **** *     CY_ISR_PROTO(MyISR);
 191:.\Generated_Source\PSoC4/ADC_IRQ.c **** *
 192:.\Generated_Source\PSoC4/ADC_IRQ.c **** * Parameters:
 193:.\Generated_Source\PSoC4/ADC_IRQ.c **** *   address: Address of the ISR to set in the interrupt vector table.
 194:.\Generated_Source\PSoC4/ADC_IRQ.c **** *
 195:.\Generated_Source\PSoC4/ADC_IRQ.c **** * Return:
 196:.\Generated_Source\PSoC4/ADC_IRQ.c **** *   None
 197:.\Generated_Source\PSoC4/ADC_IRQ.c **** *
 198:.\Generated_Source\PSoC4/ADC_IRQ.c **** *******************************************************************************/
 199:.\Generated_Source\PSoC4/ADC_IRQ.c **** void ADC_IRQ_SetVector(cyisraddress address)
 200:.\Generated_Source\PSoC4/ADC_IRQ.c **** {
  42              		.loc 1 200 0
  43              		.cfi_startproc
  44              	.LVL0:
 201:.\Generated_Source\PSoC4/ADC_IRQ.c ****     CyRamVectors[CYINT_IRQ_BASE + ADC_IRQ__INTC_NUMBER] = address;
  45              		.loc 1 201 0
  46 0000 014B     		ldr	r3, .L3
  47 0002 D867     		str	r0, [r3, #124]
 202:.\Generated_Source\PSoC4/ADC_IRQ.c **** }
  48              		.loc 1 202 0
  49              		@ sp needed
  50 0004 7047     		bx	lr
  51              	.L4:
  52 0006 C046     		.align	2
  53              	.L3:
  54 0008 00000000 		.word	CyRamVectors
  55              		.cfi_endproc
  56              	.LFE6:
  57              		.size	ADC_IRQ_SetVector, .-ADC_IRQ_SetVector
  58              		.section	.text.ADC_IRQ_GetVector,"ax",%progbits
  59              		.align	2
  60              		.global	ADC_IRQ_GetVector
  61              		.code	16
  62              		.thumb_func
  63              		.type	ADC_IRQ_GetVector, %function
  64              	ADC_IRQ_GetVector:
  65              	.LFB7:
 203:.\Generated_Source\PSoC4/ADC_IRQ.c **** 
 204:.\Generated_Source\PSoC4/ADC_IRQ.c **** 
 205:.\Generated_Source\PSoC4/ADC_IRQ.c **** /*******************************************************************************
 206:.\Generated_Source\PSoC4/ADC_IRQ.c **** * Function Name: ADC_IRQ_GetVector
 207:.\Generated_Source\PSoC4/ADC_IRQ.c **** ********************************************************************************
 208:.\Generated_Source\PSoC4/ADC_IRQ.c **** *
 209:.\Generated_Source\PSoC4/ADC_IRQ.c **** * Summary:
 210:.\Generated_Source\PSoC4/ADC_IRQ.c **** *   Gets the "address" of the current ISR vector for the Interrupt.
 211:.\Generated_Source\PSoC4/ADC_IRQ.c **** *
 212:.\Generated_Source\PSoC4/ADC_IRQ.c **** * Parameters:
 213:.\Generated_Source\PSoC4/ADC_IRQ.c **** *   None
 214:.\Generated_Source\PSoC4/ADC_IRQ.c **** *
 215:.\Generated_Source\PSoC4/ADC_IRQ.c **** * Return:
 216:.\Generated_Source\PSoC4/ADC_IRQ.c **** *   Address of the ISR in the interrupt vector table.
 217:.\Generated_Source\PSoC4/ADC_IRQ.c **** *
 218:.\Generated_Source\PSoC4/ADC_IRQ.c **** *******************************************************************************/
 219:.\Generated_Source\PSoC4/ADC_IRQ.c **** cyisraddress ADC_IRQ_GetVector(void)
 220:.\Generated_Source\PSoC4/ADC_IRQ.c **** {
ARM GAS  C:\Users\TOM~1.MCK\AppData\Local\Temp\cc6wkXdr.s 			page 6


  66              		.loc 1 220 0
  67              		.cfi_startproc
 221:.\Generated_Source\PSoC4/ADC_IRQ.c ****     return CyRamVectors[CYINT_IRQ_BASE + ADC_IRQ__INTC_NUMBER];
  68              		.loc 1 221 0
  69 0000 014B     		ldr	r3, .L6
  70 0002 D86F     		ldr	r0, [r3, #124]
 222:.\Generated_Source\PSoC4/ADC_IRQ.c **** }
  71              		.loc 1 222 0
  72              		@ sp needed
  73 0004 7047     		bx	lr
  74              	.L7:
  75 0006 C046     		.align	2
  76              	.L6:
  77 0008 00000000 		.word	CyRamVectors
  78              		.cfi_endproc
  79              	.LFE7:
  80              		.size	ADC_IRQ_GetVector, .-ADC_IRQ_GetVector
  81              		.section	.text.ADC_IRQ_SetPriority,"ax",%progbits
  82              		.align	2
  83              		.global	ADC_IRQ_SetPriority
  84              		.code	16
  85              		.thumb_func
  86              		.type	ADC_IRQ_SetPriority, %function
  87              	ADC_IRQ_SetPriority:
  88              	.LFB8:
 223:.\Generated_Source\PSoC4/ADC_IRQ.c **** 
 224:.\Generated_Source\PSoC4/ADC_IRQ.c **** 
 225:.\Generated_Source\PSoC4/ADC_IRQ.c **** /*******************************************************************************
 226:.\Generated_Source\PSoC4/ADC_IRQ.c **** * Function Name: ADC_IRQ_SetPriority
 227:.\Generated_Source\PSoC4/ADC_IRQ.c **** ********************************************************************************
 228:.\Generated_Source\PSoC4/ADC_IRQ.c **** *
 229:.\Generated_Source\PSoC4/ADC_IRQ.c **** * Summary:
 230:.\Generated_Source\PSoC4/ADC_IRQ.c **** *   Sets the Priority of the Interrupt. 
 231:.\Generated_Source\PSoC4/ADC_IRQ.c **** *
 232:.\Generated_Source\PSoC4/ADC_IRQ.c **** *   Note calling ADC_IRQ_Start or ADC_IRQ_StartEx will 
 233:.\Generated_Source\PSoC4/ADC_IRQ.c **** *   override any effect this API would have had. This API should only be called
 234:.\Generated_Source\PSoC4/ADC_IRQ.c **** *   after ADC_IRQ_Start or ADC_IRQ_StartEx has been called. 
 235:.\Generated_Source\PSoC4/ADC_IRQ.c **** *   To set the initial priority for the component, use the Design-Wide Resources
 236:.\Generated_Source\PSoC4/ADC_IRQ.c **** *   Interrupt Editor.
 237:.\Generated_Source\PSoC4/ADC_IRQ.c **** *
 238:.\Generated_Source\PSoC4/ADC_IRQ.c **** *   Note This API has no effect on Non-maskable interrupt NMI).
 239:.\Generated_Source\PSoC4/ADC_IRQ.c **** *
 240:.\Generated_Source\PSoC4/ADC_IRQ.c **** * Parameters:
 241:.\Generated_Source\PSoC4/ADC_IRQ.c **** *   priority: Priority of the interrupt, 0 being the highest priority
 242:.\Generated_Source\PSoC4/ADC_IRQ.c **** *             PSoC 3 and PSoC 5LP: Priority is from 0 to 7.
 243:.\Generated_Source\PSoC4/ADC_IRQ.c **** *             PSoC 4: Priority is from 0 to 3.
 244:.\Generated_Source\PSoC4/ADC_IRQ.c **** *
 245:.\Generated_Source\PSoC4/ADC_IRQ.c **** * Return:
 246:.\Generated_Source\PSoC4/ADC_IRQ.c **** *   None
 247:.\Generated_Source\PSoC4/ADC_IRQ.c **** *
 248:.\Generated_Source\PSoC4/ADC_IRQ.c **** *******************************************************************************/
 249:.\Generated_Source\PSoC4/ADC_IRQ.c **** void ADC_IRQ_SetPriority(uint8 priority)
 250:.\Generated_Source\PSoC4/ADC_IRQ.c **** {
  89              		.loc 1 250 0
  90              		.cfi_startproc
  91              	.LVL1:
  92 0000 10B5     		push	{r4, lr}
ARM GAS  C:\Users\TOM~1.MCK\AppData\Local\Temp\cc6wkXdr.s 			page 7


  93              		.cfi_def_cfa_offset 8
  94              		.cfi_offset 4, -8
  95              		.cfi_offset 14, -4
  96 0002 041C     		mov	r4, r0
  97              	.LVL2:
 251:.\Generated_Source\PSoC4/ADC_IRQ.c **** 	uint8 interruptState;
 252:.\Generated_Source\PSoC4/ADC_IRQ.c ****     uint32 priorityOffset = ((ADC_IRQ__INTC_NUMBER % 4u) * 8u) + 6u;
 253:.\Generated_Source\PSoC4/ADC_IRQ.c ****     
 254:.\Generated_Source\PSoC4/ADC_IRQ.c **** 	interruptState = CyEnterCriticalSection();
  98              		.loc 1 254 0
  99 0004 FFF7FEFF 		bl	CyEnterCriticalSection
 100              	.LVL3:
 255:.\Generated_Source\PSoC4/ADC_IRQ.c ****     *ADC_IRQ_INTC_PRIOR = (*ADC_IRQ_INTC_PRIOR & (uint32)(~ADC_IRQ__INTC_PRIOR_MASK)) |
 101              		.loc 1 255 0
 102 0008 044A     		ldr	r2, .L9
 103 000a 1368     		ldr	r3, [r2]
 104 000c 9B00     		lsl	r3, r3, #2
 105 000e 9B08     		lsr	r3, r3, #2
 256:.\Generated_Source\PSoC4/ADC_IRQ.c ****                                     ((uint32)priority << priorityOffset);
 106              		.loc 1 256 0
 107 0010 A407     		lsl	r4, r4, #30
 255:.\Generated_Source\PSoC4/ADC_IRQ.c ****     *ADC_IRQ_INTC_PRIOR = (*ADC_IRQ_INTC_PRIOR & (uint32)(~ADC_IRQ__INTC_PRIOR_MASK)) |
 108              		.loc 1 255 0
 109 0012 1C43     		orr	r4, r3
 110 0014 1460     		str	r4, [r2]
 257:.\Generated_Source\PSoC4/ADC_IRQ.c **** 	CyExitCriticalSection(interruptState);
 111              		.loc 1 257 0
 112 0016 FFF7FEFF 		bl	CyExitCriticalSection
 113              	.LVL4:
 258:.\Generated_Source\PSoC4/ADC_IRQ.c **** }
 114              		.loc 1 258 0
 115              		@ sp needed
 116 001a 10BD     		pop	{r4, pc}
 117              	.L10:
 118              		.align	2
 119              	.L9:
 120 001c 0CE400E0 		.word	-536812532
 121              		.cfi_endproc
 122              	.LFE8:
 123              		.size	ADC_IRQ_SetPriority, .-ADC_IRQ_SetPriority
 124              		.section	.text.ADC_IRQ_GetPriority,"ax",%progbits
 125              		.align	2
 126              		.global	ADC_IRQ_GetPriority
 127              		.code	16
 128              		.thumb_func
 129              		.type	ADC_IRQ_GetPriority, %function
 130              	ADC_IRQ_GetPriority:
 131              	.LFB9:
 259:.\Generated_Source\PSoC4/ADC_IRQ.c **** 
 260:.\Generated_Source\PSoC4/ADC_IRQ.c **** 
 261:.\Generated_Source\PSoC4/ADC_IRQ.c **** /*******************************************************************************
 262:.\Generated_Source\PSoC4/ADC_IRQ.c **** * Function Name: ADC_IRQ_GetPriority
 263:.\Generated_Source\PSoC4/ADC_IRQ.c **** ********************************************************************************
 264:.\Generated_Source\PSoC4/ADC_IRQ.c **** *
 265:.\Generated_Source\PSoC4/ADC_IRQ.c **** * Summary:
 266:.\Generated_Source\PSoC4/ADC_IRQ.c **** *   Gets the Priority of the Interrupt.
 267:.\Generated_Source\PSoC4/ADC_IRQ.c **** *
ARM GAS  C:\Users\TOM~1.MCK\AppData\Local\Temp\cc6wkXdr.s 			page 8


 268:.\Generated_Source\PSoC4/ADC_IRQ.c **** * Parameters:
 269:.\Generated_Source\PSoC4/ADC_IRQ.c **** *   None
 270:.\Generated_Source\PSoC4/ADC_IRQ.c **** *
 271:.\Generated_Source\PSoC4/ADC_IRQ.c **** * Return:
 272:.\Generated_Source\PSoC4/ADC_IRQ.c **** *   Priority of the interrupt, 0 being the highest priority
 273:.\Generated_Source\PSoC4/ADC_IRQ.c **** *    PSoC 3 and PSoC 5LP: Priority is from 0 to 7.
 274:.\Generated_Source\PSoC4/ADC_IRQ.c **** *    PSoC 4: Priority is from 0 to 3.
 275:.\Generated_Source\PSoC4/ADC_IRQ.c **** *
 276:.\Generated_Source\PSoC4/ADC_IRQ.c **** *******************************************************************************/
 277:.\Generated_Source\PSoC4/ADC_IRQ.c **** uint8 ADC_IRQ_GetPriority(void)
 278:.\Generated_Source\PSoC4/ADC_IRQ.c **** {
 132              		.loc 1 278 0
 133              		.cfi_startproc
 134              	.LVL5:
 279:.\Generated_Source\PSoC4/ADC_IRQ.c ****     uint32 priority;
 280:.\Generated_Source\PSoC4/ADC_IRQ.c **** 	uint32 priorityOffset = ((ADC_IRQ__INTC_NUMBER % 4u) * 8u) + 6u;
 281:.\Generated_Source\PSoC4/ADC_IRQ.c **** 
 282:.\Generated_Source\PSoC4/ADC_IRQ.c ****     priority = (*ADC_IRQ_INTC_PRIOR & ADC_IRQ__INTC_PRIOR_MASK) >> priorityOffset;
 135              		.loc 1 282 0
 136 0000 014B     		ldr	r3, .L12
 137 0002 1868     		ldr	r0, [r3]
 138              	.LVL6:
 283:.\Generated_Source\PSoC4/ADC_IRQ.c **** 
 284:.\Generated_Source\PSoC4/ADC_IRQ.c ****     return (uint8)priority;
 139              		.loc 1 284 0
 140 0004 800F     		lsr	r0, r0, #30
 141              	.LVL7:
 285:.\Generated_Source\PSoC4/ADC_IRQ.c **** }
 142              		.loc 1 285 0
 143              		@ sp needed
 144 0006 7047     		bx	lr
 145              	.L13:
 146              		.align	2
 147              	.L12:
 148 0008 0CE400E0 		.word	-536812532
 149              		.cfi_endproc
 150              	.LFE9:
 151              		.size	ADC_IRQ_GetPriority, .-ADC_IRQ_GetPriority
 152              		.section	.text.ADC_IRQ_Enable,"ax",%progbits
 153              		.align	2
 154              		.global	ADC_IRQ_Enable
 155              		.code	16
 156              		.thumb_func
 157              		.type	ADC_IRQ_Enable, %function
 158              	ADC_IRQ_Enable:
 159              	.LFB10:
 286:.\Generated_Source\PSoC4/ADC_IRQ.c **** 
 287:.\Generated_Source\PSoC4/ADC_IRQ.c **** 
 288:.\Generated_Source\PSoC4/ADC_IRQ.c **** /*******************************************************************************
 289:.\Generated_Source\PSoC4/ADC_IRQ.c **** * Function Name: ADC_IRQ_Enable
 290:.\Generated_Source\PSoC4/ADC_IRQ.c **** ********************************************************************************
 291:.\Generated_Source\PSoC4/ADC_IRQ.c **** *
 292:.\Generated_Source\PSoC4/ADC_IRQ.c **** * Summary:
 293:.\Generated_Source\PSoC4/ADC_IRQ.c **** *   Enables the interrupt to the interrupt controller. Do not call this function
 294:.\Generated_Source\PSoC4/ADC_IRQ.c **** *   unless ISR_Start() has been called or the functionality of the ISR_Start() 
 295:.\Generated_Source\PSoC4/ADC_IRQ.c **** *   function, which sets the vector and the priority, has been called.
 296:.\Generated_Source\PSoC4/ADC_IRQ.c **** *
ARM GAS  C:\Users\TOM~1.MCK\AppData\Local\Temp\cc6wkXdr.s 			page 9


 297:.\Generated_Source\PSoC4/ADC_IRQ.c **** * Parameters:
 298:.\Generated_Source\PSoC4/ADC_IRQ.c **** *   None
 299:.\Generated_Source\PSoC4/ADC_IRQ.c **** *
 300:.\Generated_Source\PSoC4/ADC_IRQ.c **** * Return:
 301:.\Generated_Source\PSoC4/ADC_IRQ.c **** *   None
 302:.\Generated_Source\PSoC4/ADC_IRQ.c **** *
 303:.\Generated_Source\PSoC4/ADC_IRQ.c **** *******************************************************************************/
 304:.\Generated_Source\PSoC4/ADC_IRQ.c **** void ADC_IRQ_Enable(void)
 305:.\Generated_Source\PSoC4/ADC_IRQ.c **** {
 160              		.loc 1 305 0
 161              		.cfi_startproc
 306:.\Generated_Source\PSoC4/ADC_IRQ.c ****     /* Enable the general interrupt. */
 307:.\Generated_Source\PSoC4/ADC_IRQ.c ****     *ADC_IRQ_INTC_SET_EN = ADC_IRQ__INTC_MASK;
 162              		.loc 1 307 0
 163 0000 8022     		mov	r2, #128
 164 0002 1202     		lsl	r2, r2, #8
 165 0004 014B     		ldr	r3, .L15
 166 0006 1A60     		str	r2, [r3]
 308:.\Generated_Source\PSoC4/ADC_IRQ.c **** }
 167              		.loc 1 308 0
 168              		@ sp needed
 169 0008 7047     		bx	lr
 170              	.L16:
 171 000a C046     		.align	2
 172              	.L15:
 173 000c 00E100E0 		.word	-536813312
 174              		.cfi_endproc
 175              	.LFE10:
 176              		.size	ADC_IRQ_Enable, .-ADC_IRQ_Enable
 177              		.section	.text.ADC_IRQ_GetState,"ax",%progbits
 178              		.align	2
 179              		.global	ADC_IRQ_GetState
 180              		.code	16
 181              		.thumb_func
 182              		.type	ADC_IRQ_GetState, %function
 183              	ADC_IRQ_GetState:
 184              	.LFB11:
 309:.\Generated_Source\PSoC4/ADC_IRQ.c **** 
 310:.\Generated_Source\PSoC4/ADC_IRQ.c **** 
 311:.\Generated_Source\PSoC4/ADC_IRQ.c **** /*******************************************************************************
 312:.\Generated_Source\PSoC4/ADC_IRQ.c **** * Function Name: ADC_IRQ_GetState
 313:.\Generated_Source\PSoC4/ADC_IRQ.c **** ********************************************************************************
 314:.\Generated_Source\PSoC4/ADC_IRQ.c **** *
 315:.\Generated_Source\PSoC4/ADC_IRQ.c **** * Summary:
 316:.\Generated_Source\PSoC4/ADC_IRQ.c **** *   Gets the state (enabled, disabled) of the Interrupt.
 317:.\Generated_Source\PSoC4/ADC_IRQ.c **** *
 318:.\Generated_Source\PSoC4/ADC_IRQ.c **** * Parameters:
 319:.\Generated_Source\PSoC4/ADC_IRQ.c **** *   None
 320:.\Generated_Source\PSoC4/ADC_IRQ.c **** *
 321:.\Generated_Source\PSoC4/ADC_IRQ.c **** * Return:
 322:.\Generated_Source\PSoC4/ADC_IRQ.c **** *   1 if enabled, 0 if disabled.
 323:.\Generated_Source\PSoC4/ADC_IRQ.c **** *
 324:.\Generated_Source\PSoC4/ADC_IRQ.c **** *******************************************************************************/
 325:.\Generated_Source\PSoC4/ADC_IRQ.c **** uint8 ADC_IRQ_GetState(void)
 326:.\Generated_Source\PSoC4/ADC_IRQ.c **** {
 185              		.loc 1 326 0
 186              		.cfi_startproc
ARM GAS  C:\Users\TOM~1.MCK\AppData\Local\Temp\cc6wkXdr.s 			page 10


 327:.\Generated_Source\PSoC4/ADC_IRQ.c ****     /* Get the state of the general interrupt. */
 328:.\Generated_Source\PSoC4/ADC_IRQ.c ****     return ((*ADC_IRQ_INTC_SET_EN & (uint32)ADC_IRQ__INTC_MASK) != 0u) ? 1u:0u;
 187              		.loc 1 328 0
 188 0000 034B     		ldr	r3, .L20
 189 0002 1B68     		ldr	r3, [r3]
 190 0004 1B04     		lsl	r3, r3, #16
 191 0006 01D5     		bpl	.L19
 192 0008 0120     		mov	r0, #1
 193 000a 00E0     		b	.L18
 194              	.L19:
 195 000c 0020     		mov	r0, #0
 196              	.L18:
 329:.\Generated_Source\PSoC4/ADC_IRQ.c **** }
 197              		.loc 1 329 0 discriminator 4
 198              		@ sp needed
 199 000e 7047     		bx	lr
 200              	.L21:
 201              		.align	2
 202              	.L20:
 203 0010 00E100E0 		.word	-536813312
 204              		.cfi_endproc
 205              	.LFE11:
 206              		.size	ADC_IRQ_GetState, .-ADC_IRQ_GetState
 207              		.section	.text.ADC_IRQ_Disable,"ax",%progbits
 208              		.align	2
 209              		.global	ADC_IRQ_Disable
 210              		.code	16
 211              		.thumb_func
 212              		.type	ADC_IRQ_Disable, %function
 213              	ADC_IRQ_Disable:
 214              	.LFB12:
 330:.\Generated_Source\PSoC4/ADC_IRQ.c **** 
 331:.\Generated_Source\PSoC4/ADC_IRQ.c **** 
 332:.\Generated_Source\PSoC4/ADC_IRQ.c **** /*******************************************************************************
 333:.\Generated_Source\PSoC4/ADC_IRQ.c **** * Function Name: ADC_IRQ_Disable
 334:.\Generated_Source\PSoC4/ADC_IRQ.c **** ********************************************************************************
 335:.\Generated_Source\PSoC4/ADC_IRQ.c **** *
 336:.\Generated_Source\PSoC4/ADC_IRQ.c **** * Summary:
 337:.\Generated_Source\PSoC4/ADC_IRQ.c **** *   Disables the Interrupt in the interrupt controller.
 338:.\Generated_Source\PSoC4/ADC_IRQ.c **** *
 339:.\Generated_Source\PSoC4/ADC_IRQ.c **** * Parameters:
 340:.\Generated_Source\PSoC4/ADC_IRQ.c **** *   None
 341:.\Generated_Source\PSoC4/ADC_IRQ.c **** *
 342:.\Generated_Source\PSoC4/ADC_IRQ.c **** * Return:
 343:.\Generated_Source\PSoC4/ADC_IRQ.c **** *   None
 344:.\Generated_Source\PSoC4/ADC_IRQ.c **** *
 345:.\Generated_Source\PSoC4/ADC_IRQ.c **** *******************************************************************************/
 346:.\Generated_Source\PSoC4/ADC_IRQ.c **** void ADC_IRQ_Disable(void)
 347:.\Generated_Source\PSoC4/ADC_IRQ.c **** {
 215              		.loc 1 347 0
 216              		.cfi_startproc
 348:.\Generated_Source\PSoC4/ADC_IRQ.c ****     /* Disable the general interrupt. */
 349:.\Generated_Source\PSoC4/ADC_IRQ.c ****     *ADC_IRQ_INTC_CLR_EN = ADC_IRQ__INTC_MASK;
 217              		.loc 1 349 0
 218 0000 8022     		mov	r2, #128
 219 0002 1202     		lsl	r2, r2, #8
 220 0004 014B     		ldr	r3, .L23
ARM GAS  C:\Users\TOM~1.MCK\AppData\Local\Temp\cc6wkXdr.s 			page 11


 221 0006 1A60     		str	r2, [r3]
 350:.\Generated_Source\PSoC4/ADC_IRQ.c **** }
 222              		.loc 1 350 0
 223              		@ sp needed
 224 0008 7047     		bx	lr
 225              	.L24:
 226 000a C046     		.align	2
 227              	.L23:
 228 000c 80E100E0 		.word	-536813184
 229              		.cfi_endproc
 230              	.LFE12:
 231              		.size	ADC_IRQ_Disable, .-ADC_IRQ_Disable
 232              		.section	.text.ADC_IRQ_Start,"ax",%progbits
 233              		.align	2
 234              		.global	ADC_IRQ_Start
 235              		.code	16
 236              		.thumb_func
 237              		.type	ADC_IRQ_Start, %function
 238              	ADC_IRQ_Start:
 239              	.LFB2:
  57:.\Generated_Source\PSoC4/ADC_IRQ.c ****     /* For all we know the interrupt is active. */
 240              		.loc 1 57 0
 241              		.cfi_startproc
 242 0000 08B5     		push	{r3, lr}
 243              		.cfi_def_cfa_offset 8
 244              		.cfi_offset 3, -8
 245              		.cfi_offset 14, -4
  59:.\Generated_Source\PSoC4/ADC_IRQ.c **** 
 246              		.loc 1 59 0
 247 0002 FFF7FEFF 		bl	ADC_IRQ_Disable
 248              	.LVL8:
  62:.\Generated_Source\PSoC4/ADC_IRQ.c **** 
 249              		.loc 1 62 0
 250 0006 0448     		ldr	r0, .L26
 251 0008 FFF7FEFF 		bl	ADC_IRQ_SetVector
 252              	.LVL9:
  65:.\Generated_Source\PSoC4/ADC_IRQ.c **** 
 253              		.loc 1 65 0
 254 000c 0320     		mov	r0, #3
 255 000e FFF7FEFF 		bl	ADC_IRQ_SetPriority
 256              	.LVL10:
  68:.\Generated_Source\PSoC4/ADC_IRQ.c **** }
 257              		.loc 1 68 0
 258 0012 FFF7FEFF 		bl	ADC_IRQ_Enable
 259              	.LVL11:
  69:.\Generated_Source\PSoC4/ADC_IRQ.c **** 
 260              		.loc 1 69 0
 261              		@ sp needed
 262 0016 08BD     		pop	{r3, pc}
 263              	.L27:
 264              		.align	2
 265              	.L26:
 266 0018 00000000 		.word	ADC_IRQ_Interrupt
 267              		.cfi_endproc
 268              	.LFE2:
 269              		.size	ADC_IRQ_Start, .-ADC_IRQ_Start
 270              		.section	.text.ADC_IRQ_StartEx,"ax",%progbits
ARM GAS  C:\Users\TOM~1.MCK\AppData\Local\Temp\cc6wkXdr.s 			page 12


 271              		.align	2
 272              		.global	ADC_IRQ_StartEx
 273              		.code	16
 274              		.thumb_func
 275              		.type	ADC_IRQ_StartEx, %function
 276              	ADC_IRQ_StartEx:
 277              	.LFB3:
 100:.\Generated_Source\PSoC4/ADC_IRQ.c ****     /* For all we know the interrupt is active. */
 278              		.loc 1 100 0
 279              		.cfi_startproc
 280              	.LVL12:
 281 0000 10B5     		push	{r4, lr}
 282              		.cfi_def_cfa_offset 8
 283              		.cfi_offset 4, -8
 284              		.cfi_offset 14, -4
 285 0002 041C     		mov	r4, r0
 102:.\Generated_Source\PSoC4/ADC_IRQ.c **** 
 286              		.loc 1 102 0
 287 0004 FFF7FEFF 		bl	ADC_IRQ_Disable
 288              	.LVL13:
 105:.\Generated_Source\PSoC4/ADC_IRQ.c **** 
 289              		.loc 1 105 0
 290 0008 201C     		mov	r0, r4
 291 000a FFF7FEFF 		bl	ADC_IRQ_SetVector
 292              	.LVL14:
 108:.\Generated_Source\PSoC4/ADC_IRQ.c **** 
 293              		.loc 1 108 0
 294 000e 0320     		mov	r0, #3
 295 0010 FFF7FEFF 		bl	ADC_IRQ_SetPriority
 296              	.LVL15:
 111:.\Generated_Source\PSoC4/ADC_IRQ.c **** }
 297              		.loc 1 111 0
 298 0014 FFF7FEFF 		bl	ADC_IRQ_Enable
 299              	.LVL16:
 112:.\Generated_Source\PSoC4/ADC_IRQ.c **** 
 300              		.loc 1 112 0
 301              		@ sp needed
 302              	.LVL17:
 303 0018 10BD     		pop	{r4, pc}
 304              		.cfi_endproc
 305              	.LFE3:
 306              		.size	ADC_IRQ_StartEx, .-ADC_IRQ_StartEx
 307 001a C046     		.section	.text.ADC_IRQ_Stop,"ax",%progbits
 308              		.align	2
 309              		.global	ADC_IRQ_Stop
 310              		.code	16
 311              		.thumb_func
 312              		.type	ADC_IRQ_Stop, %function
 313              	ADC_IRQ_Stop:
 314              	.LFB4:
 130:.\Generated_Source\PSoC4/ADC_IRQ.c ****     /* Disable this interrupt. */
 315              		.loc 1 130 0
 316              		.cfi_startproc
 317 0000 08B5     		push	{r3, lr}
 318              		.cfi_def_cfa_offset 8
 319              		.cfi_offset 3, -8
 320              		.cfi_offset 14, -4
ARM GAS  C:\Users\TOM~1.MCK\AppData\Local\Temp\cc6wkXdr.s 			page 13


 132:.\Generated_Source\PSoC4/ADC_IRQ.c **** 
 321              		.loc 1 132 0
 322 0002 FFF7FEFF 		bl	ADC_IRQ_Disable
 323              	.LVL18:
 135:.\Generated_Source\PSoC4/ADC_IRQ.c **** }
 324              		.loc 1 135 0
 325 0006 0248     		ldr	r0, .L30
 326 0008 FFF7FEFF 		bl	ADC_IRQ_SetVector
 327              	.LVL19:
 136:.\Generated_Source\PSoC4/ADC_IRQ.c **** 
 328              		.loc 1 136 0
 329              		@ sp needed
 330 000c 08BD     		pop	{r3, pc}
 331              	.L31:
 332 000e C046     		.align	2
 333              	.L30:
 334 0010 00000000 		.word	IntDefaultHandler
 335              		.cfi_endproc
 336              	.LFE4:
 337              		.size	ADC_IRQ_Stop, .-ADC_IRQ_Stop
 338              		.section	.text.ADC_IRQ_SetPending,"ax",%progbits
 339              		.align	2
 340              		.global	ADC_IRQ_SetPending
 341              		.code	16
 342              		.thumb_func
 343              		.type	ADC_IRQ_SetPending, %function
 344              	ADC_IRQ_SetPending:
 345              	.LFB13:
 351:.\Generated_Source\PSoC4/ADC_IRQ.c **** 
 352:.\Generated_Source\PSoC4/ADC_IRQ.c **** 
 353:.\Generated_Source\PSoC4/ADC_IRQ.c **** /*******************************************************************************
 354:.\Generated_Source\PSoC4/ADC_IRQ.c **** * Function Name: ADC_IRQ_SetPending
 355:.\Generated_Source\PSoC4/ADC_IRQ.c **** ********************************************************************************
 356:.\Generated_Source\PSoC4/ADC_IRQ.c **** *
 357:.\Generated_Source\PSoC4/ADC_IRQ.c **** * Summary:
 358:.\Generated_Source\PSoC4/ADC_IRQ.c **** *   Causes the Interrupt to enter the pending state, a software method of
 359:.\Generated_Source\PSoC4/ADC_IRQ.c **** *   generating the interrupt.
 360:.\Generated_Source\PSoC4/ADC_IRQ.c **** *
 361:.\Generated_Source\PSoC4/ADC_IRQ.c **** * Parameters:
 362:.\Generated_Source\PSoC4/ADC_IRQ.c **** *   None
 363:.\Generated_Source\PSoC4/ADC_IRQ.c **** *
 364:.\Generated_Source\PSoC4/ADC_IRQ.c **** * Return:
 365:.\Generated_Source\PSoC4/ADC_IRQ.c **** *   None
 366:.\Generated_Source\PSoC4/ADC_IRQ.c **** *
 367:.\Generated_Source\PSoC4/ADC_IRQ.c **** * Side Effects:
 368:.\Generated_Source\PSoC4/ADC_IRQ.c **** *   If interrupts are enabled and the interrupt is set up properly, the ISR is
 369:.\Generated_Source\PSoC4/ADC_IRQ.c **** *   entered (depending on the priority of this interrupt and other pending 
 370:.\Generated_Source\PSoC4/ADC_IRQ.c **** *   interrupts).
 371:.\Generated_Source\PSoC4/ADC_IRQ.c **** *
 372:.\Generated_Source\PSoC4/ADC_IRQ.c **** *******************************************************************************/
 373:.\Generated_Source\PSoC4/ADC_IRQ.c **** void ADC_IRQ_SetPending(void)
 374:.\Generated_Source\PSoC4/ADC_IRQ.c **** {
 346              		.loc 1 374 0
 347              		.cfi_startproc
 375:.\Generated_Source\PSoC4/ADC_IRQ.c ****     *ADC_IRQ_INTC_SET_PD = ADC_IRQ__INTC_MASK;
 348              		.loc 1 375 0
 349 0000 8022     		mov	r2, #128
ARM GAS  C:\Users\TOM~1.MCK\AppData\Local\Temp\cc6wkXdr.s 			page 14


 350 0002 1202     		lsl	r2, r2, #8
 351 0004 014B     		ldr	r3, .L33
 352 0006 1A60     		str	r2, [r3]
 376:.\Generated_Source\PSoC4/ADC_IRQ.c **** }
 353              		.loc 1 376 0
 354              		@ sp needed
 355 0008 7047     		bx	lr
 356              	.L34:
 357 000a C046     		.align	2
 358              	.L33:
 359 000c 00E200E0 		.word	-536813056
 360              		.cfi_endproc
 361              	.LFE13:
 362              		.size	ADC_IRQ_SetPending, .-ADC_IRQ_SetPending
 363              		.section	.text.ADC_IRQ_ClearPending,"ax",%progbits
 364              		.align	2
 365              		.global	ADC_IRQ_ClearPending
 366              		.code	16
 367              		.thumb_func
 368              		.type	ADC_IRQ_ClearPending, %function
 369              	ADC_IRQ_ClearPending:
 370              	.LFB14:
 377:.\Generated_Source\PSoC4/ADC_IRQ.c **** 
 378:.\Generated_Source\PSoC4/ADC_IRQ.c **** 
 379:.\Generated_Source\PSoC4/ADC_IRQ.c **** /*******************************************************************************
 380:.\Generated_Source\PSoC4/ADC_IRQ.c **** * Function Name: ADC_IRQ_ClearPending
 381:.\Generated_Source\PSoC4/ADC_IRQ.c **** ********************************************************************************
 382:.\Generated_Source\PSoC4/ADC_IRQ.c **** *
 383:.\Generated_Source\PSoC4/ADC_IRQ.c **** * Summary:
 384:.\Generated_Source\PSoC4/ADC_IRQ.c **** *   Clears a pending interrupt in the interrupt controller.
 385:.\Generated_Source\PSoC4/ADC_IRQ.c **** *
 386:.\Generated_Source\PSoC4/ADC_IRQ.c **** *   Note Some interrupt sources are clear-on-read and require the block 
 387:.\Generated_Source\PSoC4/ADC_IRQ.c **** *   interrupt/status register to be read/cleared with the appropriate block API 
 388:.\Generated_Source\PSoC4/ADC_IRQ.c **** *   (GPIO, UART, and so on). Otherwise the ISR will continue to remain in 
 389:.\Generated_Source\PSoC4/ADC_IRQ.c **** *   pending state even though the interrupt itself is cleared using this API.
 390:.\Generated_Source\PSoC4/ADC_IRQ.c **** *
 391:.\Generated_Source\PSoC4/ADC_IRQ.c **** * Parameters:
 392:.\Generated_Source\PSoC4/ADC_IRQ.c **** *   None
 393:.\Generated_Source\PSoC4/ADC_IRQ.c **** *
 394:.\Generated_Source\PSoC4/ADC_IRQ.c **** * Return:
 395:.\Generated_Source\PSoC4/ADC_IRQ.c **** *   None
 396:.\Generated_Source\PSoC4/ADC_IRQ.c **** *
 397:.\Generated_Source\PSoC4/ADC_IRQ.c **** *******************************************************************************/
 398:.\Generated_Source\PSoC4/ADC_IRQ.c **** void ADC_IRQ_ClearPending(void)
 399:.\Generated_Source\PSoC4/ADC_IRQ.c **** {
 371              		.loc 1 399 0
 372              		.cfi_startproc
 400:.\Generated_Source\PSoC4/ADC_IRQ.c ****     *ADC_IRQ_INTC_CLR_PD = ADC_IRQ__INTC_MASK;
 373              		.loc 1 400 0
 374 0000 8022     		mov	r2, #128
 375 0002 1202     		lsl	r2, r2, #8
 376 0004 014B     		ldr	r3, .L36
 377 0006 1A60     		str	r2, [r3]
 401:.\Generated_Source\PSoC4/ADC_IRQ.c **** }
 378              		.loc 1 401 0
 379              		@ sp needed
 380 0008 7047     		bx	lr
ARM GAS  C:\Users\TOM~1.MCK\AppData\Local\Temp\cc6wkXdr.s 			page 15


 381              	.L37:
 382 000a C046     		.align	2
 383              	.L36:
 384 000c 80E200E0 		.word	-536812928
 385              		.cfi_endproc
 386              	.LFE14:
 387              		.size	ADC_IRQ_ClearPending, .-ADC_IRQ_ClearPending
 388              		.text
 389              	.Letext0:
 390              		.file 2 "Generated_Source\\PSoC4/cytypes.h"
 391              		.file 3 "Generated_Source\\PSoC4/CyLib.h"
