:4000000000800020110000007D0300007D03000008B500F0B5F9C04638B5214C12232360182000F0CDFC1F4A1F4B1A601F4A116802230B4313601E4A1E4B1A601E4A136868
:4000400008218B431360FA20C00000F06BFD1B4800F0ACFCB0221201194B1A60194B1A4A1A6080214900194A1160194A1A6080221206184B1A600025174B1D604122174BE9
:400080001A60013A164B1A600820164900F056FC082000F03DFC144B1D601123236038BD300010400600008004010B4078002E402D3E00007C002E406CF02E40DC050000D2
:4000C000040301400000014041FF00800003014040FF008008010B4000010B402C010140080101406D0D00000C020B4010B572B60022374B1A60002410E0364863001A1956
:400100005200821891881B195B001A5AC31858880004104300F0ACF90134E4B2012CECD92C49081C0C30303100F078F92A4A2B4B1A60C02292012A4B1A6099231B04294AA6
:400140001360294A1360C0210904284A1160284A1360284A13601222274B1A600132274B1A60033A264B1A600132264B1A60264B19780F3A0A431A70244802783C218A43D4
:4001800028390A430270197816220A431A70A4221F4B1A700D231F4A13601F491F4A11601F4A136008221F4B1A601F4A1F4B1A6040221F4B1A60C0235B031E490B601E4980
:4001C0000A601E4A1360FFF727FF00F041F910BD6CF02E40E40E0000FFFF00EE000002400001024000500F4010500F4018500F4020500F4030500F40002001400420014021
:40020000082001400C20014000700F4001700F405B320F40000004408E0DD800080004401800044000010440490C000008010440000204400802044000030440080304401D
:4002400010B5064C2378002B07D1054B002B02D0044800E000BF0123237010BD0801002000000000A00E000008B5084B002B03D00748084900E000BF07480368002B00D133
:4002800008BD064B002BFBD09847F9E700000000A00E00000C010020C80000200000000010B53048304900F081FA00F009FB00F019F9002000F03EF900F024F90028FBD052
:4002C00000F028F900F0BCFA284C2948211C00F0CFF9211C2031274800F036FA21482030254900F0F7F900F08BFC0A28FBD100F081FC012000F0C2F81C481A49202200F0A3
:40030000B7FD002803D0002000F0C4F8FEE71748203014492031202200F0AAFD002803D0002000F0B7F8FEE7002000F0A7F80F4A0023136053609360D360136153619361F5
:40034000D361136253629362D362136353639363D3630220002100F06BFC022000F056FCC1E7C046A40E000041000F40240100204003254051000F4040022540FEE7C04690
:4003800070B50F4E0F4D13E029686B68AC68002202E001C901C30432A242FAD1E868002202E0002102C304328242FAD11035013E002EE9D100F036FDFFF772FFFEE7C0469D
:4003C000010000002411000008B50F4A136801218B43136000230AE0032B03D89A000B49505800E00A4899000A4A885001332F2BF2D9FFF77BFE0022074B1A60024A1168B5
:4004000001230B43136008BD00001040000000007D03000000000020C0000020F0B50025002711E0BB00C658F3B2FF22964308E06A008A181478A419527822700135013BDD
:40044000DBB2002BF4D10137082FEBD9F0BDC0460323044A1360044A13600022034B1A607047C0463000304030003140000E3F4008B50A1C002100F00AFD08BD04490A687D
:40048000BF231A4080017F3B18401043086070470003044004490A68BF231A4080017F3B18401043086070470002044008B50A2000F02EFA08BDC04608B500F049F808BDF1
:4004C00008B500F06BF808BD08B5054A1368802109060B431360FFF7E9FFFFF7EDFF08BD0000254008B5064B1B78002B04D1FFF7E7FF0122024B1A70FFF7E6FF08BDC04628
:4005000064010020024B1B681F2018407047C04608032540054B1A68802149020A431A601968034A0A401A607047C04604032540FFFFFEFF044B1B681F221340082BF9D005
:40054000024B18607047C0460802254040022540074B1A68F02109020A431A601A68F02109010A431A60034B1A88034B1A607047000002406C010020880F254005490A68CE
:40058000054B13408006C02212051040184308607047C04620002540FFFFFFF310B5174A174B1A60174A184B1A60184B184A13600024184A1460184A13600722174B1A6088
:4005C0000A2000F0AFF90A20032100F0C9F90A20134900F0B3F9134B1C60134B1C60134B1C60134B1C60134B1C60134B1C601A68124B1A800020FFF7C1FF10BD0F000001CF
:400600000000254001000080200025400701008000032540040325400002254004022540110E0000880E2540C80E2540480F2540080F2540C80F2540880F25406C010020CF
:40064000C0229205064BDA60064B074A9A6600229A67064A116808230B4313607047C04680101040001810401F006009F817104038B5051C0C1C0E4B1B78002B04D1FFF7F8
:40068000DFFF01220A4B1A7000F09AFA032000212A1C00F0E7FA03200021221C00F0F8FA0320002100F0C4FA032000F0AFFA38BD70010020C0229205034B9A60034B044A86
:4006C0009A6400229A65704780101040001810401F00900538B5051C0C1C0E4B1B78002B04D1FFF7E7FF01220A4B1A7000F068FA022000212A1C00F0B5FA02200021221C2D
:4007000000F0C6FA0220002100F092FA022000F07DFA38BD71010020C0229205064B5A60064B074A9A6200229A63064A116802230B4313607047C046801010400018104045
:400740001F002009F817104038B5051C0C1C0E4B1B78002B04D1FFF7DFFF01220A4B1A7000F02EFA012000212A1C00F07BFA01200021221C00F08CFA0120002100F058FA5B
:40078000012000F043FA38BD72010020C0229205034B1A60034B044A9A6000229A61704780101040001810401F00800138B5051C0C1C0E4B1B78002B04D1FFF7E7FF0122AF
:4007C0000A4B1A7000F0FCF9002000212A1C00F049FA00200021221C00F05AFA0020002100F026FA002000F011FA38BD7301002008B500F07EF8094A117820230B431370B0
:4008000007490A7810231A43D2B20A70054A11780B43DBB2137000F070F808BD92000F4093000F4090000F40014B1878C0B2704763000F40014B1878C0B2704760000F40F8
:4008400001E0034B1B78034B1B781B07F9D4704751000F4060000F4008B501E0094B1B78094B1B781B07F9D400F043F8074B197803220A431A701A7803218A431A7000F07E
:400880003CF808BD51000F4060000F4091000F4008B50722074B1A70FFF7DEFFFFF7C4FFFFF7C8FF0222044B1A700632034B1A7008BDC04682000F4083000F4080000F40BB
:4008C00008B5064B1B78002B04D1FFF7E1FF0122024B1A70FFF78CFF08BDC046740100200230800803D00138FDD1C046C046C0467047EFF3108072B6704780F31088704736
:40090000024B1B68012018407047C0460C002E401F2318401E3B8340181C014B1860704700E100E01F2318401E3B8340181C014B1860704780E100E001BE704738B5041CE8
:400940000D1C1F2802D90020FFF7F6FFA400034B9C4664442068256038BDC0464000002070B5041C0E1E032E02D90020FFF7E4FF1F2C02D90020FFF7DFFF03252540ED0033
:400980000635FFF7B6FFA408A400074B9C46644423680322AA409343AE40351C1D432560FFF7ABFF70BDC04600E400E008B5034B1B7A5843FFF794FF08BDC046CC0000207F
:4009C000F0B557464E46C0B483B0041CFFF791FF0190E71E2D2F74D83F4B1B78DBB2A34208D33E4B1B78DBB29A463D4B1B78DBB2994631E03B4B1B78DBB2A34208D33A4B20
:400A00001B78DBB29A46394B1B78DBB2994623E0374B1B78DBB2A34208D3364B1B78DBB29A46354B1B78DBB2994615E0334B1B78DBB2A34208D3324B1B78DBB29A46314B82
:400A40001B78DBB2994607E02F4B1B78DBB29A462E4B1B78DBB299462D4BDE5D2F2E09D92A2C07D919222B4B1A600520FFF738FF192503E0274B1D683F231D40AE4206D25A
:400A8000234BDA5D234B1A600520FFF729FF1F4B9C4664442378DBB21F4A13601F4B52461A601F4B4A461A600520FFF77FFFAE420AD9174BDA5D174B1A600520FFF710FF73
:400AC00002E00020FFF738FF0198FFF716FF03B00CBC91469A46F0BD40F3FF0F41F3FF0F42F3FF0F43F3FF0F44F3FF0F45F3FF0F46F3FF0F47F3FF0F48F3FF0F49F3FF0F8D
:400B00004AF3FF0F4BF3FF0F4CF3FF0F4DF3FF0FD01000002CFF0B4028FF0B401CFF0B4020FF0B4010B5041C0F4A116801230B4313600E4A0E4B1A600E4A136880210902A5
:400B40000B431360002809D100200CE00120FFF72DFFFFF7D5FE002804D1013C002CF5D1102000E0002010BD60F02E400220000078002E4010002E4038B5084B1C68084B16
:400B80001C60002507E0E30703D5AB00054A9B58984764080135002CF5D138BDFC171040F0171040DC00002008B50020FFF7C4FE08BDC04608B5011C1520FFF7BFFE08BDF9
:400BC00008B5094B1B78002B09D10848FFF7F2FF15200321FFF7C4FE0122034B1A7080221206034B1A6008BD75010020790B000000101040014B18607047C046F017104070
:400C0000014B18687047C046FC17104010B5041E072C02D90020FFF78FFE044AA400A358802109060B43A35010BDC0468010104038B5051C0C1C072802D90020FFF77CFECF
:400C4000012C02D90020FFF777FE6D002C192401034B9C46644480231B06636038BDC0460818104070B5051C0C1C161C072802D90020FFF761FE012C02D90020FFF75CFEA9
:400C80006D002C192401014BE65070BD0018104070B5051C0C1C161C072802D90020FFF74BFE012C02D90020FFF746FE6D002C192401024B9C466444666070BD00181040D2
:400CC000034B1868C0231B02184000D00120704700010B4008B5FFF70CFE044A1368C02109020B431360FFF708FE08BD00010B4010B5FFF7FEFD08490A68084B1A408024D0
:400D0000E40122430A600A6813408022120213430B60FFF7F2FD10BD00010B40FF3FFFFF70B5061CFFF7E5FD041CFFF7C9FF002803D0FFF7DDFF012500E000250848331CF5
:400D40000340084A106808490840184310601368012D01D1FFF7BEFF201CFFF7CEFD70BD0404040010020B40FBFBFBFF10B5244B1B685B0715D5234B5B685B070ED5224B6B
:400D8000596A042001401F4C62688A4362605A6A82435A629B69002B00D098470420FFF7BFFF174B1B685B0518D5164B5B685B0510D5154B596A8022D200114011484268C6
:400DC0008A434260596A114A0A405A62DB69002B00D098478020C000FFF7A2FF084B1B685B030CD5074B5B685B0304D5064B1B6A002B00D098478020C002FFF791FF10BD85
:400E000010020B400001002078010020FFFBFFFF08B5034B1B68002B00D0984708BDC046680100200E4B70B500251E1C0D4CE41AA410A54204D0AB00F35898470135F8E75A
:400E400000F05EF9084B00251E1C084CE41AA410A54204D0AB00F35898470135F8E770BD0C1100000C1100000C1100001411000030B50024944208D0035D651C0C5DA3423F
:400E800001D0181B02E02C1CF4E7002030BD031C8218934202D019700133FAE770470000000000004461746120746F2072657475726E2062792053504920536C61766520E8
:400EC000212121214461746120746F207472616E736D697420627920535049204D6173746572202100300F40000400400F40000403000F4035300F4029310F402E320F4017
:400F00003E330F4009410F4003420F4003430F4002600F40807882078347190137013F405420560459045B045F0180028301840288028F0292029D029E01A302A502A8010A
:400F4000A902B102B202B301B401BE14BF01C003C102C230C401C5BEC6F0C7DCC83BC9FFCAFFCBFFCC22CEF0CF0CD08CD110D608D804D904DA24DB04DD08DF11E840E901CE
:400F8000EAC0EB01042807400E800F4117201C041D082280244027202E022F28302037403A043B083F4145A84D024E105428560258015C615E046084628465086609670936
:400FC0007E04C070C290C440CAE0CC14CE90D070D6F1D8FFDE200001020204400E20101012011302161E18011A0423012601280129012A083020310134403502361F3E501B
:401000003F0156025728580459045B245C805D805E085F11830187018C01AD01AE01B201B701BE04BF40D441D604D804D904DB04DF010302062107400EA8120115101610C2
:4010400018101DA01F122240244026102B022D022E2036023A0959085AA0609067206C146D106E886F687D087E048104822084808A168C40922094289608990A9A099F40CE
:40108000A5A0A640A728A8A0AA02AC08AE04B021B401B508C0B1C270C461CAA8CC80CE03D60ED843DE60E080E240E422EC0103810710560283108B818E02C070D620E02048
:4010C0006A026E02DC0686019602AA0101011001030405060708090A0B0C0E0F101112131415161718191B1C1D1E1F2021222325262728292A2B2E2F303132333435000065
:40110000F8B5C046F8BC08BC9E46704769020000C9030000F8B5C046F8BC08BC9E4670474102000038110000C8000020400000009800000000000000000000000000E02E92
:40114000C05D00001800000000366E01A90B0000A90B0000A90B0000A90B0000A90B0000A90B0000A90B0000A90B00000F000000F0000000040404000000000000000000EA
:40118000000000000000000000000000000000000000000000000000000000000000000000000000000000000000000000000000000000000000000000000000000000002F
:4011C00000000000000000000000000000000000000000000000000000000000000000000000000000000000000000000000000000000000000000000000000000000000EF
:4012000000000000000000000000000000000000000000000000000000000000000000000000000000000000000000000000000000000000000000000000000000000000AE
:40124000000000000000000000000000000000000000000000000000000000000000000000000000000000000000000000000000000000000000000000000000000000006E
:020000040003F7
:0200000490303A
:02000000855821
:0200000490402A
:4000000000000000000000000000000000000000000000000000000000000000000000000000000000000000000000000000000000000000000000000000000000000000C0
:400040000000000000000000000000000000000000000000000000000000000000000000000000000000000000000000000000000000000000000000000000000000000080
:0200000490501A
:0C00000000021A1711AA00011A1C970236
:0200000490600A
:0100000001FE
:00000001FF