Archive member included because of file (symbol)

.\CortexM0\ARM_GCC_493\Debug\DMA_SPI_PSoC403.a(cyfitter_cfg.o)
                              .\CortexM0\ARM_GCC_493\Debug\Cm0Start.o (cyfitter_cfg)
.\CortexM0\ARM_GCC_493\Debug\DMA_SPI_PSoC403.a(SUCCESS.o)
                              .\CortexM0\ARM_GCC_493\Debug\main.o (SUCCESS_Write)
.\CortexM0\ARM_GCC_493\Debug\DMA_SPI_PSoC403.a(ERROR.o)
                              .\CortexM0\ARM_GCC_493\Debug\main.o (ERROR_Write)
.\CortexM0\ARM_GCC_493\Debug\DMA_SPI_PSoC403.a(SPIM.o)
                              .\CortexM0\ARM_GCC_493\Debug\main.o (SPIM_Start)
.\CortexM0\ARM_GCC_493\Debug\DMA_SPI_PSoC403.a(SPIM_SPI_UART.o)
                              .\CortexM0\ARM_GCC_493\Debug\main.o (SPIM_SpiUartGetRxBufferSize)
.\CortexM0\ARM_GCC_493\Debug\DMA_SPI_PSoC403.a(SPIM_SPI.o)
                              .\CortexM0\ARM_GCC_493\Debug\DMA_SPI_PSoC403.a(SPIM.o) (SPIM_SpiPostEnable)
.\CortexM0\ARM_GCC_493\Debug\DMA_SPI_PSoC403.a(RxDmaM.o)
                              .\CortexM0\ARM_GCC_493\Debug\main.o (RxDmaM_Start)
.\CortexM0\ARM_GCC_493\Debug\DMA_SPI_PSoC403.a(TxDmaM.o)
                              .\CortexM0\ARM_GCC_493\Debug\main.o (TxDmaM_Start)
.\CortexM0\ARM_GCC_493\Debug\DMA_SPI_PSoC403.a(RxDmaS.o)
                              .\CortexM0\ARM_GCC_493\Debug\main.o (RxDmaS_Start)
.\CortexM0\ARM_GCC_493\Debug\DMA_SPI_PSoC403.a(TxDmaS.o)
                              .\CortexM0\ARM_GCC_493\Debug\main.o (TxDmaS_Start)
.\CortexM0\ARM_GCC_493\Debug\DMA_SPI_PSoC403.a(SPIS.o)
                              .\CortexM0\ARM_GCC_493\Debug\main.o (SPIS_ClearRxBuffer)
.\CortexM0\ARM_GCC_493\Debug\DMA_SPI_PSoC403.a(SPIM_sclk_m.o)
                              .\CortexM0\ARM_GCC_493\Debug\DMA_SPI_PSoC403.a(SPIM_SPI.o) (SPIM_sclk_m_Write)
.\CortexM0\ARM_GCC_493\Debug\DMA_SPI_PSoC403.a(SPIM_ss0_m.o)
                              .\CortexM0\ARM_GCC_493\Debug\DMA_SPI_PSoC403.a(SPIM_SPI.o) (SPIM_ss0_m_Write)
.\CortexM0\ARM_GCC_493\Debug\DMA_SPI_PSoC403.a(CyBootAsmGnu.o)
                              .\CortexM0\ARM_GCC_493\Debug\DMA_SPI_PSoC403.a(SPIS.o) (CyEnterCriticalSection)
.\CortexM0\ARM_GCC_493\Debug\DMA_SPI_PSoC403.a(CyLib.o)
                              .\CortexM0\ARM_GCC_493\Debug\DMA_SPI_PSoC403.a(cyfitter_cfg.o) (CyIntEnable)
.\CortexM0\ARM_GCC_493\Debug\DMA_SPI_PSoC403.a(CyDMA.o)
                              .\CortexM0\ARM_GCC_493\Debug\DMA_SPI_PSoC403.a(RxDmaM.o) (CyDmaEnable)
.\CortexM0\ARM_GCC_493\Debug\DMA_SPI_PSoC403.a(CyLFClk.o)
                              .\CortexM0\ARM_GCC_493\Debug\DMA_SPI_PSoC403.a(cyfitter_cfg.o) (CySysWdtIsr)
.\CortexM0\ARM_GCC_493\Debug\DMA_SPI_PSoC403.a(SPIM_SPI_UART_INT.o)
                              .\CortexM0\ARM_GCC_493\Debug\DMA_SPI_PSoC403.a(SPIM_SPI.o) (SPIM_SPI_UART_ISR)
c:/program files (x86)/cypress/psoc creator/3.3/psoc creator/import/gnu/arm/4.9.3/bin/../lib/gcc/arm-none-eabi/4.9.3/armv6-m\libgcc.a(_udivsi3.o)
                              .\CortexM0\ARM_GCC_493\Debug\DMA_SPI_PSoC403.a(CyLib.o) (__aeabi_uidiv)
c:/program files (x86)/cypress/psoc creator/3.3/psoc creator/import/gnu/arm/4.9.3/bin/../lib/gcc/arm-none-eabi/4.9.3/armv6-m\libgcc.a(_divsi3.o)
                              .\CortexM0\ARM_GCC_493\Debug\DMA_SPI_PSoC403.a(CyLFClk.o) (__aeabi_idiv)
c:/program files (x86)/cypress/psoc creator/3.3/psoc creator/import/gnu/arm/4.9.3/bin/../lib/gcc/arm-none-eabi/4.9.3/armv6-m\libgcc.a(_dvmd_tls.o)
                              c:/program files (x86)/cypress/psoc creator/3.3/psoc creator/import/gnu/arm/4.9.3/bin/../lib/gcc/arm-none-eabi/4.9.3/armv6-m\libgcc.a(_udivsi3.o) (__aeabi_idiv0)
c:/program files (x86)/cypress/psoc creator/3.3/psoc creator/import/gnu/arm/4.9.3/bin/../lib/gcc/arm-none-eabi/4.9.3/../../../../arm-none-eabi/lib/armv6-m\libg_nano.a(lib_a-errno.o)
                              .\CortexM0\ARM_GCC_493\Debug\Cm0Start.o (__errno)
c:/program files (x86)/cypress/psoc creator/3.3/psoc creator/import/gnu/arm/4.9.3/bin/../lib/gcc/arm-none-eabi/4.9.3/../../../../arm-none-eabi/lib/armv6-m\libg_nano.a(lib_a-exit.o)
                              c:/program files (x86)/cypress/psoc creator/3.3/psoc creator/import/gnu/arm/4.9.3/bin/../lib/gcc/arm-none-eabi/4.9.3/../../../../arm-none-eabi/lib/armv6-m/crt0.o (exit)
c:/program files (x86)/cypress/psoc creator/3.3/psoc creator/import/gnu/arm/4.9.3/bin/../lib/gcc/arm-none-eabi/4.9.3/../../../../arm-none-eabi/lib/armv6-m\libg_nano.a(lib_a-impure.o)
                              c:/program files (x86)/cypress/psoc creator/3.3/psoc creator/import/gnu/arm/4.9.3/bin/../lib/gcc/arm-none-eabi/4.9.3/../../../../arm-none-eabi/lib/armv6-m\libg_nano.a(lib_a-exit.o) (_global_impure_ptr)
c:/program files (x86)/cypress/psoc creator/3.3/psoc creator/import/gnu/arm/4.9.3/bin/../lib/gcc/arm-none-eabi/4.9.3/../../../../arm-none-eabi/lib/armv6-m\libg_nano.a(lib_a-init.o)
                              c:/program files (x86)/cypress/psoc creator/3.3/psoc creator/import/gnu/arm/4.9.3/bin/../lib/gcc/arm-none-eabi/4.9.3/../../../../arm-none-eabi/lib/armv6-m/crt0.o (__libc_init_array)
c:/program files (x86)/cypress/psoc creator/3.3/psoc creator/import/gnu/arm/4.9.3/bin/../lib/gcc/arm-none-eabi/4.9.3/../../../../arm-none-eabi/lib/armv6-m\libg_nano.a(lib_a-memcmp.o)
                              .\CortexM0\ARM_GCC_493\Debug\main.o (memcmp)
c:/program files (x86)/cypress/psoc creator/3.3/psoc creator/import/gnu/arm/4.9.3/bin/../lib/gcc/arm-none-eabi/4.9.3/../../../../arm-none-eabi/lib/armv6-m\libg_nano.a(lib_a-memset.o)
                              c:/program files (x86)/cypress/psoc creator/3.3/psoc creator/import/gnu/arm/4.9.3/bin/../lib/gcc/arm-none-eabi/4.9.3/../../../../arm-none-eabi/lib/armv6-m/crt0.o (memset)

Allocating common symbols
Common symbol       size              file

SPIS_swStatusTx     0x1               .\CortexM0\ARM_GCC_493\Debug\DMA_SPI_PSoC403.a(SPIS.o)
SPIS_swStatusRx     0x1               .\CortexM0\ARM_GCC_493\Debug\DMA_SPI_PSoC403.a(SPIS.o)

Discarded input sections

 .text          0x00000000        0x0 c:/program files (x86)/cypress/psoc creator/3.3/psoc creator/import/gnu/arm/4.9.3/bin/../lib/gcc/arm-none-eabi/4.9.3/armv6-m/crti.o
 .data          0x00000000        0x0 c:/program files (x86)/cypress/psoc creator/3.3/psoc creator/import/gnu/arm/4.9.3/bin/../lib/gcc/arm-none-eabi/4.9.3/armv6-m/crti.o
 .bss           0x00000000        0x0 c:/program files (x86)/cypress/psoc creator/3.3/psoc creator/import/gnu/arm/4.9.3/bin/../lib/gcc/arm-none-eabi/4.9.3/armv6-m/crti.o
 .data          0x00000000        0x4 c:/program files (x86)/cypress/psoc creator/3.3/psoc creator/import/gnu/arm/4.9.3/bin/../lib/gcc/arm-none-eabi/4.9.3/armv6-m/crtbegin.o
 .text          0x00000000       0x78 c:/program files (x86)/cypress/psoc creator/3.3/psoc creator/import/gnu/arm/4.9.3/bin/../lib/gcc/arm-none-eabi/4.9.3/../../../../arm-none-eabi/lib/armv6-m/crt0.o
 .data          0x00000000        0x0 c:/program files (x86)/cypress/psoc creator/3.3/psoc creator/import/gnu/arm/4.9.3/bin/../lib/gcc/arm-none-eabi/4.9.3/../../../../arm-none-eabi/lib/armv6-m/crt0.o
 .bss           0x00000000        0x0 c:/program files (x86)/cypress/psoc creator/3.3/psoc creator/import/gnu/arm/4.9.3/bin/../lib/gcc/arm-none-eabi/4.9.3/../../../../arm-none-eabi/lib/armv6-m/crt0.o
 .ARM.extab     0x00000000        0x0 c:/program files (x86)/cypress/psoc creator/3.3/psoc creator/import/gnu/arm/4.9.3/bin/../lib/gcc/arm-none-eabi/4.9.3/../../../../arm-none-eabi/lib/armv6-m/crt0.o
 .ARM.exidx     0x00000000        0x8 c:/program files (x86)/cypress/psoc creator/3.3/psoc creator/import/gnu/arm/4.9.3/bin/../lib/gcc/arm-none-eabi/4.9.3/../../../../arm-none-eabi/lib/armv6-m/crt0.o
 .text          0x00000000        0x0 .\CortexM0\ARM_GCC_493\Debug\main.o
 .data          0x00000000        0x0 .\CortexM0\ARM_GCC_493\Debug\main.o
 .text          0x00000000        0x0 .\CortexM0\ARM_GCC_493\Debug\cymetadata.o
 .data          0x00000000        0x0 .\CortexM0\ARM_GCC_493\Debug\cymetadata.o
 .bss           0x00000000        0x0 .\CortexM0\ARM_GCC_493\Debug\cymetadata.o
 .text          0x00000000        0x0 .\CortexM0\ARM_GCC_493\Debug\Cm0Start.o
 .data          0x00000000        0x4 .\CortexM0\ARM_GCC_493\Debug\Cm0Start.o
 .bss           0x00000000        0x0 .\CortexM0\ARM_GCC_493\Debug\Cm0Start.o
 .text._exit    0x00000000        0xc .\CortexM0\ARM_GCC_493\Debug\Cm0Start.o
Memory Configuration

Name             Origin             Length             Attributes
rom              0x00000000         0x00040000         xr
ram              0x20000000         0x00008000         xrw
*default*        0x00000000         0xffffffff

Linker script and memory map

LOAD c:/program files (x86)/cypress/psoc creator/3.3/psoc creator/import/gnu/arm/4.9.3/bin/../lib/gcc/arm-none-eabi/4.9.3/armv6-m/crti.o
LOAD c:/program files (x86)/cypress/psoc creator/3.3/psoc creator/import/gnu/arm/4.9.3/bin/../lib/gcc/arm-none-eabi/4.9.3/armv6-m/crtbegin.o
LOAD c:/program files (x86)/cypress/psoc creator/3.3/psoc creator/import/gnu/arm/4.9.3/bin/../lib/gcc/arm-none-eabi/4.9.3/../../../../arm-none-eabi/lib/armv6-m/crt0.o
START GROUP
LOAD .\CortexM0\ARM_GCC_493\Debug\main.o
LOAD .\CortexM0\ARM_GCC_493\Debug\cymetadata.o
LOAD .\CortexM0\ARM_GCC_493\Debug\Cm0Start.o
LOAD .\CortexM0\ARM_GCC_493\Debug\DMA_SPI_PSoC403.a
LOAD C:\Program Files (x86)\Cypress\PSoC Creator\3.3\PSoC Creator\psoc\content\cycomponentlibrary\CyComponentLibrary.cylib\CortexM0\ARM_GCC_493\Debug\CyComponentLibrary.a
END GROUP
START GROUP
LOAD c:/program files (x86)/cypress/psoc creator/3.3/psoc creator/import/gnu/arm/4.9.3/bin/../lib/gcc/arm-none-eabi/4.9.3/armv6-m\libgcc.a
LOAD c:/program files (x86)/cypress/psoc creator/3.3/psoc creator/import/gnu/arm/4.9.3/bin/../lib/gcc/arm-none-eabi/4.9.3/../../../../arm-none-eabi/lib/armv6-m\libg_nano.a
LOAD c:/program files (x86)/cypress/psoc creator/3.3/psoc creator/import/gnu/arm/4.9.3/bin/../lib/gcc/arm-none-eabi/4.9.3/../../../../arm-none-eabi/lib/armv6-m\libc_nano.a
END GROUP
START GROUP
LOAD c:/program files (x86)/cypress/psoc creator/3.3/psoc creator/import/gnu/arm/4.9.3/bin/../lib/gcc/arm-none-eabi/4.9.3/armv6-m\libgcc.a
LOAD c:/program files (x86)/cypress/psoc creator/3.3/psoc creator/import/gnu/arm/4.9.3/bin/../lib/gcc/arm-none-eabi/4.9.3/../../../../arm-none-eabi/lib/armv6-m\libc_nano.a
END GROUP
LOAD c:/program files (x86)/cypress/psoc creator/3.3/psoc creator/import/gnu/arm/4.9.3/bin/../lib/gcc/arm-none-eabi/4.9.3/armv6-m/crtend.o
LOAD c:/program files (x86)/cypress/psoc creator/3.3/psoc creator/import/gnu/arm/4.9.3/bin/../lib/gcc/arm-none-eabi/4.9.3/armv6-m/crtn.o
START GROUP
LOAD c:/program files (x86)/cypress/psoc creator/3.3/psoc creator/import/gnu/arm/4.9.3/bin/../lib/gcc/arm-none-eabi/4.9.3/armv6-m\libgcc.a
LOAD c:/program files (x86)/cypress/psoc creator/3.3/psoc creator/import/gnu/arm/4.9.3/bin/../lib/gcc/arm-none-eabi/4.9.3/../../../../arm-none-eabi/lib/armv6-m\libc.a
LOAD c:/program files (x86)/cypress/psoc creator/3.3/psoc creator/import/gnu/arm/4.9.3/bin/../lib/gcc/arm-none-eabi/4.9.3/../../../../arm-none-eabi/lib/armv6-m\libnosys.a
END GROUP
                0x00000000                CY_APPL_ORIGIN = 0x0
                0x00000100                CY_FLASH_ROW_SIZE = 0x100
                0x00000001                CY_APPL_NUM = 0x1
                0x00000001                CY_APPL_MAX = 0x1
                0x00000040                CY_METADATA_SIZE = 0x40
                0x00000000                CY_APPL_LOADABLE = 0x0
                0x00000000                CY_CHECKSUM_EXCLUDE_SIZE = ALIGN (0x0, CY_FLASH_ROW_SIZE)
                0x00000000                CY_APP_FOR_STACK_AND_COPIER = 0x0
                0x200001a0                PROVIDE (__cy_heap_start, _end)
                0x00000001                PROVIDE (__cy_region_num, ((__cy_regions_end - __cy_regions) / 0x10))
                0x20008000                PROVIDE (__cy_stack, (ORIGIN (ram) + 0x8000))
                0x20007800                PROVIDE (__cy_heap_end, (__cy_stack - 0x800))

.cybootloader   0x00000000        0x0
 *(.cybootloader)
                0x00000000                appl1_start = CY_APPL_ORIGIN?CY_APPL_ORIGIN:ALIGN (CY_FLASH_ROW_SIZE)
                0x0001ff00                appl2_start = (appl1_start + ALIGN ((((0x40000 - appl1_start) - (0x2 * CY_FLASH_ROW_SIZE)) / 0x2), CY_FLASH_ROW_SIZE))
                0x00000000                appl_start = (CY_APPL_NUM == 0x1)?appl1_start:appl2_start
                0x00000001                cy_project_type_bootloader = (appl_start == 0x0)?0x1:0x0
                0x00000000                cy_project_type_app_for_stack_and_copier = (CY_APP_FOR_STACK_AND_COPIER == 0x1)?0x1:0x0

.text           0x00000000      0xe9e
 CREATE_OBJECT_SYMBOLS
                0x00000000                PROVIDE (__cy_interrupt_vector, RomVectors)
 *(.romvectors)
 .romvectors    0x00000000       0x10 .\CortexM0\ARM_GCC_493\Debug\Cm0Start.o
                0x00000000                RomVectors
                0x00000001                ASSERT ((. != __cy_interrupt_vector), No interrupt vector)
                0x00000001                ASSERT (CY_APPL_ORIGIN?(SIZEOF (.cybootloader) <= CY_APPL_ORIGIN):0x1, Wrong image location)
                0x00000010                PROVIDE (__cy_reset, Reset)
 *(.text.Reset)
 .text.Reset    0x00000010        0x8 .\CortexM0\ARM_GCC_493\Debug\Cm0Start.o
                0x00000010                Reset
                0x00000001                ASSERT ((. != __cy_reset), No reset code)
 *(.psocinit)
 .psocinit      0x00000018      0x228 .\CortexM0\ARM_GCC_493\Debug\DMA_SPI_PSoC403.a(cyfitter_cfg.o)
                0x000000ec                cyfitter_cfg
                0x00000240                . = MAX (., 0x100)
 *(.text .text.* .gnu.linkonce.t.*)
 .text          0x00000240       0x60 c:/program files (x86)/cypress/psoc creator/3.3/psoc creator/import/gnu/arm/4.9.3/bin/../lib/gcc/arm-none-eabi/4.9.3/armv6-m/crtbegin.o
 .text.main     0x000002a0       0xdc .\CortexM0\ARM_GCC_493\Debug\main.o
                0x000002a0                main
 .text.IntDefaultHandler
                0x0000037c        0x4 .\CortexM0\ARM_GCC_493\Debug\Cm0Start.o
                0x0000037c                IntDefaultHandler
 .text.Start_c  0x00000380       0x48 .\CortexM0\ARM_GCC_493\Debug\Cm0Start.o
                0x00000380                Start_c
 .text.initialize_psoc
                0x000003c8       0x54 .\CortexM0\ARM_GCC_493\Debug\Cm0Start.o
                0x000003c8                initialize_psoc
 .text.cfg_write_bytes32
                0x0000041c       0x34 .\CortexM0\ARM_GCC_493\Debug\DMA_SPI_PSoC403.a(cyfitter_cfg.o)
 .text.AnalogSetDefault
                0x00000450       0x20 .\CortexM0\ARM_GCC_493\Debug\DMA_SPI_PSoC403.a(cyfitter_cfg.o)
 .text.CYMEMZERO
                0x00000470        0xc .\CortexM0\ARM_GCC_493\Debug\DMA_SPI_PSoC403.a(cyfitter_cfg.o)
 .text.SUCCESS_Write
                0x0000047c       0x18 .\CortexM0\ARM_GCC_493\Debug\DMA_SPI_PSoC403.a(SUCCESS.o)
                0x0000047c                SUCCESS_Write
 .text.ERROR_Write
                0x00000494       0x18 .\CortexM0\ARM_GCC_493\Debug\DMA_SPI_PSoC403.a(ERROR.o)
                0x00000494                ERROR_Write
 .text.SPIM_ScbEnableIntr
                0x000004ac        0xc .\CortexM0\ARM_GCC_493\Debug\DMA_SPI_PSoC403.a(SPIM.o)
 .text.SPIM_ScbModePostEnable
                0x000004b8        0x8 .\CortexM0\ARM_GCC_493\Debug\DMA_SPI_PSoC403.a(SPIM.o)
 .text.SPIM_Init
                0x000004c0        0x8 .\CortexM0\ARM_GCC_493\Debug\DMA_SPI_PSoC403.a(SPIM.o)
                0x000004c0                SPIM_Init
 .text.SPIM_Enable
                0x000004c8       0x1c .\CortexM0\ARM_GCC_493\Debug\DMA_SPI_PSoC403.a(SPIM.o)
                0x000004c8                SPIM_Enable
 .text.SPIM_Start
                0x000004e4       0x20 .\CortexM0\ARM_GCC_493\Debug\DMA_SPI_PSoC403.a(SPIM.o)
                0x000004e4                SPIM_Start
 .text.SPIM_SpiUartGetRxBufferSize
                0x00000504       0x10 .\CortexM0\ARM_GCC_493\Debug\DMA_SPI_PSoC403.a(SPIM_SPI_UART.o)
                0x00000504                SPIM_SpiUartGetRxBufferSize
 .text.SPIM_SpiUartClearRxBuffer
                0x00000514       0x20 .\CortexM0\ARM_GCC_493\Debug\DMA_SPI_PSoC403.a(SPIM_SPI_UART.o)
                0x00000514                SPIM_SpiUartClearRxBuffer
 .text.SPIM_SpiUartWriteTxData
                0x00000534       0x1c .\CortexM0\ARM_GCC_493\Debug\DMA_SPI_PSoC403.a(SPIM_SPI_UART.o)
                0x00000534                SPIM_SpiUartWriteTxData
 .text.SPIM_SpiPostEnable
                0x00000550       0x2c .\CortexM0\ARM_GCC_493\Debug\DMA_SPI_PSoC403.a(SPIM_SPI.o)
                0x00000550                SPIM_SpiPostEnable
 .text.SPIM_SpiSetActiveSlaveSelect
                0x0000057c       0x20 .\CortexM0\ARM_GCC_493\Debug\DMA_SPI_PSoC403.a(SPIM_SPI.o)
                0x0000057c                SPIM_SpiSetActiveSlaveSelect
 .text.SPIM_SpiInit
                0x0000059c       0xa4 .\CortexM0\ARM_GCC_493\Debug\DMA_SPI_PSoC403.a(SPIM_SPI.o)
                0x0000059c                SPIM_SpiInit
 .text.RxDmaM_Init
                0x00000640       0x30 .\CortexM0\ARM_GCC_493\Debug\DMA_SPI_PSoC403.a(RxDmaM.o)
                0x00000640                RxDmaM_Init
 .text.RxDmaM_Start
                0x00000670       0x44 .\CortexM0\ARM_GCC_493\Debug\DMA_SPI_PSoC403.a(RxDmaM.o)
                0x00000670                RxDmaM_Start
 .text.TxDmaM_Init
                0x000006b4       0x20 .\CortexM0\ARM_GCC_493\Debug\DMA_SPI_PSoC403.a(TxDmaM.o)
                0x000006b4                TxDmaM_Init
 .text.TxDmaM_Start
                0x000006d4       0x44 .\CortexM0\ARM_GCC_493\Debug\DMA_SPI_PSoC403.a(TxDmaM.o)
                0x000006d4                TxDmaM_Start
 .text.RxDmaS_Init
                0x00000718       0x30 .\CortexM0\ARM_GCC_493\Debug\DMA_SPI_PSoC403.a(RxDmaS.o)
                0x00000718                RxDmaS_Init
 .text.RxDmaS_Start
                0x00000748       0x44 .\CortexM0\ARM_GCC_493\Debug\DMA_SPI_PSoC403.a(RxDmaS.o)
                0x00000748                RxDmaS_Start
 .text.TxDmaS_Init
                0x0000078c       0x20 .\CortexM0\ARM_GCC_493\Debug\DMA_SPI_PSoC403.a(TxDmaS.o)
                0x0000078c                TxDmaS_Init
 .text.TxDmaS_Start
                0x000007ac       0x44 .\CortexM0\ARM_GCC_493\Debug\DMA_SPI_PSoC403.a(TxDmaS.o)
                0x000007ac                TxDmaS_Start
 .text.SPIS_Enable
                0x000007f0       0x38 .\CortexM0\ARM_GCC_493\Debug\DMA_SPI_PSoC403.a(SPIS.o)
                0x000007f0                SPIS_Enable
 .text.SPIS_ReadTxStatus
                0x00000828        0xc .\CortexM0\ARM_GCC_493\Debug\DMA_SPI_PSoC403.a(SPIS.o)
                0x00000828                SPIS_ReadTxStatus
 .text.SPIS_ReadRxStatus
                0x00000834        0xc .\CortexM0\ARM_GCC_493\Debug\DMA_SPI_PSoC403.a(SPIS.o)
                0x00000834                SPIS_ReadRxStatus
 .text.SPIS_ClearRxBuffer
                0x00000840       0x18 .\CortexM0\ARM_GCC_493\Debug\DMA_SPI_PSoC403.a(SPIS.o)
                0x00000840                SPIS_ClearRxBuffer
 .text.SPIS_ClearFIFO
                0x00000858       0x38 .\CortexM0\ARM_GCC_493\Debug\DMA_SPI_PSoC403.a(SPIS.o)
                0x00000858                SPIS_ClearFIFO
 .text.SPIS_Init
                0x00000890       0x30 .\CortexM0\ARM_GCC_493\Debug\DMA_SPI_PSoC403.a(SPIS.o)
                0x00000890                SPIS_Init
 .text.SPIS_Start
                0x000008c0       0x20 .\CortexM0\ARM_GCC_493\Debug\DMA_SPI_PSoC403.a(SPIS.o)
                0x000008c0                SPIS_Start
 .text          0x000008e0       0x20 .\CortexM0\ARM_GCC_493\Debug\DMA_SPI_PSoC403.a(CyBootAsmGnu.o)
                0x000008e0                CyDelayCycles
                0x000008f2                CyEnterCriticalSection
                0x000008fa                CyExitCriticalSection
 .text.CySysClkEcoReadStatus
                0x00000900       0x10 .\CortexM0\ARM_GCC_493\Debug\DMA_SPI_PSoC403.a(CyLib.o)
                0x00000900                CySysClkEcoReadStatus
 .text.CyIntEnable
                0x00000910       0x14 .\CortexM0\ARM_GCC_493\Debug\DMA_SPI_PSoC403.a(CyLib.o)
                0x00000910                CyIntEnable
 .text.CyIntDisable
                0x00000924       0x14 .\CortexM0\ARM_GCC_493\Debug\DMA_SPI_PSoC403.a(CyLib.o)
                0x00000924                CyIntDisable
 .text.CyHalt   0x00000938        0x4 .\CortexM0\ARM_GCC_493\Debug\DMA_SPI_PSoC403.a(CyLib.o)
                0x00000938                CyHalt
 .text.CyIntSetVector
                0x0000093c       0x24 .\CortexM0\ARM_GCC_493\Debug\DMA_SPI_PSoC403.a(CyLib.o)
                0x0000093c                CyIntSetVector
 .text.CyIntSetPriority
                0x00000960       0x4c .\CortexM0\ARM_GCC_493\Debug\DMA_SPI_PSoC403.a(CyLib.o)
                0x00000960                CyIntSetPriority
 .text.CyDelayUs
                0x000009ac       0x14 .\CortexM0\ARM_GCC_493\Debug\DMA_SPI_PSoC403.a(CyLib.o)
                0x000009ac                CyDelayUs
 .text.CySysClkWriteImoFreq
                0x000009c0      0x164 .\CortexM0\ARM_GCC_493\Debug\DMA_SPI_PSoC403.a(CyLib.o)
                0x000009c0                CySysClkWriteImoFreq
 .text.CySysClkEcoStart
                0x00000b24       0x54 .\CortexM0\ARM_GCC_493\Debug\DMA_SPI_PSoC403.a(CyLib.o)
                0x00000b24                CySysClkEcoStart
 .text.CyDmaInterrupt
                0x00000b78       0x30 .\CortexM0\ARM_GCC_493\Debug\DMA_SPI_PSoC403.a(CyDMA.o)
                0x00000b78                CyDmaInterrupt
 .text.CyDmaDefaultInterruptCallback
                0x00000ba8        0xc .\CortexM0\ARM_GCC_493\Debug\DMA_SPI_PSoC403.a(CyDMA.o)
 .text.CyDmaSetInterruptVector
                0x00000bb4        0xc .\CortexM0\ARM_GCC_493\Debug\DMA_SPI_PSoC403.a(CyDMA.o)
                0x00000bb4                CyDmaSetInterruptVector
 .text.CyDmaEnable
                0x00000bc0       0x34 .\CortexM0\ARM_GCC_493\Debug\DMA_SPI_PSoC403.a(CyDMA.o)
                0x00000bc0                CyDmaEnable
 .text.CyDmaClearInterruptSource
                0x00000bf4        0xc .\CortexM0\ARM_GCC_493\Debug\DMA_SPI_PSoC403.a(CyDMA.o)
                0x00000bf4                CyDmaClearInterruptSource
 .text.CyDmaGetInterruptSourceMasked
                0x00000c00        0xc .\CortexM0\ARM_GCC_493\Debug\DMA_SPI_PSoC403.a(CyDMA.o)
                0x00000c00                CyDmaGetInterruptSourceMasked
 .text.CyDmaChEnable
                0x00000c0c       0x24 .\CortexM0\ARM_GCC_493\Debug\DMA_SPI_PSoC403.a(CyDMA.o)
                0x00000c0c                CyDmaChEnable
 .text.CyDmaValidateDescriptor
                0x00000c30       0x34 .\CortexM0\ARM_GCC_493\Debug\DMA_SPI_PSoC403.a(CyDMA.o)
                0x00000c30                CyDmaValidateDescriptor
 .text.CyDmaSetSrcAddress
                0x00000c64       0x2c .\CortexM0\ARM_GCC_493\Debug\DMA_SPI_PSoC403.a(CyDMA.o)
                0x00000c64                CyDmaSetSrcAddress
 .text.CyDmaSetDstAddress
                0x00000c90       0x30 .\CortexM0\ARM_GCC_493\Debug\DMA_SPI_PSoC403.a(CyDMA.o)
                0x00000c90                CyDmaSetDstAddress
 .text.CySysWdtLocked
                0x00000cc0       0x14 .\CortexM0\ARM_GCC_493\Debug\DMA_SPI_PSoC403.a(CyLFClk.o)
 .text.CySysWdtLock
                0x00000cd4       0x1c .\CortexM0\ARM_GCC_493\Debug\DMA_SPI_PSoC403.a(CyLFClk.o)
                0x00000cd4                CySysWdtLock
 .text.CySysWdtUnlock
                0x00000cf0       0x30 .\CortexM0\ARM_GCC_493\Debug\DMA_SPI_PSoC403.a(CyLFClk.o)
                0x00000cf0                CySysWdtUnlock
 .text.CySysWdtClearInterrupt
                0x00000d20       0x4c .\CortexM0\ARM_GCC_493\Debug\DMA_SPI_PSoC403.a(CyLFClk.o)
                0x00000d20                CySysWdtClearInterrupt
 .text.CySysWdtIsr
                0x00000d6c       0xa4 .\CortexM0\ARM_GCC_493\Debug\DMA_SPI_PSoC403.a(CyLFClk.o)
                0x00000d6c                CySysWdtIsr
 .text.SPIM_SPI_UART_ISR
                0x00000e10       0x14 .\CortexM0\ARM_GCC_493\Debug\DMA_SPI_PSoC403.a(SPIM_SPI_UART_INT.o)
                0x00000e10                SPIM_SPI_UART_ISR
 .text.__libc_init_array
                0x00000e24       0x4c c:/program files (x86)/cypress/psoc creator/3.3/psoc creator/import/gnu/arm/4.9.3/bin/../lib/gcc/arm-none-eabi/4.9.3/../../../../arm-none-eabi/lib/armv6-m\libg_nano.a(lib_a-init.o)
                0x00000e24                __libc_init_array
 .text.memcmp   0x00000e70       0x1e c:/program files (x86)/cypress/psoc creator/3.3/psoc creator/import/gnu/arm/4.9.3/bin/../lib/gcc/arm-none-eabi/4.9.3/../../../../arm-none-eabi/lib/armv6-m\libg_nano.a(lib_a-memcmp.o)
                0x00000e70                memcmp
 .text.memset   0x00000e8e       0x10 c:/program files (x86)/cypress/psoc creator/3.3/psoc creator/import/gnu/arm/4.9.3/bin/../lib/gcc/arm-none-eabi/4.9.3/../../../../arm-none-eabi/lib/armv6-m\libg_nano.a(lib_a-memset.o)
                0x00000e8e                memset
 *(.plt)
 *(.gnu.warning)
 *(.glue_7t)
 .glue_7t       0x00000000        0x0 linker stubs
 *(.glue_7)
 .glue_7        0x00000000        0x0 linker stubs
 *(.vfp11_veneer)
 .vfp11_veneer  0x00000000        0x0 linker stubs
 *(.bootloader)
 *(.ARM.extab* .gnu.linkonce.armextab.*)
 *(.gcc_except_table)

.v4_bx          0x00000ea0        0x0
 .v4_bx         0x00000000        0x0 linker stubs

.iplt           0x00000ea0        0x0
 .iplt          0x00000000        0x0 c:/program files (x86)/cypress/psoc creator/3.3/psoc creator/import/gnu/arm/4.9.3/bin/../lib/gcc/arm-none-eabi/4.9.3/armv6-m/crtbegin.o

.eh_frame_hdr
 *(.eh_frame_hdr)

.eh_frame       0x00000ea0        0x4
 *(.eh_frame)
 .eh_frame      0x00000ea0        0x0 c:/program files (x86)/cypress/psoc creator/3.3/psoc creator/import/gnu/arm/4.9.3/bin/../lib/gcc/arm-none-eabi/4.9.3/armv6-m/crtbegin.o
 .eh_frame      0x00000ea0        0x4 c:/program files (x86)/cypress/psoc creator/3.3/psoc creator/import/gnu/arm/4.9.3/bin/../lib/gcc/arm-none-eabi/4.9.3/armv6-m/crtend.o
                0x00000ea4                PROVIDE (__exidx_start, .)

.ARM.exidx
 *(.ARM.exidx* .gnu.linkonce.armexidx.*)
                0x00000ea4                __exidx_end = .

.rodata         0x00000ea4      0x294
 *(.rodata .rodata.* .gnu.linkonce.r.*)
 .rodata        0x00000ea4       0x40 .\CortexM0\ARM_GCC_493\Debug\main.o
 .rodata        0x00000ee4      0x1ec .\CortexM0\ARM_GCC_493\Debug\DMA_SPI_PSoC403.a(cyfitter_cfg.o)
 .rodata        0x000010d0       0x30 .\CortexM0\ARM_GCC_493\Debug\DMA_SPI_PSoC403.a(CyLib.o)
                0x000010d0                cyImoFreqMhz2Reg
                0x00001100                . = ALIGN (0x4)
 *(.init)
 .init          0x00001100        0x4 c:/program files (x86)/cypress/psoc creator/3.3/psoc creator/import/gnu/arm/4.9.3/bin/../lib/gcc/arm-none-eabi/4.9.3/armv6-m/crti.o
                0x00001100                _init
 .init          0x00001104        0x8 c:/program files (x86)/cypress/psoc creator/3.3/psoc creator/import/gnu/arm/4.9.3/bin/../lib/gcc/arm-none-eabi/4.9.3/armv6-m/crtn.o
                0x0000110c                . = ALIGN (0x4)
                0x0000110c                __preinit_array_start = .
 *(.preinit_array)
                0x0000110c                __preinit_array_end = .
                0x0000110c                . = ALIGN (0x4)
                0x0000110c                __init_array_start = .
 *(SORT(.init_array.*))
 *(.init_array)
 .init_array    0x0000110c        0x4 c:/program files (x86)/cypress/psoc creator/3.3/psoc creator/import/gnu/arm/4.9.3/bin/../lib/gcc/arm-none-eabi/4.9.3/armv6-m/crtbegin.o
 .init_array    0x00001110        0x4 .\CortexM0\ARM_GCC_493\Debug\Cm0Start.o
                0x00001114                __init_array_end = .
                0x00001114                . = ALIGN (0x4)
 *(.fini)
 .fini          0x00001114        0x4 c:/program files (x86)/cypress/psoc creator/3.3/psoc creator/import/gnu/arm/4.9.3/bin/../lib/gcc/arm-none-eabi/4.9.3/armv6-m/crti.o
                0x00001114                _fini
 .fini          0x00001118        0x8 c:/program files (x86)/cypress/psoc creator/3.3/psoc creator/import/gnu/arm/4.9.3/bin/../lib/gcc/arm-none-eabi/4.9.3/armv6-m/crtn.o
                0x00001120                . = ALIGN (0x4)
                0x00001120                __fini_array_start = .
 *(.fini_array)
 .fini_array    0x00001120        0x4 c:/program files (x86)/cypress/psoc creator/3.3/psoc creator/import/gnu/arm/4.9.3/bin/../lib/gcc/arm-none-eabi/4.9.3/armv6-m/crtbegin.o
 *(SORT(.fini_array.*))
                0x00001124                __fini_array_end = .
                0x00001124                . = ALIGN (0x4)
 *crtbegin.o(.ctors)
 *(EXCLUDE_FILE(*crtend.o) .ctors)
 *(SORT(.ctors.*))
 *crtend.o(.ctors)
                0x00001124                . = ALIGN (0x4)
 *crtbegin.o(.dtors)
 *(EXCLUDE_FILE(*crtend.o) .dtors)
 *(SORT(.dtors.*))
 *crtend.o(.dtors)
                0x00001124                . = ALIGN (0x4)
                0x00001124                __cy_regions = .
                0x00001124        0x4 LONG 0x1138 __cy_region_init_ram
                0x00001128        0x4 LONG 0x200000c8 __cy_region_start_data
                0x0000112c        0x4 LONG 0x40 __cy_region_init_size_ram
                0x00001130        0x4 LONG 0x98 __cy_region_zero_size_ram
                0x00001134                __cy_regions_end = .
                0x00001138                . = ALIGN (0x8)
 *fill*         0x00001134        0x4 
                0x00001138                _etext = .

.cy_checksum_exclude
                0x00001138        0x0
 *(.cy_checksum_exclude)

.ramvectors     0x20000000       0xc0
                0x20000000                __cy_region_start_ram = .
 *(.ramvectors)
 .ramvectors    0x20000000       0xc0 .\CortexM0\ARM_GCC_493\Debug\Cm0Start.o
                0x20000000                CyRamVectors

.noinit         0x200000c0        0x4
 *(.noinit)
 .noinit        0x200000c0        0x4 .\CortexM0\ARM_GCC_493\Debug\Cm0Start.o

.data           0x200000c8       0x40 load address 0x00001138
                0x200000c8                __cy_region_start_data = .
 *(.jcr)
 .jcr           0x200000c8        0x0 c:/program files (x86)/cypress/psoc creator/3.3/psoc creator/import/gnu/arm/4.9.3/bin/../lib/gcc/arm-none-eabi/4.9.3/armv6-m/crtbegin.o
 .jcr           0x200000c8        0x4 c:/program files (x86)/cypress/psoc creator/3.3/psoc creator/import/gnu/arm/4.9.3/bin/../lib/gcc/arm-none-eabi/4.9.3/armv6-m/crtend.o
 *(.got.plt)
 *(.got)
 *(.shdata)
 *(.data .data.* .gnu.linkonce.d.*)
 .data          0x200000cc       0x10 .\CortexM0\ARM_GCC_493\Debug\DMA_SPI_PSoC403.a(CyLib.o)
                0x200000cc                cydelay32kMs
                0x200000d0                cydelayFreqKhz
                0x200000d4                cydelayFreqMhz
                0x200000d8                cydelayFreqHz
 .data          0x200000dc       0x24 .\CortexM0\ARM_GCC_493\Debug\DMA_SPI_PSoC403.a(CyDMA.o)
 .data          0x20000100        0x8 .\CortexM0\ARM_GCC_493\Debug\DMA_SPI_PSoC403.a(CyLFClk.o)
                0x20000108                . = ALIGN (0x8)
 *(.ram)
                0x20000108                _edata = .

.igot.plt       0x20000108        0x0 load address 0x00001178
 .igot.plt      0x00000000        0x0 c:/program files (x86)/cypress/psoc creator/3.3/psoc creator/import/gnu/arm/4.9.3/bin/../lib/gcc/arm-none-eabi/4.9.3/armv6-m/crtbegin.o

.bss            0x20000108       0x98 load address 0x00001178
                0x20000108                PROVIDE (__bss_start__, .)
 *(.shbss)
 *(.bss .bss.* .gnu.linkonce.b.*)
 .bss           0x20000108       0x1c c:/program files (x86)/cypress/psoc creator/3.3/psoc creator/import/gnu/arm/4.9.3/bin/../lib/gcc/arm-none-eabi/4.9.3/armv6-m/crtbegin.o
 .bss           0x20000124       0x40 .\CortexM0\ARM_GCC_493\Debug\main.o
 .bss           0x20000164        0xc .\CortexM0\ARM_GCC_493\Debug\DMA_SPI_PSoC403.a(SPIM.o)
                0x20000164                SPIM_initVar
                0x20000168                SPIM_customIntrHandler
                0x2000016c                SPIM_IntrTxMask
 .bss           0x20000170        0x1 .\CortexM0\ARM_GCC_493\Debug\DMA_SPI_PSoC403.a(RxDmaM.o)
                0x20000170                RxDmaM_initVar
 .bss           0x20000171        0x1 .\CortexM0\ARM_GCC_493\Debug\DMA_SPI_PSoC403.a(TxDmaM.o)
                0x20000171                TxDmaM_initVar
 .bss           0x20000172        0x1 .\CortexM0\ARM_GCC_493\Debug\DMA_SPI_PSoC403.a(RxDmaS.o)
                0x20000172                RxDmaS_initVar
 .bss           0x20000173        0x1 .\CortexM0\ARM_GCC_493\Debug\DMA_SPI_PSoC403.a(TxDmaS.o)
                0x20000173                TxDmaS_initVar
 .bss           0x20000174        0x1 .\CortexM0\ARM_GCC_493\Debug\DMA_SPI_PSoC403.a(SPIS.o)
                0x20000174                SPIS_initVar
 .bss           0x20000175        0x1 .\CortexM0\ARM_GCC_493\Debug\DMA_SPI_PSoC403.a(CyDMA.o)
 *fill*         0x20000176        0x2 
 .bss           0x20000178       0x28 .\CortexM0\ARM_GCC_493\Debug\DMA_SPI_PSoC403.a(CyLFClk.o)
 *(COMMON)
                0x200001a0                . = ALIGN (0x8)
 *(.ram.b)
                0x200001a0                _end = .
                0x200001a0                __end = .
                0x200001a0                PROVIDE (end, .)
                0x200001a0                PROVIDE (__bss_end__, .)
                0x00001138                __cy_region_init_ram = LOADADDR (.data)
                0x00000040                __cy_region_init_size_ram = (_edata - ADDR (.data))
                0x00000098                __cy_region_zero_size_ram = (_end - _edata)

.heap           0x200001a0       0x80 load address 0x00001178
                0x200001a0                . = _end
                0x20000220                . = (. + 0x80)
 *fill*         0x200001a0       0x80 
                0x20000220                __cy_heap_limit = .

.stack          0x20007800      0x800
                0x20007800                __cy_stack_limit = .
                0x20008000                . = (. + 0x800)
 *fill*         0x20007800      0x800 
                0x00000001                ASSERT ((__cy_stack_limit >= __cy_heap_limit), region RAM overflowed with stack)
                0x00000000                cy_checksum_exclude_size = (CY_APPL_LOADABLE == 0x1)?SIZEOF (.cy_checksum_exclude):0x0
                0x00000001                ASSERT ((cy_checksum_exclude_size <= CY_CHECKSUM_EXCLUDE_SIZE), CY_BOOT: Section .cy_checksum_exclude size exceedes specified limit.)
                0x0003ffc0                cyloadermeta_start = (cy_project_type_bootloader || cy_project_type_app_for_stack_and_copier)?(0x40000 - CY_METADATA_SIZE):0xf0000000

.cyloadermeta
 *(.cyloadermeta)
                0x0003ffc0                cyloadablemeta_start = cy_project_type_app_for_stack_and_copier?((0x40000 - CY_FLASH_ROW_SIZE) - CY_METADATA_SIZE):((0x40000 - (CY_FLASH_ROW_SIZE * (CY_APPL_NUM - 0x1))) - CY_METADATA_SIZE)

.cyloadablemeta
 *(.cyloadablemeta)

.cyflashprotect
                0x90400000       0x80
 *(.cyflashprotect)
 .cyflashprotect
                0x90400000       0x80 .\CortexM0\ARM_GCC_493\Debug\cymetadata.o
                0x90400000                cy_meta_flashprotect

.cymeta         0x90500000        0xc
 *(.cymeta)
 .cymeta        0x90500000        0xc .\CortexM0\ARM_GCC_493\Debug\cymetadata.o
                0x90500000                cy_metadata

.cychipprotect  0x90600000        0x4
 *(.cychipprotect)
 .cychipprotect
                0x90600000        0x4 .\CortexM0\ARM_GCC_493\Debug\cymetadata.o
                0x90600000                cy_meta_chipprotect

.rel.dyn        0x00001178        0x0 load address 0x90600004
 .rel.iplt      0x00000000        0x0 c:/program files (x86)/cypress/psoc creator/3.3/psoc creator/import/gnu/arm/4.9.3/bin/../lib/gcc/arm-none-eabi/4.9.3/armv6-m/crtbegin.o

.stab
 *(.stab)

.stabstr
 *(.stabstr)

.debug
 *(.debug)

.line
 *(.line)

.debug_srcinfo
 *(.debug_srcinfo)

.debug_sfnames
 *(.debug_sfnames)

.debug_aranges  0x00000000      0x988
 *(.debug_aranges)
 .debug_aranges
                0x00000000       0x20 .\CortexM0\ARM_GCC_493\Debug\main.o
 .debug_aranges
                0x00000020       0x18 .\CortexM0\ARM_GCC_493\Debug\cymetadata.o
 .debug_aranges
                0x00000038       0x48 .\CortexM0\ARM_GCC_493\Debug\Cm0Start.o
 .debug_aranges
                0x00000080       0x40 .\CortexM0\ARM_GCC_493\Debug\DMA_SPI_PSoC403.a(cyfitter_cfg.o)
 .debug_aranges
                0x000000c0       0x48 .\CortexM0\ARM_GCC_493\Debug\DMA_SPI_PSoC403.a(SUCCESS.o)
 .debug_aranges
                0x00000108       0x48 .\CortexM0\ARM_GCC_493\Debug\DMA_SPI_PSoC403.a(ERROR.o)
 .debug_aranges
                0x00000150       0x68 .\CortexM0\ARM_GCC_493\Debug\DMA_SPI_PSoC403.a(SPIM.o)
 .debug_aranges
                0x000001b8       0x60 .\CortexM0\ARM_GCC_493\Debug\DMA_SPI_PSoC403.a(SPIM_SPI_UART.o)
 .debug_aranges
                0x00000218       0x40 .\CortexM0\ARM_GCC_493\Debug\DMA_SPI_PSoC403.a(SPIM_SPI.o)
 .debug_aranges
                0x00000258       0x28 .\CortexM0\ARM_GCC_493\Debug\DMA_SPI_PSoC403.a(RxDmaM.o)
 .debug_aranges
                0x00000280       0x28 .\CortexM0\ARM_GCC_493\Debug\DMA_SPI_PSoC403.a(TxDmaM.o)
 .debug_aranges
                0x000002a8       0x28 .\CortexM0\ARM_GCC_493\Debug\DMA_SPI_PSoC403.a(RxDmaS.o)
 .debug_aranges
                0x000002d0       0x28 .\CortexM0\ARM_GCC_493\Debug\DMA_SPI_PSoC403.a(TxDmaS.o)
 .debug_aranges
                0x000002f8       0xe0 .\CortexM0\ARM_GCC_493\Debug\DMA_SPI_PSoC403.a(SPIS.o)
 .debug_aranges
                0x000003d8       0x48 .\CortexM0\ARM_GCC_493\Debug\DMA_SPI_PSoC403.a(SPIM_sclk_m.o)
 .debug_aranges
                0x00000420       0x48 .\CortexM0\ARM_GCC_493\Debug\DMA_SPI_PSoC403.a(SPIM_ss0_m.o)
 .debug_aranges
                0x00000468       0x20 .\CortexM0\ARM_GCC_493\Debug\DMA_SPI_PSoC403.a(CyBootAsmGnu.o)
 .debug_aranges
                0x00000488      0x1c0 .\CortexM0\ARM_GCC_493\Debug\DMA_SPI_PSoC403.a(CyLib.o)
 .debug_aranges
                0x00000648      0x198 .\CortexM0\ARM_GCC_493\Debug\DMA_SPI_PSoC403.a(CyDMA.o)
 .debug_aranges
                0x000007e0      0x188 .\CortexM0\ARM_GCC_493\Debug\DMA_SPI_PSoC403.a(CyLFClk.o)
 .debug_aranges
                0x00000968       0x20 .\CortexM0\ARM_GCC_493\Debug\DMA_SPI_PSoC403.a(SPIM_SPI_UART_INT.o)

.debug_pubnames
 *(.debug_pubnames)

.debug_info     0x00000000     0x5e33
 *(.debug_info .gnu.linkonce.wi.*)
 .debug_info    0x00000000      0x446 .\CortexM0\ARM_GCC_493\Debug\main.o
 .debug_info    0x00000446       0xfe .\CortexM0\ARM_GCC_493\Debug\cymetadata.o
 .debug_info    0x00000544      0x38c .\CortexM0\ARM_GCC_493\Debug\Cm0Start.o
 .debug_info    0x000008d0      0x433 .\CortexM0\ARM_GCC_493\Debug\DMA_SPI_PSoC403.a(cyfitter_cfg.o)
 .debug_info    0x00000d03      0x19d .\CortexM0\ARM_GCC_493\Debug\DMA_SPI_PSoC403.a(SUCCESS.o)
 .debug_info    0x00000ea0      0x19d .\CortexM0\ARM_GCC_493\Debug\DMA_SPI_PSoC403.a(ERROR.o)
 .debug_info    0x0000103d      0x2e4 .\CortexM0\ARM_GCC_493\Debug\DMA_SPI_PSoC403.a(SPIM.o)
 .debug_info    0x00001321      0x219 .\CortexM0\ARM_GCC_493\Debug\DMA_SPI_PSoC403.a(SPIM_SPI_UART.o)
 .debug_info    0x0000153a      0x254 .\CortexM0\ARM_GCC_493\Debug\DMA_SPI_PSoC403.a(SPIM_SPI.o)
 .debug_info    0x0000178e      0x36f .\CortexM0\ARM_GCC_493\Debug\DMA_SPI_PSoC403.a(RxDmaM.o)
 .debug_info    0x00001afd      0x35e .\CortexM0\ARM_GCC_493\Debug\DMA_SPI_PSoC403.a(TxDmaM.o)
 .debug_info    0x00001e5b      0x36f .\CortexM0\ARM_GCC_493\Debug\DMA_SPI_PSoC403.a(RxDmaS.o)
 .debug_info    0x000021ca      0x35e .\CortexM0\ARM_GCC_493\Debug\DMA_SPI_PSoC403.a(TxDmaS.o)
 .debug_info    0x00002528      0x4b2 .\CortexM0\ARM_GCC_493\Debug\DMA_SPI_PSoC403.a(SPIS.o)
 .debug_info    0x000029da      0x19d .\CortexM0\ARM_GCC_493\Debug\DMA_SPI_PSoC403.a(SPIM_sclk_m.o)
 .debug_info    0x00002b77      0x19d .\CortexM0\ARM_GCC_493\Debug\DMA_SPI_PSoC403.a(SPIM_ss0_m.o)
 .debug_info    0x00002d14       0xc9 .\CortexM0\ARM_GCC_493\Debug\DMA_SPI_PSoC403.a(CyBootAsmGnu.o)
 .debug_info    0x00002ddd      0xcfa .\CortexM0\ARM_GCC_493\Debug\DMA_SPI_PSoC403.a(CyLib.o)
 .debug_info    0x00003ad7     0x1236 .\CortexM0\ARM_GCC_493\Debug\DMA_SPI_PSoC403.a(CyDMA.o)
 .debug_info    0x00004d0d     0x106f .\CortexM0\ARM_GCC_493\Debug\DMA_SPI_PSoC403.a(CyLFClk.o)
 .debug_info    0x00005d7c       0xb7 .\CortexM0\ARM_GCC_493\Debug\DMA_SPI_PSoC403.a(SPIM_SPI_UART_INT.o)

.debug_abbrev   0x00000000     0x1baf
 *(.debug_abbrev)
 .debug_abbrev  0x00000000      0x1b3 .\CortexM0\ARM_GCC_493\Debug\main.o
 .debug_abbrev  0x000001b3       0x5d .\CortexM0\ARM_GCC_493\Debug\cymetadata.o
 .debug_abbrev  0x00000210      0x1fe .\CortexM0\ARM_GCC_493\Debug\Cm0Start.o
 .debug_abbrev  0x0000040e      0x1eb .\CortexM0\ARM_GCC_493\Debug\DMA_SPI_PSoC403.a(cyfitter_cfg.o)
 .debug_abbrev  0x000005f9       0xc8 .\CortexM0\ARM_GCC_493\Debug\DMA_SPI_PSoC403.a(SUCCESS.o)
 .debug_abbrev  0x000006c1       0xc8 .\CortexM0\ARM_GCC_493\Debug\DMA_SPI_PSoC403.a(ERROR.o)
 .debug_abbrev  0x00000789      0x143 .\CortexM0\ARM_GCC_493\Debug\DMA_SPI_PSoC403.a(SPIM.o)
 .debug_abbrev  0x000008cc      0x14f .\CortexM0\ARM_GCC_493\Debug\DMA_SPI_PSoC403.a(SPIM_SPI_UART.o)
 .debug_abbrev  0x00000a1b      0x134 .\CortexM0\ARM_GCC_493\Debug\DMA_SPI_PSoC403.a(SPIM_SPI.o)
 .debug_abbrev  0x00000b4f      0x18b .\CortexM0\ARM_GCC_493\Debug\DMA_SPI_PSoC403.a(RxDmaM.o)
 .debug_abbrev  0x00000cda      0x184 .\CortexM0\ARM_GCC_493\Debug\DMA_SPI_PSoC403.a(TxDmaM.o)
 .debug_abbrev  0x00000e5e      0x18b .\CortexM0\ARM_GCC_493\Debug\DMA_SPI_PSoC403.a(RxDmaS.o)
 .debug_abbrev  0x00000fe9      0x184 .\CortexM0\ARM_GCC_493\Debug\DMA_SPI_PSoC403.a(TxDmaS.o)
 .debug_abbrev  0x0000116d      0x160 .\CortexM0\ARM_GCC_493\Debug\DMA_SPI_PSoC403.a(SPIS.o)
 .debug_abbrev  0x000012cd       0xc8 .\CortexM0\ARM_GCC_493\Debug\DMA_SPI_PSoC403.a(SPIM_sclk_m.o)
 .debug_abbrev  0x00001395       0xc8 .\CortexM0\ARM_GCC_493\Debug\DMA_SPI_PSoC403.a(SPIM_ss0_m.o)
 .debug_abbrev  0x0000145d       0x14 .\CortexM0\ARM_GCC_493\Debug\DMA_SPI_PSoC403.a(CyBootAsmGnu.o)
 .debug_abbrev  0x00001471      0x20d .\CortexM0\ARM_GCC_493\Debug\DMA_SPI_PSoC403.a(CyLib.o)
 .debug_abbrev  0x0000167e      0x24e .\CortexM0\ARM_GCC_493\Debug\DMA_SPI_PSoC403.a(CyDMA.o)
 .debug_abbrev  0x000018cc      0x273 .\CortexM0\ARM_GCC_493\Debug\DMA_SPI_PSoC403.a(CyLFClk.o)
 .debug_abbrev  0x00001b3f       0x70 .\CortexM0\ARM_GCC_493\Debug\DMA_SPI_PSoC403.a(SPIM_SPI_UART_INT.o)

.debug_line     0x00000000     0x241d
 *(.debug_line)
 .debug_line    0x00000000      0x1f7 .\CortexM0\ARM_GCC_493\Debug\main.o
 .debug_line    0x000001f7       0x53 .\CortexM0\ARM_GCC_493\Debug\cymetadata.o
 .debug_line    0x0000024a      0x249 .\CortexM0\ARM_GCC_493\Debug\Cm0Start.o
 .debug_line    0x00000493      0x18d .\CortexM0\ARM_GCC_493\Debug\DMA_SPI_PSoC403.a(cyfitter_cfg.o)
 .debug_line    0x00000620       0xc1 .\CortexM0\ARM_GCC_493\Debug\DMA_SPI_PSoC403.a(SUCCESS.o)
 .debug_line    0x000006e1       0xbf .\CortexM0\ARM_GCC_493\Debug\DMA_SPI_PSoC403.a(ERROR.o)
 .debug_line    0x000007a0      0x157 .\CortexM0\ARM_GCC_493\Debug\DMA_SPI_PSoC403.a(SPIM.o)
 .debug_line    0x000008f7      0x133 .\CortexM0\ARM_GCC_493\Debug\DMA_SPI_PSoC403.a(SPIM_SPI_UART.o)
 .debug_line    0x00000a2a      0x122 .\CortexM0\ARM_GCC_493\Debug\DMA_SPI_PSoC403.a(SPIM_SPI.o)
 .debug_line    0x00000b4c       0xa4 .\CortexM0\ARM_GCC_493\Debug\DMA_SPI_PSoC403.a(RxDmaM.o)
 .debug_line    0x00000bf0       0xa3 .\CortexM0\ARM_GCC_493\Debug\DMA_SPI_PSoC403.a(TxDmaM.o)
 .debug_line    0x00000c93       0xa4 .\CortexM0\ARM_GCC_493\Debug\DMA_SPI_PSoC403.a(RxDmaS.o)
 .debug_line    0x00000d37       0xa3 .\CortexM0\ARM_GCC_493\Debug\DMA_SPI_PSoC403.a(TxDmaS.o)
 .debug_line    0x00000dda      0x260 .\CortexM0\ARM_GCC_493\Debug\DMA_SPI_PSoC403.a(SPIS.o)
 .debug_line    0x0000103a       0xc5 .\CortexM0\ARM_GCC_493\Debug\DMA_SPI_PSoC403.a(SPIM_sclk_m.o)
 .debug_line    0x000010ff       0xc4 .\CortexM0\ARM_GCC_493\Debug\DMA_SPI_PSoC403.a(SPIM_ss0_m.o)
 .debug_line    0x000011c3       0x6a .\CortexM0\ARM_GCC_493\Debug\DMA_SPI_PSoC403.a(CyBootAsmGnu.o)
 .debug_line    0x0000122d      0x525 .\CortexM0\ARM_GCC_493\Debug\DMA_SPI_PSoC403.a(CyLib.o)
 .debug_line    0x00001752      0x657 .\CortexM0\ARM_GCC_493\Debug\DMA_SPI_PSoC403.a(CyDMA.o)
 .debug_line    0x00001da9      0x5de .\CortexM0\ARM_GCC_493\Debug\DMA_SPI_PSoC403.a(CyLFClk.o)
 .debug_line    0x00002387       0x96 .\CortexM0\ARM_GCC_493\Debug\DMA_SPI_PSoC403.a(SPIM_SPI_UART_INT.o)

.debug_frame    0x00000000     0x17f0
 *(.debug_frame)
 .debug_frame   0x00000000       0x2c .\CortexM0\ARM_GCC_493\Debug\main.o
 .debug_frame   0x0000002c       0xb0 .\CortexM0\ARM_GCC_493\Debug\Cm0Start.o
 .debug_frame   0x000000dc       0x9c .\CortexM0\ARM_GCC_493\Debug\DMA_SPI_PSoC403.a(cyfitter_cfg.o)
 .debug_frame   0x00000178       0x70 .\CortexM0\ARM_GCC_493\Debug\DMA_SPI_PSoC403.a(SUCCESS.o)
 .debug_frame   0x000001e8       0x70 .\CortexM0\ARM_GCC_493\Debug\DMA_SPI_PSoC403.a(ERROR.o)
 .debug_frame   0x00000258      0x104 .\CortexM0\ARM_GCC_493\Debug\DMA_SPI_PSoC403.a(SPIM.o)
 .debug_frame   0x0000035c       0xb0 .\CortexM0\ARM_GCC_493\Debug\DMA_SPI_PSoC403.a(SPIM_SPI_UART.o)
 .debug_frame   0x0000040c       0x7c .\CortexM0\ARM_GCC_493\Debug\DMA_SPI_PSoC403.a(SPIM_SPI.o)
 .debug_frame   0x00000488       0x40 .\CortexM0\ARM_GCC_493\Debug\DMA_SPI_PSoC403.a(RxDmaM.o)
 .debug_frame   0x000004c8       0x40 .\CortexM0\ARM_GCC_493\Debug\DMA_SPI_PSoC403.a(TxDmaM.o)
 .debug_frame   0x00000508       0x40 .\CortexM0\ARM_GCC_493\Debug\DMA_SPI_PSoC403.a(RxDmaS.o)
 .debug_frame   0x00000548       0x40 .\CortexM0\ARM_GCC_493\Debug\DMA_SPI_PSoC403.a(TxDmaS.o)
 .debug_frame   0x00000588      0x1f8 .\CortexM0\ARM_GCC_493\Debug\DMA_SPI_PSoC403.a(SPIS.o)
 .debug_frame   0x00000780       0x70 .\CortexM0\ARM_GCC_493\Debug\DMA_SPI_PSoC403.a(SPIM_sclk_m.o)
 .debug_frame   0x000007f0       0x70 .\CortexM0\ARM_GCC_493\Debug\DMA_SPI_PSoC403.a(SPIM_ss0_m.o)
 .debug_frame   0x00000860      0x484 .\CortexM0\ARM_GCC_493\Debug\DMA_SPI_PSoC403.a(CyLib.o)
 .debug_frame   0x00000ce4      0x538 .\CortexM0\ARM_GCC_493\Debug\DMA_SPI_PSoC403.a(CyDMA.o)
 .debug_frame   0x0000121c      0x4a8 .\CortexM0\ARM_GCC_493\Debug\DMA_SPI_PSoC403.a(CyLFClk.o)
 .debug_frame   0x000016c4       0x2c .\CortexM0\ARM_GCC_493\Debug\DMA_SPI_PSoC403.a(SPIM_SPI_UART_INT.o)
 .debug_frame   0x000016f0       0x20 c:/program files (x86)/cypress/psoc creator/3.3/psoc creator/import/gnu/arm/4.9.3/bin/../lib/gcc/arm-none-eabi/4.9.3/armv6-m\libgcc.a(_udivsi3.o)
 .debug_frame   0x00001710       0x20 c:/program files (x86)/cypress/psoc creator/3.3/psoc creator/import/gnu/arm/4.9.3/bin/../lib/gcc/arm-none-eabi/4.9.3/armv6-m\libgcc.a(_divsi3.o)
 .debug_frame   0x00001730       0x20 c:/program files (x86)/cypress/psoc creator/3.3/psoc creator/import/gnu/arm/4.9.3/bin/../lib/gcc/arm-none-eabi/4.9.3/../../../../arm-none-eabi/lib/armv6-m\libg_nano.a(lib_a-errno.o)
 .debug_frame   0x00001750       0x28 c:/program files (x86)/cypress/psoc creator/3.3/psoc creator/import/gnu/arm/4.9.3/bin/../lib/gcc/arm-none-eabi/4.9.3/../../../../arm-none-eabi/lib/armv6-m\libg_nano.a(lib_a-exit.o)
 .debug_frame   0x00001778       0x2c c:/program files (x86)/cypress/psoc creator/3.3/psoc creator/import/gnu/arm/4.9.3/bin/../lib/gcc/arm-none-eabi/4.9.3/../../../../arm-none-eabi/lib/armv6-m\libg_nano.a(lib_a-init.o)
 .debug_frame   0x000017a4       0x2c c:/program files (x86)/cypress/psoc creator/3.3/psoc creator/import/gnu/arm/4.9.3/bin/../lib/gcc/arm-none-eabi/4.9.3/../../../../arm-none-eabi/lib/armv6-m\libg_nano.a(lib_a-memcmp.o)
 .debug_frame   0x000017d0       0x20 c:/program files (x86)/cypress/psoc creator/3.3/psoc creator/import/gnu/arm/4.9.3/bin/../lib/gcc/arm-none-eabi/4.9.3/../../../../arm-none-eabi/lib/armv6-m\libg_nano.a(lib_a-memset.o)

.debug_str      0x00000000     0x221a
 *(.debug_str)
 .debug_str     0x00000000      0x333 .\CortexM0\ARM_GCC_493\Debug\main.o
                                0x377 (size before relaxing)
 .debug_str     0x00000333       0x5b .\CortexM0\ARM_GCC_493\Debug\cymetadata.o
                                0x207 (size before relaxing)
 .debug_str     0x0000038e      0x14f .\CortexM0\ARM_GCC_493\Debug\Cm0Start.o
                                0x32e (size before relaxing)
 .debug_str     0x000004dd      0x12c .\CortexM0\ARM_GCC_493\Debug\DMA_SPI_PSoC403.a(cyfitter_cfg.o)
                                0x334 (size before relaxing)
 .debug_str     0x00000609       0xb2 .\CortexM0\ARM_GCC_493\Debug\DMA_SPI_PSoC403.a(SUCCESS.o)
                                0x27d (size before relaxing)
 .debug_str     0x000006bb       0x7d .\CortexM0\ARM_GCC_493\Debug\DMA_SPI_PSoC403.a(ERROR.o)
                                0x26f (size before relaxing)
 .debug_str     0x00000738      0x163 .\CortexM0\ARM_GCC_493\Debug\DMA_SPI_PSoC403.a(SPIM.o)
                                0x33a (size before relaxing)
 .debug_str     0x0000089b       0xe9 .\CortexM0\ARM_GCC_493\Debug\DMA_SPI_PSoC403.a(SPIM_SPI_UART.o)
                                0x2fb (size before relaxing)
 .debug_str     0x00000984       0xbc .\CortexM0\ARM_GCC_493\Debug\DMA_SPI_PSoC403.a(SPIM_SPI.o)
                                0x2e2 (size before relaxing)
 .debug_str     0x00000a40      0x126 .\CortexM0\ARM_GCC_493\Debug\DMA_SPI_PSoC403.a(RxDmaM.o)
                                0x32a (size before relaxing)
 .debug_str     0x00000b66       0x67 .\CortexM0\ARM_GCC_493\Debug\DMA_SPI_PSoC403.a(TxDmaM.o)
                                0x324 (size before relaxing)
 .debug_str     0x00000bcd       0x91 .\CortexM0\ARM_GCC_493\Debug\DMA_SPI_PSoC403.a(RxDmaS.o)
                                0x32a (size before relaxing)
 .debug_str     0x00000c5e       0x91 .\CortexM0\ARM_GCC_493\Debug\DMA_SPI_PSoC403.a(TxDmaS.o)
                                0x324 (size before relaxing)
 .debug_str     0x00000cef      0x250 .\CortexM0\ARM_GCC_493\Debug\DMA_SPI_PSoC403.a(SPIS.o)
                                0x432 (size before relaxing)
 .debug_str     0x00000f3f       0xa1 .\CortexM0\ARM_GCC_493\Debug\DMA_SPI_PSoC403.a(SPIM_sclk_m.o)
                                0x299 (size before relaxing)
 .debug_str     0x00000fe0       0x9b .\CortexM0\ARM_GCC_493\Debug\DMA_SPI_PSoC403.a(SPIM_ss0_m.o)
                                0x292 (size before relaxing)
 .debug_str     0x0000107b      0x548 .\CortexM0\ARM_GCC_493\Debug\DMA_SPI_PSoC403.a(CyLib.o)
                                0x7ec (size before relaxing)
 .debug_str     0x000015c3      0x515 .\CortexM0\ARM_GCC_493\Debug\DMA_SPI_PSoC403.a(CyDMA.o)
                                0x81f (size before relaxing)
 .debug_str     0x00001ad8      0x703 .\CortexM0\ARM_GCC_493\Debug\DMA_SPI_PSoC403.a(CyLFClk.o)
                                0x965 (size before relaxing)
 .debug_str     0x000021db       0x3f .\CortexM0\ARM_GCC_493\Debug\DMA_SPI_PSoC403.a(SPIM_SPI_UART_INT.o)
                                0x209 (size before relaxing)

.debug_loc      0x00000000     0x2d56
 *(.debug_loc)
 .debug_loc     0x00000000      0x14f .\CortexM0\ARM_GCC_493\Debug\Cm0Start.o
 .debug_loc     0x0000014f      0x118 .\CortexM0\ARM_GCC_493\Debug\DMA_SPI_PSoC403.a(cyfitter_cfg.o)
 .debug_loc     0x00000267       0xa2 .\CortexM0\ARM_GCC_493\Debug\DMA_SPI_PSoC403.a(SUCCESS.o)
 .debug_loc     0x00000309       0xa2 .\CortexM0\ARM_GCC_493\Debug\DMA_SPI_PSoC403.a(ERROR.o)
 .debug_loc     0x000003ab       0x7e .\CortexM0\ARM_GCC_493\Debug\DMA_SPI_PSoC403.a(SPIM.o)
 .debug_loc     0x00000429       0x96 .\CortexM0\ARM_GCC_493\Debug\DMA_SPI_PSoC403.a(SPIM_SPI_UART.o)
 .debug_loc     0x000004bf       0xb5 .\CortexM0\ARM_GCC_493\Debug\DMA_SPI_PSoC403.a(SPIM_SPI.o)
 .debug_loc     0x00000574       0x9a .\CortexM0\ARM_GCC_493\Debug\DMA_SPI_PSoC403.a(RxDmaM.o)
 .debug_loc     0x0000060e       0x9a .\CortexM0\ARM_GCC_493\Debug\DMA_SPI_PSoC403.a(TxDmaM.o)
 .debug_loc     0x000006a8       0x9a .\CortexM0\ARM_GCC_493\Debug\DMA_SPI_PSoC403.a(RxDmaS.o)
 .debug_loc     0x00000742       0x9a .\CortexM0\ARM_GCC_493\Debug\DMA_SPI_PSoC403.a(TxDmaS.o)
 .debug_loc     0x000007dc       0xf4 .\CortexM0\ARM_GCC_493\Debug\DMA_SPI_PSoC403.a(SPIS.o)
 .debug_loc     0x000008d0       0xa2 .\CortexM0\ARM_GCC_493\Debug\DMA_SPI_PSoC403.a(SPIM_sclk_m.o)
 .debug_loc     0x00000972       0xa2 .\CortexM0\ARM_GCC_493\Debug\DMA_SPI_PSoC403.a(SPIM_ss0_m.o)
 .debug_loc     0x00000a14      0x834 .\CortexM0\ARM_GCC_493\Debug\DMA_SPI_PSoC403.a(CyLib.o)
 .debug_loc     0x00001248      0xd5a .\CortexM0\ARM_GCC_493\Debug\DMA_SPI_PSoC403.a(CyDMA.o)
 .debug_loc     0x00001fa2      0xdb4 .\CortexM0\ARM_GCC_493\Debug\DMA_SPI_PSoC403.a(CyLFClk.o)

.debug_macinfo
 *(.debug_macinfo)

.debug_ranges   0x00000000      0x820
 *(.debug_ranges)
 .debug_ranges  0x00000000       0x10 .\CortexM0\ARM_GCC_493\Debug\main.o
 .debug_ranges  0x00000010       0x38 .\CortexM0\ARM_GCC_493\Debug\Cm0Start.o
 .debug_ranges  0x00000048       0x30 .\CortexM0\ARM_GCC_493\Debug\DMA_SPI_PSoC403.a(cyfitter_cfg.o)
 .debug_ranges  0x00000078       0x38 .\CortexM0\ARM_GCC_493\Debug\DMA_SPI_PSoC403.a(SUCCESS.o)
 .debug_ranges  0x000000b0       0x38 .\CortexM0\ARM_GCC_493\Debug\DMA_SPI_PSoC403.a(ERROR.o)
 .debug_ranges  0x000000e8       0x58 .\CortexM0\ARM_GCC_493\Debug\DMA_SPI_PSoC403.a(SPIM.o)
 .debug_ranges  0x00000140       0x50 .\CortexM0\ARM_GCC_493\Debug\DMA_SPI_PSoC403.a(SPIM_SPI_UART.o)
 .debug_ranges  0x00000190       0x30 .\CortexM0\ARM_GCC_493\Debug\DMA_SPI_PSoC403.a(SPIM_SPI.o)
 .debug_ranges  0x000001c0       0x18 .\CortexM0\ARM_GCC_493\Debug\DMA_SPI_PSoC403.a(RxDmaM.o)
 .debug_ranges  0x000001d8       0x18 .\CortexM0\ARM_GCC_493\Debug\DMA_SPI_PSoC403.a(TxDmaM.o)
 .debug_ranges  0x000001f0       0x18 .\CortexM0\ARM_GCC_493\Debug\DMA_SPI_PSoC403.a(RxDmaS.o)
 .debug_ranges  0x00000208       0x18 .\CortexM0\ARM_GCC_493\Debug\DMA_SPI_PSoC403.a(TxDmaS.o)
 .debug_ranges  0x00000220       0xd0 .\CortexM0\ARM_GCC_493\Debug\DMA_SPI_PSoC403.a(SPIS.o)
 .debug_ranges  0x000002f0       0x38 .\CortexM0\ARM_GCC_493\Debug\DMA_SPI_PSoC403.a(SPIM_sclk_m.o)
 .debug_ranges  0x00000328       0x38 .\CortexM0\ARM_GCC_493\Debug\DMA_SPI_PSoC403.a(SPIM_ss0_m.o)
 .debug_ranges  0x00000360      0x1b0 .\CortexM0\ARM_GCC_493\Debug\DMA_SPI_PSoC403.a(CyLib.o)
 .debug_ranges  0x00000510      0x188 .\CortexM0\ARM_GCC_493\Debug\DMA_SPI_PSoC403.a(CyDMA.o)
 .debug_ranges  0x00000698      0x178 .\CortexM0\ARM_GCC_493\Debug\DMA_SPI_PSoC403.a(CyLFClk.o)
 .debug_ranges  0x00000810       0x10 .\CortexM0\ARM_GCC_493\Debug\DMA_SPI_PSoC403.a(SPIM_SPI_UART_INT.o)

.comment        0x00000000       0x70
 .comment       0x00000000       0x70 .\CortexM0\ARM_GCC_493\Debug\main.o
                                 0x71 (size before relaxing)
 .comment       0x00000000       0x71 .\CortexM0\ARM_GCC_493\Debug\cymetadata.o
 .comment       0x00000000       0x71 .\CortexM0\ARM_GCC_493\Debug\Cm0Start.o
 .comment       0x00000000       0x71 .\CortexM0\ARM_GCC_493\Debug\DMA_SPI_PSoC403.a(cyfitter_cfg.o)
 .comment       0x00000000       0x71 .\CortexM0\ARM_GCC_493\Debug\DMA_SPI_PSoC403.a(SUCCESS.o)
 .comment       0x00000000       0x71 .\CortexM0\ARM_GCC_493\Debug\DMA_SPI_PSoC403.a(ERROR.o)
 .comment       0x00000000       0x71 .\CortexM0\ARM_GCC_493\Debug\DMA_SPI_PSoC403.a(SPIM.o)
 .comment       0x00000000       0x71 .\CortexM0\ARM_GCC_493\Debug\DMA_SPI_PSoC403.a(SPIM_SPI_UART.o)
 .comment       0x00000000       0x71 .\CortexM0\ARM_GCC_493\Debug\DMA_SPI_PSoC403.a(SPIM_SPI.o)
 .comment       0x00000000       0x71 .\CortexM0\ARM_GCC_493\Debug\DMA_SPI_PSoC403.a(RxDmaM.o)
 .comment       0x00000000       0x71 .\CortexM0\ARM_GCC_493\Debug\DMA_SPI_PSoC403.a(TxDmaM.o)
 .comment       0x00000000       0x71 .\CortexM0\ARM_GCC_493\Debug\DMA_SPI_PSoC403.a(RxDmaS.o)
 .comment       0x00000000       0x71 .\CortexM0\ARM_GCC_493\Debug\DMA_SPI_PSoC403.a(TxDmaS.o)
 .comment       0x00000000       0x71 .\CortexM0\ARM_GCC_493\Debug\DMA_SPI_PSoC403.a(SPIS.o)
 .comment       0x00000000       0x71 .\CortexM0\ARM_GCC_493\Debug\DMA_SPI_PSoC403.a(SPIM_sclk_m.o)
 .comment       0x00000000       0x71 .\CortexM0\ARM_GCC_493\Debug\DMA_SPI_PSoC403.a(SPIM_ss0_m.o)
 .comment       0x00000000       0x71 .\CortexM0\ARM_GCC_493\Debug\DMA_SPI_PSoC403.a(CyLib.o)
 .comment       0x00000000       0x71 .\CortexM0\ARM_GCC_493\Debug\DMA_SPI_PSoC403.a(CyDMA.o)
 .comment       0x00000000       0x71 .\CortexM0\ARM_GCC_493\Debug\DMA_SPI_PSoC403.a(CyLFClk.o)
 .comment       0x00000000       0x71 .\CortexM0\ARM_GCC_493\Debug\DMA_SPI_PSoC403.a(SPIM_SPI_UART_INT.o)

.debug_weaknames
 *(.debug_weaknames)

.debug_funcnames
 *(.debug_funcnames)

.debug_typenames
 *(.debug_typenames)

.debug_varnames
 *(.debug_varnames)

.note.gnu.arm.ident
 *(.note.gnu.arm.ident)

.ARM.attributes
                0x00000000       0x28
 *(.ARM.attributes)
 .ARM.attributes
                0x00000000       0x1e c:/program files (x86)/cypress/psoc creator/3.3/psoc creator/import/gnu/arm/4.9.3/bin/../lib/gcc/arm-none-eabi/4.9.3/armv6-m/crti.o
 .ARM.attributes
                0x0000001e       0x2c c:/program files (x86)/cypress/psoc creator/3.3/psoc creator/import/gnu/arm/4.9.3/bin/../lib/gcc/arm-none-eabi/4.9.3/armv6-m/crtbegin.o
 .ARM.attributes
                0x0000004a       0x1b c:/program files (x86)/cypress/psoc creator/3.3/psoc creator/import/gnu/arm/4.9.3/bin/../lib/gcc/arm-none-eabi/4.9.3/../../../../arm-none-eabi/lib/armv6-m/crt0.o
 .ARM.attributes
                0x00000065       0x31 .\CortexM0\ARM_GCC_493\Debug\main.o
 .ARM.attributes
                0x00000096       0x31 .\CortexM0\ARM_GCC_493\Debug\cymetadata.o
 .ARM.attributes
                0x000000c7       0x31 .\CortexM0\ARM_GCC_493\Debug\Cm0Start.o
 .ARM.attributes
                0x000000f8       0x31 .\CortexM0\ARM_GCC_493\Debug\DMA_SPI_PSoC403.a(cyfitter_cfg.o)
 .ARM.attributes
                0x00000129       0x31 .\CortexM0\ARM_GCC_493\Debug\DMA_SPI_PSoC403.a(SUCCESS.o)
 .ARM.attributes
                0x0000015a       0x31 .\CortexM0\ARM_GCC_493\Debug\DMA_SPI_PSoC403.a(ERROR.o)
 .ARM.attributes
                0x0000018b       0x31 .\CortexM0\ARM_GCC_493\Debug\DMA_SPI_PSoC403.a(SPIM.o)
 .ARM.attributes
                0x000001bc       0x31 .\CortexM0\ARM_GCC_493\Debug\DMA_SPI_PSoC403.a(SPIM_SPI_UART.o)
 .ARM.attributes
                0x000001ed       0x31 .\CortexM0\ARM_GCC_493\Debug\DMA_SPI_PSoC403.a(SPIM_SPI.o)
 .ARM.attributes
                0x0000021e       0x31 .\CortexM0\ARM_GCC_493\Debug\DMA_SPI_PSoC403.a(RxDmaM.o)
 .ARM.attributes
                0x0000024f       0x31 .\CortexM0\ARM_GCC_493\Debug\DMA_SPI_PSoC403.a(TxDmaM.o)
 .ARM.attributes
                0x00000280       0x31 .\CortexM0\ARM_GCC_493\Debug\DMA_SPI_PSoC403.a(RxDmaS.o)
 .ARM.attributes
                0x000002b1       0x31 .\CortexM0\ARM_GCC_493\Debug\DMA_SPI_PSoC403.a(TxDmaS.o)
 .ARM.attributes
                0x000002e2       0x31 .\CortexM0\ARM_GCC_493\Debug\DMA_SPI_PSoC403.a(SPIS.o)
 .ARM.attributes
                0x00000313       0x31 .\CortexM0\ARM_GCC_493\Debug\DMA_SPI_PSoC403.a(SPIM_sclk_m.o)
 .ARM.attributes
                0x00000344       0x31 .\CortexM0\ARM_GCC_493\Debug\DMA_SPI_PSoC403.a(SPIM_ss0_m.o)
 .ARM.attributes
                0x00000375       0x21 .\CortexM0\ARM_GCC_493\Debug\DMA_SPI_PSoC403.a(CyBootAsmGnu.o)
 .ARM.attributes
                0x00000396       0x31 .\CortexM0\ARM_GCC_493\Debug\DMA_SPI_PSoC403.a(CyLib.o)
 .ARM.attributes
                0x000003c7       0x31 .\CortexM0\ARM_GCC_493\Debug\DMA_SPI_PSoC403.a(CyDMA.o)
 .ARM.attributes
                0x000003f8       0x31 .\CortexM0\ARM_GCC_493\Debug\DMA_SPI_PSoC403.a(CyLFClk.o)
 .ARM.attributes
                0x00000429       0x31 .\CortexM0\ARM_GCC_493\Debug\DMA_SPI_PSoC403.a(SPIM_SPI_UART_INT.o)
 .ARM.attributes
                0x0000045a       0x1e c:/program files (x86)/cypress/psoc creator/3.3/psoc creator/import/gnu/arm/4.9.3/bin/../lib/gcc/arm-none-eabi/4.9.3/armv6-m\libgcc.a(_udivsi3.o)
 .ARM.attributes
                0x00000478       0x1e c:/program files (x86)/cypress/psoc creator/3.3/psoc creator/import/gnu/arm/4.9.3/bin/../lib/gcc/arm-none-eabi/4.9.3/armv6-m\libgcc.a(_divsi3.o)
 .ARM.attributes
                0x00000496       0x1e c:/program files (x86)/cypress/psoc creator/3.3/psoc creator/import/gnu/arm/4.9.3/bin/../lib/gcc/arm-none-eabi/4.9.3/armv6-m\libgcc.a(_dvmd_tls.o)
 .ARM.attributes
                0x000004b4       0x2c c:/program files (x86)/cypress/psoc creator/3.3/psoc creator/import/gnu/arm/4.9.3/bin/../lib/gcc/arm-none-eabi/4.9.3/../../../../arm-none-eabi/lib/armv6-m\libg_nano.a(lib_a-errno.o)
 .ARM.attributes
                0x000004e0       0x2c c:/program files (x86)/cypress/psoc creator/3.3/psoc creator/import/gnu/arm/4.9.3/bin/../lib/gcc/arm-none-eabi/4.9.3/../../../../arm-none-eabi/lib/armv6-m\libg_nano.a(lib_a-exit.o)
 .ARM.attributes
                0x0000050c       0x2c c:/program files (x86)/cypress/psoc creator/3.3/psoc creator/import/gnu/arm/4.9.3/bin/../lib/gcc/arm-none-eabi/4.9.3/../../../../arm-none-eabi/lib/armv6-m\libg_nano.a(lib_a-impure.o)
 .ARM.attributes
                0x00000538       0x2c c:/program files (x86)/cypress/psoc creator/3.3/psoc creator/import/gnu/arm/4.9.3/bin/../lib/gcc/arm-none-eabi/4.9.3/../../../../arm-none-eabi/lib/armv6-m\libg_nano.a(lib_a-init.o)
 .ARM.attributes
                0x00000564       0x2c c:/program files (x86)/cypress/psoc creator/3.3/psoc creator/import/gnu/arm/4.9.3/bin/../lib/gcc/arm-none-eabi/4.9.3/../../../../arm-none-eabi/lib/armv6-m\libg_nano.a(lib_a-memcmp.o)
 .ARM.attributes
                0x00000590       0x2c c:/program files (x86)/cypress/psoc creator/3.3/psoc creator/import/gnu/arm/4.9.3/bin/../lib/gcc/arm-none-eabi/4.9.3/../../../../arm-none-eabi/lib/armv6-m\libg_nano.a(lib_a-memset.o)
 .ARM.attributes
                0x000005bc       0x2c c:/program files (x86)/cypress/psoc creator/3.3/psoc creator/import/gnu/arm/4.9.3/bin/../lib/gcc/arm-none-eabi/4.9.3/armv6-m/crtend.o
 .ARM.attributes
                0x000005e8       0x1e c:/program files (x86)/cypress/psoc creator/3.3/psoc creator/import/gnu/arm/4.9.3/bin/../lib/gcc/arm-none-eabi/4.9.3/armv6-m/crtn.o

/DISCARD/
 *(.note.GNU-stack)
OUTPUT(.\CortexM0\ARM_GCC_493\Debug\DMA_SPI_PSoC403.elf elf32-littlearm)
