ARM GAS  C:\Users\TOM~1.MCK\AppData\Local\Temp\ccwosrlF.s 			page 1


   1              		.cpu cortex-m0
   2              		.fpu softvfp
   3              		.eabi_attribute 20, 1
   4              		.eabi_attribute 21, 1
   5              		.eabi_attribute 23, 3
   6              		.eabi_attribute 24, 1
   7              		.eabi_attribute 25, 1
   8              		.eabi_attribute 26, 1
   9              		.eabi_attribute 30, 1
  10              		.eabi_attribute 34, 0
  11              		.eabi_attribute 18, 4
  12              		.code	16
  13              		.file	"MISO_S.c"
  14              		.text
  15              	.Ltext0:
  16              		.cfi_sections	.debug_frame
  17              		.section	.text.MISO_S_SetDriveMode,"ax",%progbits
  18              		.align	2
  19              		.global	MISO_S_SetDriveMode
  20              		.code	16
  21              		.thumb_func
  22              		.type	MISO_S_SetDriveMode, %function
  23              	MISO_S_SetDriveMode:
  24              	.LFB0:
  25              		.file 1 ".\\Generated_Source\\PSoC4\\MISO_S.c"
   1:.\Generated_Source\PSoC4/MISO_S.c **** /*******************************************************************************
   2:.\Generated_Source\PSoC4/MISO_S.c **** * File Name: MISO_S.c  
   3:.\Generated_Source\PSoC4/MISO_S.c **** * Version 2.20
   4:.\Generated_Source\PSoC4/MISO_S.c **** *
   5:.\Generated_Source\PSoC4/MISO_S.c **** * Description:
   6:.\Generated_Source\PSoC4/MISO_S.c **** *  This file contains API to enable firmware control of a Pins component.
   7:.\Generated_Source\PSoC4/MISO_S.c **** *
   8:.\Generated_Source\PSoC4/MISO_S.c **** ********************************************************************************
   9:.\Generated_Source\PSoC4/MISO_S.c **** * Copyright 2008-2015, Cypress Semiconductor Corporation.  All rights reserved.
  10:.\Generated_Source\PSoC4/MISO_S.c **** * You may use this file only in accordance with the license, terms, conditions, 
  11:.\Generated_Source\PSoC4/MISO_S.c **** * disclaimers, and limitations in the end user license agreement accompanying 
  12:.\Generated_Source\PSoC4/MISO_S.c **** * the software package with which this file was provided.
  13:.\Generated_Source\PSoC4/MISO_S.c **** *******************************************************************************/
  14:.\Generated_Source\PSoC4/MISO_S.c **** 
  15:.\Generated_Source\PSoC4/MISO_S.c **** #include "cytypes.h"
  16:.\Generated_Source\PSoC4/MISO_S.c **** #include "MISO_S.h"
  17:.\Generated_Source\PSoC4/MISO_S.c **** 
  18:.\Generated_Source\PSoC4/MISO_S.c **** 
  19:.\Generated_Source\PSoC4/MISO_S.c **** #if defined(MISO_S__PC)
  20:.\Generated_Source\PSoC4/MISO_S.c ****     #define MISO_S_SetP4PinDriveMode(shift, mode)  \
  21:.\Generated_Source\PSoC4/MISO_S.c ****     do { \
  22:.\Generated_Source\PSoC4/MISO_S.c ****         MISO_S_PC =   (MISO_S_PC & \
  23:.\Generated_Source\PSoC4/MISO_S.c ****                                 (uint32)(~(uint32)(MISO_S_DRIVE_MODE_IND_MASK << \
  24:.\Generated_Source\PSoC4/MISO_S.c ****                                 (MISO_S_DRIVE_MODE_BITS * (shift))))) | \
  25:.\Generated_Source\PSoC4/MISO_S.c ****                                 (uint32)((uint32)(mode) << \
  26:.\Generated_Source\PSoC4/MISO_S.c ****                                 (MISO_S_DRIVE_MODE_BITS * (shift))); \
  27:.\Generated_Source\PSoC4/MISO_S.c ****     } while (0)
  28:.\Generated_Source\PSoC4/MISO_S.c **** #else
  29:.\Generated_Source\PSoC4/MISO_S.c ****     #if (CY_PSOC4_4200L)
  30:.\Generated_Source\PSoC4/MISO_S.c ****         #define MISO_S_SetP4PinDriveMode(shift, mode)  \
  31:.\Generated_Source\PSoC4/MISO_S.c ****         do { \
  32:.\Generated_Source\PSoC4/MISO_S.c ****             MISO_S_USBIO_CTRL_REG = (MISO_S_USBIO_CTRL_REG & \
ARM GAS  C:\Users\TOM~1.MCK\AppData\Local\Temp\ccwosrlF.s 			page 2


  33:.\Generated_Source\PSoC4/MISO_S.c ****                                     (uint32)(~(uint32)(MISO_S_DRIVE_MODE_IND_MASK << \
  34:.\Generated_Source\PSoC4/MISO_S.c ****                                     (MISO_S_DRIVE_MODE_BITS * (shift))))) | \
  35:.\Generated_Source\PSoC4/MISO_S.c ****                                     (uint32)((uint32)(mode) << \
  36:.\Generated_Source\PSoC4/MISO_S.c ****                                     (MISO_S_DRIVE_MODE_BITS * (shift))); \
  37:.\Generated_Source\PSoC4/MISO_S.c ****         } while (0)
  38:.\Generated_Source\PSoC4/MISO_S.c ****     #endif
  39:.\Generated_Source\PSoC4/MISO_S.c **** #endif
  40:.\Generated_Source\PSoC4/MISO_S.c ****   
  41:.\Generated_Source\PSoC4/MISO_S.c **** 
  42:.\Generated_Source\PSoC4/MISO_S.c **** #if defined(MISO_S__PC) || (CY_PSOC4_4200L) 
  43:.\Generated_Source\PSoC4/MISO_S.c ****     /*******************************************************************************
  44:.\Generated_Source\PSoC4/MISO_S.c ****     * Function Name: MISO_S_SetDriveMode
  45:.\Generated_Source\PSoC4/MISO_S.c ****     ****************************************************************************//**
  46:.\Generated_Source\PSoC4/MISO_S.c ****     *
  47:.\Generated_Source\PSoC4/MISO_S.c ****     * \brief Sets the drive mode for each of the Pins component's pins.
  48:.\Generated_Source\PSoC4/MISO_S.c ****     * 
  49:.\Generated_Source\PSoC4/MISO_S.c ****     * <b>Note</b> This affects all pins in the Pins component instance. Use the
  50:.\Generated_Source\PSoC4/MISO_S.c ****     * Per-Pin APIs if you wish to control individual pin's drive modes.
  51:.\Generated_Source\PSoC4/MISO_S.c ****     *
  52:.\Generated_Source\PSoC4/MISO_S.c ****     * <b>Note</b> USBIOs have limited drive functionality. Refer to the Drive Mode
  53:.\Generated_Source\PSoC4/MISO_S.c ****     * parameter for more information.
  54:.\Generated_Source\PSoC4/MISO_S.c ****     *
  55:.\Generated_Source\PSoC4/MISO_S.c ****     * \param mode
  56:.\Generated_Source\PSoC4/MISO_S.c ****     *  Mode for the selected signals. Valid options are documented in 
  57:.\Generated_Source\PSoC4/MISO_S.c ****     *  \ref driveMode.
  58:.\Generated_Source\PSoC4/MISO_S.c ****     *
  59:.\Generated_Source\PSoC4/MISO_S.c ****     * \return
  60:.\Generated_Source\PSoC4/MISO_S.c ****     *  None
  61:.\Generated_Source\PSoC4/MISO_S.c ****     *
  62:.\Generated_Source\PSoC4/MISO_S.c ****     * \sideeffect
  63:.\Generated_Source\PSoC4/MISO_S.c ****     *  If you use read-modify-write operations that are not atomic, the ISR can
  64:.\Generated_Source\PSoC4/MISO_S.c ****     *  cause corruption of this function. An ISR that interrupts this function 
  65:.\Generated_Source\PSoC4/MISO_S.c ****     *  and performs writes to the Pins component Drive Mode registers can cause 
  66:.\Generated_Source\PSoC4/MISO_S.c ****     *  corrupted port data. To avoid this issue, you should either use the Per-Pin
  67:.\Generated_Source\PSoC4/MISO_S.c ****     *  APIs (primary method) or disable interrupts around this function.
  68:.\Generated_Source\PSoC4/MISO_S.c ****     *
  69:.\Generated_Source\PSoC4/MISO_S.c ****     * \funcusage
  70:.\Generated_Source\PSoC4/MISO_S.c ****     *  \snippet MISO_S_SUT.c usage_MISO_S_SetDriveMode
  71:.\Generated_Source\PSoC4/MISO_S.c ****     *******************************************************************************/
  72:.\Generated_Source\PSoC4/MISO_S.c ****     void MISO_S_SetDriveMode(uint8 mode)
  73:.\Generated_Source\PSoC4/MISO_S.c ****     {
  26              		.loc 1 73 0
  27              		.cfi_startproc
  28              	.LVL0:
  74:.\Generated_Source\PSoC4/MISO_S.c **** 		MISO_S_SetP4PinDriveMode(MISO_S__0__SHIFT, mode);
  29              		.loc 1 74 0
  30 0000 034A     		ldr	r2, .L2
  31 0002 1168     		ldr	r1, [r2]
  32 0004 034B     		ldr	r3, .L2+4
  33 0006 0B40     		and	r3, r1
  34 0008 4002     		lsl	r0, r0, #9
  35              	.LVL1:
  36 000a 1843     		orr	r0, r3
  37 000c 1060     		str	r0, [r2]
  75:.\Generated_Source\PSoC4/MISO_S.c ****     }
  38              		.loc 1 75 0
  39              		@ sp needed
ARM GAS  C:\Users\TOM~1.MCK\AppData\Local\Temp\ccwosrlF.s 			page 3


  40 000e 7047     		bx	lr
  41              	.L3:
  42              		.align	2
  43              	.L2:
  44 0010 08010440 		.word	1074004232
  45 0014 FFF1FFFF 		.word	-3585
  46              		.cfi_endproc
  47              	.LFE0:
  48              		.size	MISO_S_SetDriveMode, .-MISO_S_SetDriveMode
  49              		.section	.text.MISO_S_Write,"ax",%progbits
  50              		.align	2
  51              		.global	MISO_S_Write
  52              		.code	16
  53              		.thumb_func
  54              		.type	MISO_S_Write, %function
  55              	MISO_S_Write:
  56              	.LFB1:
  76:.\Generated_Source\PSoC4/MISO_S.c **** #endif
  77:.\Generated_Source\PSoC4/MISO_S.c **** 
  78:.\Generated_Source\PSoC4/MISO_S.c **** 
  79:.\Generated_Source\PSoC4/MISO_S.c **** /*******************************************************************************
  80:.\Generated_Source\PSoC4/MISO_S.c **** * Function Name: MISO_S_Write
  81:.\Generated_Source\PSoC4/MISO_S.c **** ****************************************************************************//**
  82:.\Generated_Source\PSoC4/MISO_S.c **** *
  83:.\Generated_Source\PSoC4/MISO_S.c **** * \brief Writes the value to the physical port (data output register), masking
  84:.\Generated_Source\PSoC4/MISO_S.c **** *  and shifting the bits appropriately. 
  85:.\Generated_Source\PSoC4/MISO_S.c **** *
  86:.\Generated_Source\PSoC4/MISO_S.c **** * The data output register controls the signal applied to the physical pin in 
  87:.\Generated_Source\PSoC4/MISO_S.c **** * conjunction with the drive mode parameter. This function avoids changing 
  88:.\Generated_Source\PSoC4/MISO_S.c **** * other bits in the port by using the appropriate method (read-modify-write or
  89:.\Generated_Source\PSoC4/MISO_S.c **** * bit banding).
  90:.\Generated_Source\PSoC4/MISO_S.c **** *
  91:.\Generated_Source\PSoC4/MISO_S.c **** * <b>Note</b> This function should not be used on a hardware digital output pin 
  92:.\Generated_Source\PSoC4/MISO_S.c **** * as it is driven by the hardware signal attached to it.
  93:.\Generated_Source\PSoC4/MISO_S.c **** *
  94:.\Generated_Source\PSoC4/MISO_S.c **** * \param value
  95:.\Generated_Source\PSoC4/MISO_S.c **** *  Value to write to the component instance.
  96:.\Generated_Source\PSoC4/MISO_S.c **** *
  97:.\Generated_Source\PSoC4/MISO_S.c **** * \return 
  98:.\Generated_Source\PSoC4/MISO_S.c **** *  None 
  99:.\Generated_Source\PSoC4/MISO_S.c **** *
 100:.\Generated_Source\PSoC4/MISO_S.c **** * \sideeffect
 101:.\Generated_Source\PSoC4/MISO_S.c **** *  If you use read-modify-write operations that are not atomic; the Interrupt 
 102:.\Generated_Source\PSoC4/MISO_S.c **** *  Service Routines (ISR) can cause corruption of this function. An ISR that 
 103:.\Generated_Source\PSoC4/MISO_S.c **** *  interrupts this function and performs writes to the Pins component data 
 104:.\Generated_Source\PSoC4/MISO_S.c **** *  register can cause corrupted port data. To avoid this issue, you should 
 105:.\Generated_Source\PSoC4/MISO_S.c **** *  either use the Per-Pin APIs (primary method) or disable interrupts around 
 106:.\Generated_Source\PSoC4/MISO_S.c **** *  this function.
 107:.\Generated_Source\PSoC4/MISO_S.c **** *
 108:.\Generated_Source\PSoC4/MISO_S.c **** * \funcusage
 109:.\Generated_Source\PSoC4/MISO_S.c **** *  \snippet MISO_S_SUT.c usage_MISO_S_Write
 110:.\Generated_Source\PSoC4/MISO_S.c **** *******************************************************************************/
 111:.\Generated_Source\PSoC4/MISO_S.c **** void MISO_S_Write(uint8 value)
 112:.\Generated_Source\PSoC4/MISO_S.c **** {
  57              		.loc 1 112 0
  58              		.cfi_startproc
  59              	.LVL2:
ARM GAS  C:\Users\TOM~1.MCK\AppData\Local\Temp\ccwosrlF.s 			page 4


 113:.\Generated_Source\PSoC4/MISO_S.c ****     uint8 drVal = (uint8)(MISO_S_DR & (uint8)(~MISO_S_MASK));
  60              		.loc 1 113 0
  61 0000 0449     		ldr	r1, .L5
  62 0002 0A68     		ldr	r2, [r1]
  63 0004 F723     		mov	r3, #247
  64 0006 1A40     		and	r2, r3
  65              	.LVL3:
 114:.\Generated_Source\PSoC4/MISO_S.c ****     drVal = (drVal | ((uint8)(value << MISO_S_SHIFT) & MISO_S_MASK));
  66              		.loc 1 114 0
  67 0008 C000     		lsl	r0, r0, #3
  68              	.LVL4:
  69 000a EF3B     		sub	r3, r3, #239
  70 000c 1840     		and	r0, r3
  71 000e 1043     		orr	r0, r2
  72              	.LVL5:
 115:.\Generated_Source\PSoC4/MISO_S.c ****     MISO_S_DR = (uint32)drVal;
  73              		.loc 1 115 0
  74 0010 0860     		str	r0, [r1]
 116:.\Generated_Source\PSoC4/MISO_S.c **** }
  75              		.loc 1 116 0
  76              		@ sp needed
  77 0012 7047     		bx	lr
  78              	.L6:
  79              		.align	2
  80              	.L5:
  81 0014 00010440 		.word	1074004224
  82              		.cfi_endproc
  83              	.LFE1:
  84              		.size	MISO_S_Write, .-MISO_S_Write
  85              		.section	.text.MISO_S_Read,"ax",%progbits
  86              		.align	2
  87              		.global	MISO_S_Read
  88              		.code	16
  89              		.thumb_func
  90              		.type	MISO_S_Read, %function
  91              	MISO_S_Read:
  92              	.LFB2:
 117:.\Generated_Source\PSoC4/MISO_S.c **** 
 118:.\Generated_Source\PSoC4/MISO_S.c **** 
 119:.\Generated_Source\PSoC4/MISO_S.c **** /*******************************************************************************
 120:.\Generated_Source\PSoC4/MISO_S.c **** * Function Name: MISO_S_Read
 121:.\Generated_Source\PSoC4/MISO_S.c **** ****************************************************************************//**
 122:.\Generated_Source\PSoC4/MISO_S.c **** *
 123:.\Generated_Source\PSoC4/MISO_S.c **** * \brief Reads the associated physical port (pin status register) and masks 
 124:.\Generated_Source\PSoC4/MISO_S.c **** *  the required bits according to the width and bit position of the component
 125:.\Generated_Source\PSoC4/MISO_S.c **** *  instance. 
 126:.\Generated_Source\PSoC4/MISO_S.c **** *
 127:.\Generated_Source\PSoC4/MISO_S.c **** * The pin's status register returns the current logic level present on the 
 128:.\Generated_Source\PSoC4/MISO_S.c **** * physical pin.
 129:.\Generated_Source\PSoC4/MISO_S.c **** *
 130:.\Generated_Source\PSoC4/MISO_S.c **** * \return 
 131:.\Generated_Source\PSoC4/MISO_S.c **** *  The current value for the pins in the component as a right justified number.
 132:.\Generated_Source\PSoC4/MISO_S.c **** *
 133:.\Generated_Source\PSoC4/MISO_S.c **** * \funcusage
 134:.\Generated_Source\PSoC4/MISO_S.c **** *  \snippet MISO_S_SUT.c usage_MISO_S_Read  
 135:.\Generated_Source\PSoC4/MISO_S.c **** *******************************************************************************/
 136:.\Generated_Source\PSoC4/MISO_S.c **** uint8 MISO_S_Read(void)
ARM GAS  C:\Users\TOM~1.MCK\AppData\Local\Temp\ccwosrlF.s 			page 5


 137:.\Generated_Source\PSoC4/MISO_S.c **** {
  93              		.loc 1 137 0
  94              		.cfi_startproc
 138:.\Generated_Source\PSoC4/MISO_S.c ****     return (uint8)((MISO_S_PS & MISO_S_MASK) >> MISO_S_SHIFT);
  95              		.loc 1 138 0
  96 0000 024B     		ldr	r3, .L8
  97 0002 1868     		ldr	r0, [r3]
  98 0004 0007     		lsl	r0, r0, #28
  99 0006 C00F     		lsr	r0, r0, #31
 139:.\Generated_Source\PSoC4/MISO_S.c **** }
 100              		.loc 1 139 0
 101              		@ sp needed
 102 0008 7047     		bx	lr
 103              	.L9:
 104 000a C046     		.align	2
 105              	.L8:
 106 000c 04010440 		.word	1074004228
 107              		.cfi_endproc
 108              	.LFE2:
 109              		.size	MISO_S_Read, .-MISO_S_Read
 110              		.section	.text.MISO_S_ReadDataReg,"ax",%progbits
 111              		.align	2
 112              		.global	MISO_S_ReadDataReg
 113              		.code	16
 114              		.thumb_func
 115              		.type	MISO_S_ReadDataReg, %function
 116              	MISO_S_ReadDataReg:
 117              	.LFB3:
 140:.\Generated_Source\PSoC4/MISO_S.c **** 
 141:.\Generated_Source\PSoC4/MISO_S.c **** 
 142:.\Generated_Source\PSoC4/MISO_S.c **** /*******************************************************************************
 143:.\Generated_Source\PSoC4/MISO_S.c **** * Function Name: MISO_S_ReadDataReg
 144:.\Generated_Source\PSoC4/MISO_S.c **** ****************************************************************************//**
 145:.\Generated_Source\PSoC4/MISO_S.c **** *
 146:.\Generated_Source\PSoC4/MISO_S.c **** * \brief Reads the associated physical port's data output register and masks 
 147:.\Generated_Source\PSoC4/MISO_S.c **** *  the correct bits according to the width and bit position of the component 
 148:.\Generated_Source\PSoC4/MISO_S.c **** *  instance. 
 149:.\Generated_Source\PSoC4/MISO_S.c **** *
 150:.\Generated_Source\PSoC4/MISO_S.c **** * The data output register controls the signal applied to the physical pin in 
 151:.\Generated_Source\PSoC4/MISO_S.c **** * conjunction with the drive mode parameter. This is not the same as the 
 152:.\Generated_Source\PSoC4/MISO_S.c **** * preferred MISO_S_Read() API because the 
 153:.\Generated_Source\PSoC4/MISO_S.c **** * MISO_S_ReadDataReg() reads the data register instead of the status 
 154:.\Generated_Source\PSoC4/MISO_S.c **** * register. For output pins this is a useful function to determine the value 
 155:.\Generated_Source\PSoC4/MISO_S.c **** * just written to the pin.
 156:.\Generated_Source\PSoC4/MISO_S.c **** *
 157:.\Generated_Source\PSoC4/MISO_S.c **** * \return 
 158:.\Generated_Source\PSoC4/MISO_S.c **** *  The current value of the data register masked and shifted into a right 
 159:.\Generated_Source\PSoC4/MISO_S.c **** *  justified number for the component instance.
 160:.\Generated_Source\PSoC4/MISO_S.c **** *
 161:.\Generated_Source\PSoC4/MISO_S.c **** * \funcusage
 162:.\Generated_Source\PSoC4/MISO_S.c **** *  \snippet MISO_S_SUT.c usage_MISO_S_ReadDataReg 
 163:.\Generated_Source\PSoC4/MISO_S.c **** *******************************************************************************/
 164:.\Generated_Source\PSoC4/MISO_S.c **** uint8 MISO_S_ReadDataReg(void)
 165:.\Generated_Source\PSoC4/MISO_S.c **** {
 118              		.loc 1 165 0
 119              		.cfi_startproc
 166:.\Generated_Source\PSoC4/MISO_S.c ****     return (uint8)((MISO_S_DR & MISO_S_MASK) >> MISO_S_SHIFT);
ARM GAS  C:\Users\TOM~1.MCK\AppData\Local\Temp\ccwosrlF.s 			page 6


 120              		.loc 1 166 0
 121 0000 024B     		ldr	r3, .L11
 122 0002 1868     		ldr	r0, [r3]
 123 0004 0007     		lsl	r0, r0, #28
 124 0006 C00F     		lsr	r0, r0, #31
 167:.\Generated_Source\PSoC4/MISO_S.c **** }
 125              		.loc 1 167 0
 126              		@ sp needed
 127 0008 7047     		bx	lr
 128              	.L12:
 129 000a C046     		.align	2
 130              	.L11:
 131 000c 00010440 		.word	1074004224
 132              		.cfi_endproc
 133              	.LFE3:
 134              		.size	MISO_S_ReadDataReg, .-MISO_S_ReadDataReg
 135              		.section	.text.MISO_S_SetInterruptMode,"ax",%progbits
 136              		.align	2
 137              		.global	MISO_S_SetInterruptMode
 138              		.code	16
 139              		.thumb_func
 140              		.type	MISO_S_SetInterruptMode, %function
 141              	MISO_S_SetInterruptMode:
 142              	.LFB4:
 168:.\Generated_Source\PSoC4/MISO_S.c **** 
 169:.\Generated_Source\PSoC4/MISO_S.c **** 
 170:.\Generated_Source\PSoC4/MISO_S.c **** /*******************************************************************************
 171:.\Generated_Source\PSoC4/MISO_S.c **** * Function Name: MISO_S_SetInterruptMode
 172:.\Generated_Source\PSoC4/MISO_S.c **** ****************************************************************************//**
 173:.\Generated_Source\PSoC4/MISO_S.c **** *
 174:.\Generated_Source\PSoC4/MISO_S.c **** * \brief Configures the interrupt mode for each of the Pins component's
 175:.\Generated_Source\PSoC4/MISO_S.c **** *  pins. Alternatively you may set the interrupt mode for all the pins
 176:.\Generated_Source\PSoC4/MISO_S.c **** *  specified in the Pins component.
 177:.\Generated_Source\PSoC4/MISO_S.c **** *
 178:.\Generated_Source\PSoC4/MISO_S.c **** *  <b>Note</b> The interrupt is port-wide and therefore any enabled pin
 179:.\Generated_Source\PSoC4/MISO_S.c **** *  interrupt may trigger it.
 180:.\Generated_Source\PSoC4/MISO_S.c **** *
 181:.\Generated_Source\PSoC4/MISO_S.c **** * \param position
 182:.\Generated_Source\PSoC4/MISO_S.c **** *  The pin position as listed in the Pins component. You may OR these to be 
 183:.\Generated_Source\PSoC4/MISO_S.c **** *  able to configure the interrupt mode of multiple pins within a Pins 
 184:.\Generated_Source\PSoC4/MISO_S.c **** *  component. Or you may use MISO_S_INTR_ALL to configure the
 185:.\Generated_Source\PSoC4/MISO_S.c **** *  interrupt mode of all the pins in the Pins component.       
 186:.\Generated_Source\PSoC4/MISO_S.c **** *  - MISO_S_0_INTR       (First pin in the list)
 187:.\Generated_Source\PSoC4/MISO_S.c **** *  - MISO_S_1_INTR       (Second pin in the list)
 188:.\Generated_Source\PSoC4/MISO_S.c **** *  - ...
 189:.\Generated_Source\PSoC4/MISO_S.c **** *  - MISO_S_INTR_ALL     (All pins in Pins component)
 190:.\Generated_Source\PSoC4/MISO_S.c **** *
 191:.\Generated_Source\PSoC4/MISO_S.c **** * \param mode
 192:.\Generated_Source\PSoC4/MISO_S.c **** *  Interrupt mode for the selected pins. Valid options are documented in
 193:.\Generated_Source\PSoC4/MISO_S.c **** *  \ref intrMode.
 194:.\Generated_Source\PSoC4/MISO_S.c **** *
 195:.\Generated_Source\PSoC4/MISO_S.c **** * \return 
 196:.\Generated_Source\PSoC4/MISO_S.c **** *  None
 197:.\Generated_Source\PSoC4/MISO_S.c **** *  
 198:.\Generated_Source\PSoC4/MISO_S.c **** * \sideeffect
 199:.\Generated_Source\PSoC4/MISO_S.c **** *  It is recommended that the interrupt be disabled before calling this 
 200:.\Generated_Source\PSoC4/MISO_S.c **** *  function to avoid unintended interrupt requests. Note that the interrupt
ARM GAS  C:\Users\TOM~1.MCK\AppData\Local\Temp\ccwosrlF.s 			page 7


 201:.\Generated_Source\PSoC4/MISO_S.c **** *  type is port wide, and therefore will trigger for any enabled pin on the 
 202:.\Generated_Source\PSoC4/MISO_S.c **** *  port.
 203:.\Generated_Source\PSoC4/MISO_S.c **** *
 204:.\Generated_Source\PSoC4/MISO_S.c **** * \funcusage
 205:.\Generated_Source\PSoC4/MISO_S.c **** *  \snippet MISO_S_SUT.c usage_MISO_S_SetInterruptMode
 206:.\Generated_Source\PSoC4/MISO_S.c **** *******************************************************************************/
 207:.\Generated_Source\PSoC4/MISO_S.c **** void MISO_S_SetInterruptMode(uint16 position, uint16 mode)
 208:.\Generated_Source\PSoC4/MISO_S.c **** {
 143              		.loc 1 208 0
 144              		.cfi_startproc
 145              	.LVL6:
 209:.\Generated_Source\PSoC4/MISO_S.c ****     uint32 intrCfg;
 210:.\Generated_Source\PSoC4/MISO_S.c ****     
 211:.\Generated_Source\PSoC4/MISO_S.c ****     intrCfg =  MISO_S_INTCFG & (uint32)(~(uint32)position);
 146              		.loc 1 211 0
 147 0000 034A     		ldr	r2, .L14
 148 0002 1368     		ldr	r3, [r2]
 149 0004 8343     		bic	r3, r0
 150              	.LVL7:
 212:.\Generated_Source\PSoC4/MISO_S.c ****     MISO_S_INTCFG = intrCfg | ((uint32)position & (uint32)mode);
 151              		.loc 1 212 0
 152 0006 0140     		and	r1, r0
 153              	.LVL8:
 154 0008 1943     		orr	r1, r3
 155 000a 1160     		str	r1, [r2]
 213:.\Generated_Source\PSoC4/MISO_S.c **** }
 156              		.loc 1 213 0
 157              		@ sp needed
 158 000c 7047     		bx	lr
 159              	.L15:
 160 000e C046     		.align	2
 161              	.L14:
 162 0010 0C010440 		.word	1074004236
 163              		.cfi_endproc
 164              	.LFE4:
 165              		.size	MISO_S_SetInterruptMode, .-MISO_S_SetInterruptMode
 166              		.section	.text.MISO_S_ClearInterrupt,"ax",%progbits
 167              		.align	2
 168              		.global	MISO_S_ClearInterrupt
 169              		.code	16
 170              		.thumb_func
 171              		.type	MISO_S_ClearInterrupt, %function
 172              	MISO_S_ClearInterrupt:
 173              	.LFB5:
 214:.\Generated_Source\PSoC4/MISO_S.c **** 
 215:.\Generated_Source\PSoC4/MISO_S.c **** 
 216:.\Generated_Source\PSoC4/MISO_S.c **** /*******************************************************************************
 217:.\Generated_Source\PSoC4/MISO_S.c **** * Function Name: MISO_S_ClearInterrupt
 218:.\Generated_Source\PSoC4/MISO_S.c **** ****************************************************************************//**
 219:.\Generated_Source\PSoC4/MISO_S.c **** *
 220:.\Generated_Source\PSoC4/MISO_S.c **** * \brief Clears any active interrupts attached with the component and returns 
 221:.\Generated_Source\PSoC4/MISO_S.c **** *  the value of the interrupt status register allowing determination of which
 222:.\Generated_Source\PSoC4/MISO_S.c **** *  pins generated an interrupt event.
 223:.\Generated_Source\PSoC4/MISO_S.c **** *
 224:.\Generated_Source\PSoC4/MISO_S.c **** * \return 
 225:.\Generated_Source\PSoC4/MISO_S.c **** *  The right-shifted current value of the interrupt status register. Each pin 
 226:.\Generated_Source\PSoC4/MISO_S.c **** *  has one bit set if it generated an interrupt event. For example, bit 0 is 
ARM GAS  C:\Users\TOM~1.MCK\AppData\Local\Temp\ccwosrlF.s 			page 8


 227:.\Generated_Source\PSoC4/MISO_S.c **** *  for pin 0 and bit 1 is for pin 1 of the Pins component.
 228:.\Generated_Source\PSoC4/MISO_S.c **** *  
 229:.\Generated_Source\PSoC4/MISO_S.c **** * \sideeffect
 230:.\Generated_Source\PSoC4/MISO_S.c **** *  Clears all bits of the physical port's interrupt status register, not just
 231:.\Generated_Source\PSoC4/MISO_S.c **** *  those associated with the Pins component.
 232:.\Generated_Source\PSoC4/MISO_S.c **** *
 233:.\Generated_Source\PSoC4/MISO_S.c **** * \funcusage
 234:.\Generated_Source\PSoC4/MISO_S.c **** *  \snippet MISO_S_SUT.c usage_MISO_S_ClearInterrupt
 235:.\Generated_Source\PSoC4/MISO_S.c **** *******************************************************************************/
 236:.\Generated_Source\PSoC4/MISO_S.c **** uint8 MISO_S_ClearInterrupt(void)
 237:.\Generated_Source\PSoC4/MISO_S.c **** {
 174              		.loc 1 237 0
 175              		.cfi_startproc
 238:.\Generated_Source\PSoC4/MISO_S.c **** 	uint8 maskedStatus = (uint8)(MISO_S_INTSTAT & MISO_S_MASK);
 176              		.loc 1 238 0
 177 0000 034A     		ldr	r2, .L17
 178 0002 1068     		ldr	r0, [r2]
 179 0004 0823     		mov	r3, #8
 180 0006 1840     		and	r0, r3
 181              	.LVL9:
 239:.\Generated_Source\PSoC4/MISO_S.c **** 	MISO_S_INTSTAT = maskedStatus;
 182              		.loc 1 239 0
 183 0008 1060     		str	r0, [r2]
 240:.\Generated_Source\PSoC4/MISO_S.c ****     return maskedStatus >> MISO_S_SHIFT;
 184              		.loc 1 240 0
 185 000a C008     		lsr	r0, r0, #3
 186              	.LVL10:
 187 000c C0B2     		uxtb	r0, r0
 241:.\Generated_Source\PSoC4/MISO_S.c **** }
 188              		.loc 1 241 0
 189              		@ sp needed
 190 000e 7047     		bx	lr
 191              	.L18:
 192              		.align	2
 193              	.L17:
 194 0010 10010440 		.word	1074004240
 195              		.cfi_endproc
 196              	.LFE5:
 197              		.size	MISO_S_ClearInterrupt, .-MISO_S_ClearInterrupt
 198              		.text
 199              	.Letext0:
 200              		.file 2 ".\\Generated_Source\\PSoC4\\cytypes.h"
